{
  "_format": "hh-sol-artifact-1",
  "contractName": "FivesGame",
  "sourceName": "contracts/FivesGame.sol",
  "abi": [
    {
      "inputs": [],
      "stateMutability": "nonpayable",
      "type": "constructor"
    },
    {
      "anonymous": false,
      "inputs": [
        {
          "indexed": true,
          "internalType": "uint256",
          "name": "gameId",
          "type": "uint256"
        },
        {
          "indexed": true,
          "internalType": "address",
          "name": "player",
          "type": "address"
        },
        {
          "indexed": true,
          "internalType": "address",
          "name": "controller",
          "type": "address"
        }
      ],
      "name": "ControllerAddressSet",
      "type": "event"
    },
    {
      "anonymous": false,
      "inputs": [
        {
          "indexed": true,
          "internalType": "uint256",
          "name": "gameId",
          "type": "uint256"
        }
      ],
      "name": "GameCancelled",
      "type": "event"
    },
    {
      "anonymous": false,
      "inputs": [
        {
          "indexed": true,
          "internalType": "uint256",
          "name": "gameId",
          "type": "uint256"
        },
        {
          "indexed": true,
          "internalType": "address",
          "name": "winner",
          "type": "address"
        },
        {
          "indexed": false,
          "internalType": "uint256",
          "name": "score",
          "type": "uint256"
        }
      ],
      "name": "GameCompleted",
      "type": "event"
    },
    {
      "anonymous": false,
      "inputs": [
        {
          "indexed": true,
          "internalType": "uint256",
          "name": "gameId",
          "type": "uint256"
        },
        {
          "indexed": true,
          "internalType": "address",
          "name": "creator",
          "type": "address"
        },
        {
          "indexed": false,
          "internalType": "uint8",
          "name": "maxPlayers",
          "type": "uint8"
        }
      ],
      "name": "GameCreated",
      "type": "event"
    },
    {
      "anonymous": false,
      "inputs": [
        {
          "indexed": true,
          "internalType": "uint256",
          "name": "gameId",
          "type": "uint256"
        }
      ],
      "name": "GameStarted",
      "type": "event"
    },
    {
      "anonymous": false,
      "inputs": [
        {
          "indexed": true,
          "internalType": "address",
          "name": "paymaster",
          "type": "address"
        }
      ],
      "name": "PaymasterAuthorized",
      "type": "event"
    },
    {
      "anonymous": false,
      "inputs": [
        {
          "indexed": true,
          "internalType": "address",
          "name": "paymaster",
          "type": "address"
        }
      ],
      "name": "PaymasterRevoked",
      "type": "event"
    },
    {
      "anonymous": false,
      "inputs": [
        {
          "indexed": true,
          "internalType": "uint256",
          "name": "gameId",
          "type": "uint256"
        },
        {
          "indexed": true,
          "internalType": "address",
          "name": "player",
          "type": "address"
        },
        {
          "indexed": false,
          "internalType": "string",
          "name": "name",
          "type": "string"
        }
      ],
      "name": "PlayerJoined",
      "type": "event"
    },
    {
      "anonymous": false,
      "inputs": [
        {
          "indexed": true,
          "internalType": "uint256",
          "name": "gameId",
          "type": "uint256"
        },
        {
          "indexed": true,
          "internalType": "address",
          "name": "player",
          "type": "address"
        },
        {
          "indexed": false,
          "internalType": "uint8",
          "name": "tilesBurned",
          "type": "uint8"
        }
      ],
      "name": "TilesBurned",
      "type": "event"
    },
    {
      "anonymous": false,
      "inputs": [
        {
          "indexed": true,
          "internalType": "uint256",
          "name": "gameId",
          "type": "uint256"
        },
        {
          "indexed": true,
          "internalType": "address",
          "name": "player",
          "type": "address"
        },
        {
          "indexed": false,
          "internalType": "uint8",
          "name": "tilesDrawn",
          "type": "uint8"
        }
      ],
      "name": "TilesDrawn",
      "type": "event"
    },
    {
      "anonymous": false,
      "inputs": [
        {
          "indexed": true,
          "internalType": "uint256",
          "name": "gameId",
          "type": "uint256"
        },
        {
          "indexed": true,
          "internalType": "address",
          "name": "currentPlayer",
          "type": "address"
        },
        {
          "indexed": false,
          "internalType": "uint8",
          "name": "playerIndex",
          "type": "uint8"
        }
      ],
      "name": "TurnChanged",
      "type": "event"
    },
    {
      "anonymous": false,
      "inputs": [
        {
          "indexed": true,
          "internalType": "uint256",
          "name": "gameId",
          "type": "uint256"
        },
        {
          "indexed": true,
          "internalType": "address",
          "name": "player",
          "type": "address"
        },
        {
          "components": [
            {
              "internalType": "uint8",
              "name": "number",
              "type": "uint8"
            },
            {
              "internalType": "int16",
              "name": "x",
              "type": "int16"
            },
            {
              "internalType": "int16",
              "name": "y",
              "type": "int16"
            }
          ],
          "indexed": false,
          "internalType": "struct FivesGame.TilePlacement[]",
          "name": "placements",
          "type": "tuple[]"
        },
        {
          "indexed": false,
          "internalType": "uint256",
          "name": "score",
          "type": "uint256"
        }
      ],
      "name": "TurnPlaced",
      "type": "event"
    },
    {
      "inputs": [],
      "name": "HAND_SIZE",
      "outputs": [
        {
          "internalType": "uint8",
          "name": "",
          "type": "uint8"
        }
      ],
      "stateMutability": "view",
      "type": "function"
    },
    {
      "inputs": [],
      "name": "MOVE_TIMEOUT",
      "outputs": [
        {
          "internalType": "uint256",
          "name": "",
          "type": "uint256"
        }
      ],
      "stateMutability": "view",
      "type": "function"
    },
    {
      "inputs": [
        {
          "internalType": "uint256",
          "name": "",
          "type": "uint256"
        }
      ],
      "name": "TILE_DISTRIBUTION",
      "outputs": [
        {
          "internalType": "uint8",
          "name": "",
          "type": "uint8"
        }
      ],
      "stateMutability": "view",
      "type": "function"
    },
    {
      "inputs": [],
      "name": "WINNING_SCORE",
      "outputs": [
        {
          "internalType": "uint256",
          "name": "",
          "type": "uint256"
        }
      ],
      "stateMutability": "view",
      "type": "function"
    },
    {
      "inputs": [
        {
          "internalType": "address",
          "name": "paymaster",
          "type": "address"
        }
      ],
      "name": "authorizePaymaster",
      "outputs": [],
      "stateMutability": "nonpayable",
      "type": "function"
    },
    {
      "inputs": [
        {
          "internalType": "address",
          "name": "",
          "type": "address"
        }
      ],
      "name": "authorizedPaymasters",
      "outputs": [
        {
          "internalType": "bool",
          "name": "",
          "type": "bool"
        }
      ],
      "stateMutability": "view",
      "type": "function"
    },
    {
      "inputs": [
        {
          "internalType": "uint256",
          "name": "gameId",
          "type": "uint256"
        }
      ],
      "name": "cancelGame",
      "outputs": [],
      "stateMutability": "nonpayable",
      "type": "function"
    },
    {
      "inputs": [
        {
          "internalType": "uint8",
          "name": "maxPlayers",
          "type": "uint8"
        },
        {
          "internalType": "bool",
          "name": "allowIslands",
          "type": "bool"
        },
        {
          "internalType": "uint256",
          "name": "winningScore",
          "type": "uint256"
        },
        {
          "internalType": "string",
          "name": "playerName",
          "type": "string"
        },
        {
          "internalType": "address",
          "name": "playerAddress",
          "type": "address"
        }
      ],
      "name": "createGame",
      "outputs": [
        {
          "internalType": "uint256",
          "name": "",
          "type": "uint256"
        }
      ],
      "stateMutability": "nonpayable",
      "type": "function"
    },
    {
      "inputs": [
        {
          "internalType": "uint256",
          "name": "",
          "type": "uint256"
        }
      ],
      "name": "games",
      "outputs": [
        {
          "internalType": "uint256",
          "name": "gameId",
          "type": "uint256"
        },
        {
          "internalType": "enum FivesGame.GameState",
          "name": "state",
          "type": "uint8"
        },
        {
          "internalType": "address",
          "name": "creator",
          "type": "address"
        },
        {
          "internalType": "uint8",
          "name": "maxPlayers",
          "type": "uint8"
        },
        {
          "internalType": "uint8",
          "name": "currentPlayerIndex",
          "type": "uint8"
        },
        {
          "internalType": "uint256",
          "name": "turnNumber",
          "type": "uint256"
        },
        {
          "internalType": "uint256",
          "name": "createdAt",
          "type": "uint256"
        },
        {
          "internalType": "uint256",
          "name": "lastMoveAt",
          "type": "uint256"
        },
        {
          "internalType": "bool",
          "name": "allowIslands",
          "type": "bool"
        },
        {
          "internalType": "uint256",
          "name": "winningScore",
          "type": "uint256"
        }
      ],
      "stateMutability": "view",
      "type": "function"
    },
    {
      "inputs": [
        {
          "internalType": "uint256",
          "name": "gameId",
          "type": "uint256"
        },
        {
          "internalType": "address",
          "name": "playerAddr",
          "type": "address"
        }
      ],
      "name": "getControllerAddress",
      "outputs": [
        {
          "internalType": "address",
          "name": "",
          "type": "address"
        }
      ],
      "stateMutability": "view",
      "type": "function"
    },
    {
      "inputs": [
        {
          "internalType": "uint256",
          "name": "gameId",
          "type": "uint256"
        }
      ],
      "name": "getGame",
      "outputs": [
        {
          "internalType": "enum FivesGame.GameState",
          "name": "state",
          "type": "uint8"
        },
        {
          "internalType": "address",
          "name": "creator",
          "type": "address"
        },
        {
          "internalType": "uint8",
          "name": "maxPlayers",
          "type": "uint8"
        },
        {
          "internalType": "uint8",
          "name": "currentPlayerIndex",
          "type": "uint8"
        },
        {
          "internalType": "uint256",
          "name": "turnNumber",
          "type": "uint256"
        },
        {
          "internalType": "uint256",
          "name": "createdAt",
          "type": "uint256"
        },
        {
          "internalType": "bool",
          "name": "allowIslands",
          "type": "bool"
        },
        {
          "internalType": "address[]",
          "name": "playerAddresses",
          "type": "address[]"
        },
        {
          "internalType": "uint256[]",
          "name": "playerScores",
          "type": "uint256[]"
        },
        {
          "internalType": "uint256",
          "name": "tilesRemaining",
          "type": "uint256"
        },
        {
          "internalType": "uint256",
          "name": "winningScore",
          "type": "uint256"
        }
      ],
      "stateMutability": "view",
      "type": "function"
    },
    {
      "inputs": [
        {
          "internalType": "uint256",
          "name": "gameId",
          "type": "uint256"
        }
      ],
      "name": "getPlacedTiles",
      "outputs": [
        {
          "internalType": "int16[]",
          "name": "xPositions",
          "type": "int16[]"
        },
        {
          "internalType": "int16[]",
          "name": "yPositions",
          "type": "int16[]"
        },
        {
          "internalType": "uint8[]",
          "name": "numbers",
          "type": "uint8[]"
        },
        {
          "internalType": "uint256[]",
          "name": "turnNumbers",
          "type": "uint256[]"
        }
      ],
      "stateMutability": "view",
      "type": "function"
    },
    {
      "inputs": [
        {
          "internalType": "uint256",
          "name": "gameId",
          "type": "uint256"
        },
        {
          "internalType": "address",
          "name": "playerAddr",
          "type": "address"
        }
      ],
      "name": "getPlayer",
      "outputs": [
        {
          "internalType": "string",
          "name": "name",
          "type": "string"
        },
        {
          "internalType": "uint256",
          "name": "score",
          "type": "uint256"
        },
        {
          "internalType": "uint8[]",
          "name": "hand",
          "type": "uint8[]"
        },
        {
          "internalType": "bool",
          "name": "hasJoined",
          "type": "bool"
        },
        {
          "internalType": "uint256",
          "name": "lastMoveTime",
          "type": "uint256"
        }
      ],
      "stateMutability": "view",
      "type": "function"
    },
    {
      "inputs": [
        {
          "internalType": "address",
          "name": "player",
          "type": "address"
        }
      ],
      "name": "getPlayerGames",
      "outputs": [
        {
          "internalType": "uint256[]",
          "name": "",
          "type": "uint256[]"
        }
      ],
      "stateMutability": "view",
      "type": "function"
    },
    {
      "inputs": [
        {
          "internalType": "uint256",
          "name": "gameId",
          "type": "uint256"
        },
        {
          "internalType": "address",
          "name": "playerAddr",
          "type": "address"
        }
      ],
      "name": "getPlayerTilePool",
      "outputs": [
        {
          "internalType": "uint8[10]",
          "name": "remainingCounts",
          "type": "uint8[10]"
        }
      ],
      "stateMutability": "view",
      "type": "function"
    },
    {
      "inputs": [
        {
          "internalType": "uint256",
          "name": "gameId",
          "type": "uint256"
        },
        {
          "internalType": "address",
          "name": "playerAddr",
          "type": "address"
        }
      ],
      "name": "getPlayerWithController",
      "outputs": [
        {
          "internalType": "string",
          "name": "name",
          "type": "string"
        },
        {
          "internalType": "uint256",
          "name": "score",
          "type": "uint256"
        },
        {
          "internalType": "uint8[]",
          "name": "hand",
          "type": "uint8[]"
        },
        {
          "internalType": "bool",
          "name": "hasJoined",
          "type": "bool"
        },
        {
          "internalType": "uint256",
          "name": "lastMoveTime",
          "type": "uint256"
        },
        {
          "internalType": "address",
          "name": "controllerAddress",
          "type": "address"
        }
      ],
      "stateMutability": "view",
      "type": "function"
    },
    {
      "inputs": [
        {
          "internalType": "uint256",
          "name": "gameId",
          "type": "uint256"
        },
        {
          "internalType": "int16",
          "name": "x",
          "type": "int16"
        },
        {
          "internalType": "int16",
          "name": "y",
          "type": "int16"
        }
      ],
      "name": "getTileAt",
      "outputs": [
        {
          "internalType": "bool",
          "name": "exists",
          "type": "bool"
        },
        {
          "internalType": "uint8",
          "name": "number",
          "type": "uint8"
        },
        {
          "internalType": "uint256",
          "name": "turnPlaced",
          "type": "uint256"
        }
      ],
      "stateMutability": "view",
      "type": "function"
    },
    {
      "inputs": [
        {
          "internalType": "uint256",
          "name": "gameId",
          "type": "uint256"
        }
      ],
      "name": "getTilePoolStatus",
      "outputs": [
        {
          "internalType": "uint8[10]",
          "name": "remainingCounts",
          "type": "uint8[10]"
        }
      ],
      "stateMutability": "view",
      "type": "function"
    },
    {
      "inputs": [
        {
          "internalType": "address",
          "name": "paymaster",
          "type": "address"
        }
      ],
      "name": "isAuthorizedPaymaster",
      "outputs": [
        {
          "internalType": "bool",
          "name": "",
          "type": "bool"
        }
      ],
      "stateMutability": "view",
      "type": "function"
    },
    {
      "inputs": [
        {
          "internalType": "uint256",
          "name": "gameId",
          "type": "uint256"
        },
        {
          "internalType": "string",
          "name": "playerName",
          "type": "string"
        },
        {
          "internalType": "address",
          "name": "playerAddress",
          "type": "address"
        }
      ],
      "name": "joinGame",
      "outputs": [],
      "stateMutability": "nonpayable",
      "type": "function"
    },
    {
      "inputs": [],
      "name": "nextGameId",
      "outputs": [
        {
          "internalType": "uint256",
          "name": "",
          "type": "uint256"
        }
      ],
      "stateMutability": "view",
      "type": "function"
    },
    {
      "inputs": [],
      "name": "owner",
      "outputs": [
        {
          "internalType": "address",
          "name": "",
          "type": "address"
        }
      ],
      "stateMutability": "view",
      "type": "function"
    },
    {
      "inputs": [
        {
          "internalType": "uint256",
          "name": "gameId",
          "type": "uint256"
        },
        {
          "components": [
            {
              "internalType": "uint8",
              "name": "number",
              "type": "uint8"
            },
            {
              "internalType": "int16",
              "name": "x",
              "type": "int16"
            },
            {
              "internalType": "int16",
              "name": "y",
              "type": "int16"
            }
          ],
          "internalType": "struct FivesGame.TilePlacement[]",
          "name": "placements",
          "type": "tuple[]"
        }
      ],
      "name": "playTurn",
      "outputs": [],
      "stateMutability": "nonpayable",
      "type": "function"
    },
    {
      "inputs": [
        {
          "internalType": "address",
          "name": "",
          "type": "address"
        },
        {
          "internalType": "uint256",
          "name": "",
          "type": "uint256"
        }
      ],
      "name": "playerGames",
      "outputs": [
        {
          "internalType": "uint256",
          "name": "",
          "type": "uint256"
        }
      ],
      "stateMutability": "view",
      "type": "function"
    },
    {
      "inputs": [
        {
          "internalType": "address",
          "name": "paymaster",
          "type": "address"
        }
      ],
      "name": "revokePaymaster",
      "outputs": [],
      "stateMutability": "nonpayable",
      "type": "function"
    },
    {
      "inputs": [
        {
          "internalType": "uint256",
          "name": "gameId",
          "type": "uint256"
        }
      ],
      "name": "skipTurn",
      "outputs": [],
      "stateMutability": "nonpayable",
      "type": "function"
    },
    {
      "inputs": [
        {
          "internalType": "uint256",
          "name": "gameId",
          "type": "uint256"
        }
      ],
      "name": "startGame",
      "outputs": [],
      "stateMutability": "nonpayable",
      "type": "function"
    }
  ],
  "bytecode": "0x6101c06040526005608081815260a082905260c082905260e08290526101008290526101208290526101408290526101608290526101808290526101a0919091526200005090600090600a62000150565b5060016003553480156200006357600080fd5b50600580546001600160a01b0319163317905560046020527f942419b7a1b15747cddf8cbd3c585313c651f23449b81c30341c5c61a23d2fba805460ff199081166001908117909255730576a174d229e3cfa37253523e645a78a0c91b5760009081527fc376be833e850ac707d8ac61ed5b19090a1e682a3d5a2245deb88154522004b880549092169092179055604051735ff137d4b0fdcd49dca30c7cf57e578a026d27899160008051602062004b8483398151915291a2604051730576a174d229e3cfa37253523e645a78a0c91b579060008051602062004b8483398151915290600090a262000201565b600183019183908215620001d85791602002820160005b83821115620001a757835183826101000a81548160ff021916908360ff160217905550926020019260010160208160000104928301926001030262000167565b8015620001d65782816101000a81549060ff0219169055600101602081600001049283019260010302620001a7565b505b50620001e6929150620001ea565b5090565b5b80821115620001e65760008155600101620001eb565b61497380620002116000396000f3fe608060405234801561001057600080fd5b50600436106101a95760003560e01c80636a07dc12116100f9578063ce371cbd11610097578063e3087fec11610071578063e3087fec146104b4578063e5ed1d59146104bd578063e6ba69d8146104d0578063ed570e7d146104d857600080fd5b8063ce371cbd14610469578063d4698e5b1461047c578063dc2d38a5146104a157600080fd5b8063847b6bcd116100d3578063847b6bcd146103e75780638da5cb5b14610423578063a2f77bcc14610436578063b135bbb01461046057600080fd5b80636a07dc121461038657806376d4293c146103905780637c595664146103c257600080fd5b8063395affe6116101665780634aced11e116101405780634aced11e14610329578063641967141461033c5780636454e58d1461034f57806369958ab91461037357600080fd5b8063395affe6146102c85780634370048a146102db57806349a70be61461030657600080fd5b8063084ba9b8146101ae5780630a5694c2146101c3578063117a5b90146101e9578063129daf841461027557806316e07d9014610295578063249123d3146102a8575b600080fd5b6101c16101bc366004613e93565b6104fb565b005b6101d66101d1366004613f9f565b610ad2565b6040519081526020015b60405180910390f35b61025f6101f7366004613fc9565b6001602081905260009182526040909120805491810154600282015460038301546004840154600585015460069095015460ff8086169661010087046001600160a01b031696600160a81b8104831696600160b01b909104831695909490939092909116908a565b6040516101e09a9998979695949392919061401a565b61028861028336600461407b565b610b03565b6040516101e091906140d1565b6101d66102a3366004614154565b610b6f565b6102bb6102b6366004613fc9565b610e22565b6040516101e091906141d4565b6101c16102d636600461407b565b610f3f565b6102ee6102e9366004614200565b610fe2565b6040516001600160a01b0390911681526020016101e0565b610319610314366004613fc9565b611043565b6040516101e09493929190614292565b6102bb610337366004614200565b6112ba565b6101c161034a36600461407b565b61139a565b61036261035d366004614200565b61144c565b6040516101e0959493929190614330565b6101c1610381366004613fc9565b6115e1565b6101d66201518081565b6103a361039e366004614370565b611745565b60408051931515845260ff9092166020840152908201526060016101e0565b6103d56103d0366004614200565b6117e6565b6040516101e0969594939291906143ac565b6104136103f536600461407b565b6001600160a01b031660009081526004602052604090205460ff1690565b60405190151581526020016101e0565b6005546102ee906001600160a01b031681565b610449610444366004613fc9565b611985565b6040516101e09b9a999897969594939291906143ff565b6101d660035481565b6101c1610477366004613fc9565b611beb565b61048f61048a366004613fc9565b611e0c565b60405160ff90911681526020016101e0565b6101c16104af3660046144b9565b611e36565b6101d66103e881565b6101c16104cb366004613fc9565b612113565b61048f600581565b6104136104e636600461407b565b60046020526000908152604090205460ff1681565b8160008111801561050d575060035481105b6105325760405162461bcd60e51b815260040161052990614507565b60405180910390fd5b826001806000838152600160208190526040909120015460ff16600381111561055d5761055d613fe2565b1461057a5760405162461bcd60e51b815260040161052990614534565b8461058581336122e0565b6105a15760405162461bcd60e51b81526004016105299061456b565b856105ac81336123be565b6105f85760405162461bcd60e51b815260206004820152601f60248201527f4e6f7420796f7572207475726e206f72206e6f7420617574686f72697a6564006044820152606401610529565b60008651116106495760405162461bcd60e51b815260206004820152601c60248201527f4d75737420706c616365206174206c65617374206f6e652074696c65000000006044820152606401610529565b600a8651111561069b5760405162461bcd60e51b815260206004820152601a60248201527f546f6f206d616e792074696c657320696e206f6e65207475726e0000000000006044820152606401610529565b6000878152600160205260408120906106b48933612462565b90506001600160a01b0381166107075760405162461bcd60e51b8152602060048201526018602482015277141b185e595c881859191c995cdcc81b9bdd08199bdd5b9960421b6044820152606401610529565b6001600160a01b03811660009081526007830160205260408120905b895181101561081157610753828b8381518110610742576107426145af565b602002602001015160000151612530565b6107965760405162461bcd60e51b8152602060048201526014602482015273446f6e2774206861766520746869732074696c6560601b6044820152606401610529565b6107ba8b8b83815181106107ac576107ac6145af565b60200260200101518c6125a4565b6107ff5760405162461bcd60e51b8152602060048201526016602482015275125b9d985b1a59081d1a5b19481c1b1858d95b595b9d60521b6044820152606401610529565b80610809816145db565b915050610723565b5060005b89518110156109c05760008a8281518110610832576108326145af565b6020026020010151905060008160200151826040015160405160200161086892919060f092831b8152911b600282015260040190565b6040516020818303038152906040528051906020012090506040518060a00160405280836000015160ff168152602001836020015160010b8152602001836040015160010b8152602001600115158152602001876002015481525086600901600083815260200190815260200160002060008201518160000160006101000a81548160ff021916908360ff16021790555060208201518160000160016101000a81548161ffff021916908360010b61ffff16021790555060408201518160000160036101000a81548161ffff021916908360010b61ffff16021790555060608201518160000160056101000a81548160ff0219169083151502179055506080820151816001015590505085600a018190806001815401808255809150506001900390600052602060002001600090919091909150556109ab848360000151612869565b505080806109b8906145db565b915050610815565b5060006109cd8b8b612990565b9050808260020160008282546109e391906145f4565b90915550504260078301556040516001600160a01b038416908c907f2f138c198af21768b3e95851fcf98d667c620ea08ba24c8afcead9165293c39d90610a2d908e908690614607565b60405180910390a3610a3f8b84612a37565b60038201541580610a5857508360060154826002015410155b15610abb5760018401805460ff191660029081179091558201546040519081526001600160a01b038416908c907ff6ae188cc6336ef5ad970d3c81cda5814b4c4902540924c6924debe94ece13eb9060200160405180910390a350505050610ac9565b610ac48b612bc8565b505050505b50505050505050565b60026020528160005260406000208181548110610aee57600080fd5b90600052602060002001600091509150505481565b6001600160a01b038116600090815260026020908152604091829020805483518184028101840190945280845260609392830182828015610b6357602002820191906000526020600020905b815481526020019060010190808311610b4f575b50505050509050919050565b600081336001600160a01b0382161480610b9857503360009081526004602052604090205460ff165b610bb45760405162461bcd60e51b815260040161052990614670565b60018760ff1610158015610bcc575060048760ff1611155b610c0f5760405162461bcd60e51b8152602060048201526014602482015273125b9d985b1a59081c1b185e595c8818dbdd5b9d60621b6044820152606401610529565b60328510158015610c22575061c3508511155b610c665760405162461bcd60e51b8152602060048201526015602482015274496e76616c69642077696e6e696e672073636f726560581b6044820152606401610529565b6000845111610cae5760405162461bcd60e51b8152602060048201526014602482015273141b185e595c881b985b59481c995c5d5a5c995960621b6044820152606401610529565b6001600160a01b038316610cfe5760405162461bcd60e51b8152602060048201526017602482015276141b185e595c881859191c995cdcc81c995c5d5a5c9959604a1b6044820152606401610529565b6003805460009182610d0f836145db565b90915550600081815260016020819052604090912082815580820180546001600160b01b0319166101006001600160a01b038a160260ff60a81b191617600160a81b60ff8e16021760ff60b01b1916905560028101919091554260038201819055600482015560058101805460ff19168a151517905560068101889055909150610d9b82868833612cd3565b60405160ff8a1681526001600160a01b0386169083907fdd0abcdffc76581d11646898ee4d7f269ca1e0c0b622d072d343100dad83ecb19060200160405180910390a360405133906001600160a01b0387169084907f7b3a760c30253f821753db1585a75597a544cefacc48578d858af5abf49e447190600090a450979650505050505050565b610e2a613cf9565b81600081118015610e3c575060035481105b610e585760405162461bcd60e51b815260040161052990614507565b60008381526001602081905260408220908101546008820180549293929091600160b01b900460ff16908110610e9057610e906145af565b60009182526020808320909101546001600160a01b03168083526007850190915260408220909250905b6004820154811015610f345785826004018281548110610edc57610edc6145af565b60009182526020918290209181049091015460ff601f9092166101000a900416600a8110610f0c57610f0c6145af565b60200201805190610f1c826146cd565b60ff1690525080610f2c816145db565b915050610eba565b505050505b50919050565b6005546001600160a01b03163314610f995760405162461bcd60e51b815260206004820181905260248201527f4f6e6c79206f776e65722063616e207265766f6b65207061796d6173746572736044820152606401610529565b6001600160a01b038116600081815260046020526040808220805460ff19169055517f32a64ce2799072eadcdbdcd513af610b7c1d09f6d6f757c5b8379f7e34b9d3059190a250565b600082600081118015610ff6575060035481105b6110125760405162461bcd60e51b815260040161052990614507565b505060009182526001602090815260408084206001600160a01b039384168552600701909152909120600801541690565b6060806060808460008111801561105b575060035481105b6110775760405162461bcd60e51b815260040161052990614507565b6000868152600160205260409020600a8101548067ffffffffffffffff8111156110a3576110a3613dfb565b6040519080825280602002602001820160405280156110cc578160200160208202803683370190505b5096508067ffffffffffffffff8111156110e8576110e8613dfb565b604051908082528060200260200182016040528015611111578160200160208202803683370190505b5095508067ffffffffffffffff81111561112d5761112d613dfb565b604051908082528060200260200182016040528015611156578160200160208202803683370190505b5094508067ffffffffffffffff81111561117257611172613dfb565b60405190808252806020026020018201604052801561119b578160200160208202803683370190505b50935060005b818110156112af57600083600a0182815481106111c0576111c06145af565b600091825260208083209091015480835260098701909152604090912080548b51929350909161010090910460010b908b9085908110611202576112026145af565b600192830b602091820292909201015281548a51630100000090910490910b908a9085908110611234576112346145af565b60019290920b602092830291909101909101528054885160ff90911690899085908110611263576112636145af565b602002602001019060ff16908160ff1681525050806001015487848151811061128e5761128e6145af565b602002602001018181525050505080806112a7906145db565b9150506111a1565b505050509193509193565b6112c2613cf9565b826000811180156112d4575060035481105b6112f05760405162461bcd60e51b815260040161052990614507565b60008481526001602090815260408083206001600160a01b03871684526007019091528120905b60048201548110156113915783826004018281548110611339576113396145af565b60009182526020918290209181049091015460ff601f9092166101000a900416600a8110611369576113696145af565b60200201805190611379826146cd565b60ff1690525080611389816145db565b915050611317565b50505092915050565b6005546001600160a01b031633146114005760405162461bcd60e51b815260206004820152602360248201527f4f6e6c79206f776e65722063616e20617574686f72697a65207061796d61737460448201526265727360e81b6064820152608401610529565b6001600160a01b038116600081815260046020526040808220805460ff19166001179055517f5987a74a23bb850534474148567553b8832158294e44a814aafe820ec123f5769190a250565b60606000606060008086600081118015611467575060035481105b6114835760405162461bcd60e51b815260040161052990614507565b60008881526001602081815260408084206001600160a01b038c168552600790810190925290922060028101546006820154938201549282018054929490939192600386019260ff909216919085906114db906146ec565b80601f0160208091040260200160405190810160405280929190818152602001828054611507906146ec565b80156115545780601f1061152957610100808354040283529160200191611554565b820191906000526020600020905b81548152906001019060200180831161153757829003601f168201915b50505050509450828054806020026020016040519081016040528092919081815260200182805480156115c457602002820191906000526020600020906000905b825461010083900a900460ff168152602060019283018181049485019490930390920291018084116115955790505b505050505092509650965096509650965050509295509295909350565b806000811180156115f3575060035481105b61160f5760405162461bcd60e51b815260040161052990614507565b600082815260016020819052604082209081015490919061010090046001600160a01b03163314806116695750600182015461010090046001600160a01b0390811660009081526007840160205260409020600801541633145b8061168357503360009081526004602052604090205460ff165b806116c157506000600183015460ff1660038111156116a4576116a4613fe2565b1480156116c1575060038201546116be90620151806145f4565b42115b9050806117055760405162461bcd60e51b815260206004820152601260248201527143616e6e6f742063616e63656c2067616d6560701b6044820152606401610529565b60018201805460ff1916600317905560405184907f681705fdbd93dba3b679fd712577e9a86d57c5551c520f8c74857deb57f9623f90600090a250505050565b60008060008560008111801561175c575060035481105b6117785760405162461bcd60e51b815260040161052990614507565b60405160f087811b602083015286901b602282015260009060240160408051601f19818403018152918152815160209283012060009a8b526001808452828c20918c526009909101909252909820805498015460ff600160281b8a0481169a99169890975095505050505050565b606060006060600080600087600081118015611803575060035481105b61181f5760405162461bcd60e51b815260040161052990614507565b60008981526001602081815260408084206001600160a01b03808e16865260079182019093529320600281015460068201549482015460088301549483018054939690959294600388019460ff909216931690869061187d906146ec565b80601f01602080910402602001604051908101604052809291908181526020018280546118a9906146ec565b80156118f65780601f106118cb576101008083540402835291602001916118f6565b820191906000526020600020905b8154815290600101906020018083116118d957829003601f168201915b505050505095508380548060200260200160405190810160405280929190818152602001828054801561196657602002820191906000526020600020906000905b825461010083900a900460ff168152602060019283018181049485019490930390920291018084116119375790505b5050505050935097509750975097509750975050509295509295509295565b60008060008060008060006060806000808b6000811180156119a8575060035481105b6119c45760405162461bcd60e51b815260040161052990614507565b60008d8152600160205260408120600881015490919067ffffffffffffffff8111156119f2576119f2613dfb565b604051908082528060200260200182016040528015611a1b578160200160208202803683370190505b50905060005b6008830154811015611aa157826007016000846008018381548110611a4857611a486145af565b60009182526020808320909101546001600160a01b031683528201929092526040019020600201548251839083908110611a8457611a846145af565b602090810291909101015280611a99816145db565b915050611a21565b506000805b6008840154811015611b1357836007016000856008018381548110611acd57611acd6145af565b60009182526020808320909101546001600160a01b03168352820192909252604001902060040154611aff90836145f4565b915080611b0b816145db565b915050611aa6565b50600183015460028401546003850154600586015460068701546008880180546040805160208084028201810190925282815260ff808a16996001600160a01b0361010082041699600160a81b8204831699600160b01b9092048316989097919692169491938d938d939091869190830182828015611bbb57602002820191906000526020600020905b81546001600160a01b03168152600190910190602001808311611b9d575b505050505093509e509e509e509e509e509e509e509e509e509e509e505050505091939597999b90929496989a50565b80600081118015611bfd575060035481105b611c195760405162461bcd60e51b815260040161052990614507565b816001806000838152600160208190526040909120015460ff166003811115611c4457611c44613fe2565b14611c615760405162461bcd60e51b815260040161052990614534565b83611c6c81336122e0565b611c885760405162461bcd60e51b81526004016105299061456b565b84611c9381336123be565b611cdf5760405162461bcd60e51b815260206004820152601f60248201527f4e6f7420796f7572207475726e206f72206e6f7420617574686f72697a6564006044820152606401610529565b600086815260016020526040812090611cf88833612462565b90506001600160a01b038116611d4b5760405162461bcd60e51b8152602060048201526018602482015277141b185e595c881859191c995cdcc81b9bdd08199bdd5b9960421b6044820152606401610529565b6001600160a01b038116600090815260078084016020526040822042918101919091556003810180549192611d809190613d18565b6040805160008152602081019182905251611d9f916003850191613d40565b50611daa8a84612a37565b60ff811615611df75760405160ff821681526001600160a01b038416908b907fd602720a71aa8a8d66bbda00437e1120c699f42a52f75755af71ceab366feed69060200160405180910390a35b611e008a612bc8565b50505050505050505050565b600081600a8110611e1c57600080fd5b60209182820401919006915054906101000a900460ff1681565b80336001600160a01b0382161480611e5d57503360009081526004602052604090205460ff165b611e795760405162461bcd60e51b815260040161052990614670565b83600081118015611e8b575060035481105b611ea75760405162461bcd60e51b815260040161052990614507565b846000806000838152600160208190526040909120015460ff166003811115611ed257611ed2613fe2565b14611eef5760405162461bcd60e51b815260040161052990614534565b60008781526001602090815260408083206001600160a01b0389168452600781019092529091206006015460ff1615611f765760405162461bcd60e51b815260206004820152602360248201527f506c61796572206164647265737320616c726561647920696e20746869732067604482015262616d6560e81b6064820152608401610529565b60018101546008820154600160a81b90910460ff1611611fc75760405162461bcd60e51b815260206004820152600c60248201526b11d85b59481a5cc8199d5b1b60a21b6044820152606401610529565b600087511161200f5760405162461bcd60e51b8152602060048201526014602482015273141b185e595c881b985b59481c995c5d5a5c995960621b6044820152606401610529565b6001600160a01b03861661205f5760405162461bcd60e51b8152602060048201526017602482015276141b185e595c881859191c995cdcc81c995c5d5a5c9959604a1b6044820152606401610529565b61206b88878933612cd3565b856001600160a01b0316887fa259bab503f65f6ae62d4f6a412b41b967799a284f69f21ba61362cf04e5eafa896040516120a59190614720565b60405180910390a360405133906001600160a01b038816908a907f7b3a760c30253f821753db1585a75597a544cefacc48578d858af5abf49e447190600090a460018101546008820154600160a81b90910460ff1690036121095761210988612e64565b5050505050505050565b80600081118015612125575060035481105b6121415760405162461bcd60e51b815260040161052990614507565b816000806000838152600160208190526040909120015460ff16600381111561216c5761216c613fe2565b146121895760405162461bcd60e51b815260040161052990614534565b600084815260016020819052604082209081015490919061010090046001600160a01b03163314806121e35750600182015461010090046001600160a01b0390811660009081526007840160205260409020600801541633145b806121fd57503360009081526004602052604090205460ff165b9050806122815760405162461bcd60e51b815260206004820152604660248201527f4f6e6c792063726561746f722c20746865697220636f6e74726f6c6c65722c2060448201527f6f7220617574686f72697a6564207061796d61737465722063616e2073746172606482015265742067616d6560d01b608482015260a401610529565b6008820154600111156122cf5760405162461bcd60e51b81526020600482015260166024820152752732b2b21030ba103632b0b9ba101890383630bcb2b960511b6044820152606401610529565b6122d886612e64565b505050505050565b60008281526001602090815260408083206001600160a01b03851684526007810190925282206006015460ff161561231c5760019150506123b8565b60005b60088201548110156123b1576000826008018281548110612342576123426145af565b60009182526020808320909101546001600160a01b0390811680845260078701909252604090922060088101549193509190811690871614801561238a5750600681015460ff165b1561239c5760019450505050506123b8565b505080806123a9906145db565b91505061231f565b5060009150505b92915050565b60008281526001602081905260408220908101546008820180548492600160b01b900460ff169081106123f3576123f36145af565b60009182526020808320909101546001600160a01b03908116808452600786019092526040909220909250908516820361243357600193505050506123b8565b60088101546001600160a01b0380871691160361245657600193505050506123b8565b50600095945050505050565b60008281526001602090815260408083206001600160a01b03851684526007810190925282206006015460ff161561249d57829150506123b8565b60005b60088201548110156123b15760008260080182815481106124c3576124c36145af565b60009182526020808320909101546001600160a01b0390811680845260078701909252604090922060088101549193509190811690871614801561250b5750600681015460ff165b1561251b575092506123b8915050565b50508080612528906145db565b9150506124a0565b6000805b600384015481101561259a578260ff16846003018281548110612559576125596145af565b60009182526020918290209181049091015460ff601f9092166101000a900416036125885760019150506123b8565b80612592816145db565b915050612534565b5060009392505050565b600083815260016020908152604080832085830151868301519251919385936125de9390910160f092831b8152911b600282015260040190565b60408051808303601f190181529181528151602092830120600081815260098601909352912054909150600160281b900460ff161561262257600092505050612862565b6000805b85518110156126b057866020015160010b868281518110612649576126496145af565b60200260200101516020015160010b14801561268b5750866040015160010b86828151811061267a5761267a6145af565b60200260200101516040015160010b145b1561269e578161269a816146cd565b9250505b806126a8816145db565b915050612626565b5060018160ff1611156126c95760009350505050612862565b600a8301546000036127f6576000805b86518110156127cd57600060078883815181106126f8576126f86145af565b60200260200101516020015161270e9190614733565b905060006007898481518110612726576127266145af565b60200260200101516040015161273c9190614733565b90508160010b600014801561275457508060010b6000145b8061277e57508160010b600014801561277e57508060010b6001148061277e57508060010b600019145b806127a857508060010b60001480156127a857508160010b600114806127a857508160010b600019145b156127b8576001935050506127cd565b505080806127c5906145db565b9150506126d9565b50806127e0576000945050505050612862565b6127eb878786612f0c565b945050505050612862565b600583015460ff1661282457600061280e8887613002565b905080612822576000945050505050612862565b505b61282f868685612f0c565b61283f5760009350505050612862565b61284a878787613082565b61285a5760009350505050612862565b600193505050505b9392505050565b60005b600383015481101561298b578160ff16836003018281548110612891576128916145af565b60009182526020918290209181049091015460ff601f9092166101000a90041603612979576003830180546128c890600190614756565b815481106128d8576128d86145af565b90600052602060002090602091828204019190069054906101000a900460ff1683600301828154811061290d5761290d6145af565b90600052602060002090602091828204019190066101000a81548160ff021916908360ff1602179055508260030180548061294a5761294a614769565b60019003818190600052602060002090602091828204019190066101000a81549060ff02191690559055505050565b80612983816145db565b91505061286c565b505050565b600080805b8351811015612a2f5760008482815181106129b2576129b26145af565b602002602001015190506129cb868260016000896130c4565b156129ec576129df8682600160008961323b565b6129e990846145f4565b92505b6129fb8682600060018961343a565b15612a1c57612a0f8682600060018961323b565b612a1990846145f4565b92505b5080612a27816145db565b915050612995565b509392505050565b60008281526001602090815260408083206001600160a01b038516845260078101909252822060038101549192909160051115612a81576003820154612a7e90600561477f565b90505b60005b8160ff168160ff16108015612a9c5750600483015415155b15612b745760048301805460009190612ab790600190614756565b81548110612ac757612ac76145af565b90600052602060002090602091828204019190069054906101000a900460ff16905083600401805480612afc57612afc614769565b60008281526020808220600019909301818104909301805460ff601f80871661010090810a830219909316909355949095556003890180546001810182559084529282902091830490910180548685169390921690940a918202919092021990911617905581612b6b816146cd565b92505050612a84565b60ff8116156122d85760405160ff821681526001600160a01b0386169087907f61122678b83552d47f9ad2905cf1399b15d78b009910fc68c8782f2696b115569060200160405180910390a3505050505050565b600081815260016020819052604090912060088101548183015491929091612bfb91600160b01b90910460ff1690614798565b612c0591906147c7565b60018201805460ff60b01b1916600160b01b60ff93841681029190911791829055900416600003612c4857600281018054906000612c42836145db565b91905055505b42600482015560018101546008820180549091600160b01b900460ff16908110612c7457612c746145af565b600091825260209182902001546001830154604051600160b01b90910460ff1681526001600160a01b039091169184917fd48662f539b10425cf4a565afdaac42d9593d8216a745cefb2429c7ef043e77b910160405180910390a35050565b60008481526001602081815260408084208151610120810183526001600160a01b038981168083528286018a815283860189905285518981528088018752606085015285518981528088018752608085015260a0840189905260c084018890524260e08501528983166101008501529088526007840190955292909520855181546001600160a01b03191693169290921782559151919392909190820190612d7b908261482f565b506040820151600282015560608201518051612da1916003840191602090910190613d40565b5060808201518051612dbd916004840191602090910190613d40565b5060a0820151600582015560c082015160068201805460ff191691151591909117905560e0820151600782015561010090910151600891820180546001600160a01b03199081166001600160a01b039384161790915591830180546001818101835560009283526020808420909201805490951693891693841790945591815260028252604081208054938401815581522001859055612e5d8486613539565b5050505050565b60008181526001602081905260408220808201805460ff1916909217909155426004820155905b6008820154811015612edc57612eca83836008018381548110612eb057612eb06145af565b6000918252602090912001546001600160a01b0316612a37565b80612ed4816145db565b915050612e8b565b5060405182907f50ad08f58a27f2851d7e3a1b3a6a46b290f2ce677e99642d30ff639721e7779090600090a25050565b60006001835111612f1f57506001612862565b600180805b8551811015612fd95785600081518110612f4057612f406145af565b60200260200101516040015160010b868281518110612f6157612f616145af565b60200260200101516040015160010b14612f7a57600092505b85600081518110612f8d57612f8d6145af565b60200260200101516020015160010b868281518110612fae57612fae6145af565b60200260200101516020015160010b14612fc757600091505b80612fd1816145db565b915050612f24565b5081158015612fe6575080155b15612ff657600092505050612862565b50600195945050505050565b6000828152600160205260408120815b83518110156123b15761306085858381518110613031576130316145af565b60200260200101516020015186848151811061304f5761304f6145af565b6020026020010151604001516136c5565b15613070576001925050506123b8565b8061307a816145db565b915050613012565b6000613093848484600160006137e5565b61309f57506000612862565b6130ae848484600060016137e5565b6130ba57506000612862565b5060019392505050565b600085815260016020908152604082209086015182906130e5908790614733565b905060008588604001516130f99190614733565b905060008260010b12806131115750600f8260010b12155b8061311f575060008160010b125b8061312e5750600f8160010b12155b1561313f5760019350505050613232565b60005b85518110156131c3578260010b868281518110613161576131616145af565b60200260200101516020015160010b14801561319f57508160010b86828151811061318e5761318e6145af565b60200260200101516040015160010b145b156131b1576000945050505050613232565b806131bb816145db565b915050613142565b5060405160f083811b602083015282901b602282015260009060240160408051808303601f1901815291815281516020928301206000818152600988019093529120805491925090600160281b900460ff161561322857600095505050505050613232565b6001955050505050505b95945050505050565b60008581526001602090815260408083208151600f8082526102008201909352909284929082016101e080368337505050602088015160408901519192506000915b60006132898a84614733565b905060006132978a84614733565b905060008260010b12806132af5750600f8260010b12155b806132bd575060008160010b125b806132cc5750600f8160010b12155b156132d85750506132ff565b6132e48d83838c6139f8565b60ff1660ff036132f55750506132ff565b909250905061327d565b81815b60008260010b121580156133195750600f8260010b125b8015613329575060008160010b12155b80156133385750600f8160010b125b156133b257600061334b8e84848d6139f8565b90508060ff1660ff0361335e57506133b2565b80878760ff1681518110613374576133746145af565b60ff9092166020928302919091019091015285613390816146cd565b965061339e90508c846148ef565b92506133aa8b836148ef565b915050613302565b60028560ff1610156133ce576000975050505050505050613232565b6000805b8660ff16811015613419578781815181106133ef576133ef6145af565b602002602001015160ff168261340591906145f4565b915080613411816145db565b9150506133d2565b50600061342782600a614912565b9f9e505050505050505050505050505050565b6000858152600160209081526040822090860151829061345b908790614733565b9050600085886040015161346f9190614733565b905060008260010b12806134875750600f8260010b12155b80613495575060008160010b125b806134a45750600f8160010b12155b156134b55760019350505050613232565b60005b85518110156131c3578260010b8682815181106134d7576134d76145af565b60200260200101516020015160010b14801561351557508160010b868281518110613504576135046145af565b60200260200101516040015160010b145b15613527576000945050505050613232565b80613531816145db565b9150506134b8565b60008181526001602090815260408083206001600160a01b0386168452600781018352928190208151603280825261066082019093529092909190820161064080368337505081516135949260048501925060200190613d40565b506000805b60098160ff16116136545760005b60008260ff16600a81106135bd576135bd6145af565b602081049091015460ff601f9092166101000a9004811690821610156136415781846004018460ff16815481106135f6576135f66145af565b90600052602060002090602091828204019190066101000a81548160ff021916908360ff160217905550828061362b906146cd565b9350508080613639906146cd565b9150506135a7565b508061364c816146cd565b915050613599565b5042448587613664600143614756565b6040805160208101969096528501939093526060808501929092526bffffffffffffffffffffffff19911b16608083015240609482015260b40160408051601f1981840301815291905280516020909101206005830155612e5d8585613b18565b60008381526001602081815260408084208151608080820184526000198083528286018790528285018890526060808401899052855192830186528883529582018890529381019390935292820193909352835b60048110156137d7576000838260048110613736576137366145af565b602002015161374590896148ef565b838360048110613757576137576145af565b602002015161376690896148ef565b60405160f092831b6020820152911b602282015260240160408051808303601f190181529181528151602092830120600081815260098901909352912054909150600160281b900460ff16156137c457600195505050505050612862565b50806137cf816145db565b915050613719565b506000979650505050505050565b60008581526001602090815260408083208151600f8082526102008201909352909284929082016101e080368337505050602088015160408901519192506000915b60006138338984614733565b905060006138418984614733565b905060008260010b12806138595750600f8260010b12155b80613867575060008160010b125b806138765750600f8160010b12155b156138825750506138a9565b61388e8d83838e6139f8565b60ff1660ff0361389f5750506138a9565b9092509050613827565b81815b60008260010b121580156138c35750600f8260010b125b80156138d3575060008160010b12155b80156138e25750600f8160010b125b1561395c5760006138f58e84848f6139f8565b90508060ff1660ff03613908575061395c565b80878760ff168151811061391e5761391e6145af565b60ff909216602092830291909101909101528561393a816146cd565b965061394890508b846148ef565b92506139548a836148ef565b9150506138ac565b60018560ff1611613977576001975050505050505050613232565b6000805b8660ff168110156139c257878181518110613998576139986145af565b602002602001015160ff16826139ae91906145f4565b9150806139ba816145db565b91505061397b565b506139ce600582614929565b156139e457600098505050505050505050613232565b5060019d9c50505050505050505050505050565b6000848152600160205260408120815b8351811015613aa3578560010b848281518110613a2757613a276145af565b60200260200101516020015160010b148015613a6557508460010b848281518110613a5457613a546145af565b60200260200101516040015160010b145b15613a9157838181518110613a7c57613a7c6145af565b60200260200101516000015192505050613b10565b80613a9b816145db565b915050613a08565b5060405160f086811b602083015285901b602282015260009060240160408051808303601f1901815291815281516020928301206000818152600986019093529120805491925090600160281b900460ff1615613b08575460ff169250613b10915050565b60ff93505050505b949350505050565b60008181526001602090815260408083206001600160a01b038616845260078101909252822060048101549192909190613b53826003614912565b905060005b81811015610ac957600584015460408051602081019290925242908201524460608083019190915243608083015260a0820183905288901b6bffffffffffffffffffffffff191660c082015260d40160408051601f19818403018152919052805160209091012060058501819055600090613bd4908590614929565b905060008460108760050154901c613bec9190614929565b9050808214613ce4576000866004018381548110613c0c57613c0c6145af565b90600052602060002090602091828204019190069054906101000a900460ff169050866004018281548110613c4357613c436145af565b90600052602060002090602091828204019190069054906101000a900460ff16876004018481548110613c7857613c786145af565b90600052602060002090602091828204019190066101000a81548160ff021916908360ff16021790555080876004018381548110613cb857613cb86145af565b90600052602060002090602091828204019190066101000a81548160ff021916908360ff160217905550505b50508080613cf1906145db565b915050613b58565b604051806101400160405280600a906020820280368337509192915050565b50805460008255601f016020900490600052602060002090810190613d3d9190613de6565b50565b82805482825590600052602060002090601f01602090048101928215613dd65791602002820160005b83821115613da757835183826101000a81548160ff021916908360ff1602179055509260200192600101602081600001049283019260010302613d69565b8015613dd45782816101000a81549060ff0219169055600101602081600001049283019260010302613da7565b505b50613de2929150613de6565b5090565b5b80821115613de25760008155600101613de7565b634e487b7160e01b600052604160045260246000fd5b6040516060810167ffffffffffffffff81118282101715613e3457613e34613dfb565b60405290565b604051601f8201601f1916810167ffffffffffffffff81118282101715613e6357613e63613dfb565b604052919050565b803560ff81168114613e7c57600080fd5b919050565b8035600181900b8114613e7c57600080fd5b6000806040808486031215613ea757600080fd5b8335925060208085013567ffffffffffffffff80821115613ec757600080fd5b818701915087601f830112613edb57600080fd5b813581811115613eed57613eed613dfb565b613efb848260051b01613e3a565b8181528481019250606091820284018501918a831115613f1a57600080fd5b938501935b82851015613f775780858c031215613f375760008081fd5b613f3f613e11565b613f4886613e6b565b8152613f55878701613e81565b87820152613f64888701613e81565b8189015284529384019392850192613f1f565b508096505050505050509250929050565b80356001600160a01b0381168114613e7c57600080fd5b60008060408385031215613fb257600080fd5b613fbb83613f88565b946020939093013593505050565b600060208284031215613fdb57600080fd5b5035919050565b634e487b7160e01b600052602160045260246000fd5b6004811061401657634e487b7160e01b600052602160045260246000fd5b9052565b8a8152610140810161402f602083018c613ff8565b6001600160a01b0399909916604082015260ff978816606082015295909616608086015260a085019390935260c084019190915260e08301521515610100820152610120015292915050565b60006020828403121561408d57600080fd5b61286282613f88565b600081518084526020808501945080840160005b838110156140c6578151875295820195908201906001016140aa565b509495945050505050565b6020815260006128626020830184614096565b600082601f8301126140f557600080fd5b813567ffffffffffffffff81111561410f5761410f613dfb565b614122601f8201601f1916602001613e3a565b81815284602083860101111561413757600080fd5b816020850160208301376000918101602001919091529392505050565b600080600080600060a0868803121561416c57600080fd5b61417586613e6b565b94506020860135801515811461418a57600080fd5b935060408601359250606086013567ffffffffffffffff8111156141ad57600080fd5b6141b9888289016140e4565b9250506141c860808701613f88565b90509295509295909350565b6101408101818360005b600a81101561139157815160ff168352602092830192909101906001016141de565b6000806040838503121561421357600080fd5b8235915061422360208401613f88565b90509250929050565b600081518084526020808501945080840160005b838110156140c6578151600190810b8852968301969183019101614240565b600081518084526020808501945080840160005b838110156140c657815160ff1687529582019590820190600101614273565b6080815260006142a5608083018761422c565b82810360208401526142b7818761422c565b905082810360408401526142cb818661425f565b905082810360608401526142df8185614096565b979650505050505050565b6000815180845260005b81811015614310576020818501810151868301820152016142f4565b506000602082860101526020601f19601f83011685010191505092915050565b60a08152600061434360a08301886142ea565b866020840152828103604084015261435b818761425f565b94151560608401525050608001529392505050565b60008060006060848603121561438557600080fd5b8335925061439560208501613e81565b91506143a360408501613e81565b90509250925092565b60c0815260006143bf60c08301896142ea565b87602084015282810360408401526143d7818861425f565b9515156060840152505060808101929092526001600160a01b031660a0909101529392505050565b60006101608201614410838f613ff8565b6001600160a01b038d811660208581019190915260ff8e811660408701528d166060860152608085018c905260a085018b905289151560c086015261016060e086015288519283905288019161018085019060005b818110156144855784518416835260209485019490920191600101614465565b505084810361010086015261449a8189614096565b6101208601979097525050505061014001529998505050505050505050565b6000806000606084860312156144ce57600080fd5b83359250602084013567ffffffffffffffff8111156144ec57600080fd5b6144f8868287016140e4565b9250506143a360408501613f88565b60208082526013908201527211d85b5948191bd95cc81b9bdd08195e1a5cdd606a1b604082015260600190565b6020808252601a908201527f47616d65206e6f7420696e206578706563746564207374617465000000000000604082015260600190565b60208082526024908201527f506c61796572206e6f7420696e2067616d65206f72206e6f7420617574686f726040820152631a5e995960e21b606082015260800190565b634e487b7160e01b600052603260045260246000fd5b634e487b7160e01b600052601160045260246000fd5b6000600182016145ed576145ed6145c5565b5060010190565b808201808211156123b8576123b86145c5565b6040808252835182820181905260009190606090818501906020808901865b8381101561465c578151805160ff16865283810151600190810b8588015290880151810b88870152948601949183019101614626565b505095909501959095525092949350505050565b6020808252603b908201527f556e617574686f72697a65643a2073656e646572206d75737420626520706c6160408201527f796572206f7220617574686f72697a6564207061796d61737465720000000000606082015260800190565b600060ff821660ff81036146e3576146e36145c5565b60010192915050565b600181811c9082168061470057607f821691505b602082108103610f3957634e487b7160e01b600052602260045260246000fd5b60208152600061286260208301846142ea565b600182810b9082900b03617fff198112617fff821317156123b8576123b86145c5565b818103818111156123b8576123b86145c5565b634e487b7160e01b600052603160045260246000fd5b60ff82811682821603908111156123b8576123b86145c5565b60ff81811683821601908111156123b8576123b86145c5565b634e487b7160e01b600052601260045260246000fd5b600060ff8316806147da576147da6147b1565b8060ff84160691505092915050565b601f82111561298b57600081815260208120601f850160051c810160208610156148105750805b601f850160051c820191505b818110156122d85782815560010161481c565b815167ffffffffffffffff81111561484957614849613dfb565b61485d8161485784546146ec565b846147e9565b602080601f831160018114614892576000841561487a5750858301515b600019600386901b1c1916600185901b1785556122d8565b600085815260208120601f198616915b828110156148c1578886015182559484019460019091019084016148a2565b50858210156148df5787850151600019600388901b60f8161c191681555b5050505050600190811b01905550565b600181810b9083900b01617fff8113617fff19821217156123b8576123b86145c5565b80820281158282048414176123b8576123b86145c5565b600082614938576149386147b1565b50069056fea2646970667358221220050bd2f68311faba10a8712ac20a6a6748b70f151d3a6d356971a08a322b430c64736f6c634300081300335987a74a23bb850534474148567553b8832158294e44a814aafe820ec123f576",
  "linkReferences": {},
  "deployedLinkReferences": {}
}