{"contracts/FivesGame.sol":{"FivesGame":{"abi":[{"anonymous":false,"inputs":[{"indexed":true,"internalType":"uint256","name":"gameId","type":"uint256"}],"name":"GameCancelled","type":"event"},{"anonymous":false,"inputs":[{"indexed":true,"internalType":"uint256","name":"gameId","type":"uint256"},{"indexed":true,"internalType":"address","name":"winner","type":"address"},{"indexed":false,"internalType":"uint256","name":"score","type":"uint256"}],"name":"GameCompleted","type":"event"},{"anonymous":false,"inputs":[{"indexed":true,"internalType":"uint256","name":"gameId","type":"uint256"},{"indexed":true,"internalType":"address","name":"creator","type":"address"},{"indexed":false,"internalType":"uint8","name":"maxPlayers","type":"uint8"}],"name":"GameCreated","type":"event"},{"anonymous":false,"inputs":[{"indexed":true,"internalType":"uint256","name":"gameId","type":"uint256"}],"name":"GameStarted","type":"event"},{"anonymous":false,"inputs":[{"indexed":true,"internalType":"uint256","name":"gameId","type":"uint256"},{"indexed":true,"internalType":"address","name":"player","type":"address"},{"indexed":false,"internalType":"string","name":"name","type":"string"}],"name":"PlayerJoined","type":"event"},{"anonymous":false,"inputs":[{"indexed":true,"internalType":"uint256","name":"gameId","type":"uint256"},{"indexed":true,"internalType":"address","name":"player","type":"address"},{"indexed":false,"internalType":"uint8","name":"tilesDrawn","type":"uint8"}],"name":"TilesDrawn","type":"event"},{"anonymous":false,"inputs":[{"indexed":true,"internalType":"uint256","name":"gameId","type":"uint256"},{"indexed":true,"internalType":"address","name":"currentPlayer","type":"address"},{"indexed":false,"internalType":"uint8","name":"playerIndex","type":"uint8"}],"name":"TurnChanged","type":"event"},{"anonymous":false,"inputs":[{"indexed":true,"internalType":"uint256","name":"gameId","type":"uint256"},{"indexed":true,"internalType":"address","name":"player","type":"address"},{"components":[{"internalType":"uint8","name":"number","type":"uint8"},{"internalType":"int16","name":"x","type":"int16"},{"internalType":"int16","name":"y","type":"int16"}],"indexed":false,"internalType":"struct FivesGame.TilePlacement[]","name":"placements","type":"tuple[]"},{"indexed":false,"internalType":"uint256","name":"score","type":"uint256"}],"name":"TurnPlaced","type":"event"},{"inputs":[],"name":"HAND_SIZE","outputs":[{"internalType":"uint8","name":"","type":"uint8"}],"stateMutability":"view","type":"function"},{"inputs":[],"name":"MOVE_TIMEOUT","outputs":[{"internalType":"uint256","name":"","type":"uint256"}],"stateMutability":"view","type":"function"},{"inputs":[{"internalType":"uint256","name":"","type":"uint256"}],"name":"TILE_DISTRIBUTION","outputs":[{"internalType":"uint8","name":"","type":"uint8"}],"stateMutability":"view","type":"function"},{"inputs":[],"name":"WINNING_SCORE","outputs":[{"internalType":"uint256","name":"","type":"uint256"}],"stateMutability":"view","type":"function"},{"inputs":[{"internalType":"uint256","name":"gameId","type":"uint256"}],"name":"cancelGame","outputs":[],"stateMutability":"nonpayable","type":"function"},{"inputs":[{"internalType":"uint8","name":"maxPlayers","type":"uint8"},{"internalType":"bool","name":"allowIslands","type":"bool"},{"internalType":"uint256","name":"winningScore","type":"uint256"},{"internalType":"string","name":"playerName","type":"string"}],"name":"createGame","outputs":[{"internalType":"uint256","name":"","type":"uint256"}],"stateMutability":"nonpayable","type":"function"},{"inputs":[{"internalType":"uint256","name":"","type":"uint256"}],"name":"games","outputs":[{"internalType":"uint256","name":"gameId","type":"uint256"},{"internalType":"enum FivesGame.GameState","name":"state","type":"uint8"},{"internalType":"address","name":"creator","type":"address"},{"internalType":"uint8","name":"maxPlayers","type":"uint8"},{"internalType":"uint8","name":"currentPlayerIndex","type":"uint8"},{"internalType":"uint256","name":"turnNumber","type":"uint256"},{"internalType":"uint256","name":"createdAt","type":"uint256"},{"internalType":"uint256","name":"lastMoveAt","type":"uint256"},{"internalType":"bool","name":"allowIslands","type":"bool"},{"internalType":"uint256","name":"winningScore","type":"uint256"},{"internalType":"uint256","name":"poolSeed","type":"uint256"}],"stateMutability":"view","type":"function"},{"inputs":[{"internalType":"uint256","name":"gameId","type":"uint256"}],"name":"getGame","outputs":[{"internalType":"enum FivesGame.GameState","name":"state","type":"uint8"},{"internalType":"address","name":"creator","type":"address"},{"internalType":"uint8","name":"maxPlayers","type":"uint8"},{"internalType":"uint8","name":"currentPlayerIndex","type":"uint8"},{"internalType":"uint256","name":"turnNumber","type":"uint256"},{"internalType":"uint256","name":"createdAt","type":"uint256"},{"internalType":"bool","name":"allowIslands","type":"bool"},{"internalType":"address[]","name":"playerAddresses","type":"address[]"},{"internalType":"uint256[]","name":"playerScores","type":"uint256[]"},{"internalType":"uint256","name":"tilesRemaining","type":"uint256"}],"stateMutability":"view","type":"function"},{"inputs":[{"internalType":"uint256","name":"gameId","type":"uint256"},{"internalType":"address","name":"playerAddr","type":"address"}],"name":"getPlayer","outputs":[{"internalType":"string","name":"name","type":"string"},{"internalType":"uint256","name":"score","type":"uint256"},{"internalType":"uint8[]","name":"hand","type":"uint8[]"},{"internalType":"bool","name":"hasJoined","type":"bool"},{"internalType":"uint256","name":"lastMoveTime","type":"uint256"}],"stateMutability":"view","type":"function"},{"inputs":[{"internalType":"address","name":"player","type":"address"}],"name":"getPlayerGames","outputs":[{"internalType":"uint256[]","name":"","type":"uint256[]"}],"stateMutability":"view","type":"function"},{"inputs":[{"internalType":"uint256","name":"gameId","type":"uint256"},{"internalType":"int16","name":"x","type":"int16"},{"internalType":"int16","name":"y","type":"int16"}],"name":"getTileAt","outputs":[{"internalType":"bool","name":"exists","type":"bool"},{"internalType":"uint8","name":"number","type":"uint8"},{"internalType":"uint256","name":"turnPlaced","type":"uint256"}],"stateMutability":"view","type":"function"},{"inputs":[{"internalType":"uint256","name":"gameId","type":"uint256"}],"name":"getTilePoolStatus","outputs":[{"internalType":"uint8[10]","name":"remainingCounts","type":"uint8[10]"}],"stateMutability":"view","type":"function"},{"inputs":[{"internalType":"uint256","name":"gameId","type":"uint256"},{"internalType":"string","name":"playerName","type":"string"}],"name":"joinGame","outputs":[],"stateMutability":"nonpayable","type":"function"},{"inputs":[],"name":"nextGameId","outputs":[{"internalType":"uint256","name":"","type":"uint256"}],"stateMutability":"view","type":"function"},{"inputs":[{"internalType":"uint256","name":"gameId","type":"uint256"},{"components":[{"internalType":"uint8","name":"number","type":"uint8"},{"internalType":"int16","name":"x","type":"int16"},{"internalType":"int16","name":"y","type":"int16"}],"internalType":"struct FivesGame.TilePlacement[]","name":"placements","type":"tuple[]"}],"name":"playTurn","outputs":[],"stateMutability":"nonpayable","type":"function"},{"inputs":[{"internalType":"address","name":"","type":"address"},{"internalType":"uint256","name":"","type":"uint256"}],"name":"playerGames","outputs":[{"internalType":"uint256","name":"","type":"uint256"}],"stateMutability":"view","type":"function"},{"inputs":[{"internalType":"uint256","name":"gameId","type":"uint256"}],"name":"skipTurn","outputs":[],"stateMutability":"nonpayable","type":"function"},{"inputs":[{"internalType":"uint256","name":"gameId","type":"uint256"}],"name":"startGame","outputs":[],"stateMutability":"nonpayable","type":"function"}],"evm":{"bytecode":{"linkReferences":{},"object":"6101c06040526005608081815260a082905260c082905260e08290526101008290526101208290526101408290526101608290526101808290526101a0919091526200005090600090600a6200006a565b5060016003553480156200006357600080fd5b506200011b565b600183019183908215620000f25791602002820160005b83821115620000c157835183826101000a81548160ff021916908360ff160217905550926020019260010160208160000104928301926001030262000081565b8015620000f05782816101000a81549060ff0219169055600101602081600001049283019260010302620000c1565b505b506200010092915062000104565b5090565b5b8082111562000100576000815560010162000105565b612f67806200012b6000396000f3fe608060405234801561001057600080fd5b50600436106101165760003560e01c806376d4293c116100a2578063ce371cbd11610071578063ce371cbd146102f2578063d4698e5b14610305578063e3087fec1461032a578063e5ed1d5914610332578063e6ba69d81461034557600080fd5b806376d4293c1461027b5780638b38795d146102ad578063a2f77bcc146102c0578063b135bbb0146102e957600080fd5b8063249123d3116100e9578063249123d3146102075780636454e58d1461022757806368880a261461024b57806369958ab91461025e5780636a07dc121461027157600080fd5b8063084ba9b81461011b5780630a5694c214610130578063117a5b9014610156578063129daf84146101e7575b600080fd5b61012e610129366004612659565b61034d565b005b61014361013e366004612765565b610930565b6040519081526020015b60405180910390f35b6101d061016436600461278f565b600160208190526000918252604090912080549181015460028201546003830154600484015460058501546006860154600c9096015460ff808716976001600160a01b0361010089041697600160a81b8104831697600160b01b9091048316969095909490939216918b565b60405161014d9b9a999897969594939291906127e0565b6101fa6101f5366004612847565b610961565b60405161014d919061289d565b61021a61021536600461278f565b6109cd565b60405161014d91906128b0565b61023a6102353660046128e5565b610a96565b60405161014d959493929190612957565b61012e610259366004612a30565b610c26565b61012e61026c36600461278f565b610e17565b6101436201518081565b61028e610289366004612a77565b610f2e565b60408051931515845260ff90921660208401529082015260600161014d565b6101436102bb366004612ab3565b610fcf565b6102d36102ce36600461278f565b6111e3565b60405161014d9a99989796959493929190612b22565b61014360035481565b61012e61030036600461278f565b6113ce565b61031861031336600461278f565b611570565b60405160ff909116815260200161014d565b610143606481565b61012e61034036600461278f565b61159a565b610318600581565b8160008111801561035f575060035481105b6103845760405162461bcd60e51b815260040161037b90612bd6565b60405180910390fd5b826001806000838152600160208190526040909120015460ff1660038111156103af576103af6127a8565b146103cc5760405162461bcd60e51b815260040161037b90612c03565b6000858152600160209081526040808320338452600701909152902060040154859060ff166104325760405162461bcd60e51b8152602060048201526012602482015271506c61796572206e6f7420696e2067616d6560701b604482015260640161037b565b600086815260016020819052604090912090810154600882018054899392339291600160b01b90910460ff1690811061046d5761046d612c3a565b6000918252602090912001546001600160a01b0316146104bf5760405162461bcd60e51b815260206004820152600d60248201526c2737ba103cb7bab9103a3ab93760991b604482015260640161037b565b60008751116105105760405162461bcd60e51b815260206004820152601c60248201527f4d75737420706c616365206174206c65617374206f6e652074696c6500000000604482015260640161037b565b600a875111156105625760405162461bcd60e51b815260206004820152601a60248201527f546f6f206d616e792074696c657320696e206f6e65207475726e000000000000604482015260640161037b565b600088815260016020908152604080832033845260078101909252822090915b8951811015610670576105b2828b83815181106105a1576105a1612c3a565b6020026020010151600001516116e6565b6105f55760405162461bcd60e51b8152602060048201526014602482015273446f6e2774206861766520746869732074696c6560601b604482015260640161037b565b6106198b8b838151811061060b5761060b612c3a565b60200260200101518c61175c565b61065e5760405162461bcd60e51b8152602060048201526016602482015275125b9d985b1a59081d1a5b19481c1b1858d95b595b9d60521b604482015260640161037b565b8061066881612c66565b915050610582565b506000805b8a5181101561083f5760008b828151811061069257610692612c3a565b602002602001015190506000816020015182604001516040516020016106c892919060f092831b8152911b600282015260040190565b6040516020818303038152906040528051906020012090506040518060a00160405280836000015160ff168152602001836020015160010b8152602001836040015160010b8152602001600115158152602001876002015481525086600901600083815260200190815260200160002060008201518160000160006101000a81548160ff021916908360ff16021790555060208201518160000160016101000a81548161ffff021916908360010b61ffff16021790555060408201518160000160036101000a81548161ffff021916908360010b61ffff16021790555060608201518160000160056101000a81548160ff0219169083151502179055506080820151816001015590505085600a0181908060018154018082558091505060019003906000526020600020016000909190919091505561080b858360000151611900565b61081e8e83602001518460400151611a27565b6108289085612c7f565b93505050808061083790612c66565b915050610675565b50808260020160008282546108549190612c7f565b909155505042600583015560405133908c907f2f138c198af21768b3e95851fcf98d667c620ea08ba24c8afcead9165293c39d90610895908e908690612c92565b60405180910390a36108a78b33611b48565b600382015415806108c057508260060154826002015410155b156109195760018301805460ff1916600290811790915582015460405190815233908c907ff6ae188cc6336ef5ad970d3c81cda5814b4c4902540924c6924debe94ece13eb9060200160405180910390a3505050610926565b6109228b611cd9565b5050505b5050505050505050565b6002602052816000526040600020818154811061094c57600080fd5b90600052602060002001600091509150505481565b6001600160a01b0381166000908152600260209081526040918290208054835181840281018401909452808452606093928301828280156109c157602002820191906000526020600020905b8154815260200190600101908083116109ad575b50505050509050919050565b6109d56124e7565b816000811180156109e7575060035481105b610a035760405162461bcd60e51b815260040161037b90612bd6565b6000838152600160205260408120905b600b820154811015610a8d578382600b018281548110610a3557610a35612c3a565b60009182526020918290209181049091015460ff601f9092166101000a900416600a8110610a6557610a65612c3a565b60200201805190610a7582612cfb565b60ff1690525080610a8581612c66565b915050610a13565b50505b50919050565b60606000606060008086600081118015610ab1575060035481105b610acd5760405162461bcd60e51b815260040161037b90612bd6565b60008881526001602081815260408084206001600160a01b038c168552600701909152909120600281015460048201546005830154938301805493949093600386019260ff1691908590610b2090612d1a565b80601f0160208091040260200160405190810160405280929190818152602001828054610b4c90612d1a565b8015610b995780601f10610b6e57610100808354040283529160200191610b99565b820191906000526020600020905b815481529060010190602001808311610b7c57829003601f168201915b5050505050945082805480602002602001604051908101604052809291908181526020018280548015610c0957602002820191906000526020600020906000905b825461010083900a900460ff16815260206001928301818104948501949093039092029101808411610bda5790505b505050505092509650965096509650965050509295509295909350565b81600081118015610c38575060035481105b610c545760405162461bcd60e51b815260040161037b90612bd6565b826000806000838152600160208190526040909120015460ff166003811115610c7f57610c7f6127a8565b14610c9c5760405162461bcd60e51b815260040161037b90612c03565b6000858152600160209081526040808320338452600781019092529091206004015460ff1615610d055760405162461bcd60e51b8152602060048201526014602482015273416c726561647920696e20746869732067616d6560601b604482015260640161037b565b60018101546008820154600160a81b90910460ff1611610d565760405162461bcd60e51b815260206004820152600c60248201526b11d85b59481a5cc8199d5b1b60a21b604482015260640161037b565b6000855111610d9e5760405162461bcd60e51b8152602060048201526014602482015273141b185e595c881b985b59481c995c5d5a5c995960621b604482015260640161037b565b610da9863387611de4565b336001600160a01b0316867fa259bab503f65f6ae62d4f6a412b41b967799a284f69f21ba61362cf04e5eafa87604051610de39190612d4e565b60405180910390a360018101546008820154600160a81b90910460ff169003610e0f57610e0f86611f0d565b505050505050565b80600081118015610e29575060035481105b610e455760405162461bcd60e51b815260040161037b90612bd6565b600082815260016020819052604082209081015490919061010090046001600160a01b0316331480610eaa57506000600183015460ff166003811115610e8d57610e8d6127a8565b148015610eaa57506003820154610ea79062015180612c7f565b42115b905080610eee5760405162461bcd60e51b815260206004820152601260248201527143616e6e6f742063616e63656c2067616d6560701b604482015260640161037b565b60018201805460ff1916600317905560405184907f681705fdbd93dba3b679fd712577e9a86d57c5551c520f8c74857deb57f9623f90600090a250505050565b600080600085600081118015610f45575060035481105b610f615760405162461bcd60e51b815260040161037b90612bd6565b60405160f087811b602083015286901b602282015260009060240160408051601f19818403018152918152815160209283012060009a8b526001808452828c20918c526009909101909252909820805498015460ff600160281b8a0481169a99169890975095505050505050565b600060028560ff1610158015610fe9575060048560ff1611155b61102c5760405162461bcd60e51b8152602060048201526014602482015273125b9d985b1a59081c1b185e595c8818dbdd5b9d60621b604482015260640161037b565b6032831015801561103f57506101f48311155b6110835760405162461bcd60e51b8152602060048201526015602482015274496e76616c69642077696e6e696e672073636f726560581b604482015260640161037b565b60008251116110cb5760405162461bcd60e51b8152602060048201526014602482015273141b185e595c881b985b59481c995c5d5a5c995960621b604482015260640161037b565b60038054600091826110dc83612c66565b9091555060008181526001602081815260409283902084815580830180546001600160b01b031916336101000260ff60a81b191617600160a81b60ff8e16021760ff60b01b19169055600281019290925542600383018190556004830181905560058301805460ff19168b151517905560068301899055835180830191909152448185015260608082018690528451808303909101815260809091019093528251920191909120600c82015590915061119482611fb5565b61119f823386611de4565b60405160ff88168152339083907fdd0abcdffc76581d11646898ee4d7f269ca1e0c0b622d072d343100dad83ecb19060200160405180910390a35095945050505050565b600080600080600080600060608060008a600081118015611205575060035481105b6112215760405162461bcd60e51b815260040161037b90612bd6565b60008c8152600160205260408120600881015490919067ffffffffffffffff81111561124f5761124f6125c1565b604051908082528060200260200182016040528015611278578160200160208202803683370190505b50905060005b60088301548110156112fe578260070160008460080183815481106112a5576112a5612c3a565b60009182526020808320909101546001600160a01b0316835282019290925260400190206002015482518390839081106112e1576112e1612c3a565b6020908102919091010152806112f681612c66565b91505061127e565b506001820154600283015460038401546005850154600b8601546008870180546040805160208084028201810190925282815260ff808a16996001600160a01b0361010082041699600160a81b8204831699600160b01b9092048316989097919692169491938c93919285918301828280156113a357602002820191906000526020600020905b81546001600160a01b03168152600190910190602001808311611385575b505050505092509c509c509c509c509c509c509c509c509c509c505050509193959799509193959799565b806000811180156113e0575060035481105b6113fc5760405162461bcd60e51b815260040161037b90612bd6565b816001806000838152600160208190526040909120015460ff166003811115611427576114276127a8565b146114445760405162461bcd60e51b815260040161037b90612c03565b6000848152600160209081526040808320338452600701909152902060040154849060ff166114aa5760405162461bcd60e51b8152602060048201526012602482015271506c61796572206e6f7420696e2067616d6560701b604482015260640161037b565b600085815260016020819052604090912090810154600882018054889392339291600160b01b90910460ff169081106114e5576114e5612c3a565b6000918252602090912001546001600160a01b0316146115375760405162461bcd60e51b815260206004820152600d60248201526c2737ba103cb7bab9103a3ab93760991b604482015260640161037b565b60008781526001602090815260408083203380855260078201909352922042600590910155611567908990611b48565b61092688611cd9565b600081600a811061158057600080fd5b60209182820401919006915054906101000a900460ff1681565b806000811180156115ac575060035481105b6115c85760405162461bcd60e51b815260040161037b90612bd6565b816000806000838152600160208190526040909120015460ff1660038111156115f3576115f36127a8565b146116105760405162461bcd60e51b815260040161037b90612c03565b60008481526001602081905260409091209081015461010090046001600160a01b031633146116815760405162461bcd60e51b815260206004820152601b60248201527f4f6e6c792063726561746f722063616e2073746172742067616d650000000000604482015260640161037b565b6008810154600211156116d65760405162461bcd60e51b815260206004820152601760248201527f4e656564206174206c65617374203220706c6179657273000000000000000000604482015260640161037b565b6116df85611f0d565b5050505050565b6000805b6003840154811015611750578260ff1684600301828154811061170f5761170f612c3a565b60009182526020918290209181049091015460ff601f9092166101000a9004160361173e576001915050611756565b8061174881612c66565b9150506116ea565b50600090505b92915050565b600083815260016020908152604080832085830151868301519251919385936117969390910160f092831b8152911b600282015260040190565b60408051808303601f190181529181528151602092830120600081815260098601909352912054909150600160281b900460ff16156117da576000925050506118f9565b60005b84518110156118c557856020015160010b85828151811061180057611800612c3a565b60200260200101516020015160010b1480156118425750856040015160010b85828151811061183157611831612c3a565b60200260200101516040015160010b145b6118b357856020015160010b85828151811061186057611860612c3a565b60200260200101516020015160010b1480156118a25750856040015160010b85828151811061189157611891612c3a565b60200260200101516040015160010b145b156118b357600093505050506118f9565b806118bd81612c66565b9150506117dd565b50600a8201541580156118d9575083516001145b156118e9576001925050506118f9565b6118f48686866120c3565b925050505b9392505050565b60005b6003830154811015611a22578160ff1683600301828154811061192857611928612c3a565b60009182526020918290209181049091015460ff601f9092166101000a90041603611a105760038301805461195f90600190612d61565b8154811061196f5761196f612c3a565b90600052602060002090602091828204019190069054906101000a900460ff168360030182815481106119a4576119a4612c3a565b90600052602060002090602091828204019190066101000a81548160ff021916908360ff160217905550826003018054806119e1576119e1612d74565b60019003818190600052602060002090602091828204019190066101000a81549060ff02191690559055505050565b80611a1a81612c66565b915050611903565b505050565b600083815260016020818152604080842081516080808201845260001980835282860187905282850188905260608084018990528551928301865288835295820188905293810193909352928201849052929190845b6004811015611b3b576000838260048110611a9a57611a9a612c3a565b6020020151611aa9908a612d8a565b838360048110611abb57611abb612c3a565b6020020151611aca908a612d8a565b60405160f092831b6020820152911b602282015260240160408051808303601f190181529181528151602092830120600081815260098a01909352912054909150600160281b900460ff1615611b2857611b25600286612c7f565b94505b5080611b3381612c66565b915050611a7d565b5091979650505050505050565b60008281526001602090815260408083206001600160a01b038516845260078101909252822060038101549192909160051115611b92576003820154611b8f906005612dad565b90505b60005b8160ff168160ff16108015611bad5750600b84015415155b15611c8557600b8401805460009190611bc890600190612d61565b81548110611bd857611bd8612c3a565b90600052602060002090602091828204019190069054906101000a900460ff16905084600b01805480611c0d57611c0d612d74565b60008281526020808220600019909301818104909301805460ff601f80871661010090810a830219909316909355949095556003890180546001810182559084529282902091830490910180548685169390921690940a918202919092021990911617905581611c7c81612cfb565b92505050611b95565b60ff811615610e0f5760405160ff821681526001600160a01b0386169087907f61122678b83552d47f9ad2905cf1399b15d78b009910fc68c8782f2696b115569060200160405180910390a3505050505050565b600081815260016020819052604090912060088101548183015491929091611d0c91600160b01b90910460ff1690612dc6565b611d169190612df5565b60018201805460ff60b01b1916600160b01b60ff93841681029190911791829055900416600003611d5957600281018054906000611d5383612c66565b91905055505b42600482015560018101546008820180549091600160b01b900460ff16908110611d8557611d85612c3a565b600091825260209182902001546001830154604051600160b01b90910460ff1681526001600160a01b039091169184917fd48662f539b10425cf4a565afdaac42d9593d8216a745cefb2429c7ef043e77b910160405180910390a35050565b6000838152600160208181526040808420815160c0810183526001600160a01b03888116808352828601898152838601899052855189815280880187526060850152608084018890524260a08501529088526007840190955292909520855181546001600160a01b03191693169290921782559151919392909190820190611e6c9082612e5d565b506040820151600282015560608201518051611e92916003840191602090910190612506565b50608082015160048201805460ff191691151591909117905560a0909101516005909101556008018054600181810183556000928352602080842090920180546001600160a01b0319166001600160a01b03969096169586179055938252600281526040822080549485018155825290209091019190915550565b60008181526001602081905260408220808201805460ff1916909217909155426004820155905b6008820154811015611f8557611f7383836008018381548110611f5957611f59612c3a565b6000918252602090912001546001600160a01b0316611b48565b80611f7d81612c66565b915050611f34565b5060405182907f50ad08f58a27f2851d7e3a1b3a6a46b290f2ce677e99642d30ff639721e7779090600090a25050565b60008181526001602052604090819020815160328082526106608201909352909181602001602082028036833750508151611ff992600b8501925060200190612506565b506000805b60098160ff16116120b95760005b60008260ff16600a811061202257612022612c3a565b602081049091015460ff601f9092166101000a9004811690821610156120a6578184600b018460ff168154811061205b5761205b612c3a565b90600052602060002090602091828204019190066101000a81548160ff021916908360ff160217905550828061209090612cfb565b935050808061209e90612cfb565b91505061200c565b50806120b181612cfb565b915050611ffe565b50611a2283612345565b6000838152600160208181526040808420815160808082018452600019808352828601879052828501889052606080840189905285519283018652888352958201889052938101939093529282019390935283805b600481101561232857600084826004811061213557612135612c3a565b602002015189602001516121499190612d8a565b9050600084836004811061215f5761215f612c3a565b60200201518a604001516121739190612d8a565b60405160f084811b602083015282901b602282015290915060009060240160408051808303601f190181529181528151602092830120600081815260098c01909352908220549092508190600160281b900460ff16156121ea575050600081815260098901602052604090205460ff16600161228c565b60005b8c5181101561228a578560010b8d828151811061220c5761220c612c3a565b60200260200101516020015160010b14801561224a57508460010b8d828151811061223957612239612c3a565b60200260200101516040015160010b145b15612278578c818151811061226157612261612c3a565b60200260200101516000015192506001915061228a565b8061228281612c66565b9150506121ed565b505b8015612310578c51600197506000906122a6908490612dc6565b905060008360ff168f6000015160ff16116122cc578e516122c79085612dad565b6122d9565b8e516122d9908590612dad565b90508160ff166005141580156122f357508060ff16600514155b1561230d5760009c505050505050505050505050506118f9565b50505b5050505050808061232090612c66565b915050612118565b5080806123395750600584015460ff165b98975050505050505050565b6000818152600160205260408120600b81015490915b600a8160ff1610156124e157600c8301805460408051602080820193909352428183015260f885901b6001600160f81b03191660608201528151604181830301815260619091019091528051910120908190556000906123bc908490612f1d565b9050600083600886600c0154901c6123d49190612f1d565b90508082146124cc57600085600b0183815481106123f4576123f4612c3a565b90600052602060002090602091828204019190069054906101000a900460ff16905085600b01828154811061242b5761242b612c3a565b90600052602060002090602091828204019190069054906101000a900460ff1686600b01848154811061246057612460612c3a565b90600052602060002090602091828204019190066101000a81548160ff021916908360ff1602179055508086600b0183815481106124a0576124a0612c3a565b90600052602060002090602091828204019190066101000a81548160ff021916908360ff160217905550505b505080806124d990612cfb565b91505061235b565b50505050565b604051806101400160405280600a906020820280368337509192915050565b82805482825590600052602060002090601f0160209004810192821561259c5791602002820160005b8382111561256d57835183826101000a81548160ff021916908360ff160217905550926020019260010160208160000104928301926001030261252f565b801561259a5782816101000a81549060ff021916905560010160208160000104928301926001030261256d565b505b506125a89291506125ac565b5090565b5b808211156125a857600081556001016125ad565b634e487b7160e01b600052604160045260246000fd5b6040516060810167ffffffffffffffff811182821017156125fa576125fa6125c1565b60405290565b604051601f8201601f1916810167ffffffffffffffff81118282101715612629576126296125c1565b604052919050565b803560ff8116811461264257600080fd5b919050565b8035600181900b811461264257600080fd5b600080604080848603121561266d57600080fd5b8335925060208085013567ffffffffffffffff8082111561268d57600080fd5b818701915087601f8301126126a157600080fd5b8135818111156126b3576126b36125c1565b6126c1848260051b01612600565b8181528481019250606091820284018501918a8311156126e057600080fd5b938501935b8285101561273d5780858c0312156126fd5760008081fd5b6127056125d7565b61270e86612631565b815261271b878701612647565b8782015261272a888701612647565b81890152845293840193928501926126e5565b508096505050505050509250929050565b80356001600160a01b038116811461264257600080fd5b6000806040838503121561277857600080fd5b6127818361274e565b946020939093013593505050565b6000602082840312156127a157600080fd5b5035919050565b634e487b7160e01b600052602160045260246000fd5b600481106127dc57634e487b7160e01b600052602160045260246000fd5b9052565b8b815261016081016127f5602083018d6127be565b6001600160a01b039a909a16604082015260ff988916606082015296909716608087015260a086019490945260c085019290925260e08401521515610100830152610120820152610140015292915050565b60006020828403121561285957600080fd5b6118f98261274e565b600081518084526020808501945080840160005b8381101561289257815187529582019590820190600101612876565b509495945050505050565b6020815260006118f96020830184612862565b6101408101818360005b600a8110156128dc57815160ff168352602092830192909101906001016128ba565b50505092915050565b600080604083850312156128f857600080fd5b823591506129086020840161274e565b90509250929050565b6000815180845260005b818110156129375760208185018101518683018201520161291b565b506000602082860101526020601f19601f83011685010191505092915050565b60a08152600061296a60a0830188612911565b6020838101889052838203604085015286518083528782019282019060005b818110156129a857845160ff1683529383019391830191600101612989565b50509515156060850152505050608001529392505050565b600082601f8301126129d157600080fd5b813567ffffffffffffffff8111156129eb576129eb6125c1565b6129fe601f8201601f1916602001612600565b818152846020838601011115612a1357600080fd5b816020850160208301376000918101602001919091529392505050565b60008060408385031215612a4357600080fd5b82359150602083013567ffffffffffffffff811115612a6157600080fd5b612a6d858286016129c0565b9150509250929050565b600080600060608486031215612a8c57600080fd5b83359250612a9c60208501612647565b9150612aaa60408501612647565b90509250925092565b60008060008060808587031215612ac957600080fd5b612ad285612631565b935060208501358015158114612ae757600080fd5b925060408501359150606085013567ffffffffffffffff811115612b0a57600080fd5b612b16878288016129c0565b91505092959194509250565b6000610140808301612b34848f6127be565b602060018060a01b03808f168287015260ff8e16604087015260ff8d1660608701528b60808701528a60a087015289151560c08701528360e0870152829350885180845261016087019450828a01935060005b81811015612ba5578451831686529483019493830193600101612b87565b5050505050828103610100840152612bbd8186612862565b915050826101208301529b9a5050505050505050505050565b60208082526013908201527211d85b5948191bd95cc81b9bdd08195e1a5cdd606a1b604082015260600190565b6020808252601a908201527f47616d65206e6f7420696e206578706563746564207374617465000000000000604082015260600190565b634e487b7160e01b600052603260045260246000fd5b634e487b7160e01b600052601160045260246000fd5b600060018201612c7857612c78612c50565b5060010190565b8082018082111561175657611756612c50565b6040808252835182820181905260009190606090818501906020808901865b83811015612ce7578151805160ff16865283810151600190810b8588015290880151810b88870152948601949183019101612cb1565b505095909501959095525092949350505050565b600060ff821660ff8103612d1157612d11612c50565b60010192915050565b600181811c90821680612d2e57607f821691505b602082108103610a9057634e487b7160e01b600052602260045260246000fd5b6020815260006118f96020830184612911565b8181038181111561175657611756612c50565b634e487b7160e01b600052603160045260246000fd5b600181810b9083900b01617fff8113617fff198212171561175657611756612c50565b60ff828116828216039081111561175657611756612c50565b60ff818116838216019081111561175657611756612c50565b634e487b7160e01b600052601260045260246000fd5b600060ff831680612e0857612e08612ddf565b8060ff84160691505092915050565b601f821115611a2257600081815260208120601f850160051c81016020861015612e3e5750805b601f850160051c820191505b81811015610e0f57828155600101612e4a565b815167ffffffffffffffff811115612e7757612e776125c1565b612e8b81612e858454612d1a565b84612e17565b602080601f831160018114612ec05760008415612ea85750858301515b600019600386901b1c1916600185901b178555610e0f565b600085815260208120601f198616915b82811015612eef57888601518255948401946001909101908401612ed0565b5085821015612f0d5787850151600019600388901b60f8161c191681555b5050505050600190811b01905550565b600082612f2c57612f2c612ddf565b50069056fea26469706673582212200a62c9209acdbaf18fb6e3d48ef9449d01a171d7fa1d6cdf23708e49d5b7f22764736f6c63430008130033","opcodes":"PUSH2 0x1C0 PUSH1 0x40 MSTORE PUSH1 0x5 PUSH1 0x80 DUP2 DUP2 MSTORE PUSH1 0xA0 DUP3 SWAP1 MSTORE PUSH1 0xC0 DUP3 SWAP1 MSTORE PUSH1 0xE0 DUP3 SWAP1 MSTORE PUSH2 0x100 DUP3 SWAP1 MSTORE PUSH2 0x120 DUP3 SWAP1 MSTORE PUSH2 0x140 DUP3 SWAP1 MSTORE PUSH2 0x160 DUP3 SWAP1 MSTORE PUSH2 0x180 DUP3 SWAP1 MSTORE PUSH2 0x1A0 SWAP2 SWAP1 SWAP2 MSTORE PUSH3 0x50 SWAP1 PUSH1 0x0 SWAP1 PUSH1 0xA PUSH3 0x6A JUMP JUMPDEST POP PUSH1 0x1 PUSH1 0x3 SSTORE CALLVALUE DUP1 ISZERO PUSH3 0x63 JUMPI PUSH1 0x0 DUP1 REVERT JUMPDEST POP PUSH3 0x11B JUMP JUMPDEST PUSH1 0x1 DUP4 ADD SWAP2 DUP4 SWAP1 DUP3 ISZERO PUSH3 0xF2 JUMPI SWAP2 PUSH1 0x20 MUL DUP3 ADD PUSH1 0x0 JUMPDEST DUP4 DUP3 GT ISZERO PUSH3 0xC1 JUMPI DUP4 MLOAD DUP4 DUP3 PUSH2 0x100 EXP DUP2 SLOAD DUP2 PUSH1 0xFF MUL NOT AND SWAP1 DUP4 PUSH1 0xFF AND MUL OR SWAP1 SSTORE POP SWAP3 PUSH1 0x20 ADD SWAP3 PUSH1 0x1 ADD PUSH1 0x20 DUP2 PUSH1 0x0 ADD DIV SWAP3 DUP4 ADD SWAP3 PUSH1 0x1 SUB MUL PUSH3 0x81 JUMP JUMPDEST DUP1 ISZERO PUSH3 0xF0 JUMPI DUP3 DUP2 PUSH2 0x100 EXP DUP2 SLOAD SWAP1 PUSH1 0xFF MUL NOT AND SWAP1 SSTORE PUSH1 0x1 ADD PUSH1 0x20 DUP2 PUSH1 0x0 ADD DIV SWAP3 DUP4 ADD SWAP3 PUSH1 0x1 SUB MUL PUSH3 0xC1 JUMP JUMPDEST POP JUMPDEST POP PUSH3 0x100 SWAP3 SWAP2 POP PUSH3 0x104 JUMP JUMPDEST POP SWAP1 JUMP JUMPDEST JUMPDEST DUP1 DUP3 GT ISZERO PUSH3 0x100 JUMPI PUSH1 0x0 DUP2 SSTORE PUSH1 0x1 ADD PUSH3 0x105 JUMP JUMPDEST PUSH2 0x2F67 DUP1 PUSH3 0x12B PUSH1 0x0 CODECOPY PUSH1 0x0 RETURN INVALID PUSH1 0x80 PUSH1 0x40 MSTORE CALLVALUE DUP1 ISZERO PUSH2 0x10 JUMPI PUSH1 0x0 DUP1 REVERT JUMPDEST POP PUSH1 0x4 CALLDATASIZE LT PUSH2 0x116 JUMPI PUSH1 0x0 CALLDATALOAD PUSH1 0xE0 SHR DUP1 PUSH4 0x76D4293C GT PUSH2 0xA2 JUMPI DUP1 PUSH4 0xCE371CBD GT PUSH2 0x71 JUMPI DUP1 PUSH4 0xCE371CBD EQ PUSH2 0x2F2 JUMPI DUP1 PUSH4 0xD4698E5B EQ PUSH2 0x305 JUMPI DUP1 PUSH4 0xE3087FEC EQ PUSH2 0x32A JUMPI DUP1 PUSH4 0xE5ED1D59 EQ PUSH2 0x332 JUMPI DUP1 PUSH4 0xE6BA69D8 EQ PUSH2 0x345 JUMPI PUSH1 0x0 DUP1 REVERT JUMPDEST DUP1 PUSH4 0x76D4293C EQ PUSH2 0x27B JUMPI DUP1 PUSH4 0x8B38795D EQ PUSH2 0x2AD JUMPI DUP1 PUSH4 0xA2F77BCC EQ PUSH2 0x2C0 JUMPI DUP1 PUSH4 0xB135BBB0 EQ PUSH2 0x2E9 JUMPI PUSH1 0x0 DUP1 REVERT JUMPDEST DUP1 PUSH4 0x249123D3 GT PUSH2 0xE9 JUMPI DUP1 PUSH4 0x249123D3 EQ PUSH2 0x207 JUMPI DUP1 PUSH4 0x6454E58D EQ PUSH2 0x227 JUMPI DUP1 PUSH4 0x68880A26 EQ PUSH2 0x24B JUMPI DUP1 PUSH4 0x69958AB9 EQ PUSH2 0x25E JUMPI DUP1 PUSH4 0x6A07DC12 EQ PUSH2 0x271 JUMPI PUSH1 0x0 DUP1 REVERT JUMPDEST DUP1 PUSH4 0x84BA9B8 EQ PUSH2 0x11B JUMPI DUP1 PUSH4 0xA5694C2 EQ PUSH2 0x130 JUMPI DUP1 PUSH4 0x117A5B90 EQ PUSH2 0x156 JUMPI DUP1 PUSH4 0x129DAF84 EQ PUSH2 0x1E7 JUMPI JUMPDEST PUSH1 0x0 DUP1 REVERT JUMPDEST PUSH2 0x12E PUSH2 0x129 CALLDATASIZE PUSH1 0x4 PUSH2 0x2659 JUMP JUMPDEST PUSH2 0x34D JUMP JUMPDEST STOP JUMPDEST PUSH2 0x143 PUSH2 0x13E CALLDATASIZE PUSH1 0x4 PUSH2 0x2765 JUMP JUMPDEST PUSH2 0x930 JUMP JUMPDEST PUSH1 0x40 MLOAD SWAP1 DUP2 MSTORE PUSH1 0x20 ADD JUMPDEST PUSH1 0x40 MLOAD DUP1 SWAP2 SUB SWAP1 RETURN JUMPDEST PUSH2 0x1D0 PUSH2 0x164 CALLDATASIZE PUSH1 0x4 PUSH2 0x278F JUMP JUMPDEST PUSH1 0x1 PUSH1 0x20 DUP2 SWAP1 MSTORE PUSH1 0x0 SWAP2 DUP3 MSTORE PUSH1 0x40 SWAP1 SWAP2 KECCAK256 DUP1 SLOAD SWAP2 DUP2 ADD SLOAD PUSH1 0x2 DUP3 ADD SLOAD PUSH1 0x3 DUP4 ADD SLOAD PUSH1 0x4 DUP5 ADD SLOAD PUSH1 0x5 DUP6 ADD SLOAD PUSH1 0x6 DUP7 ADD SLOAD PUSH1 0xC SWAP1 SWAP7 ADD SLOAD PUSH1 0xFF DUP1 DUP8 AND SWAP8 PUSH1 0x1 PUSH1 0x1 PUSH1 0xA0 SHL SUB PUSH2 0x100 DUP10 DIV AND SWAP8 PUSH1 0x1 PUSH1 0xA8 SHL DUP2 DIV DUP4 AND SWAP8 PUSH1 0x1 PUSH1 0xB0 SHL SWAP1 SWAP2 DIV DUP4 AND SWAP7 SWAP1 SWAP6 SWAP1 SWAP5 SWAP1 SWAP4 SWAP3 AND SWAP2 DUP12 JUMP JUMPDEST PUSH1 0x40 MLOAD PUSH2 0x14D SWAP12 SWAP11 SWAP10 SWAP9 SWAP8 SWAP7 SWAP6 SWAP5 SWAP4 SWAP3 SWAP2 SWAP1 PUSH2 0x27E0 JUMP JUMPDEST PUSH2 0x1FA PUSH2 0x1F5 CALLDATASIZE PUSH1 0x4 PUSH2 0x2847 JUMP JUMPDEST PUSH2 0x961 JUMP JUMPDEST PUSH1 0x40 MLOAD PUSH2 0x14D SWAP2 SWAP1 PUSH2 0x289D JUMP JUMPDEST PUSH2 0x21A PUSH2 0x215 CALLDATASIZE PUSH1 0x4 PUSH2 0x278F JUMP JUMPDEST PUSH2 0x9CD JUMP JUMPDEST PUSH1 0x40 MLOAD PUSH2 0x14D SWAP2 SWAP1 PUSH2 0x28B0 JUMP JUMPDEST PUSH2 0x23A PUSH2 0x235 CALLDATASIZE PUSH1 0x4 PUSH2 0x28E5 JUMP JUMPDEST PUSH2 0xA96 JUMP JUMPDEST PUSH1 0x40 MLOAD PUSH2 0x14D SWAP6 SWAP5 SWAP4 SWAP3 SWAP2 SWAP1 PUSH2 0x2957 JUMP JUMPDEST PUSH2 0x12E PUSH2 0x259 CALLDATASIZE PUSH1 0x4 PUSH2 0x2A30 JUMP JUMPDEST PUSH2 0xC26 JUMP JUMPDEST PUSH2 0x12E PUSH2 0x26C CALLDATASIZE PUSH1 0x4 PUSH2 0x278F JUMP JUMPDEST PUSH2 0xE17 JUMP JUMPDEST PUSH2 0x143 PUSH3 0x15180 DUP2 JUMP JUMPDEST PUSH2 0x28E PUSH2 0x289 CALLDATASIZE PUSH1 0x4 PUSH2 0x2A77 JUMP JUMPDEST PUSH2 0xF2E JUMP JUMPDEST PUSH1 0x40 DUP1 MLOAD SWAP4 ISZERO ISZERO DUP5 MSTORE PUSH1 0xFF SWAP1 SWAP3 AND PUSH1 0x20 DUP5 ADD MSTORE SWAP1 DUP3 ADD MSTORE PUSH1 0x60 ADD PUSH2 0x14D JUMP JUMPDEST PUSH2 0x143 PUSH2 0x2BB CALLDATASIZE PUSH1 0x4 PUSH2 0x2AB3 JUMP JUMPDEST PUSH2 0xFCF JUMP JUMPDEST PUSH2 0x2D3 PUSH2 0x2CE CALLDATASIZE PUSH1 0x4 PUSH2 0x278F JUMP JUMPDEST PUSH2 0x11E3 JUMP JUMPDEST PUSH1 0x40 MLOAD PUSH2 0x14D SWAP11 SWAP10 SWAP9 SWAP8 SWAP7 SWAP6 SWAP5 SWAP4 SWAP3 SWAP2 SWAP1 PUSH2 0x2B22 JUMP JUMPDEST PUSH2 0x143 PUSH1 0x3 SLOAD DUP2 JUMP JUMPDEST PUSH2 0x12E PUSH2 0x300 CALLDATASIZE PUSH1 0x4 PUSH2 0x278F JUMP JUMPDEST PUSH2 0x13CE JUMP JUMPDEST PUSH2 0x318 PUSH2 0x313 CALLDATASIZE PUSH1 0x4 PUSH2 0x278F JUMP JUMPDEST PUSH2 0x1570 JUMP JUMPDEST PUSH1 0x40 MLOAD PUSH1 0xFF SWAP1 SWAP2 AND DUP2 MSTORE PUSH1 0x20 ADD PUSH2 0x14D JUMP JUMPDEST PUSH2 0x143 PUSH1 0x64 DUP2 JUMP JUMPDEST PUSH2 0x12E PUSH2 0x340 CALLDATASIZE PUSH1 0x4 PUSH2 0x278F JUMP JUMPDEST PUSH2 0x159A JUMP JUMPDEST PUSH2 0x318 PUSH1 0x5 DUP2 JUMP JUMPDEST DUP2 PUSH1 0x0 DUP2 GT DUP1 ISZERO PUSH2 0x35F JUMPI POP PUSH1 0x3 SLOAD DUP2 LT JUMPDEST PUSH2 0x384 JUMPI PUSH1 0x40 MLOAD PUSH3 0x461BCD PUSH1 0xE5 SHL DUP2 MSTORE PUSH1 0x4 ADD PUSH2 0x37B SWAP1 PUSH2 0x2BD6 JUMP JUMPDEST PUSH1 0x40 MLOAD DUP1 SWAP2 SUB SWAP1 REVERT JUMPDEST DUP3 PUSH1 0x1 DUP1 PUSH1 0x0 DUP4 DUP2 MSTORE PUSH1 0x1 PUSH1 0x20 DUP2 SWAP1 MSTORE PUSH1 0x40 SWAP1 SWAP2 KECCAK256 ADD SLOAD PUSH1 0xFF AND PUSH1 0x3 DUP2 GT ISZERO PUSH2 0x3AF JUMPI PUSH2 0x3AF PUSH2 0x27A8 JUMP JUMPDEST EQ PUSH2 0x3CC JUMPI PUSH1 0x40 MLOAD PUSH3 0x461BCD PUSH1 0xE5 SHL DUP2 MSTORE PUSH1 0x4 ADD PUSH2 0x37B SWAP1 PUSH2 0x2C03 JUMP JUMPDEST PUSH1 0x0 DUP6 DUP2 MSTORE PUSH1 0x1 PUSH1 0x20 SWAP1 DUP2 MSTORE PUSH1 0x40 DUP1 DUP4 KECCAK256 CALLER DUP5 MSTORE PUSH1 0x7 ADD SWAP1 SWAP2 MSTORE SWAP1 KECCAK256 PUSH1 0x4 ADD SLOAD DUP6 SWAP1 PUSH1 0xFF AND PUSH2 0x432 JUMPI PUSH1 0x40 MLOAD PUSH3 0x461BCD PUSH1 0xE5 SHL DUP2 MSTORE PUSH1 0x20 PUSH1 0x4 DUP3 ADD MSTORE PUSH1 0x12 PUSH1 0x24 DUP3 ADD MSTORE PUSH18 0x506C61796572206E6F7420696E2067616D65 PUSH1 0x70 SHL PUSH1 0x44 DUP3 ADD MSTORE PUSH1 0x64 ADD PUSH2 0x37B JUMP JUMPDEST PUSH1 0x0 DUP7 DUP2 MSTORE PUSH1 0x1 PUSH1 0x20 DUP2 SWAP1 MSTORE PUSH1 0x40 SWAP1 SWAP2 KECCAK256 SWAP1 DUP2 ADD SLOAD PUSH1 0x8 DUP3 ADD DUP1 SLOAD DUP10 SWAP4 SWAP3 CALLER SWAP3 SWAP2 PUSH1 0x1 PUSH1 0xB0 SHL SWAP1 SWAP2 DIV PUSH1 0xFF AND SWAP1 DUP2 LT PUSH2 0x46D JUMPI PUSH2 0x46D PUSH2 0x2C3A JUMP JUMPDEST PUSH1 0x0 SWAP2 DUP3 MSTORE PUSH1 0x20 SWAP1 SWAP2 KECCAK256 ADD SLOAD PUSH1 0x1 PUSH1 0x1 PUSH1 0xA0 SHL SUB AND EQ PUSH2 0x4BF JUMPI PUSH1 0x40 MLOAD PUSH3 0x461BCD PUSH1 0xE5 SHL DUP2 MSTORE PUSH1 0x20 PUSH1 0x4 DUP3 ADD MSTORE PUSH1 0xD PUSH1 0x24 DUP3 ADD MSTORE PUSH13 0x2737BA103CB7BAB9103A3AB937 PUSH1 0x99 SHL PUSH1 0x44 DUP3 ADD MSTORE PUSH1 0x64 ADD PUSH2 0x37B JUMP JUMPDEST PUSH1 0x0 DUP8 MLOAD GT PUSH2 0x510 JUMPI PUSH1 0x40 MLOAD PUSH3 0x461BCD PUSH1 0xE5 SHL DUP2 MSTORE PUSH1 0x20 PUSH1 0x4 DUP3 ADD MSTORE PUSH1 0x1C PUSH1 0x24 DUP3 ADD MSTORE PUSH32 0x4D75737420706C616365206174206C65617374206F6E652074696C6500000000 PUSH1 0x44 DUP3 ADD MSTORE PUSH1 0x64 ADD PUSH2 0x37B JUMP JUMPDEST PUSH1 0xA DUP8 MLOAD GT ISZERO PUSH2 0x562 JUMPI PUSH1 0x40 MLOAD PUSH3 0x461BCD PUSH1 0xE5 SHL DUP2 MSTORE PUSH1 0x20 PUSH1 0x4 DUP3 ADD MSTORE PUSH1 0x1A PUSH1 0x24 DUP3 ADD MSTORE PUSH32 0x546F6F206D616E792074696C657320696E206F6E65207475726E000000000000 PUSH1 0x44 DUP3 ADD MSTORE PUSH1 0x64 ADD PUSH2 0x37B JUMP JUMPDEST PUSH1 0x0 DUP9 DUP2 MSTORE PUSH1 0x1 PUSH1 0x20 SWAP1 DUP2 MSTORE PUSH1 0x40 DUP1 DUP4 KECCAK256 CALLER DUP5 MSTORE PUSH1 0x7 DUP2 ADD SWAP1 SWAP3 MSTORE DUP3 KECCAK256 SWAP1 SWAP2 JUMPDEST DUP10 MLOAD DUP2 LT ISZERO PUSH2 0x670 JUMPI PUSH2 0x5B2 DUP3 DUP12 DUP4 DUP2 MLOAD DUP2 LT PUSH2 0x5A1 JUMPI PUSH2 0x5A1 PUSH2 0x2C3A JUMP JUMPDEST PUSH1 0x20 MUL PUSH1 0x20 ADD ADD MLOAD PUSH1 0x0 ADD MLOAD PUSH2 0x16E6 JUMP JUMPDEST PUSH2 0x5F5 JUMPI PUSH1 0x40 MLOAD PUSH3 0x461BCD PUSH1 0xE5 SHL DUP2 MSTORE PUSH1 0x20 PUSH1 0x4 DUP3 ADD MSTORE PUSH1 0x14 PUSH1 0x24 DUP3 ADD MSTORE PUSH20 0x446F6E2774206861766520746869732074696C65 PUSH1 0x60 SHL PUSH1 0x44 DUP3 ADD MSTORE PUSH1 0x64 ADD PUSH2 0x37B JUMP JUMPDEST PUSH2 0x619 DUP12 DUP12 DUP4 DUP2 MLOAD DUP2 LT PUSH2 0x60B JUMPI PUSH2 0x60B PUSH2 0x2C3A JUMP JUMPDEST PUSH1 0x20 MUL PUSH1 0x20 ADD ADD MLOAD DUP13 PUSH2 0x175C JUMP JUMPDEST PUSH2 0x65E JUMPI PUSH1 0x40 MLOAD PUSH3 0x461BCD PUSH1 0xE5 SHL DUP2 MSTORE PUSH1 0x20 PUSH1 0x4 DUP3 ADD MSTORE PUSH1 0x16 PUSH1 0x24 DUP3 ADD MSTORE PUSH22 0x125B9D985B1A59081D1A5B19481C1B1858D95B595B9D PUSH1 0x52 SHL PUSH1 0x44 DUP3 ADD MSTORE PUSH1 0x64 ADD PUSH2 0x37B JUMP JUMPDEST DUP1 PUSH2 0x668 DUP2 PUSH2 0x2C66 JUMP JUMPDEST SWAP2 POP POP PUSH2 0x582 JUMP JUMPDEST POP PUSH1 0x0 DUP1 JUMPDEST DUP11 MLOAD DUP2 LT ISZERO PUSH2 0x83F JUMPI PUSH1 0x0 DUP12 DUP3 DUP2 MLOAD DUP2 LT PUSH2 0x692 JUMPI PUSH2 0x692 PUSH2 0x2C3A JUMP JUMPDEST PUSH1 0x20 MUL PUSH1 0x20 ADD ADD MLOAD SWAP1 POP PUSH1 0x0 DUP2 PUSH1 0x20 ADD MLOAD DUP3 PUSH1 0x40 ADD MLOAD PUSH1 0x40 MLOAD PUSH1 0x20 ADD PUSH2 0x6C8 SWAP3 SWAP2 SWAP1 PUSH1 0xF0 SWAP3 DUP4 SHL DUP2 MSTORE SWAP2 SHL PUSH1 0x2 DUP3 ADD MSTORE PUSH1 0x4 ADD SWAP1 JUMP JUMPDEST PUSH1 0x40 MLOAD PUSH1 0x20 DUP2 DUP4 SUB SUB DUP2 MSTORE SWAP1 PUSH1 0x40 MSTORE DUP1 MLOAD SWAP1 PUSH1 0x20 ADD KECCAK256 SWAP1 POP PUSH1 0x40 MLOAD DUP1 PUSH1 0xA0 ADD PUSH1 0x40 MSTORE DUP1 DUP4 PUSH1 0x0 ADD MLOAD PUSH1 0xFF AND DUP2 MSTORE PUSH1 0x20 ADD DUP4 PUSH1 0x20 ADD MLOAD PUSH1 0x1 SIGNEXTEND DUP2 MSTORE PUSH1 0x20 ADD DUP4 PUSH1 0x40 ADD MLOAD PUSH1 0x1 SIGNEXTEND DUP2 MSTORE PUSH1 0x20 ADD PUSH1 0x1 ISZERO ISZERO DUP2 MSTORE PUSH1 0x20 ADD DUP8 PUSH1 0x2 ADD SLOAD DUP2 MSTORE POP DUP7 PUSH1 0x9 ADD PUSH1 0x0 DUP4 DUP2 MSTORE PUSH1 0x20 ADD SWAP1 DUP2 MSTORE PUSH1 0x20 ADD PUSH1 0x0 KECCAK256 PUSH1 0x0 DUP3 ADD MLOAD DUP2 PUSH1 0x0 ADD PUSH1 0x0 PUSH2 0x100 EXP DUP2 SLOAD DUP2 PUSH1 0xFF MUL NOT AND SWAP1 DUP4 PUSH1 0xFF AND MUL OR SWAP1 SSTORE POP PUSH1 0x20 DUP3 ADD MLOAD DUP2 PUSH1 0x0 ADD PUSH1 0x1 PUSH2 0x100 EXP DUP2 SLOAD DUP2 PUSH2 0xFFFF MUL NOT AND SWAP1 DUP4 PUSH1 0x1 SIGNEXTEND PUSH2 0xFFFF AND MUL OR SWAP1 SSTORE POP PUSH1 0x40 DUP3 ADD MLOAD DUP2 PUSH1 0x0 ADD PUSH1 0x3 PUSH2 0x100 EXP DUP2 SLOAD DUP2 PUSH2 0xFFFF MUL NOT AND SWAP1 DUP4 PUSH1 0x1 SIGNEXTEND PUSH2 0xFFFF AND MUL OR SWAP1 SSTORE POP PUSH1 0x60 DUP3 ADD MLOAD DUP2 PUSH1 0x0 ADD PUSH1 0x5 PUSH2 0x100 EXP DUP2 SLOAD DUP2 PUSH1 0xFF MUL NOT AND SWAP1 DUP4 ISZERO ISZERO MUL OR SWAP1 SSTORE POP PUSH1 0x80 DUP3 ADD MLOAD DUP2 PUSH1 0x1 ADD SSTORE SWAP1 POP POP DUP6 PUSH1 0xA ADD DUP2 SWAP1 DUP1 PUSH1 0x1 DUP2 SLOAD ADD DUP1 DUP3 SSTORE DUP1 SWAP2 POP POP PUSH1 0x1 SWAP1 SUB SWAP1 PUSH1 0x0 MSTORE PUSH1 0x20 PUSH1 0x0 KECCAK256 ADD PUSH1 0x0 SWAP1 SWAP2 SWAP1 SWAP2 SWAP1 SWAP2 POP SSTORE PUSH2 0x80B DUP6 DUP4 PUSH1 0x0 ADD MLOAD PUSH2 0x1900 JUMP JUMPDEST PUSH2 0x81E DUP15 DUP4 PUSH1 0x20 ADD MLOAD DUP5 PUSH1 0x40 ADD MLOAD PUSH2 0x1A27 JUMP JUMPDEST PUSH2 0x828 SWAP1 DUP6 PUSH2 0x2C7F JUMP JUMPDEST SWAP4 POP POP POP DUP1 DUP1 PUSH2 0x837 SWAP1 PUSH2 0x2C66 JUMP JUMPDEST SWAP2 POP POP PUSH2 0x675 JUMP JUMPDEST POP DUP1 DUP3 PUSH1 0x2 ADD PUSH1 0x0 DUP3 DUP3 SLOAD PUSH2 0x854 SWAP2 SWAP1 PUSH2 0x2C7F JUMP JUMPDEST SWAP1 SWAP2 SSTORE POP POP TIMESTAMP PUSH1 0x5 DUP4 ADD SSTORE PUSH1 0x40 MLOAD CALLER SWAP1 DUP13 SWAP1 PUSH32 0x2F138C198AF21768B3E95851FCF98D667C620EA08BA24C8AFCEAD9165293C39D SWAP1 PUSH2 0x895 SWAP1 DUP15 SWAP1 DUP7 SWAP1 PUSH2 0x2C92 JUMP JUMPDEST PUSH1 0x40 MLOAD DUP1 SWAP2 SUB SWAP1 LOG3 PUSH2 0x8A7 DUP12 CALLER PUSH2 0x1B48 JUMP JUMPDEST PUSH1 0x3 DUP3 ADD SLOAD ISZERO DUP1 PUSH2 0x8C0 JUMPI POP DUP3 PUSH1 0x6 ADD SLOAD DUP3 PUSH1 0x2 ADD SLOAD LT ISZERO JUMPDEST ISZERO PUSH2 0x919 JUMPI PUSH1 0x1 DUP4 ADD DUP1 SLOAD PUSH1 0xFF NOT AND PUSH1 0x2 SWAP1 DUP2 OR SWAP1 SWAP2 SSTORE DUP3 ADD SLOAD PUSH1 0x40 MLOAD SWAP1 DUP2 MSTORE CALLER SWAP1 DUP13 SWAP1 PUSH32 0xF6AE188CC6336EF5AD970D3C81CDA5814B4C4902540924C6924DEBE94ECE13EB SWAP1 PUSH1 0x20 ADD PUSH1 0x40 MLOAD DUP1 SWAP2 SUB SWAP1 LOG3 POP POP POP PUSH2 0x926 JUMP JUMPDEST PUSH2 0x922 DUP12 PUSH2 0x1CD9 JUMP JUMPDEST POP POP POP JUMPDEST POP POP POP POP POP POP POP POP JUMP JUMPDEST PUSH1 0x2 PUSH1 0x20 MSTORE DUP2 PUSH1 0x0 MSTORE PUSH1 0x40 PUSH1 0x0 KECCAK256 DUP2 DUP2 SLOAD DUP2 LT PUSH2 0x94C JUMPI PUSH1 0x0 DUP1 REVERT JUMPDEST SWAP1 PUSH1 0x0 MSTORE PUSH1 0x20 PUSH1 0x0 KECCAK256 ADD PUSH1 0x0 SWAP2 POP SWAP2 POP POP SLOAD DUP2 JUMP JUMPDEST PUSH1 0x1 PUSH1 0x1 PUSH1 0xA0 SHL SUB DUP2 AND PUSH1 0x0 SWAP1 DUP2 MSTORE PUSH1 0x2 PUSH1 0x20 SWAP1 DUP2 MSTORE PUSH1 0x40 SWAP2 DUP3 SWAP1 KECCAK256 DUP1 SLOAD DUP4 MLOAD DUP2 DUP5 MUL DUP2 ADD DUP5 ADD SWAP1 SWAP5 MSTORE DUP1 DUP5 MSTORE PUSH1 0x60 SWAP4 SWAP3 DUP4 ADD DUP3 DUP3 DUP1 ISZERO PUSH2 0x9C1 JUMPI PUSH1 0x20 MUL DUP3 ADD SWAP2 SWAP1 PUSH1 0x0 MSTORE PUSH1 0x20 PUSH1 0x0 KECCAK256 SWAP1 JUMPDEST DUP2 SLOAD DUP2 MSTORE PUSH1 0x20 ADD SWAP1 PUSH1 0x1 ADD SWAP1 DUP1 DUP4 GT PUSH2 0x9AD JUMPI JUMPDEST POP POP POP POP POP SWAP1 POP SWAP2 SWAP1 POP JUMP JUMPDEST PUSH2 0x9D5 PUSH2 0x24E7 JUMP JUMPDEST DUP2 PUSH1 0x0 DUP2 GT DUP1 ISZERO PUSH2 0x9E7 JUMPI POP PUSH1 0x3 SLOAD DUP2 LT JUMPDEST PUSH2 0xA03 JUMPI PUSH1 0x40 MLOAD PUSH3 0x461BCD PUSH1 0xE5 SHL DUP2 MSTORE PUSH1 0x4 ADD PUSH2 0x37B SWAP1 PUSH2 0x2BD6 JUMP JUMPDEST PUSH1 0x0 DUP4 DUP2 MSTORE PUSH1 0x1 PUSH1 0x20 MSTORE PUSH1 0x40 DUP2 KECCAK256 SWAP1 JUMPDEST PUSH1 0xB DUP3 ADD SLOAD DUP2 LT ISZERO PUSH2 0xA8D JUMPI DUP4 DUP3 PUSH1 0xB ADD DUP3 DUP2 SLOAD DUP2 LT PUSH2 0xA35 JUMPI PUSH2 0xA35 PUSH2 0x2C3A JUMP JUMPDEST PUSH1 0x0 SWAP2 DUP3 MSTORE PUSH1 0x20 SWAP2 DUP3 SWAP1 KECCAK256 SWAP2 DUP2 DIV SWAP1 SWAP2 ADD SLOAD PUSH1 0xFF PUSH1 0x1F SWAP1 SWAP3 AND PUSH2 0x100 EXP SWAP1 DIV AND PUSH1 0xA DUP2 LT PUSH2 0xA65 JUMPI PUSH2 0xA65 PUSH2 0x2C3A JUMP JUMPDEST PUSH1 0x20 MUL ADD DUP1 MLOAD SWAP1 PUSH2 0xA75 DUP3 PUSH2 0x2CFB JUMP JUMPDEST PUSH1 0xFF AND SWAP1 MSTORE POP DUP1 PUSH2 0xA85 DUP2 PUSH2 0x2C66 JUMP JUMPDEST SWAP2 POP POP PUSH2 0xA13 JUMP JUMPDEST POP POP JUMPDEST POP SWAP2 SWAP1 POP JUMP JUMPDEST PUSH1 0x60 PUSH1 0x0 PUSH1 0x60 PUSH1 0x0 DUP1 DUP7 PUSH1 0x0 DUP2 GT DUP1 ISZERO PUSH2 0xAB1 JUMPI POP PUSH1 0x3 SLOAD DUP2 LT JUMPDEST PUSH2 0xACD JUMPI PUSH1 0x40 MLOAD PUSH3 0x461BCD PUSH1 0xE5 SHL DUP2 MSTORE PUSH1 0x4 ADD PUSH2 0x37B SWAP1 PUSH2 0x2BD6 JUMP JUMPDEST PUSH1 0x0 DUP9 DUP2 MSTORE PUSH1 0x1 PUSH1 0x20 DUP2 DUP2 MSTORE PUSH1 0x40 DUP1 DUP5 KECCAK256 PUSH1 0x1 PUSH1 0x1 PUSH1 0xA0 SHL SUB DUP13 AND DUP6 MSTORE PUSH1 0x7 ADD SWAP1 SWAP2 MSTORE SWAP1 SWAP2 KECCAK256 PUSH1 0x2 DUP2 ADD SLOAD PUSH1 0x4 DUP3 ADD SLOAD PUSH1 0x5 DUP4 ADD SLOAD SWAP4 DUP4 ADD DUP1 SLOAD SWAP4 SWAP5 SWAP1 SWAP4 PUSH1 0x3 DUP7 ADD SWAP3 PUSH1 0xFF AND SWAP2 SWAP1 DUP6 SWAP1 PUSH2 0xB20 SWAP1 PUSH2 0x2D1A JUMP JUMPDEST DUP1 PUSH1 0x1F ADD PUSH1 0x20 DUP1 SWAP2 DIV MUL PUSH1 0x20 ADD PUSH1 0x40 MLOAD SWAP1 DUP2 ADD PUSH1 0x40 MSTORE DUP1 SWAP3 SWAP2 SWAP1 DUP2 DUP2 MSTORE PUSH1 0x20 ADD DUP3 DUP1 SLOAD PUSH2 0xB4C SWAP1 PUSH2 0x2D1A JUMP JUMPDEST DUP1 ISZERO PUSH2 0xB99 JUMPI DUP1 PUSH1 0x1F LT PUSH2 0xB6E JUMPI PUSH2 0x100 DUP1 DUP4 SLOAD DIV MUL DUP4 MSTORE SWAP2 PUSH1 0x20 ADD SWAP2 PUSH2 0xB99 JUMP JUMPDEST DUP3 ADD SWAP2 SWAP1 PUSH1 0x0 MSTORE PUSH1 0x20 PUSH1 0x0 KECCAK256 SWAP1 JUMPDEST DUP2 SLOAD DUP2 MSTORE SWAP1 PUSH1 0x1 ADD SWAP1 PUSH1 0x20 ADD DUP1 DUP4 GT PUSH2 0xB7C JUMPI DUP3 SWAP1 SUB PUSH1 0x1F AND DUP3 ADD SWAP2 JUMPDEST POP POP POP POP POP SWAP5 POP DUP3 DUP1 SLOAD DUP1 PUSH1 0x20 MUL PUSH1 0x20 ADD PUSH1 0x40 MLOAD SWAP1 DUP2 ADD PUSH1 0x40 MSTORE DUP1 SWAP3 SWAP2 SWAP1 DUP2 DUP2 MSTORE PUSH1 0x20 ADD DUP3 DUP1 SLOAD DUP1 ISZERO PUSH2 0xC09 JUMPI PUSH1 0x20 MUL DUP3 ADD SWAP2 SWAP1 PUSH1 0x0 MSTORE PUSH1 0x20 PUSH1 0x0 KECCAK256 SWAP1 PUSH1 0x0 SWAP1 JUMPDEST DUP3 SLOAD PUSH2 0x100 DUP4 SWAP1 EXP SWAP1 DIV PUSH1 0xFF AND DUP2 MSTORE PUSH1 0x20 PUSH1 0x1 SWAP3 DUP4 ADD DUP2 DUP2 DIV SWAP5 DUP6 ADD SWAP5 SWAP1 SWAP4 SUB SWAP1 SWAP3 MUL SWAP2 ADD DUP1 DUP5 GT PUSH2 0xBDA JUMPI SWAP1 POP JUMPDEST POP POP POP POP POP SWAP3 POP SWAP7 POP SWAP7 POP SWAP7 POP SWAP7 POP SWAP7 POP POP POP SWAP3 SWAP6 POP SWAP3 SWAP6 SWAP1 SWAP4 POP JUMP JUMPDEST DUP2 PUSH1 0x0 DUP2 GT DUP1 ISZERO PUSH2 0xC38 JUMPI POP PUSH1 0x3 SLOAD DUP2 LT JUMPDEST PUSH2 0xC54 JUMPI PUSH1 0x40 MLOAD PUSH3 0x461BCD PUSH1 0xE5 SHL DUP2 MSTORE PUSH1 0x4 ADD PUSH2 0x37B SWAP1 PUSH2 0x2BD6 JUMP JUMPDEST DUP3 PUSH1 0x0 DUP1 PUSH1 0x0 DUP4 DUP2 MSTORE PUSH1 0x1 PUSH1 0x20 DUP2 SWAP1 MSTORE PUSH1 0x40 SWAP1 SWAP2 KECCAK256 ADD SLOAD PUSH1 0xFF AND PUSH1 0x3 DUP2 GT ISZERO PUSH2 0xC7F JUMPI PUSH2 0xC7F PUSH2 0x27A8 JUMP JUMPDEST EQ PUSH2 0xC9C JUMPI PUSH1 0x40 MLOAD PUSH3 0x461BCD PUSH1 0xE5 SHL DUP2 MSTORE PUSH1 0x4 ADD PUSH2 0x37B SWAP1 PUSH2 0x2C03 JUMP JUMPDEST PUSH1 0x0 DUP6 DUP2 MSTORE PUSH1 0x1 PUSH1 0x20 SWAP1 DUP2 MSTORE PUSH1 0x40 DUP1 DUP4 KECCAK256 CALLER DUP5 MSTORE PUSH1 0x7 DUP2 ADD SWAP1 SWAP3 MSTORE SWAP1 SWAP2 KECCAK256 PUSH1 0x4 ADD SLOAD PUSH1 0xFF AND ISZERO PUSH2 0xD05 JUMPI PUSH1 0x40 MLOAD PUSH3 0x461BCD PUSH1 0xE5 SHL DUP2 MSTORE PUSH1 0x20 PUSH1 0x4 DUP3 ADD MSTORE PUSH1 0x14 PUSH1 0x24 DUP3 ADD MSTORE PUSH20 0x416C726561647920696E20746869732067616D65 PUSH1 0x60 SHL PUSH1 0x44 DUP3 ADD MSTORE PUSH1 0x64 ADD PUSH2 0x37B JUMP JUMPDEST PUSH1 0x1 DUP2 ADD SLOAD PUSH1 0x8 DUP3 ADD SLOAD PUSH1 0x1 PUSH1 0xA8 SHL SWAP1 SWAP2 DIV PUSH1 0xFF AND GT PUSH2 0xD56 JUMPI PUSH1 0x40 MLOAD PUSH3 0x461BCD PUSH1 0xE5 SHL DUP2 MSTORE PUSH1 0x20 PUSH1 0x4 DUP3 ADD MSTORE PUSH1 0xC PUSH1 0x24 DUP3 ADD MSTORE PUSH12 0x11D85B59481A5CC8199D5B1B PUSH1 0xA2 SHL PUSH1 0x44 DUP3 ADD MSTORE PUSH1 0x64 ADD PUSH2 0x37B JUMP JUMPDEST PUSH1 0x0 DUP6 MLOAD GT PUSH2 0xD9E JUMPI PUSH1 0x40 MLOAD PUSH3 0x461BCD PUSH1 0xE5 SHL DUP2 MSTORE PUSH1 0x20 PUSH1 0x4 DUP3 ADD MSTORE PUSH1 0x14 PUSH1 0x24 DUP3 ADD MSTORE PUSH20 0x141B185E595C881B985B59481C995C5D5A5C9959 PUSH1 0x62 SHL PUSH1 0x44 DUP3 ADD MSTORE PUSH1 0x64 ADD PUSH2 0x37B JUMP JUMPDEST PUSH2 0xDA9 DUP7 CALLER DUP8 PUSH2 0x1DE4 JUMP JUMPDEST CALLER PUSH1 0x1 PUSH1 0x1 PUSH1 0xA0 SHL SUB AND DUP7 PUSH32 0xA259BAB503F65F6AE62D4F6A412B41B967799A284F69F21BA61362CF04E5EAFA DUP8 PUSH1 0x40 MLOAD PUSH2 0xDE3 SWAP2 SWAP1 PUSH2 0x2D4E JUMP JUMPDEST PUSH1 0x40 MLOAD DUP1 SWAP2 SUB SWAP1 LOG3 PUSH1 0x1 DUP2 ADD SLOAD PUSH1 0x8 DUP3 ADD SLOAD PUSH1 0x1 PUSH1 0xA8 SHL SWAP1 SWAP2 DIV PUSH1 0xFF AND SWAP1 SUB PUSH2 0xE0F JUMPI PUSH2 0xE0F DUP7 PUSH2 0x1F0D JUMP JUMPDEST POP POP POP POP POP POP JUMP JUMPDEST DUP1 PUSH1 0x0 DUP2 GT DUP1 ISZERO PUSH2 0xE29 JUMPI POP PUSH1 0x3 SLOAD DUP2 LT JUMPDEST PUSH2 0xE45 JUMPI PUSH1 0x40 MLOAD PUSH3 0x461BCD PUSH1 0xE5 SHL DUP2 MSTORE PUSH1 0x4 ADD PUSH2 0x37B SWAP1 PUSH2 0x2BD6 JUMP JUMPDEST PUSH1 0x0 DUP3 DUP2 MSTORE PUSH1 0x1 PUSH1 0x20 DUP2 SWAP1 MSTORE PUSH1 0x40 DUP3 KECCAK256 SWAP1 DUP2 ADD SLOAD SWAP1 SWAP2 SWAP1 PUSH2 0x100 SWAP1 DIV PUSH1 0x1 PUSH1 0x1 PUSH1 0xA0 SHL SUB AND CALLER EQ DUP1 PUSH2 0xEAA JUMPI POP PUSH1 0x0 PUSH1 0x1 DUP4 ADD SLOAD PUSH1 0xFF AND PUSH1 0x3 DUP2 GT ISZERO PUSH2 0xE8D JUMPI PUSH2 0xE8D PUSH2 0x27A8 JUMP JUMPDEST EQ DUP1 ISZERO PUSH2 0xEAA JUMPI POP PUSH1 0x3 DUP3 ADD SLOAD PUSH2 0xEA7 SWAP1 PUSH3 0x15180 PUSH2 0x2C7F JUMP JUMPDEST TIMESTAMP GT JUMPDEST SWAP1 POP DUP1 PUSH2 0xEEE JUMPI PUSH1 0x40 MLOAD PUSH3 0x461BCD PUSH1 0xE5 SHL DUP2 MSTORE PUSH1 0x20 PUSH1 0x4 DUP3 ADD MSTORE PUSH1 0x12 PUSH1 0x24 DUP3 ADD MSTORE PUSH18 0x43616E6E6F742063616E63656C2067616D65 PUSH1 0x70 SHL PUSH1 0x44 DUP3 ADD MSTORE PUSH1 0x64 ADD PUSH2 0x37B JUMP JUMPDEST PUSH1 0x1 DUP3 ADD DUP1 SLOAD PUSH1 0xFF NOT AND PUSH1 0x3 OR SWAP1 SSTORE PUSH1 0x40 MLOAD DUP5 SWAP1 PUSH32 0x681705FDBD93DBA3B679FD712577E9A86D57C5551C520F8C74857DEB57F9623F SWAP1 PUSH1 0x0 SWAP1 LOG2 POP POP POP POP JUMP JUMPDEST PUSH1 0x0 DUP1 PUSH1 0x0 DUP6 PUSH1 0x0 DUP2 GT DUP1 ISZERO PUSH2 0xF45 JUMPI POP PUSH1 0x3 SLOAD DUP2 LT JUMPDEST PUSH2 0xF61 JUMPI PUSH1 0x40 MLOAD PUSH3 0x461BCD PUSH1 0xE5 SHL DUP2 MSTORE PUSH1 0x4 ADD PUSH2 0x37B SWAP1 PUSH2 0x2BD6 JUMP JUMPDEST PUSH1 0x40 MLOAD PUSH1 0xF0 DUP8 DUP2 SHL PUSH1 0x20 DUP4 ADD MSTORE DUP7 SWAP1 SHL PUSH1 0x22 DUP3 ADD MSTORE PUSH1 0x0 SWAP1 PUSH1 0x24 ADD PUSH1 0x40 DUP1 MLOAD PUSH1 0x1F NOT DUP2 DUP5 SUB ADD DUP2 MSTORE SWAP2 DUP2 MSTORE DUP2 MLOAD PUSH1 0x20 SWAP3 DUP4 ADD KECCAK256 PUSH1 0x0 SWAP11 DUP12 MSTORE PUSH1 0x1 DUP1 DUP5 MSTORE DUP3 DUP13 KECCAK256 SWAP2 DUP13 MSTORE PUSH1 0x9 SWAP1 SWAP2 ADD SWAP1 SWAP3 MSTORE SWAP1 SWAP9 KECCAK256 DUP1 SLOAD SWAP9 ADD SLOAD PUSH1 0xFF PUSH1 0x1 PUSH1 0x28 SHL DUP11 DIV DUP2 AND SWAP11 SWAP10 AND SWAP9 SWAP1 SWAP8 POP SWAP6 POP POP POP POP POP POP JUMP JUMPDEST PUSH1 0x0 PUSH1 0x2 DUP6 PUSH1 0xFF AND LT ISZERO DUP1 ISZERO PUSH2 0xFE9 JUMPI POP PUSH1 0x4 DUP6 PUSH1 0xFF AND GT ISZERO JUMPDEST PUSH2 0x102C JUMPI PUSH1 0x40 MLOAD PUSH3 0x461BCD PUSH1 0xE5 SHL DUP2 MSTORE PUSH1 0x20 PUSH1 0x4 DUP3 ADD MSTORE PUSH1 0x14 PUSH1 0x24 DUP3 ADD MSTORE PUSH20 0x125B9D985B1A59081C1B185E595C8818DBDD5B9D PUSH1 0x62 SHL PUSH1 0x44 DUP3 ADD MSTORE PUSH1 0x64 ADD PUSH2 0x37B JUMP JUMPDEST PUSH1 0x32 DUP4 LT ISZERO DUP1 ISZERO PUSH2 0x103F JUMPI POP PUSH2 0x1F4 DUP4 GT ISZERO JUMPDEST PUSH2 0x1083 JUMPI PUSH1 0x40 MLOAD PUSH3 0x461BCD PUSH1 0xE5 SHL DUP2 MSTORE PUSH1 0x20 PUSH1 0x4 DUP3 ADD MSTORE PUSH1 0x15 PUSH1 0x24 DUP3 ADD MSTORE PUSH21 0x496E76616C69642077696E6E696E672073636F7265 PUSH1 0x58 SHL PUSH1 0x44 DUP3 ADD MSTORE PUSH1 0x64 ADD PUSH2 0x37B JUMP JUMPDEST PUSH1 0x0 DUP3 MLOAD GT PUSH2 0x10CB JUMPI PUSH1 0x40 MLOAD PUSH3 0x461BCD PUSH1 0xE5 SHL DUP2 MSTORE PUSH1 0x20 PUSH1 0x4 DUP3 ADD MSTORE PUSH1 0x14 PUSH1 0x24 DUP3 ADD MSTORE PUSH20 0x141B185E595C881B985B59481C995C5D5A5C9959 PUSH1 0x62 SHL PUSH1 0x44 DUP3 ADD MSTORE PUSH1 0x64 ADD PUSH2 0x37B JUMP JUMPDEST PUSH1 0x3 DUP1 SLOAD PUSH1 0x0 SWAP2 DUP3 PUSH2 0x10DC DUP4 PUSH2 0x2C66 JUMP JUMPDEST SWAP1 SWAP2 SSTORE POP PUSH1 0x0 DUP2 DUP2 MSTORE PUSH1 0x1 PUSH1 0x20 DUP2 DUP2 MSTORE PUSH1 0x40 SWAP3 DUP4 SWAP1 KECCAK256 DUP5 DUP2 SSTORE DUP1 DUP4 ADD DUP1 SLOAD PUSH1 0x1 PUSH1 0x1 PUSH1 0xB0 SHL SUB NOT AND CALLER PUSH2 0x100 MUL PUSH1 0xFF PUSH1 0xA8 SHL NOT AND OR PUSH1 0x1 PUSH1 0xA8 SHL PUSH1 0xFF DUP15 AND MUL OR PUSH1 0xFF PUSH1 0xB0 SHL NOT AND SWAP1 SSTORE PUSH1 0x2 DUP2 ADD SWAP3 SWAP1 SWAP3 SSTORE TIMESTAMP PUSH1 0x3 DUP4 ADD DUP2 SWAP1 SSTORE PUSH1 0x4 DUP4 ADD DUP2 SWAP1 SSTORE PUSH1 0x5 DUP4 ADD DUP1 SLOAD PUSH1 0xFF NOT AND DUP12 ISZERO ISZERO OR SWAP1 SSTORE PUSH1 0x6 DUP4 ADD DUP10 SWAP1 SSTORE DUP4 MLOAD DUP1 DUP4 ADD SWAP2 SWAP1 SWAP2 MSTORE PREVRANDAO DUP2 DUP6 ADD MSTORE PUSH1 0x60 DUP1 DUP3 ADD DUP7 SWAP1 MSTORE DUP5 MLOAD DUP1 DUP4 SUB SWAP1 SWAP2 ADD DUP2 MSTORE PUSH1 0x80 SWAP1 SWAP2 ADD SWAP1 SWAP4 MSTORE DUP3 MLOAD SWAP3 ADD SWAP2 SWAP1 SWAP2 KECCAK256 PUSH1 0xC DUP3 ADD SSTORE SWAP1 SWAP2 POP PUSH2 0x1194 DUP3 PUSH2 0x1FB5 JUMP JUMPDEST PUSH2 0x119F DUP3 CALLER DUP7 PUSH2 0x1DE4 JUMP JUMPDEST PUSH1 0x40 MLOAD PUSH1 0xFF DUP9 AND DUP2 MSTORE CALLER SWAP1 DUP4 SWAP1 PUSH32 0xDD0ABCDFFC76581D11646898EE4D7F269CA1E0C0B622D072D343100DAD83ECB1 SWAP1 PUSH1 0x20 ADD PUSH1 0x40 MLOAD DUP1 SWAP2 SUB SWAP1 LOG3 POP SWAP6 SWAP5 POP POP POP POP POP JUMP JUMPDEST PUSH1 0x0 DUP1 PUSH1 0x0 DUP1 PUSH1 0x0 DUP1 PUSH1 0x0 PUSH1 0x60 DUP1 PUSH1 0x0 DUP11 PUSH1 0x0 DUP2 GT DUP1 ISZERO PUSH2 0x1205 JUMPI POP PUSH1 0x3 SLOAD DUP2 LT JUMPDEST PUSH2 0x1221 JUMPI PUSH1 0x40 MLOAD PUSH3 0x461BCD PUSH1 0xE5 SHL DUP2 MSTORE PUSH1 0x4 ADD PUSH2 0x37B SWAP1 PUSH2 0x2BD6 JUMP JUMPDEST PUSH1 0x0 DUP13 DUP2 MSTORE PUSH1 0x1 PUSH1 0x20 MSTORE PUSH1 0x40 DUP2 KECCAK256 PUSH1 0x8 DUP2 ADD SLOAD SWAP1 SWAP2 SWAP1 PUSH8 0xFFFFFFFFFFFFFFFF DUP2 GT ISZERO PUSH2 0x124F JUMPI PUSH2 0x124F PUSH2 0x25C1 JUMP JUMPDEST PUSH1 0x40 MLOAD SWAP1 DUP1 DUP3 MSTORE DUP1 PUSH1 0x20 MUL PUSH1 0x20 ADD DUP3 ADD PUSH1 0x40 MSTORE DUP1 ISZERO PUSH2 0x1278 JUMPI DUP2 PUSH1 0x20 ADD PUSH1 0x20 DUP3 MUL DUP1 CALLDATASIZE DUP4 CALLDATACOPY ADD SWAP1 POP JUMPDEST POP SWAP1 POP PUSH1 0x0 JUMPDEST PUSH1 0x8 DUP4 ADD SLOAD DUP2 LT ISZERO PUSH2 0x12FE JUMPI DUP3 PUSH1 0x7 ADD PUSH1 0x0 DUP5 PUSH1 0x8 ADD DUP4 DUP2 SLOAD DUP2 LT PUSH2 0x12A5 JUMPI PUSH2 0x12A5 PUSH2 0x2C3A JUMP JUMPDEST PUSH1 0x0 SWAP2 DUP3 MSTORE PUSH1 0x20 DUP1 DUP4 KECCAK256 SWAP1 SWAP2 ADD SLOAD PUSH1 0x1 PUSH1 0x1 PUSH1 0xA0 SHL SUB AND DUP4 MSTORE DUP3 ADD SWAP3 SWAP1 SWAP3 MSTORE PUSH1 0x40 ADD SWAP1 KECCAK256 PUSH1 0x2 ADD SLOAD DUP3 MLOAD DUP4 SWAP1 DUP4 SWAP1 DUP2 LT PUSH2 0x12E1 JUMPI PUSH2 0x12E1 PUSH2 0x2C3A JUMP JUMPDEST PUSH1 0x20 SWAP1 DUP2 MUL SWAP2 SWAP1 SWAP2 ADD ADD MSTORE DUP1 PUSH2 0x12F6 DUP2 PUSH2 0x2C66 JUMP JUMPDEST SWAP2 POP POP PUSH2 0x127E JUMP JUMPDEST POP PUSH1 0x1 DUP3 ADD SLOAD PUSH1 0x2 DUP4 ADD SLOAD PUSH1 0x3 DUP5 ADD SLOAD PUSH1 0x5 DUP6 ADD SLOAD PUSH1 0xB DUP7 ADD SLOAD PUSH1 0x8 DUP8 ADD DUP1 SLOAD PUSH1 0x40 DUP1 MLOAD PUSH1 0x20 DUP1 DUP5 MUL DUP3 ADD DUP2 ADD SWAP1 SWAP3 MSTORE DUP3 DUP2 MSTORE PUSH1 0xFF DUP1 DUP11 AND SWAP10 PUSH1 0x1 PUSH1 0x1 PUSH1 0xA0 SHL SUB PUSH2 0x100 DUP3 DIV AND SWAP10 PUSH1 0x1 PUSH1 0xA8 SHL DUP3 DIV DUP4 AND SWAP10 PUSH1 0x1 PUSH1 0xB0 SHL SWAP1 SWAP3 DIV DUP4 AND SWAP9 SWAP1 SWAP8 SWAP2 SWAP7 SWAP3 AND SWAP5 SWAP2 SWAP4 DUP13 SWAP4 SWAP2 SWAP3 DUP6 SWAP2 DUP4 ADD DUP3 DUP3 DUP1 ISZERO PUSH2 0x13A3 JUMPI PUSH1 0x20 MUL DUP3 ADD SWAP2 SWAP1 PUSH1 0x0 MSTORE PUSH1 0x20 PUSH1 0x0 KECCAK256 SWAP1 JUMPDEST DUP2 SLOAD PUSH1 0x1 PUSH1 0x1 PUSH1 0xA0 SHL SUB AND DUP2 MSTORE PUSH1 0x1 SWAP1 SWAP2 ADD SWAP1 PUSH1 0x20 ADD DUP1 DUP4 GT PUSH2 0x1385 JUMPI JUMPDEST POP POP POP POP POP SWAP3 POP SWAP13 POP SWAP13 POP SWAP13 POP SWAP13 POP SWAP13 POP SWAP13 POP SWAP13 POP SWAP13 POP SWAP13 POP SWAP13 POP POP POP POP SWAP2 SWAP4 SWAP6 SWAP8 SWAP10 POP SWAP2 SWAP4 SWAP6 SWAP8 SWAP10 JUMP JUMPDEST DUP1 PUSH1 0x0 DUP2 GT DUP1 ISZERO PUSH2 0x13E0 JUMPI POP PUSH1 0x3 SLOAD DUP2 LT JUMPDEST PUSH2 0x13FC JUMPI PUSH1 0x40 MLOAD PUSH3 0x461BCD PUSH1 0xE5 SHL DUP2 MSTORE PUSH1 0x4 ADD PUSH2 0x37B SWAP1 PUSH2 0x2BD6 JUMP JUMPDEST DUP2 PUSH1 0x1 DUP1 PUSH1 0x0 DUP4 DUP2 MSTORE PUSH1 0x1 PUSH1 0x20 DUP2 SWAP1 MSTORE PUSH1 0x40 SWAP1 SWAP2 KECCAK256 ADD SLOAD PUSH1 0xFF AND PUSH1 0x3 DUP2 GT ISZERO PUSH2 0x1427 JUMPI PUSH2 0x1427 PUSH2 0x27A8 JUMP JUMPDEST EQ PUSH2 0x1444 JUMPI PUSH1 0x40 MLOAD PUSH3 0x461BCD PUSH1 0xE5 SHL DUP2 MSTORE PUSH1 0x4 ADD PUSH2 0x37B SWAP1 PUSH2 0x2C03 JUMP JUMPDEST PUSH1 0x0 DUP5 DUP2 MSTORE PUSH1 0x1 PUSH1 0x20 SWAP1 DUP2 MSTORE PUSH1 0x40 DUP1 DUP4 KECCAK256 CALLER DUP5 MSTORE PUSH1 0x7 ADD SWAP1 SWAP2 MSTORE SWAP1 KECCAK256 PUSH1 0x4 ADD SLOAD DUP5 SWAP1 PUSH1 0xFF AND PUSH2 0x14AA JUMPI PUSH1 0x40 MLOAD PUSH3 0x461BCD PUSH1 0xE5 SHL DUP2 MSTORE PUSH1 0x20 PUSH1 0x4 DUP3 ADD MSTORE PUSH1 0x12 PUSH1 0x24 DUP3 ADD MSTORE PUSH18 0x506C61796572206E6F7420696E2067616D65 PUSH1 0x70 SHL PUSH1 0x44 DUP3 ADD MSTORE PUSH1 0x64 ADD PUSH2 0x37B JUMP JUMPDEST PUSH1 0x0 DUP6 DUP2 MSTORE PUSH1 0x1 PUSH1 0x20 DUP2 SWAP1 MSTORE PUSH1 0x40 SWAP1 SWAP2 KECCAK256 SWAP1 DUP2 ADD SLOAD PUSH1 0x8 DUP3 ADD DUP1 SLOAD DUP9 SWAP4 SWAP3 CALLER SWAP3 SWAP2 PUSH1 0x1 PUSH1 0xB0 SHL SWAP1 SWAP2 DIV PUSH1 0xFF AND SWAP1 DUP2 LT PUSH2 0x14E5 JUMPI PUSH2 0x14E5 PUSH2 0x2C3A JUMP JUMPDEST PUSH1 0x0 SWAP2 DUP3 MSTORE PUSH1 0x20 SWAP1 SWAP2 KECCAK256 ADD SLOAD PUSH1 0x1 PUSH1 0x1 PUSH1 0xA0 SHL SUB AND EQ PUSH2 0x1537 JUMPI PUSH1 0x40 MLOAD PUSH3 0x461BCD PUSH1 0xE5 SHL DUP2 MSTORE PUSH1 0x20 PUSH1 0x4 DUP3 ADD MSTORE PUSH1 0xD PUSH1 0x24 DUP3 ADD MSTORE PUSH13 0x2737BA103CB7BAB9103A3AB937 PUSH1 0x99 SHL PUSH1 0x44 DUP3 ADD MSTORE PUSH1 0x64 ADD PUSH2 0x37B JUMP JUMPDEST PUSH1 0x0 DUP8 DUP2 MSTORE PUSH1 0x1 PUSH1 0x20 SWAP1 DUP2 MSTORE PUSH1 0x40 DUP1 DUP4 KECCAK256 CALLER DUP1 DUP6 MSTORE PUSH1 0x7 DUP3 ADD SWAP1 SWAP4 MSTORE SWAP3 KECCAK256 TIMESTAMP PUSH1 0x5 SWAP1 SWAP2 ADD SSTORE PUSH2 0x1567 SWAP1 DUP10 SWAP1 PUSH2 0x1B48 JUMP JUMPDEST PUSH2 0x926 DUP9 PUSH2 0x1CD9 JUMP JUMPDEST PUSH1 0x0 DUP2 PUSH1 0xA DUP2 LT PUSH2 0x1580 JUMPI PUSH1 0x0 DUP1 REVERT JUMPDEST PUSH1 0x20 SWAP2 DUP3 DUP3 DIV ADD SWAP2 SWAP1 MOD SWAP2 POP SLOAD SWAP1 PUSH2 0x100 EXP SWAP1 DIV PUSH1 0xFF AND DUP2 JUMP JUMPDEST DUP1 PUSH1 0x0 DUP2 GT DUP1 ISZERO PUSH2 0x15AC JUMPI POP PUSH1 0x3 SLOAD DUP2 LT JUMPDEST PUSH2 0x15C8 JUMPI PUSH1 0x40 MLOAD PUSH3 0x461BCD PUSH1 0xE5 SHL DUP2 MSTORE PUSH1 0x4 ADD PUSH2 0x37B SWAP1 PUSH2 0x2BD6 JUMP JUMPDEST DUP2 PUSH1 0x0 DUP1 PUSH1 0x0 DUP4 DUP2 MSTORE PUSH1 0x1 PUSH1 0x20 DUP2 SWAP1 MSTORE PUSH1 0x40 SWAP1 SWAP2 KECCAK256 ADD SLOAD PUSH1 0xFF AND PUSH1 0x3 DUP2 GT ISZERO PUSH2 0x15F3 JUMPI PUSH2 0x15F3 PUSH2 0x27A8 JUMP JUMPDEST EQ PUSH2 0x1610 JUMPI PUSH1 0x40 MLOAD PUSH3 0x461BCD PUSH1 0xE5 SHL DUP2 MSTORE PUSH1 0x4 ADD PUSH2 0x37B SWAP1 PUSH2 0x2C03 JUMP JUMPDEST PUSH1 0x0 DUP5 DUP2 MSTORE PUSH1 0x1 PUSH1 0x20 DUP2 SWAP1 MSTORE PUSH1 0x40 SWAP1 SWAP2 KECCAK256 SWAP1 DUP2 ADD SLOAD PUSH2 0x100 SWAP1 DIV PUSH1 0x1 PUSH1 0x1 PUSH1 0xA0 SHL SUB AND CALLER EQ PUSH2 0x1681 JUMPI PUSH1 0x40 MLOAD PUSH3 0x461BCD PUSH1 0xE5 SHL DUP2 MSTORE PUSH1 0x20 PUSH1 0x4 DUP3 ADD MSTORE PUSH1 0x1B PUSH1 0x24 DUP3 ADD MSTORE PUSH32 0x4F6E6C792063726561746F722063616E2073746172742067616D650000000000 PUSH1 0x44 DUP3 ADD MSTORE PUSH1 0x64 ADD PUSH2 0x37B JUMP JUMPDEST PUSH1 0x8 DUP2 ADD SLOAD PUSH1 0x2 GT ISZERO PUSH2 0x16D6 JUMPI PUSH1 0x40 MLOAD PUSH3 0x461BCD PUSH1 0xE5 SHL DUP2 MSTORE PUSH1 0x20 PUSH1 0x4 DUP3 ADD MSTORE PUSH1 0x17 PUSH1 0x24 DUP3 ADD MSTORE PUSH32 0x4E656564206174206C65617374203220706C6179657273000000000000000000 PUSH1 0x44 DUP3 ADD MSTORE PUSH1 0x64 ADD PUSH2 0x37B JUMP JUMPDEST PUSH2 0x16DF DUP6 PUSH2 0x1F0D JUMP JUMPDEST POP POP POP POP POP JUMP JUMPDEST PUSH1 0x0 DUP1 JUMPDEST PUSH1 0x3 DUP5 ADD SLOAD DUP2 LT ISZERO PUSH2 0x1750 JUMPI DUP3 PUSH1 0xFF AND DUP5 PUSH1 0x3 ADD DUP3 DUP2 SLOAD DUP2 LT PUSH2 0x170F JUMPI PUSH2 0x170F PUSH2 0x2C3A JUMP JUMPDEST PUSH1 0x0 SWAP2 DUP3 MSTORE PUSH1 0x20 SWAP2 DUP3 SWAP1 KECCAK256 SWAP2 DUP2 DIV SWAP1 SWAP2 ADD SLOAD PUSH1 0xFF PUSH1 0x1F SWAP1 SWAP3 AND PUSH2 0x100 EXP SWAP1 DIV AND SUB PUSH2 0x173E JUMPI PUSH1 0x1 SWAP2 POP POP PUSH2 0x1756 JUMP JUMPDEST DUP1 PUSH2 0x1748 DUP2 PUSH2 0x2C66 JUMP JUMPDEST SWAP2 POP POP PUSH2 0x16EA JUMP JUMPDEST POP PUSH1 0x0 SWAP1 POP JUMPDEST SWAP3 SWAP2 POP POP JUMP JUMPDEST PUSH1 0x0 DUP4 DUP2 MSTORE PUSH1 0x1 PUSH1 0x20 SWAP1 DUP2 MSTORE PUSH1 0x40 DUP1 DUP4 KECCAK256 DUP6 DUP4 ADD MLOAD DUP7 DUP4 ADD MLOAD SWAP3 MLOAD SWAP2 SWAP4 DUP6 SWAP4 PUSH2 0x1796 SWAP4 SWAP1 SWAP2 ADD PUSH1 0xF0 SWAP3 DUP4 SHL DUP2 MSTORE SWAP2 SHL PUSH1 0x2 DUP3 ADD MSTORE PUSH1 0x4 ADD SWAP1 JUMP JUMPDEST PUSH1 0x40 DUP1 MLOAD DUP1 DUP4 SUB PUSH1 0x1F NOT ADD DUP2 MSTORE SWAP2 DUP2 MSTORE DUP2 MLOAD PUSH1 0x20 SWAP3 DUP4 ADD KECCAK256 PUSH1 0x0 DUP2 DUP2 MSTORE PUSH1 0x9 DUP7 ADD SWAP1 SWAP4 MSTORE SWAP2 KECCAK256 SLOAD SWAP1 SWAP2 POP PUSH1 0x1 PUSH1 0x28 SHL SWAP1 DIV PUSH1 0xFF AND ISZERO PUSH2 0x17DA JUMPI PUSH1 0x0 SWAP3 POP POP POP PUSH2 0x18F9 JUMP JUMPDEST PUSH1 0x0 JUMPDEST DUP5 MLOAD DUP2 LT ISZERO PUSH2 0x18C5 JUMPI DUP6 PUSH1 0x20 ADD MLOAD PUSH1 0x1 SIGNEXTEND DUP6 DUP3 DUP2 MLOAD DUP2 LT PUSH2 0x1800 JUMPI PUSH2 0x1800 PUSH2 0x2C3A JUMP JUMPDEST PUSH1 0x20 MUL PUSH1 0x20 ADD ADD MLOAD PUSH1 0x20 ADD MLOAD PUSH1 0x1 SIGNEXTEND EQ DUP1 ISZERO PUSH2 0x1842 JUMPI POP DUP6 PUSH1 0x40 ADD MLOAD PUSH1 0x1 SIGNEXTEND DUP6 DUP3 DUP2 MLOAD DUP2 LT PUSH2 0x1831 JUMPI PUSH2 0x1831 PUSH2 0x2C3A JUMP JUMPDEST PUSH1 0x20 MUL PUSH1 0x20 ADD ADD MLOAD PUSH1 0x40 ADD MLOAD PUSH1 0x1 SIGNEXTEND EQ JUMPDEST PUSH2 0x18B3 JUMPI DUP6 PUSH1 0x20 ADD MLOAD PUSH1 0x1 SIGNEXTEND DUP6 DUP3 DUP2 MLOAD DUP2 LT PUSH2 0x1860 JUMPI PUSH2 0x1860 PUSH2 0x2C3A JUMP JUMPDEST PUSH1 0x20 MUL PUSH1 0x20 ADD ADD MLOAD PUSH1 0x20 ADD MLOAD PUSH1 0x1 SIGNEXTEND EQ DUP1 ISZERO PUSH2 0x18A2 JUMPI POP DUP6 PUSH1 0x40 ADD MLOAD PUSH1 0x1 SIGNEXTEND DUP6 DUP3 DUP2 MLOAD DUP2 LT PUSH2 0x1891 JUMPI PUSH2 0x1891 PUSH2 0x2C3A JUMP JUMPDEST PUSH1 0x20 MUL PUSH1 0x20 ADD ADD MLOAD PUSH1 0x40 ADD MLOAD PUSH1 0x1 SIGNEXTEND EQ JUMPDEST ISZERO PUSH2 0x18B3 JUMPI PUSH1 0x0 SWAP4 POP POP POP POP PUSH2 0x18F9 JUMP JUMPDEST DUP1 PUSH2 0x18BD DUP2 PUSH2 0x2C66 JUMP JUMPDEST SWAP2 POP POP PUSH2 0x17DD JUMP JUMPDEST POP PUSH1 0xA DUP3 ADD SLOAD ISZERO DUP1 ISZERO PUSH2 0x18D9 JUMPI POP DUP4 MLOAD PUSH1 0x1 EQ JUMPDEST ISZERO PUSH2 0x18E9 JUMPI PUSH1 0x1 SWAP3 POP POP POP PUSH2 0x18F9 JUMP JUMPDEST PUSH2 0x18F4 DUP7 DUP7 DUP7 PUSH2 0x20C3 JUMP JUMPDEST SWAP3 POP POP POP JUMPDEST SWAP4 SWAP3 POP POP POP JUMP JUMPDEST PUSH1 0x0 JUMPDEST PUSH1 0x3 DUP4 ADD SLOAD DUP2 LT ISZERO PUSH2 0x1A22 JUMPI DUP2 PUSH1 0xFF AND DUP4 PUSH1 0x3 ADD DUP3 DUP2 SLOAD DUP2 LT PUSH2 0x1928 JUMPI PUSH2 0x1928 PUSH2 0x2C3A JUMP JUMPDEST PUSH1 0x0 SWAP2 DUP3 MSTORE PUSH1 0x20 SWAP2 DUP3 SWAP1 KECCAK256 SWAP2 DUP2 DIV SWAP1 SWAP2 ADD SLOAD PUSH1 0xFF PUSH1 0x1F SWAP1 SWAP3 AND PUSH2 0x100 EXP SWAP1 DIV AND SUB PUSH2 0x1A10 JUMPI PUSH1 0x3 DUP4 ADD DUP1 SLOAD PUSH2 0x195F SWAP1 PUSH1 0x1 SWAP1 PUSH2 0x2D61 JUMP JUMPDEST DUP2 SLOAD DUP2 LT PUSH2 0x196F JUMPI PUSH2 0x196F PUSH2 0x2C3A JUMP JUMPDEST SWAP1 PUSH1 0x0 MSTORE PUSH1 0x20 PUSH1 0x0 KECCAK256 SWAP1 PUSH1 0x20 SWAP2 DUP3 DUP3 DIV ADD SWAP2 SWAP1 MOD SWAP1 SLOAD SWAP1 PUSH2 0x100 EXP SWAP1 DIV PUSH1 0xFF AND DUP4 PUSH1 0x3 ADD DUP3 DUP2 SLOAD DUP2 LT PUSH2 0x19A4 JUMPI PUSH2 0x19A4 PUSH2 0x2C3A JUMP JUMPDEST SWAP1 PUSH1 0x0 MSTORE PUSH1 0x20 PUSH1 0x0 KECCAK256 SWAP1 PUSH1 0x20 SWAP2 DUP3 DUP3 DIV ADD SWAP2 SWAP1 MOD PUSH2 0x100 EXP DUP2 SLOAD DUP2 PUSH1 0xFF MUL NOT AND SWAP1 DUP4 PUSH1 0xFF AND MUL OR SWAP1 SSTORE POP DUP3 PUSH1 0x3 ADD DUP1 SLOAD DUP1 PUSH2 0x19E1 JUMPI PUSH2 0x19E1 PUSH2 0x2D74 JUMP JUMPDEST PUSH1 0x1 SWAP1 SUB DUP2 DUP2 SWAP1 PUSH1 0x0 MSTORE PUSH1 0x20 PUSH1 0x0 KECCAK256 SWAP1 PUSH1 0x20 SWAP2 DUP3 DUP3 DIV ADD SWAP2 SWAP1 MOD PUSH2 0x100 EXP DUP2 SLOAD SWAP1 PUSH1 0xFF MUL NOT AND SWAP1 SSTORE SWAP1 SSTORE POP POP POP JUMP JUMPDEST DUP1 PUSH2 0x1A1A DUP2 PUSH2 0x2C66 JUMP JUMPDEST SWAP2 POP POP PUSH2 0x1903 JUMP JUMPDEST POP POP POP JUMP JUMPDEST PUSH1 0x0 DUP4 DUP2 MSTORE PUSH1 0x1 PUSH1 0x20 DUP2 DUP2 MSTORE PUSH1 0x40 DUP1 DUP5 KECCAK256 DUP2 MLOAD PUSH1 0x80 DUP1 DUP3 ADD DUP5 MSTORE PUSH1 0x0 NOT DUP1 DUP4 MSTORE DUP3 DUP7 ADD DUP8 SWAP1 MSTORE DUP3 DUP6 ADD DUP9 SWAP1 MSTORE PUSH1 0x60 DUP1 DUP5 ADD DUP10 SWAP1 MSTORE DUP6 MLOAD SWAP3 DUP4 ADD DUP7 MSTORE DUP9 DUP4 MSTORE SWAP6 DUP3 ADD DUP9 SWAP1 MSTORE SWAP4 DUP2 ADD SWAP4 SWAP1 SWAP4 MSTORE SWAP3 DUP3 ADD DUP5 SWAP1 MSTORE SWAP3 SWAP2 SWAP1 DUP5 JUMPDEST PUSH1 0x4 DUP2 LT ISZERO PUSH2 0x1B3B JUMPI PUSH1 0x0 DUP4 DUP3 PUSH1 0x4 DUP2 LT PUSH2 0x1A9A JUMPI PUSH2 0x1A9A PUSH2 0x2C3A JUMP JUMPDEST PUSH1 0x20 MUL ADD MLOAD PUSH2 0x1AA9 SWAP1 DUP11 PUSH2 0x2D8A JUMP JUMPDEST DUP4 DUP4 PUSH1 0x4 DUP2 LT PUSH2 0x1ABB JUMPI PUSH2 0x1ABB PUSH2 0x2C3A JUMP JUMPDEST PUSH1 0x20 MUL ADD MLOAD PUSH2 0x1ACA SWAP1 DUP11 PUSH2 0x2D8A JUMP JUMPDEST PUSH1 0x40 MLOAD PUSH1 0xF0 SWAP3 DUP4 SHL PUSH1 0x20 DUP3 ADD MSTORE SWAP2 SHL PUSH1 0x22 DUP3 ADD MSTORE PUSH1 0x24 ADD PUSH1 0x40 DUP1 MLOAD DUP1 DUP4 SUB PUSH1 0x1F NOT ADD DUP2 MSTORE SWAP2 DUP2 MSTORE DUP2 MLOAD PUSH1 0x20 SWAP3 DUP4 ADD KECCAK256 PUSH1 0x0 DUP2 DUP2 MSTORE PUSH1 0x9 DUP11 ADD SWAP1 SWAP4 MSTORE SWAP2 KECCAK256 SLOAD SWAP1 SWAP2 POP PUSH1 0x1 PUSH1 0x28 SHL SWAP1 DIV PUSH1 0xFF AND ISZERO PUSH2 0x1B28 JUMPI PUSH2 0x1B25 PUSH1 0x2 DUP7 PUSH2 0x2C7F JUMP JUMPDEST SWAP5 POP JUMPDEST POP DUP1 PUSH2 0x1B33 DUP2 PUSH2 0x2C66 JUMP JUMPDEST SWAP2 POP POP PUSH2 0x1A7D JUMP JUMPDEST POP SWAP2 SWAP8 SWAP7 POP POP POP POP POP POP POP JUMP JUMPDEST PUSH1 0x0 DUP3 DUP2 MSTORE PUSH1 0x1 PUSH1 0x20 SWAP1 DUP2 MSTORE PUSH1 0x40 DUP1 DUP4 KECCAK256 PUSH1 0x1 PUSH1 0x1 PUSH1 0xA0 SHL SUB DUP6 AND DUP5 MSTORE PUSH1 0x7 DUP2 ADD SWAP1 SWAP3 MSTORE DUP3 KECCAK256 PUSH1 0x3 DUP2 ADD SLOAD SWAP2 SWAP3 SWAP1 SWAP2 PUSH1 0x5 GT ISZERO PUSH2 0x1B92 JUMPI PUSH1 0x3 DUP3 ADD SLOAD PUSH2 0x1B8F SWAP1 PUSH1 0x5 PUSH2 0x2DAD JUMP JUMPDEST SWAP1 POP JUMPDEST PUSH1 0x0 JUMPDEST DUP2 PUSH1 0xFF AND DUP2 PUSH1 0xFF AND LT DUP1 ISZERO PUSH2 0x1BAD JUMPI POP PUSH1 0xB DUP5 ADD SLOAD ISZERO ISZERO JUMPDEST ISZERO PUSH2 0x1C85 JUMPI PUSH1 0xB DUP5 ADD DUP1 SLOAD PUSH1 0x0 SWAP2 SWAP1 PUSH2 0x1BC8 SWAP1 PUSH1 0x1 SWAP1 PUSH2 0x2D61 JUMP JUMPDEST DUP2 SLOAD DUP2 LT PUSH2 0x1BD8 JUMPI PUSH2 0x1BD8 PUSH2 0x2C3A JUMP JUMPDEST SWAP1 PUSH1 0x0 MSTORE PUSH1 0x20 PUSH1 0x0 KECCAK256 SWAP1 PUSH1 0x20 SWAP2 DUP3 DUP3 DIV ADD SWAP2 SWAP1 MOD SWAP1 SLOAD SWAP1 PUSH2 0x100 EXP SWAP1 DIV PUSH1 0xFF AND SWAP1 POP DUP5 PUSH1 0xB ADD DUP1 SLOAD DUP1 PUSH2 0x1C0D JUMPI PUSH2 0x1C0D PUSH2 0x2D74 JUMP JUMPDEST PUSH1 0x0 DUP3 DUP2 MSTORE PUSH1 0x20 DUP1 DUP3 KECCAK256 PUSH1 0x0 NOT SWAP1 SWAP4 ADD DUP2 DUP2 DIV SWAP1 SWAP4 ADD DUP1 SLOAD PUSH1 0xFF PUSH1 0x1F DUP1 DUP8 AND PUSH2 0x100 SWAP1 DUP2 EXP DUP4 MUL NOT SWAP1 SWAP4 AND SWAP1 SWAP4 SSTORE SWAP5 SWAP1 SWAP6 SSTORE PUSH1 0x3 DUP10 ADD DUP1 SLOAD PUSH1 0x1 DUP2 ADD DUP3 SSTORE SWAP1 DUP5 MSTORE SWAP3 DUP3 SWAP1 KECCAK256 SWAP2 DUP4 DIV SWAP1 SWAP2 ADD DUP1 SLOAD DUP7 DUP6 AND SWAP4 SWAP1 SWAP3 AND SWAP1 SWAP5 EXP SWAP2 DUP3 MUL SWAP2 SWAP1 SWAP3 MUL NOT SWAP1 SWAP2 AND OR SWAP1 SSTORE DUP2 PUSH2 0x1C7C DUP2 PUSH2 0x2CFB JUMP JUMPDEST SWAP3 POP POP POP PUSH2 0x1B95 JUMP JUMPDEST PUSH1 0xFF DUP2 AND ISZERO PUSH2 0xE0F JUMPI PUSH1 0x40 MLOAD PUSH1 0xFF DUP3 AND DUP2 MSTORE PUSH1 0x1 PUSH1 0x1 PUSH1 0xA0 SHL SUB DUP7 AND SWAP1 DUP8 SWAP1 PUSH32 0x61122678B83552D47F9AD2905CF1399B15D78B009910FC68C8782F2696B11556 SWAP1 PUSH1 0x20 ADD PUSH1 0x40 MLOAD DUP1 SWAP2 SUB SWAP1 LOG3 POP POP POP POP POP POP JUMP JUMPDEST PUSH1 0x0 DUP2 DUP2 MSTORE PUSH1 0x1 PUSH1 0x20 DUP2 SWAP1 MSTORE PUSH1 0x40 SWAP1 SWAP2 KECCAK256 PUSH1 0x8 DUP2 ADD SLOAD DUP2 DUP4 ADD SLOAD SWAP2 SWAP3 SWAP1 SWAP2 PUSH2 0x1D0C SWAP2 PUSH1 0x1 PUSH1 0xB0 SHL SWAP1 SWAP2 DIV PUSH1 0xFF AND SWAP1 PUSH2 0x2DC6 JUMP JUMPDEST PUSH2 0x1D16 SWAP2 SWAP1 PUSH2 0x2DF5 JUMP JUMPDEST PUSH1 0x1 DUP3 ADD DUP1 SLOAD PUSH1 0xFF PUSH1 0xB0 SHL NOT AND PUSH1 0x1 PUSH1 0xB0 SHL PUSH1 0xFF SWAP4 DUP5 AND DUP2 MUL SWAP2 SWAP1 SWAP2 OR SWAP2 DUP3 SWAP1 SSTORE SWAP1 DIV AND PUSH1 0x0 SUB PUSH2 0x1D59 JUMPI PUSH1 0x2 DUP2 ADD DUP1 SLOAD SWAP1 PUSH1 0x0 PUSH2 0x1D53 DUP4 PUSH2 0x2C66 JUMP JUMPDEST SWAP2 SWAP1 POP SSTORE POP JUMPDEST TIMESTAMP PUSH1 0x4 DUP3 ADD SSTORE PUSH1 0x1 DUP2 ADD SLOAD PUSH1 0x8 DUP3 ADD DUP1 SLOAD SWAP1 SWAP2 PUSH1 0x1 PUSH1 0xB0 SHL SWAP1 DIV PUSH1 0xFF AND SWAP1 DUP2 LT PUSH2 0x1D85 JUMPI PUSH2 0x1D85 PUSH2 0x2C3A JUMP JUMPDEST PUSH1 0x0 SWAP2 DUP3 MSTORE PUSH1 0x20 SWAP2 DUP3 SWAP1 KECCAK256 ADD SLOAD PUSH1 0x1 DUP4 ADD SLOAD PUSH1 0x40 MLOAD PUSH1 0x1 PUSH1 0xB0 SHL SWAP1 SWAP2 DIV PUSH1 0xFF AND DUP2 MSTORE PUSH1 0x1 PUSH1 0x1 PUSH1 0xA0 SHL SUB SWAP1 SWAP2 AND SWAP2 DUP5 SWAP2 PUSH32 0xD48662F539B10425CF4A565AFDAAC42D9593D8216A745CEFB2429C7EF043E77B SWAP2 ADD PUSH1 0x40 MLOAD DUP1 SWAP2 SUB SWAP1 LOG3 POP POP JUMP JUMPDEST PUSH1 0x0 DUP4 DUP2 MSTORE PUSH1 0x1 PUSH1 0x20 DUP2 DUP2 MSTORE PUSH1 0x40 DUP1 DUP5 KECCAK256 DUP2 MLOAD PUSH1 0xC0 DUP2 ADD DUP4 MSTORE PUSH1 0x1 PUSH1 0x1 PUSH1 0xA0 SHL SUB DUP9 DUP2 AND DUP1 DUP4 MSTORE DUP3 DUP7 ADD DUP10 DUP2 MSTORE DUP4 DUP7 ADD DUP10 SWAP1 MSTORE DUP6 MLOAD DUP10 DUP2 MSTORE DUP1 DUP9 ADD DUP8 MSTORE PUSH1 0x60 DUP6 ADD MSTORE PUSH1 0x80 DUP5 ADD DUP9 SWAP1 MSTORE TIMESTAMP PUSH1 0xA0 DUP6 ADD MSTORE SWAP1 DUP9 MSTORE PUSH1 0x7 DUP5 ADD SWAP1 SWAP6 MSTORE SWAP3 SWAP1 SWAP6 KECCAK256 DUP6 MLOAD DUP2 SLOAD PUSH1 0x1 PUSH1 0x1 PUSH1 0xA0 SHL SUB NOT AND SWAP4 AND SWAP3 SWAP1 SWAP3 OR DUP3 SSTORE SWAP2 MLOAD SWAP2 SWAP4 SWAP3 SWAP1 SWAP2 SWAP1 DUP3 ADD SWAP1 PUSH2 0x1E6C SWAP1 DUP3 PUSH2 0x2E5D JUMP JUMPDEST POP PUSH1 0x40 DUP3 ADD MLOAD PUSH1 0x2 DUP3 ADD SSTORE PUSH1 0x60 DUP3 ADD MLOAD DUP1 MLOAD PUSH2 0x1E92 SWAP2 PUSH1 0x3 DUP5 ADD SWAP2 PUSH1 0x20 SWAP1 SWAP2 ADD SWAP1 PUSH2 0x2506 JUMP JUMPDEST POP PUSH1 0x80 DUP3 ADD MLOAD PUSH1 0x4 DUP3 ADD DUP1 SLOAD PUSH1 0xFF NOT AND SWAP2 ISZERO ISZERO SWAP2 SWAP1 SWAP2 OR SWAP1 SSTORE PUSH1 0xA0 SWAP1 SWAP2 ADD MLOAD PUSH1 0x5 SWAP1 SWAP2 ADD SSTORE PUSH1 0x8 ADD DUP1 SLOAD PUSH1 0x1 DUP2 DUP2 ADD DUP4 SSTORE PUSH1 0x0 SWAP3 DUP4 MSTORE PUSH1 0x20 DUP1 DUP5 KECCAK256 SWAP1 SWAP3 ADD DUP1 SLOAD PUSH1 0x1 PUSH1 0x1 PUSH1 0xA0 SHL SUB NOT AND PUSH1 0x1 PUSH1 0x1 PUSH1 0xA0 SHL SUB SWAP7 SWAP1 SWAP7 AND SWAP6 DUP7 OR SWAP1 SSTORE SWAP4 DUP3 MSTORE PUSH1 0x2 DUP2 MSTORE PUSH1 0x40 DUP3 KECCAK256 DUP1 SLOAD SWAP5 DUP6 ADD DUP2 SSTORE DUP3 MSTORE SWAP1 KECCAK256 SWAP1 SWAP2 ADD SWAP2 SWAP1 SWAP2 SSTORE POP JUMP JUMPDEST PUSH1 0x0 DUP2 DUP2 MSTORE PUSH1 0x1 PUSH1 0x20 DUP2 SWAP1 MSTORE PUSH1 0x40 DUP3 KECCAK256 DUP1 DUP3 ADD DUP1 SLOAD PUSH1 0xFF NOT AND SWAP1 SWAP3 OR SWAP1 SWAP2 SSTORE TIMESTAMP PUSH1 0x4 DUP3 ADD SSTORE SWAP1 JUMPDEST PUSH1 0x8 DUP3 ADD SLOAD DUP2 LT ISZERO PUSH2 0x1F85 JUMPI PUSH2 0x1F73 DUP4 DUP4 PUSH1 0x8 ADD DUP4 DUP2 SLOAD DUP2 LT PUSH2 0x1F59 JUMPI PUSH2 0x1F59 PUSH2 0x2C3A JUMP JUMPDEST PUSH1 0x0 SWAP2 DUP3 MSTORE PUSH1 0x20 SWAP1 SWAP2 KECCAK256 ADD SLOAD PUSH1 0x1 PUSH1 0x1 PUSH1 0xA0 SHL SUB AND PUSH2 0x1B48 JUMP JUMPDEST DUP1 PUSH2 0x1F7D DUP2 PUSH2 0x2C66 JUMP JUMPDEST SWAP2 POP POP PUSH2 0x1F34 JUMP JUMPDEST POP PUSH1 0x40 MLOAD DUP3 SWAP1 PUSH32 0x50AD08F58A27F2851D7E3A1B3A6A46B290F2CE677E99642D30FF639721E77790 SWAP1 PUSH1 0x0 SWAP1 LOG2 POP POP JUMP JUMPDEST PUSH1 0x0 DUP2 DUP2 MSTORE PUSH1 0x1 PUSH1 0x20 MSTORE PUSH1 0x40 SWAP1 DUP2 SWAP1 KECCAK256 DUP2 MLOAD PUSH1 0x32 DUP1 DUP3 MSTORE PUSH2 0x660 DUP3 ADD SWAP1 SWAP4 MSTORE SWAP1 SWAP2 DUP2 PUSH1 0x20 ADD PUSH1 0x20 DUP3 MUL DUP1 CALLDATASIZE DUP4 CALLDATACOPY POP POP DUP2 MLOAD PUSH2 0x1FF9 SWAP3 PUSH1 0xB DUP6 ADD SWAP3 POP PUSH1 0x20 ADD SWAP1 PUSH2 0x2506 JUMP JUMPDEST POP PUSH1 0x0 DUP1 JUMPDEST PUSH1 0x9 DUP2 PUSH1 0xFF AND GT PUSH2 0x20B9 JUMPI PUSH1 0x0 JUMPDEST PUSH1 0x0 DUP3 PUSH1 0xFF AND PUSH1 0xA DUP2 LT PUSH2 0x2022 JUMPI PUSH2 0x2022 PUSH2 0x2C3A JUMP JUMPDEST PUSH1 0x20 DUP2 DIV SWAP1 SWAP2 ADD SLOAD PUSH1 0xFF PUSH1 0x1F SWAP1 SWAP3 AND PUSH2 0x100 EXP SWAP1 DIV DUP2 AND SWAP1 DUP3 AND LT ISZERO PUSH2 0x20A6 JUMPI DUP2 DUP5 PUSH1 0xB ADD DUP5 PUSH1 0xFF AND DUP2 SLOAD DUP2 LT PUSH2 0x205B JUMPI PUSH2 0x205B PUSH2 0x2C3A JUMP JUMPDEST SWAP1 PUSH1 0x0 MSTORE PUSH1 0x20 PUSH1 0x0 KECCAK256 SWAP1 PUSH1 0x20 SWAP2 DUP3 DUP3 DIV ADD SWAP2 SWAP1 MOD PUSH2 0x100 EXP DUP2 SLOAD DUP2 PUSH1 0xFF MUL NOT AND SWAP1 DUP4 PUSH1 0xFF AND MUL OR SWAP1 SSTORE POP DUP3 DUP1 PUSH2 0x2090 SWAP1 PUSH2 0x2CFB JUMP JUMPDEST SWAP4 POP POP DUP1 DUP1 PUSH2 0x209E SWAP1 PUSH2 0x2CFB JUMP JUMPDEST SWAP2 POP POP PUSH2 0x200C JUMP JUMPDEST POP DUP1 PUSH2 0x20B1 DUP2 PUSH2 0x2CFB JUMP JUMPDEST SWAP2 POP POP PUSH2 0x1FFE JUMP JUMPDEST POP PUSH2 0x1A22 DUP4 PUSH2 0x2345 JUMP JUMPDEST PUSH1 0x0 DUP4 DUP2 MSTORE PUSH1 0x1 PUSH1 0x20 DUP2 DUP2 MSTORE PUSH1 0x40 DUP1 DUP5 KECCAK256 DUP2 MLOAD PUSH1 0x80 DUP1 DUP3 ADD DUP5 MSTORE PUSH1 0x0 NOT DUP1 DUP4 MSTORE DUP3 DUP7 ADD DUP8 SWAP1 MSTORE DUP3 DUP6 ADD DUP9 SWAP1 MSTORE PUSH1 0x60 DUP1 DUP5 ADD DUP10 SWAP1 MSTORE DUP6 MLOAD SWAP3 DUP4 ADD DUP7 MSTORE DUP9 DUP4 MSTORE SWAP6 DUP3 ADD DUP9 SWAP1 MSTORE SWAP4 DUP2 ADD SWAP4 SWAP1 SWAP4 MSTORE SWAP3 DUP3 ADD SWAP4 SWAP1 SWAP4 MSTORE DUP4 DUP1 JUMPDEST PUSH1 0x4 DUP2 LT ISZERO PUSH2 0x2328 JUMPI PUSH1 0x0 DUP5 DUP3 PUSH1 0x4 DUP2 LT PUSH2 0x2135 JUMPI PUSH2 0x2135 PUSH2 0x2C3A JUMP JUMPDEST PUSH1 0x20 MUL ADD MLOAD DUP10 PUSH1 0x20 ADD MLOAD PUSH2 0x2149 SWAP2 SWAP1 PUSH2 0x2D8A JUMP JUMPDEST SWAP1 POP PUSH1 0x0 DUP5 DUP4 PUSH1 0x4 DUP2 LT PUSH2 0x215F JUMPI PUSH2 0x215F PUSH2 0x2C3A JUMP JUMPDEST PUSH1 0x20 MUL ADD MLOAD DUP11 PUSH1 0x40 ADD MLOAD PUSH2 0x2173 SWAP2 SWAP1 PUSH2 0x2D8A JUMP JUMPDEST PUSH1 0x40 MLOAD PUSH1 0xF0 DUP5 DUP2 SHL PUSH1 0x20 DUP4 ADD MSTORE DUP3 SWAP1 SHL PUSH1 0x22 DUP3 ADD MSTORE SWAP1 SWAP2 POP PUSH1 0x0 SWAP1 PUSH1 0x24 ADD PUSH1 0x40 DUP1 MLOAD DUP1 DUP4 SUB PUSH1 0x1F NOT ADD DUP2 MSTORE SWAP2 DUP2 MSTORE DUP2 MLOAD PUSH1 0x20 SWAP3 DUP4 ADD KECCAK256 PUSH1 0x0 DUP2 DUP2 MSTORE PUSH1 0x9 DUP13 ADD SWAP1 SWAP4 MSTORE SWAP1 DUP3 KECCAK256 SLOAD SWAP1 SWAP3 POP DUP2 SWAP1 PUSH1 0x1 PUSH1 0x28 SHL SWAP1 DIV PUSH1 0xFF AND ISZERO PUSH2 0x21EA JUMPI POP POP PUSH1 0x0 DUP2 DUP2 MSTORE PUSH1 0x9 DUP10 ADD PUSH1 0x20 MSTORE PUSH1 0x40 SWAP1 KECCAK256 SLOAD PUSH1 0xFF AND PUSH1 0x1 PUSH2 0x228C JUMP JUMPDEST PUSH1 0x0 JUMPDEST DUP13 MLOAD DUP2 LT ISZERO PUSH2 0x228A JUMPI DUP6 PUSH1 0x1 SIGNEXTEND DUP14 DUP3 DUP2 MLOAD DUP2 LT PUSH2 0x220C JUMPI PUSH2 0x220C PUSH2 0x2C3A JUMP JUMPDEST PUSH1 0x20 MUL PUSH1 0x20 ADD ADD MLOAD PUSH1 0x20 ADD MLOAD PUSH1 0x1 SIGNEXTEND EQ DUP1 ISZERO PUSH2 0x224A JUMPI POP DUP5 PUSH1 0x1 SIGNEXTEND DUP14 DUP3 DUP2 MLOAD DUP2 LT PUSH2 0x2239 JUMPI PUSH2 0x2239 PUSH2 0x2C3A JUMP JUMPDEST PUSH1 0x20 MUL PUSH1 0x20 ADD ADD MLOAD PUSH1 0x40 ADD MLOAD PUSH1 0x1 SIGNEXTEND EQ JUMPDEST ISZERO PUSH2 0x2278 JUMPI DUP13 DUP2 DUP2 MLOAD DUP2 LT PUSH2 0x2261 JUMPI PUSH2 0x2261 PUSH2 0x2C3A JUMP JUMPDEST PUSH1 0x20 MUL PUSH1 0x20 ADD ADD MLOAD PUSH1 0x0 ADD MLOAD SWAP3 POP PUSH1 0x1 SWAP2 POP PUSH2 0x228A JUMP JUMPDEST DUP1 PUSH2 0x2282 DUP2 PUSH2 0x2C66 JUMP JUMPDEST SWAP2 POP POP PUSH2 0x21ED JUMP JUMPDEST POP JUMPDEST DUP1 ISZERO PUSH2 0x2310 JUMPI DUP13 MLOAD PUSH1 0x1 SWAP8 POP PUSH1 0x0 SWAP1 PUSH2 0x22A6 SWAP1 DUP5 SWAP1 PUSH2 0x2DC6 JUMP JUMPDEST SWAP1 POP PUSH1 0x0 DUP4 PUSH1 0xFF AND DUP16 PUSH1 0x0 ADD MLOAD PUSH1 0xFF AND GT PUSH2 0x22CC JUMPI DUP15 MLOAD PUSH2 0x22C7 SWAP1 DUP6 PUSH2 0x2DAD JUMP JUMPDEST PUSH2 0x22D9 JUMP JUMPDEST DUP15 MLOAD PUSH2 0x22D9 SWAP1 DUP6 SWAP1 PUSH2 0x2DAD JUMP JUMPDEST SWAP1 POP DUP2 PUSH1 0xFF AND PUSH1 0x5 EQ ISZERO DUP1 ISZERO PUSH2 0x22F3 JUMPI POP DUP1 PUSH1 0xFF AND PUSH1 0x5 EQ ISZERO JUMPDEST ISZERO PUSH2 0x230D JUMPI PUSH1 0x0 SWAP13 POP POP POP POP POP POP POP POP POP POP POP POP POP PUSH2 0x18F9 JUMP JUMPDEST POP POP JUMPDEST POP POP POP POP POP DUP1 DUP1 PUSH2 0x2320 SWAP1 PUSH2 0x2C66 JUMP JUMPDEST SWAP2 POP POP PUSH2 0x2118 JUMP JUMPDEST POP DUP1 DUP1 PUSH2 0x2339 JUMPI POP PUSH1 0x5 DUP5 ADD SLOAD PUSH1 0xFF AND JUMPDEST SWAP9 SWAP8 POP POP POP POP POP POP POP POP JUMP JUMPDEST PUSH1 0x0 DUP2 DUP2 MSTORE PUSH1 0x1 PUSH1 0x20 MSTORE PUSH1 0x40 DUP2 KECCAK256 PUSH1 0xB DUP2 ADD SLOAD SWAP1 SWAP2 JUMPDEST PUSH1 0xA DUP2 PUSH1 0xFF AND LT ISZERO PUSH2 0x24E1 JUMPI PUSH1 0xC DUP4 ADD DUP1 SLOAD PUSH1 0x40 DUP1 MLOAD PUSH1 0x20 DUP1 DUP3 ADD SWAP4 SWAP1 SWAP4 MSTORE TIMESTAMP DUP2 DUP4 ADD MSTORE PUSH1 0xF8 DUP6 SWAP1 SHL PUSH1 0x1 PUSH1 0x1 PUSH1 0xF8 SHL SUB NOT AND PUSH1 0x60 DUP3 ADD MSTORE DUP2 MLOAD PUSH1 0x41 DUP2 DUP4 SUB ADD DUP2 MSTORE PUSH1 0x61 SWAP1 SWAP2 ADD SWAP1 SWAP2 MSTORE DUP1 MLOAD SWAP2 ADD KECCAK256 SWAP1 DUP2 SWAP1 SSTORE PUSH1 0x0 SWAP1 PUSH2 0x23BC SWAP1 DUP5 SWAP1 PUSH2 0x2F1D JUMP JUMPDEST SWAP1 POP PUSH1 0x0 DUP4 PUSH1 0x8 DUP7 PUSH1 0xC ADD SLOAD SWAP1 SHR PUSH2 0x23D4 SWAP2 SWAP1 PUSH2 0x2F1D JUMP JUMPDEST SWAP1 POP DUP1 DUP3 EQ PUSH2 0x24CC JUMPI PUSH1 0x0 DUP6 PUSH1 0xB ADD DUP4 DUP2 SLOAD DUP2 LT PUSH2 0x23F4 JUMPI PUSH2 0x23F4 PUSH2 0x2C3A JUMP JUMPDEST SWAP1 PUSH1 0x0 MSTORE PUSH1 0x20 PUSH1 0x0 KECCAK256 SWAP1 PUSH1 0x20 SWAP2 DUP3 DUP3 DIV ADD SWAP2 SWAP1 MOD SWAP1 SLOAD SWAP1 PUSH2 0x100 EXP SWAP1 DIV PUSH1 0xFF AND SWAP1 POP DUP6 PUSH1 0xB ADD DUP3 DUP2 SLOAD DUP2 LT PUSH2 0x242B JUMPI PUSH2 0x242B PUSH2 0x2C3A JUMP JUMPDEST SWAP1 PUSH1 0x0 MSTORE PUSH1 0x20 PUSH1 0x0 KECCAK256 SWAP1 PUSH1 0x20 SWAP2 DUP3 DUP3 DIV ADD SWAP2 SWAP1 MOD SWAP1 SLOAD SWAP1 PUSH2 0x100 EXP SWAP1 DIV PUSH1 0xFF AND DUP7 PUSH1 0xB ADD DUP5 DUP2 SLOAD DUP2 LT PUSH2 0x2460 JUMPI PUSH2 0x2460 PUSH2 0x2C3A JUMP JUMPDEST SWAP1 PUSH1 0x0 MSTORE PUSH1 0x20 PUSH1 0x0 KECCAK256 SWAP1 PUSH1 0x20 SWAP2 DUP3 DUP3 DIV ADD SWAP2 SWAP1 MOD PUSH2 0x100 EXP DUP2 SLOAD DUP2 PUSH1 0xFF MUL NOT AND SWAP1 DUP4 PUSH1 0xFF AND MUL OR SWAP1 SSTORE POP DUP1 DUP7 PUSH1 0xB ADD DUP4 DUP2 SLOAD DUP2 LT PUSH2 0x24A0 JUMPI PUSH2 0x24A0 PUSH2 0x2C3A JUMP JUMPDEST SWAP1 PUSH1 0x0 MSTORE PUSH1 0x20 PUSH1 0x0 KECCAK256 SWAP1 PUSH1 0x20 SWAP2 DUP3 DUP3 DIV ADD SWAP2 SWAP1 MOD PUSH2 0x100 EXP DUP2 SLOAD DUP2 PUSH1 0xFF MUL NOT AND SWAP1 DUP4 PUSH1 0xFF AND MUL OR SWAP1 SSTORE POP POP JUMPDEST POP POP DUP1 DUP1 PUSH2 0x24D9 SWAP1 PUSH2 0x2CFB JUMP JUMPDEST SWAP2 POP POP PUSH2 0x235B JUMP JUMPDEST POP POP POP POP JUMP JUMPDEST PUSH1 0x40 MLOAD DUP1 PUSH2 0x140 ADD PUSH1 0x40 MSTORE DUP1 PUSH1 0xA SWAP1 PUSH1 0x20 DUP3 MUL DUP1 CALLDATASIZE DUP4 CALLDATACOPY POP SWAP2 SWAP3 SWAP2 POP POP JUMP JUMPDEST DUP3 DUP1 SLOAD DUP3 DUP3 SSTORE SWAP1 PUSH1 0x0 MSTORE PUSH1 0x20 PUSH1 0x0 KECCAK256 SWAP1 PUSH1 0x1F ADD PUSH1 0x20 SWAP1 DIV DUP2 ADD SWAP3 DUP3 ISZERO PUSH2 0x259C JUMPI SWAP2 PUSH1 0x20 MUL DUP3 ADD PUSH1 0x0 JUMPDEST DUP4 DUP3 GT ISZERO PUSH2 0x256D JUMPI DUP4 MLOAD DUP4 DUP3 PUSH2 0x100 EXP DUP2 SLOAD DUP2 PUSH1 0xFF MUL NOT AND SWAP1 DUP4 PUSH1 0xFF AND MUL OR SWAP1 SSTORE POP SWAP3 PUSH1 0x20 ADD SWAP3 PUSH1 0x1 ADD PUSH1 0x20 DUP2 PUSH1 0x0 ADD DIV SWAP3 DUP4 ADD SWAP3 PUSH1 0x1 SUB MUL PUSH2 0x252F JUMP JUMPDEST DUP1 ISZERO PUSH2 0x259A JUMPI DUP3 DUP2 PUSH2 0x100 EXP DUP2 SLOAD SWAP1 PUSH1 0xFF MUL NOT AND SWAP1 SSTORE PUSH1 0x1 ADD PUSH1 0x20 DUP2 PUSH1 0x0 ADD DIV SWAP3 DUP4 ADD SWAP3 PUSH1 0x1 SUB MUL PUSH2 0x256D JUMP JUMPDEST POP JUMPDEST POP PUSH2 0x25A8 SWAP3 SWAP2 POP PUSH2 0x25AC JUMP JUMPDEST POP SWAP1 JUMP JUMPDEST JUMPDEST DUP1 DUP3 GT ISZERO PUSH2 0x25A8 JUMPI PUSH1 0x0 DUP2 SSTORE PUSH1 0x1 ADD PUSH2 0x25AD JUMP JUMPDEST PUSH4 0x4E487B71 PUSH1 0xE0 SHL PUSH1 0x0 MSTORE PUSH1 0x41 PUSH1 0x4 MSTORE PUSH1 0x24 PUSH1 0x0 REVERT JUMPDEST PUSH1 0x40 MLOAD PUSH1 0x60 DUP2 ADD PUSH8 0xFFFFFFFFFFFFFFFF DUP2 GT DUP3 DUP3 LT OR ISZERO PUSH2 0x25FA JUMPI PUSH2 0x25FA PUSH2 0x25C1 JUMP JUMPDEST PUSH1 0x40 MSTORE SWAP1 JUMP JUMPDEST PUSH1 0x40 MLOAD PUSH1 0x1F DUP3 ADD PUSH1 0x1F NOT AND DUP2 ADD PUSH8 0xFFFFFFFFFFFFFFFF DUP2 GT DUP3 DUP3 LT OR ISZERO PUSH2 0x2629 JUMPI PUSH2 0x2629 PUSH2 0x25C1 JUMP JUMPDEST PUSH1 0x40 MSTORE SWAP2 SWAP1 POP JUMP JUMPDEST DUP1 CALLDATALOAD PUSH1 0xFF DUP2 AND DUP2 EQ PUSH2 0x2642 JUMPI PUSH1 0x0 DUP1 REVERT JUMPDEST SWAP2 SWAP1 POP JUMP JUMPDEST DUP1 CALLDATALOAD PUSH1 0x1 DUP2 SWAP1 SIGNEXTEND DUP2 EQ PUSH2 0x2642 JUMPI PUSH1 0x0 DUP1 REVERT JUMPDEST PUSH1 0x0 DUP1 PUSH1 0x40 DUP1 DUP5 DUP7 SUB SLT ISZERO PUSH2 0x266D JUMPI PUSH1 0x0 DUP1 REVERT JUMPDEST DUP4 CALLDATALOAD SWAP3 POP PUSH1 0x20 DUP1 DUP6 ADD CALLDATALOAD PUSH8 0xFFFFFFFFFFFFFFFF DUP1 DUP3 GT ISZERO PUSH2 0x268D JUMPI PUSH1 0x0 DUP1 REVERT JUMPDEST DUP2 DUP8 ADD SWAP2 POP DUP8 PUSH1 0x1F DUP4 ADD SLT PUSH2 0x26A1 JUMPI PUSH1 0x0 DUP1 REVERT JUMPDEST DUP2 CALLDATALOAD DUP2 DUP2 GT ISZERO PUSH2 0x26B3 JUMPI PUSH2 0x26B3 PUSH2 0x25C1 JUMP JUMPDEST PUSH2 0x26C1 DUP5 DUP3 PUSH1 0x5 SHL ADD PUSH2 0x2600 JUMP JUMPDEST DUP2 DUP2 MSTORE DUP5 DUP2 ADD SWAP3 POP PUSH1 0x60 SWAP2 DUP3 MUL DUP5 ADD DUP6 ADD SWAP2 DUP11 DUP4 GT ISZERO PUSH2 0x26E0 JUMPI PUSH1 0x0 DUP1 REVERT JUMPDEST SWAP4 DUP6 ADD SWAP4 JUMPDEST DUP3 DUP6 LT ISZERO PUSH2 0x273D JUMPI DUP1 DUP6 DUP13 SUB SLT ISZERO PUSH2 0x26FD JUMPI PUSH1 0x0 DUP1 DUP2 REVERT JUMPDEST PUSH2 0x2705 PUSH2 0x25D7 JUMP JUMPDEST PUSH2 0x270E DUP7 PUSH2 0x2631 JUMP JUMPDEST DUP2 MSTORE PUSH2 0x271B DUP8 DUP8 ADD PUSH2 0x2647 JUMP JUMPDEST DUP8 DUP3 ADD MSTORE PUSH2 0x272A DUP9 DUP8 ADD PUSH2 0x2647 JUMP JUMPDEST DUP2 DUP10 ADD MSTORE DUP5 MSTORE SWAP4 DUP5 ADD SWAP4 SWAP3 DUP6 ADD SWAP3 PUSH2 0x26E5 JUMP JUMPDEST POP DUP1 SWAP7 POP POP POP POP POP POP POP SWAP3 POP SWAP3 SWAP1 POP JUMP JUMPDEST DUP1 CALLDATALOAD PUSH1 0x1 PUSH1 0x1 PUSH1 0xA0 SHL SUB DUP2 AND DUP2 EQ PUSH2 0x2642 JUMPI PUSH1 0x0 DUP1 REVERT JUMPDEST PUSH1 0x0 DUP1 PUSH1 0x40 DUP4 DUP6 SUB SLT ISZERO PUSH2 0x2778 JUMPI PUSH1 0x0 DUP1 REVERT JUMPDEST PUSH2 0x2781 DUP4 PUSH2 0x274E JUMP JUMPDEST SWAP5 PUSH1 0x20 SWAP4 SWAP1 SWAP4 ADD CALLDATALOAD SWAP4 POP POP POP JUMP JUMPDEST PUSH1 0x0 PUSH1 0x20 DUP3 DUP5 SUB SLT ISZERO PUSH2 0x27A1 JUMPI PUSH1 0x0 DUP1 REVERT JUMPDEST POP CALLDATALOAD SWAP2 SWAP1 POP JUMP JUMPDEST PUSH4 0x4E487B71 PUSH1 0xE0 SHL PUSH1 0x0 MSTORE PUSH1 0x21 PUSH1 0x4 MSTORE PUSH1 0x24 PUSH1 0x0 REVERT JUMPDEST PUSH1 0x4 DUP2 LT PUSH2 0x27DC JUMPI PUSH4 0x4E487B71 PUSH1 0xE0 SHL PUSH1 0x0 MSTORE PUSH1 0x21 PUSH1 0x4 MSTORE PUSH1 0x24 PUSH1 0x0 REVERT JUMPDEST SWAP1 MSTORE JUMP JUMPDEST DUP12 DUP2 MSTORE PUSH2 0x160 DUP2 ADD PUSH2 0x27F5 PUSH1 0x20 DUP4 ADD DUP14 PUSH2 0x27BE JUMP JUMPDEST PUSH1 0x1 PUSH1 0x1 PUSH1 0xA0 SHL SUB SWAP11 SWAP1 SWAP11 AND PUSH1 0x40 DUP3 ADD MSTORE PUSH1 0xFF SWAP9 DUP10 AND PUSH1 0x60 DUP3 ADD MSTORE SWAP7 SWAP1 SWAP8 AND PUSH1 0x80 DUP8 ADD MSTORE PUSH1 0xA0 DUP7 ADD SWAP5 SWAP1 SWAP5 MSTORE PUSH1 0xC0 DUP6 ADD SWAP3 SWAP1 SWAP3 MSTORE PUSH1 0xE0 DUP5 ADD MSTORE ISZERO ISZERO PUSH2 0x100 DUP4 ADD MSTORE PUSH2 0x120 DUP3 ADD MSTORE PUSH2 0x140 ADD MSTORE SWAP3 SWAP2 POP POP JUMP JUMPDEST PUSH1 0x0 PUSH1 0x20 DUP3 DUP5 SUB SLT ISZERO PUSH2 0x2859 JUMPI PUSH1 0x0 DUP1 REVERT JUMPDEST PUSH2 0x18F9 DUP3 PUSH2 0x274E JUMP JUMPDEST PUSH1 0x0 DUP2 MLOAD DUP1 DUP5 MSTORE PUSH1 0x20 DUP1 DUP6 ADD SWAP5 POP DUP1 DUP5 ADD PUSH1 0x0 JUMPDEST DUP4 DUP2 LT ISZERO PUSH2 0x2892 JUMPI DUP2 MLOAD DUP8 MSTORE SWAP6 DUP3 ADD SWAP6 SWAP1 DUP3 ADD SWAP1 PUSH1 0x1 ADD PUSH2 0x2876 JUMP JUMPDEST POP SWAP5 SWAP6 SWAP5 POP POP POP POP POP JUMP JUMPDEST PUSH1 0x20 DUP2 MSTORE PUSH1 0x0 PUSH2 0x18F9 PUSH1 0x20 DUP4 ADD DUP5 PUSH2 0x2862 JUMP JUMPDEST PUSH2 0x140 DUP2 ADD DUP2 DUP4 PUSH1 0x0 JUMPDEST PUSH1 0xA DUP2 LT ISZERO PUSH2 0x28DC JUMPI DUP2 MLOAD PUSH1 0xFF AND DUP4 MSTORE PUSH1 0x20 SWAP3 DUP4 ADD SWAP3 SWAP1 SWAP2 ADD SWAP1 PUSH1 0x1 ADD PUSH2 0x28BA JUMP JUMPDEST POP POP POP SWAP3 SWAP2 POP POP JUMP JUMPDEST PUSH1 0x0 DUP1 PUSH1 0x40 DUP4 DUP6 SUB SLT ISZERO PUSH2 0x28F8 JUMPI PUSH1 0x0 DUP1 REVERT JUMPDEST DUP3 CALLDATALOAD SWAP2 POP PUSH2 0x2908 PUSH1 0x20 DUP5 ADD PUSH2 0x274E JUMP JUMPDEST SWAP1 POP SWAP3 POP SWAP3 SWAP1 POP JUMP JUMPDEST PUSH1 0x0 DUP2 MLOAD DUP1 DUP5 MSTORE PUSH1 0x0 JUMPDEST DUP2 DUP2 LT ISZERO PUSH2 0x2937 JUMPI PUSH1 0x20 DUP2 DUP6 ADD DUP2 ADD MLOAD DUP7 DUP4 ADD DUP3 ADD MSTORE ADD PUSH2 0x291B JUMP JUMPDEST POP PUSH1 0x0 PUSH1 0x20 DUP3 DUP7 ADD ADD MSTORE PUSH1 0x20 PUSH1 0x1F NOT PUSH1 0x1F DUP4 ADD AND DUP6 ADD ADD SWAP2 POP POP SWAP3 SWAP2 POP POP JUMP JUMPDEST PUSH1 0xA0 DUP2 MSTORE PUSH1 0x0 PUSH2 0x296A PUSH1 0xA0 DUP4 ADD DUP9 PUSH2 0x2911 JUMP JUMPDEST PUSH1 0x20 DUP4 DUP2 ADD DUP9 SWAP1 MSTORE DUP4 DUP3 SUB PUSH1 0x40 DUP6 ADD MSTORE DUP7 MLOAD DUP1 DUP4 MSTORE DUP8 DUP3 ADD SWAP3 DUP3 ADD SWAP1 PUSH1 0x0 JUMPDEST DUP2 DUP2 LT ISZERO PUSH2 0x29A8 JUMPI DUP5 MLOAD PUSH1 0xFF AND DUP4 MSTORE SWAP4 DUP4 ADD SWAP4 SWAP2 DUP4 ADD SWAP2 PUSH1 0x1 ADD PUSH2 0x2989 JUMP JUMPDEST POP POP SWAP6 ISZERO ISZERO PUSH1 0x60 DUP6 ADD MSTORE POP POP POP PUSH1 0x80 ADD MSTORE SWAP4 SWAP3 POP POP POP JUMP JUMPDEST PUSH1 0x0 DUP3 PUSH1 0x1F DUP4 ADD SLT PUSH2 0x29D1 JUMPI PUSH1 0x0 DUP1 REVERT JUMPDEST DUP2 CALLDATALOAD PUSH8 0xFFFFFFFFFFFFFFFF DUP2 GT ISZERO PUSH2 0x29EB JUMPI PUSH2 0x29EB PUSH2 0x25C1 JUMP JUMPDEST PUSH2 0x29FE PUSH1 0x1F DUP3 ADD PUSH1 0x1F NOT AND PUSH1 0x20 ADD PUSH2 0x2600 JUMP JUMPDEST DUP2 DUP2 MSTORE DUP5 PUSH1 0x20 DUP4 DUP7 ADD ADD GT ISZERO PUSH2 0x2A13 JUMPI PUSH1 0x0 DUP1 REVERT JUMPDEST DUP2 PUSH1 0x20 DUP6 ADD PUSH1 0x20 DUP4 ADD CALLDATACOPY PUSH1 0x0 SWAP2 DUP2 ADD PUSH1 0x20 ADD SWAP2 SWAP1 SWAP2 MSTORE SWAP4 SWAP3 POP POP POP JUMP JUMPDEST PUSH1 0x0 DUP1 PUSH1 0x40 DUP4 DUP6 SUB SLT ISZERO PUSH2 0x2A43 JUMPI PUSH1 0x0 DUP1 REVERT JUMPDEST DUP3 CALLDATALOAD SWAP2 POP PUSH1 0x20 DUP4 ADD CALLDATALOAD PUSH8 0xFFFFFFFFFFFFFFFF DUP2 GT ISZERO PUSH2 0x2A61 JUMPI PUSH1 0x0 DUP1 REVERT JUMPDEST PUSH2 0x2A6D DUP6 DUP3 DUP7 ADD PUSH2 0x29C0 JUMP JUMPDEST SWAP2 POP POP SWAP3 POP SWAP3 SWAP1 POP JUMP JUMPDEST PUSH1 0x0 DUP1 PUSH1 0x0 PUSH1 0x60 DUP5 DUP7 SUB SLT ISZERO PUSH2 0x2A8C JUMPI PUSH1 0x0 DUP1 REVERT JUMPDEST DUP4 CALLDATALOAD SWAP3 POP PUSH2 0x2A9C PUSH1 0x20 DUP6 ADD PUSH2 0x2647 JUMP JUMPDEST SWAP2 POP PUSH2 0x2AAA PUSH1 0x40 DUP6 ADD PUSH2 0x2647 JUMP JUMPDEST SWAP1 POP SWAP3 POP SWAP3 POP SWAP3 JUMP JUMPDEST PUSH1 0x0 DUP1 PUSH1 0x0 DUP1 PUSH1 0x80 DUP6 DUP8 SUB SLT ISZERO PUSH2 0x2AC9 JUMPI PUSH1 0x0 DUP1 REVERT JUMPDEST PUSH2 0x2AD2 DUP6 PUSH2 0x2631 JUMP JUMPDEST SWAP4 POP PUSH1 0x20 DUP6 ADD CALLDATALOAD DUP1 ISZERO ISZERO DUP2 EQ PUSH2 0x2AE7 JUMPI PUSH1 0x0 DUP1 REVERT JUMPDEST SWAP3 POP PUSH1 0x40 DUP6 ADD CALLDATALOAD SWAP2 POP PUSH1 0x60 DUP6 ADD CALLDATALOAD PUSH8 0xFFFFFFFFFFFFFFFF DUP2 GT ISZERO PUSH2 0x2B0A JUMPI PUSH1 0x0 DUP1 REVERT JUMPDEST PUSH2 0x2B16 DUP8 DUP3 DUP9 ADD PUSH2 0x29C0 JUMP JUMPDEST SWAP2 POP POP SWAP3 SWAP6 SWAP2 SWAP5 POP SWAP3 POP JUMP JUMPDEST PUSH1 0x0 PUSH2 0x140 DUP1 DUP4 ADD PUSH2 0x2B34 DUP5 DUP16 PUSH2 0x27BE JUMP JUMPDEST PUSH1 0x20 PUSH1 0x1 DUP1 PUSH1 0xA0 SHL SUB DUP1 DUP16 AND DUP3 DUP8 ADD MSTORE PUSH1 0xFF DUP15 AND PUSH1 0x40 DUP8 ADD MSTORE PUSH1 0xFF DUP14 AND PUSH1 0x60 DUP8 ADD MSTORE DUP12 PUSH1 0x80 DUP8 ADD MSTORE DUP11 PUSH1 0xA0 DUP8 ADD MSTORE DUP10 ISZERO ISZERO PUSH1 0xC0 DUP8 ADD MSTORE DUP4 PUSH1 0xE0 DUP8 ADD MSTORE DUP3 SWAP4 POP DUP9 MLOAD DUP1 DUP5 MSTORE PUSH2 0x160 DUP8 ADD SWAP5 POP DUP3 DUP11 ADD SWAP4 POP PUSH1 0x0 JUMPDEST DUP2 DUP2 LT ISZERO PUSH2 0x2BA5 JUMPI DUP5 MLOAD DUP4 AND DUP7 MSTORE SWAP5 DUP4 ADD SWAP5 SWAP4 DUP4 ADD SWAP4 PUSH1 0x1 ADD PUSH2 0x2B87 JUMP JUMPDEST POP POP POP POP POP DUP3 DUP2 SUB PUSH2 0x100 DUP5 ADD MSTORE PUSH2 0x2BBD DUP2 DUP7 PUSH2 0x2862 JUMP JUMPDEST SWAP2 POP POP DUP3 PUSH2 0x120 DUP4 ADD MSTORE SWAP12 SWAP11 POP POP POP POP POP POP POP POP POP POP POP JUMP JUMPDEST PUSH1 0x20 DUP1 DUP3 MSTORE PUSH1 0x13 SWAP1 DUP3 ADD MSTORE PUSH19 0x11D85B5948191BD95CC81B9BDD08195E1A5CDD PUSH1 0x6A SHL PUSH1 0x40 DUP3 ADD MSTORE PUSH1 0x60 ADD SWAP1 JUMP JUMPDEST PUSH1 0x20 DUP1 DUP3 MSTORE PUSH1 0x1A SWAP1 DUP3 ADD MSTORE PUSH32 0x47616D65206E6F7420696E206578706563746564207374617465000000000000 PUSH1 0x40 DUP3 ADD MSTORE PUSH1 0x60 ADD SWAP1 JUMP JUMPDEST PUSH4 0x4E487B71 PUSH1 0xE0 SHL PUSH1 0x0 MSTORE PUSH1 0x32 PUSH1 0x4 MSTORE PUSH1 0x24 PUSH1 0x0 REVERT JUMPDEST PUSH4 0x4E487B71 PUSH1 0xE0 SHL PUSH1 0x0 MSTORE PUSH1 0x11 PUSH1 0x4 MSTORE PUSH1 0x24 PUSH1 0x0 REVERT JUMPDEST PUSH1 0x0 PUSH1 0x1 DUP3 ADD PUSH2 0x2C78 JUMPI PUSH2 0x2C78 PUSH2 0x2C50 JUMP JUMPDEST POP PUSH1 0x1 ADD SWAP1 JUMP JUMPDEST DUP1 DUP3 ADD DUP1 DUP3 GT ISZERO PUSH2 0x1756 JUMPI PUSH2 0x1756 PUSH2 0x2C50 JUMP JUMPDEST PUSH1 0x40 DUP1 DUP3 MSTORE DUP4 MLOAD DUP3 DUP3 ADD DUP2 SWAP1 MSTORE PUSH1 0x0 SWAP2 SWAP1 PUSH1 0x60 SWAP1 DUP2 DUP6 ADD SWAP1 PUSH1 0x20 DUP1 DUP10 ADD DUP7 JUMPDEST DUP4 DUP2 LT ISZERO PUSH2 0x2CE7 JUMPI DUP2 MLOAD DUP1 MLOAD PUSH1 0xFF AND DUP7 MSTORE DUP4 DUP2 ADD MLOAD PUSH1 0x1 SWAP1 DUP2 SIGNEXTEND DUP6 DUP9 ADD MSTORE SWAP1 DUP9 ADD MLOAD DUP2 SIGNEXTEND DUP9 DUP8 ADD MSTORE SWAP5 DUP7 ADD SWAP5 SWAP2 DUP4 ADD SWAP2 ADD PUSH2 0x2CB1 JUMP JUMPDEST POP POP SWAP6 SWAP1 SWAP6 ADD SWAP6 SWAP1 SWAP6 MSTORE POP SWAP3 SWAP5 SWAP4 POP POP POP POP JUMP JUMPDEST PUSH1 0x0 PUSH1 0xFF DUP3 AND PUSH1 0xFF DUP2 SUB PUSH2 0x2D11 JUMPI PUSH2 0x2D11 PUSH2 0x2C50 JUMP JUMPDEST PUSH1 0x1 ADD SWAP3 SWAP2 POP POP JUMP JUMPDEST PUSH1 0x1 DUP2 DUP2 SHR SWAP1 DUP3 AND DUP1 PUSH2 0x2D2E JUMPI PUSH1 0x7F DUP3 AND SWAP2 POP JUMPDEST PUSH1 0x20 DUP3 LT DUP2 SUB PUSH2 0xA90 JUMPI PUSH4 0x4E487B71 PUSH1 0xE0 SHL PUSH1 0x0 MSTORE PUSH1 0x22 PUSH1 0x4 MSTORE PUSH1 0x24 PUSH1 0x0 REVERT JUMPDEST PUSH1 0x20 DUP2 MSTORE PUSH1 0x0 PUSH2 0x18F9 PUSH1 0x20 DUP4 ADD DUP5 PUSH2 0x2911 JUMP JUMPDEST DUP2 DUP2 SUB DUP2 DUP2 GT ISZERO PUSH2 0x1756 JUMPI PUSH2 0x1756 PUSH2 0x2C50 JUMP JUMPDEST PUSH4 0x4E487B71 PUSH1 0xE0 SHL PUSH1 0x0 MSTORE PUSH1 0x31 PUSH1 0x4 MSTORE PUSH1 0x24 PUSH1 0x0 REVERT JUMPDEST PUSH1 0x1 DUP2 DUP2 SIGNEXTEND SWAP1 DUP4 SWAP1 SIGNEXTEND ADD PUSH2 0x7FFF DUP2 SGT PUSH2 0x7FFF NOT DUP3 SLT OR ISZERO PUSH2 0x1756 JUMPI PUSH2 0x1756 PUSH2 0x2C50 JUMP JUMPDEST PUSH1 0xFF DUP3 DUP2 AND DUP3 DUP3 AND SUB SWAP1 DUP2 GT ISZERO PUSH2 0x1756 JUMPI PUSH2 0x1756 PUSH2 0x2C50 JUMP JUMPDEST PUSH1 0xFF DUP2 DUP2 AND DUP4 DUP3 AND ADD SWAP1 DUP2 GT ISZERO PUSH2 0x1756 JUMPI PUSH2 0x1756 PUSH2 0x2C50 JUMP JUMPDEST PUSH4 0x4E487B71 PUSH1 0xE0 SHL PUSH1 0x0 MSTORE PUSH1 0x12 PUSH1 0x4 MSTORE PUSH1 0x24 PUSH1 0x0 REVERT JUMPDEST PUSH1 0x0 PUSH1 0xFF DUP4 AND DUP1 PUSH2 0x2E08 JUMPI PUSH2 0x2E08 PUSH2 0x2DDF JUMP JUMPDEST DUP1 PUSH1 0xFF DUP5 AND MOD SWAP2 POP POP SWAP3 SWAP2 POP POP JUMP JUMPDEST PUSH1 0x1F DUP3 GT ISZERO PUSH2 0x1A22 JUMPI PUSH1 0x0 DUP2 DUP2 MSTORE PUSH1 0x20 DUP2 KECCAK256 PUSH1 0x1F DUP6 ADD PUSH1 0x5 SHR DUP2 ADD PUSH1 0x20 DUP7 LT ISZERO PUSH2 0x2E3E JUMPI POP DUP1 JUMPDEST PUSH1 0x1F DUP6 ADD PUSH1 0x5 SHR DUP3 ADD SWAP2 POP JUMPDEST DUP2 DUP2 LT ISZERO PUSH2 0xE0F JUMPI DUP3 DUP2 SSTORE PUSH1 0x1 ADD PUSH2 0x2E4A JUMP JUMPDEST DUP2 MLOAD PUSH8 0xFFFFFFFFFFFFFFFF DUP2 GT ISZERO PUSH2 0x2E77 JUMPI PUSH2 0x2E77 PUSH2 0x25C1 JUMP JUMPDEST PUSH2 0x2E8B DUP2 PUSH2 0x2E85 DUP5 SLOAD PUSH2 0x2D1A JUMP JUMPDEST DUP5 PUSH2 0x2E17 JUMP JUMPDEST PUSH1 0x20 DUP1 PUSH1 0x1F DUP4 GT PUSH1 0x1 DUP2 EQ PUSH2 0x2EC0 JUMPI PUSH1 0x0 DUP5 ISZERO PUSH2 0x2EA8 JUMPI POP DUP6 DUP4 ADD MLOAD JUMPDEST PUSH1 0x0 NOT PUSH1 0x3 DUP7 SWAP1 SHL SHR NOT AND PUSH1 0x1 DUP6 SWAP1 SHL OR DUP6 SSTORE PUSH2 0xE0F JUMP JUMPDEST PUSH1 0x0 DUP6 DUP2 MSTORE PUSH1 0x20 DUP2 KECCAK256 PUSH1 0x1F NOT DUP7 AND SWAP2 JUMPDEST DUP3 DUP2 LT ISZERO PUSH2 0x2EEF JUMPI DUP9 DUP7 ADD MLOAD DUP3 SSTORE SWAP5 DUP5 ADD SWAP5 PUSH1 0x1 SWAP1 SWAP2 ADD SWAP1 DUP5 ADD PUSH2 0x2ED0 JUMP JUMPDEST POP DUP6 DUP3 LT ISZERO PUSH2 0x2F0D JUMPI DUP8 DUP6 ADD MLOAD PUSH1 0x0 NOT PUSH1 0x3 DUP9 SWAP1 SHL PUSH1 0xF8 AND SHR NOT AND DUP2 SSTORE JUMPDEST POP POP POP POP POP PUSH1 0x1 SWAP1 DUP2 SHL ADD SWAP1 SSTORE POP JUMP JUMPDEST PUSH1 0x0 DUP3 PUSH2 0x2F2C JUMPI PUSH2 0x2F2C PUSH2 0x2DDF JUMP JUMPDEST POP MOD SWAP1 JUMP INVALID LOG2 PUSH5 0x6970667358 0x22 SLT KECCAK256 EXP PUSH3 0xC9209A 0xCD 0xBA CALL DUP16 0xB6 0xE3 0xD4 DUP15 0xF9 PREVRANDAO SWAP14 ADD LOG1 PUSH18 0xD7FA1D6CDF23708E49D5B7F22764736F6C63 NUMBER STOP ADDMOD SGT STOP CALLER "},"methodIdentifiers":{"HAND_SIZE()":"e6ba69d8","MOVE_TIMEOUT()":"6a07dc12","TILE_DISTRIBUTION(uint256)":"d4698e5b","WINNING_SCORE()":"e3087fec","cancelGame(uint256)":"69958ab9","createGame(uint8,bool,uint256,string)":"8b38795d","games(uint256)":"117a5b90","getGame(uint256)":"a2f77bcc","getPlayer(uint256,address)":"6454e58d","getPlayerGames(address)":"129daf84","getTileAt(uint256,int16,int16)":"76d4293c","getTilePoolStatus(uint256)":"249123d3","joinGame(uint256,string)":"68880a26","nextGameId()":"b135bbb0","playTurn(uint256,(uint8,int16,int16)[])":"084ba9b8","playerGames(address,uint256)":"0a5694c2","skipTurn(uint256)":"ce371cbd","startGame(uint256)":"e5ed1d59"}}}}}