{"contracts/FivesGame.sol":{"FivesGame":{"abi":[{"anonymous":false,"inputs":[{"indexed":true,"internalType":"uint256","name":"gameId","type":"uint256"}],"name":"GameCancelled","type":"event"},{"anonymous":false,"inputs":[{"indexed":true,"internalType":"uint256","name":"gameId","type":"uint256"},{"indexed":true,"internalType":"address","name":"winner","type":"address"},{"indexed":false,"internalType":"uint256","name":"score","type":"uint256"}],"name":"GameCompleted","type":"event"},{"anonymous":false,"inputs":[{"indexed":true,"internalType":"uint256","name":"gameId","type":"uint256"},{"indexed":true,"internalType":"address","name":"creator","type":"address"},{"indexed":false,"internalType":"uint8","name":"maxPlayers","type":"uint8"}],"name":"GameCreated","type":"event"},{"anonymous":false,"inputs":[{"indexed":true,"internalType":"uint256","name":"gameId","type":"uint256"}],"name":"GameStarted","type":"event"},{"anonymous":false,"inputs":[{"indexed":true,"internalType":"uint256","name":"gameId","type":"uint256"},{"indexed":true,"internalType":"address","name":"player","type":"address"},{"indexed":false,"internalType":"string","name":"name","type":"string"}],"name":"PlayerJoined","type":"event"},{"anonymous":false,"inputs":[{"indexed":true,"internalType":"uint256","name":"gameId","type":"uint256"},{"indexed":true,"internalType":"address","name":"player","type":"address"},{"indexed":false,"internalType":"uint8","name":"tilesDrawn","type":"uint8"}],"name":"TilesDrawn","type":"event"},{"anonymous":false,"inputs":[{"indexed":true,"internalType":"uint256","name":"gameId","type":"uint256"},{"indexed":true,"internalType":"address","name":"currentPlayer","type":"address"},{"indexed":false,"internalType":"uint8","name":"playerIndex","type":"uint8"}],"name":"TurnChanged","type":"event"},{"anonymous":false,"inputs":[{"indexed":true,"internalType":"uint256","name":"gameId","type":"uint256"},{"indexed":true,"internalType":"address","name":"player","type":"address"},{"components":[{"internalType":"uint8","name":"number","type":"uint8"},{"internalType":"int16","name":"x","type":"int16"},{"internalType":"int16","name":"y","type":"int16"}],"indexed":false,"internalType":"struct FivesGame.TilePlacement[]","name":"placements","type":"tuple[]"},{"indexed":false,"internalType":"uint256","name":"score","type":"uint256"}],"name":"TurnPlaced","type":"event"},{"inputs":[],"name":"HAND_SIZE","outputs":[{"internalType":"uint8","name":"","type":"uint8"}],"stateMutability":"view","type":"function"},{"inputs":[],"name":"MOVE_TIMEOUT","outputs":[{"internalType":"uint256","name":"","type":"uint256"}],"stateMutability":"view","type":"function"},{"inputs":[{"internalType":"uint256","name":"","type":"uint256"}],"name":"TILE_DISTRIBUTION","outputs":[{"internalType":"uint8","name":"","type":"uint8"}],"stateMutability":"view","type":"function"},{"inputs":[],"name":"WINNING_SCORE","outputs":[{"internalType":"uint256","name":"","type":"uint256"}],"stateMutability":"view","type":"function"},{"inputs":[{"internalType":"uint256","name":"gameId","type":"uint256"}],"name":"cancelGame","outputs":[],"stateMutability":"nonpayable","type":"function"},{"inputs":[{"internalType":"uint8","name":"maxPlayers","type":"uint8"},{"internalType":"bool","name":"allowIslands","type":"bool"},{"internalType":"uint256","name":"winningScore","type":"uint256"},{"internalType":"string","name":"playerName","type":"string"}],"name":"createGame","outputs":[{"internalType":"uint256","name":"","type":"uint256"}],"stateMutability":"nonpayable","type":"function"},{"inputs":[{"internalType":"uint256","name":"","type":"uint256"}],"name":"games","outputs":[{"internalType":"uint256","name":"gameId","type":"uint256"},{"internalType":"enum FivesGame.GameState","name":"state","type":"uint8"},{"internalType":"address","name":"creator","type":"address"},{"internalType":"uint8","name":"maxPlayers","type":"uint8"},{"internalType":"uint8","name":"currentPlayerIndex","type":"uint8"},{"internalType":"uint256","name":"turnNumber","type":"uint256"},{"internalType":"uint256","name":"createdAt","type":"uint256"},{"internalType":"uint256","name":"lastMoveAt","type":"uint256"},{"internalType":"bool","name":"allowIslands","type":"bool"},{"internalType":"uint256","name":"winningScore","type":"uint256"},{"internalType":"uint256","name":"poolSeed","type":"uint256"}],"stateMutability":"view","type":"function"},{"inputs":[{"internalType":"uint256","name":"gameId","type":"uint256"}],"name":"getGame","outputs":[{"internalType":"enum FivesGame.GameState","name":"state","type":"uint8"},{"internalType":"address","name":"creator","type":"address"},{"internalType":"uint8","name":"maxPlayers","type":"uint8"},{"internalType":"uint8","name":"currentPlayerIndex","type":"uint8"},{"internalType":"uint256","name":"turnNumber","type":"uint256"},{"internalType":"uint256","name":"createdAt","type":"uint256"},{"internalType":"bool","name":"allowIslands","type":"bool"},{"internalType":"address[]","name":"playerAddresses","type":"address[]"},{"internalType":"uint256[]","name":"playerScores","type":"uint256[]"},{"internalType":"uint256","name":"tilesRemaining","type":"uint256"},{"internalType":"uint256","name":"winningScore","type":"uint256"}],"stateMutability":"view","type":"function"},{"inputs":[{"internalType":"uint256","name":"gameId","type":"uint256"},{"internalType":"address","name":"playerAddr","type":"address"}],"name":"getPlayer","outputs":[{"internalType":"string","name":"name","type":"string"},{"internalType":"uint256","name":"score","type":"uint256"},{"internalType":"uint8[]","name":"hand","type":"uint8[]"},{"internalType":"bool","name":"hasJoined","type":"bool"},{"internalType":"uint256","name":"lastMoveTime","type":"uint256"}],"stateMutability":"view","type":"function"},{"inputs":[{"internalType":"address","name":"player","type":"address"}],"name":"getPlayerGames","outputs":[{"internalType":"uint256[]","name":"","type":"uint256[]"}],"stateMutability":"view","type":"function"},{"inputs":[{"internalType":"uint256","name":"gameId","type":"uint256"},{"internalType":"int16","name":"x","type":"int16"},{"internalType":"int16","name":"y","type":"int16"}],"name":"getTileAt","outputs":[{"internalType":"bool","name":"exists","type":"bool"},{"internalType":"uint8","name":"number","type":"uint8"},{"internalType":"uint256","name":"turnPlaced","type":"uint256"}],"stateMutability":"view","type":"function"},{"inputs":[{"internalType":"uint256","name":"gameId","type":"uint256"}],"name":"getTilePoolStatus","outputs":[{"internalType":"uint8[10]","name":"remainingCounts","type":"uint8[10]"}],"stateMutability":"view","type":"function"},{"inputs":[{"internalType":"uint256","name":"gameId","type":"uint256"},{"internalType":"string","name":"playerName","type":"string"}],"name":"joinGame","outputs":[],"stateMutability":"nonpayable","type":"function"},{"inputs":[],"name":"nextGameId","outputs":[{"internalType":"uint256","name":"","type":"uint256"}],"stateMutability":"view","type":"function"},{"inputs":[{"internalType":"uint256","name":"gameId","type":"uint256"},{"components":[{"internalType":"uint8","name":"number","type":"uint8"},{"internalType":"int16","name":"x","type":"int16"},{"internalType":"int16","name":"y","type":"int16"}],"internalType":"struct FivesGame.TilePlacement[]","name":"placements","type":"tuple[]"}],"name":"playTurn","outputs":[],"stateMutability":"nonpayable","type":"function"},{"inputs":[{"internalType":"address","name":"","type":"address"},{"internalType":"uint256","name":"","type":"uint256"}],"name":"playerGames","outputs":[{"internalType":"uint256","name":"","type":"uint256"}],"stateMutability":"view","type":"function"},{"inputs":[{"internalType":"uint256","name":"gameId","type":"uint256"}],"name":"skipTurn","outputs":[],"stateMutability":"nonpayable","type":"function"},{"inputs":[{"internalType":"uint256","name":"gameId","type":"uint256"}],"name":"startGame","outputs":[],"stateMutability":"nonpayable","type":"function"}],"evm":{"bytecode":{"linkReferences":{},"object":"6101c06040526005608081815260a082905260c082905260e08290526101008290526101208290526101408290526101608290526101808290526101a0919091526200005090600090600a6200006a565b5060016003553480156200006357600080fd5b506200011b565b600183019183908215620000f25791602002820160005b83821115620000c157835183826101000a81548160ff021916908360ff160217905550926020019260010160208160000104928301926001030262000081565b8015620000f05782816101000a81549060ff0219169055600101602081600001049283019260010302620000c1565b505b506200010092915062000104565b5090565b5b8082111562000100576000815560010162000105565b613ee5806200012b6000396000f3fe608060405234801561001057600080fd5b50600436106101165760003560e01c806376d4293c116100a2578063ce371cbd11610071578063ce371cbd146102f3578063d4698e5b14610306578063e3087fec1461032b578063e5ed1d5914610333578063e6ba69d81461034657600080fd5b806376d4293c1461027b5780638b38795d146102ad578063a2f77bcc146102c0578063b135bbb0146102ea57600080fd5b8063249123d3116100e9578063249123d3146102075780636454e58d1461022757806368880a261461024b57806369958ab91461025e5780636a07dc121461027157600080fd5b8063084ba9b81461011b5780630a5694c214610130578063117a5b9014610156578063129daf84146101e7575b600080fd5b61012e61012936600461355e565b61034e565b005b61014361013e36600461366a565b61091f565b6040519081526020015b60405180910390f35b6101d0610164366004613694565b600160208190526000918252604090912080549181015460028201546003830154600484015460058501546006860154600c9096015460ff808716976001600160a01b0361010089041697600160a81b8104831697600160b01b9091048316969095909490939216918b565b60405161014d9b9a999897969594939291906136e5565b6101fa6101f536600461374c565b610950565b60405161014d91906137a2565b61021a610215366004613694565b6109bc565b60405161014d91906137b5565b61023a6102353660046137ea565b610a85565b60405161014d95949392919061385c565b61012e610259366004613935565b610c15565b61012e61026c366004613694565b610e06565b6101436201518081565b61028e61028936600461397c565b610f1d565b60408051931515845260ff90921660208401529082015260600161014d565b6101436102bb3660046139b8565b610fbe565b6102d36102ce366004613694565b6111d2565b60405161014d9b9a99989796959493929190613a27565b61014360035481565b61012e610301366004613694565b6113c8565b610319610314366004613694565b61156a565b60405160ff909116815260200161014d565b610143606481565b61012e610341366004613694565b611594565b610319600581565b81600081118015610360575060035481105b6103855760405162461bcd60e51b815260040161037c90613ae1565b60405180910390fd5b826001806000838152600160208190526040909120015460ff1660038111156103b0576103b06136ad565b146103cd5760405162461bcd60e51b815260040161037c90613b0e565b6000858152600160209081526040808320338452600701909152902060040154859060ff166104335760405162461bcd60e51b8152602060048201526012602482015271506c61796572206e6f7420696e2067616d6560701b604482015260640161037c565b600086815260016020819052604090912090810154600882018054899392339291600160b01b90910460ff1690811061046e5761046e613b45565b6000918252602090912001546001600160a01b0316146104c05760405162461bcd60e51b815260206004820152600d60248201526c2737ba103cb7bab9103a3ab93760991b604482015260640161037c565b60008751116105115760405162461bcd60e51b815260206004820152601c60248201527f4d75737420706c616365206174206c65617374206f6e652074696c6500000000604482015260640161037c565b600a875111156105635760405162461bcd60e51b815260206004820152601a60248201527f546f6f206d616e792074696c657320696e206f6e65207475726e000000000000604482015260640161037c565b600088815260016020908152604080832033845260078101909252822090915b8951811015610671576105b3828b83815181106105a2576105a2613b45565b6020026020010151600001516116e0565b6105f65760405162461bcd60e51b8152602060048201526014602482015273446f6e2774206861766520746869732074696c6560601b604482015260640161037c565b61061a8b8b838151811061060c5761060c613b45565b60200260200101518c611756565b61065f5760405162461bcd60e51b8152602060048201526016602482015275125b9d985b1a59081d1a5b19481c1b1858d95b595b9d60521b604482015260640161037c565b8061066981613b71565b915050610583565b5060005b89518110156108205760008a828151811061069257610692613b45565b602002602001015190506000816020015182604001516040516020016106c892919060f092831b8152911b600282015260040190565b6040516020818303038152906040528051906020012090506040518060a00160405280836000015160ff168152602001836020015160010b8152602001836040015160010b8152602001600115158152602001866002015481525085600901600083815260200190815260200160002060008201518160000160006101000a81548160ff021916908360ff16021790555060208201518160000160016101000a81548161ffff021916908360010b61ffff16021790555060408201518160000160036101000a81548161ffff021916908360010b61ffff16021790555060608201518160000160056101000a81548160ff0219169083151502179055506080820151816001015590505084600a0181908060018154018082558091505060019003906000526020600020016000909190919091505561080b848360000151611a1b565b5050808061081890613b71565b915050610675565b50600061082d8b8b611b42565b9050808260020160008282546108439190613b8a565b909155505042600583015560405133908c907f2f138c198af21768b3e95851fcf98d667c620ea08ba24c8afcead9165293c39d90610884908e908690613b9d565b60405180910390a36108968b33611c8d565b600382015415806108af57508260060154826002015410155b156109085760018301805460ff1916600290811790915582015460405190815233908c907ff6ae188cc6336ef5ad970d3c81cda5814b4c4902540924c6924debe94ece13eb9060200160405180910390a3505050610915565b6109118b611e1e565b5050505b5050505050505050565b6002602052816000526040600020818154811061093b57600080fd5b90600052602060002001600091509150505481565b6001600160a01b0381166000908152600260209081526040918290208054835181840281018401909452808452606093928301828280156109b057602002820191906000526020600020905b81548152602001906001019080831161099c575b50505050509050919050565b6109c46133cd565b816000811180156109d6575060035481105b6109f25760405162461bcd60e51b815260040161037c90613ae1565b6000838152600160205260408120905b600b820154811015610a7c578382600b018281548110610a2457610a24613b45565b60009182526020918290209181049091015460ff601f9092166101000a900416600a8110610a5457610a54613b45565b60200201805190610a6482613c06565b60ff1690525080610a7481613b71565b915050610a02565b50505b50919050565b60606000606060008086600081118015610aa0575060035481105b610abc5760405162461bcd60e51b815260040161037c90613ae1565b60008881526001602081815260408084206001600160a01b038c168552600701909152909120600281015460048201546005830154938301805493949093600386019260ff1691908590610b0f90613c25565b80601f0160208091040260200160405190810160405280929190818152602001828054610b3b90613c25565b8015610b885780601f10610b5d57610100808354040283529160200191610b88565b820191906000526020600020905b815481529060010190602001808311610b6b57829003601f168201915b5050505050945082805480602002602001604051908101604052809291908181526020018280548015610bf857602002820191906000526020600020906000905b825461010083900a900460ff16815260206001928301818104948501949093039092029101808411610bc95790505b505050505092509650965096509650965050509295509295909350565b81600081118015610c27575060035481105b610c435760405162461bcd60e51b815260040161037c90613ae1565b826000806000838152600160208190526040909120015460ff166003811115610c6e57610c6e6136ad565b14610c8b5760405162461bcd60e51b815260040161037c90613b0e565b6000858152600160209081526040808320338452600781019092529091206004015460ff1615610cf45760405162461bcd60e51b8152602060048201526014602482015273416c726561647920696e20746869732067616d6560601b604482015260640161037c565b60018101546008820154600160a81b90910460ff1611610d455760405162461bcd60e51b815260206004820152600c60248201526b11d85b59481a5cc8199d5b1b60a21b604482015260640161037c565b6000855111610d8d5760405162461bcd60e51b8152602060048201526014602482015273141b185e595c881b985b59481c995c5d5a5c995960621b604482015260640161037c565b610d98863387611f29565b336001600160a01b0316867fa259bab503f65f6ae62d4f6a412b41b967799a284f69f21ba61362cf04e5eafa87604051610dd29190613c59565b60405180910390a360018101546008820154600160a81b90910460ff169003610dfe57610dfe86612052565b505050505050565b80600081118015610e18575060035481105b610e345760405162461bcd60e51b815260040161037c90613ae1565b600082815260016020819052604082209081015490919061010090046001600160a01b0316331480610e9957506000600183015460ff166003811115610e7c57610e7c6136ad565b148015610e9957506003820154610e969062015180613b8a565b42115b905080610edd5760405162461bcd60e51b815260206004820152601260248201527143616e6e6f742063616e63656c2067616d6560701b604482015260640161037c565b60018201805460ff1916600317905560405184907f681705fdbd93dba3b679fd712577e9a86d57c5551c520f8c74857deb57f9623f90600090a250505050565b600080600085600081118015610f34575060035481105b610f505760405162461bcd60e51b815260040161037c90613ae1565b60405160f087811b602083015286901b602282015260009060240160408051601f19818403018152918152815160209283012060009a8b526001808452828c20918c526009909101909252909820805498015460ff600160281b8a0481169a99169890975095505050505050565b600060028560ff1610158015610fd8575060048560ff1611155b61101b5760405162461bcd60e51b8152602060048201526014602482015273125b9d985b1a59081c1b185e595c8818dbdd5b9d60621b604482015260640161037c565b6032831015801561102e57506101f48311155b6110725760405162461bcd60e51b8152602060048201526015602482015274496e76616c69642077696e6e696e672073636f726560581b604482015260640161037c565b60008251116110ba5760405162461bcd60e51b8152602060048201526014602482015273141b185e595c881b985b59481c995c5d5a5c995960621b604482015260640161037c565b60038054600091826110cb83613b71565b9091555060008181526001602081815260409283902084815580830180546001600160b01b031916336101000260ff60a81b191617600160a81b60ff8e16021760ff60b01b19169055600281019290925542600383018190556004830181905560058301805460ff19168b151517905560068301899055835180830191909152448185015260608082018690528451808303909101815260809091019093528251920191909120600c820155909150611183826120fa565b61118e823386611f29565b60405160ff88168152339083907fdd0abcdffc76581d11646898ee4d7f269ca1e0c0b622d072d343100dad83ecb19060200160405180910390a35095945050505050565b60008060008060008060006060806000808b6000811180156111f5575060035481105b6112115760405162461bcd60e51b815260040161037c90613ae1565b60008d8152600160205260408120600881015490919067ffffffffffffffff81111561123f5761123f6134c6565b604051908082528060200260200182016040528015611268578160200160208202803683370190505b50905060005b60088301548110156112ee5782600701600084600801838154811061129557611295613b45565b60009182526020808320909101546001600160a01b0316835282019290925260400190206002015482518390839081106112d1576112d1613b45565b6020908102919091010152806112e681613b71565b91505061126e565b506001820154600283015460038401546005850154600b86015460068701546008880180546040805160208084028201810190925282815260ff808b169a6001600160a01b036101008204169a600160a81b820483169a600160b01b90920483169990989197921695948d9491939186919083018282801561139957602002820191906000526020600020905b81546001600160a01b0316815260019091019060200180831161137b575b505050505093509d509d509d509d509d509d509d509d509d509d509d5050505091939597999b90929496989a50565b806000811180156113da575060035481105b6113f65760405162461bcd60e51b815260040161037c90613ae1565b816001806000838152600160208190526040909120015460ff166003811115611421576114216136ad565b1461143e5760405162461bcd60e51b815260040161037c90613b0e565b6000848152600160209081526040808320338452600701909152902060040154849060ff166114a45760405162461bcd60e51b8152602060048201526012602482015271506c61796572206e6f7420696e2067616d6560701b604482015260640161037c565b600085815260016020819052604090912090810154600882018054889392339291600160b01b90910460ff169081106114df576114df613b45565b6000918252602090912001546001600160a01b0316146115315760405162461bcd60e51b815260206004820152600d60248201526c2737ba103cb7bab9103a3ab93760991b604482015260640161037c565b60008781526001602090815260408083203380855260078201909352922042600590910155611561908990611c8d565b61091588611e1e565b600081600a811061157a57600080fd5b60209182820401919006915054906101000a900460ff1681565b806000811180156115a6575060035481105b6115c25760405162461bcd60e51b815260040161037c90613ae1565b816000806000838152600160208190526040909120015460ff1660038111156115ed576115ed6136ad565b1461160a5760405162461bcd60e51b815260040161037c90613b0e565b60008481526001602081905260409091209081015461010090046001600160a01b0316331461167b5760405162461bcd60e51b815260206004820152601b60248201527f4f6e6c792063726561746f722063616e2073746172742067616d650000000000604482015260640161037c565b6008810154600211156116d05760405162461bcd60e51b815260206004820152601760248201527f4e656564206174206c65617374203220706c6179657273000000000000000000604482015260640161037c565b6116d985612052565b5050505050565b6000805b600384015481101561174a578260ff1684600301828154811061170957611709613b45565b60009182526020918290209181049091015460ff601f9092166101000a90041603611738576001915050611750565b8061174281613b71565b9150506116e4565b50600090505b92915050565b600083815260016020908152604080832085830151868301519251919385936117909390910160f092831b8152911b600282015260040190565b60408051808303601f190181529181528151602092830120600081815260098601909352912054909150600160281b900460ff16156117d457600092505050611a14565b6000805b855181101561186257866020015160010b8682815181106117fb576117fb613b45565b60200260200101516020015160010b14801561183d5750866040015160010b86828151811061182c5761182c613b45565b60200260200101516040015160010b145b15611850578161184c81613c06565b9250505b8061185a81613b71565b9150506117d8565b5060018160ff16111561187b5760009350505050611a14565b600a8301546000036119a8576000805b865181101561197f57600060078883815181106118aa576118aa613b45565b6020026020010151602001516118c09190613c6c565b9050600060078984815181106118d8576118d8613b45565b6020026020010151604001516118ee9190613c6c565b90508160010b600014801561190657508060010b6000145b8061193057508160010b600014801561193057508060010b6001148061193057508060010b600019145b8061195a57508060010b600014801561195a57508160010b6001148061195a57508160010b600019145b1561196a5760019350505061197f565b5050808061197790613b71565b91505061188b565b5080611992576000945050505050611a14565b61199d878786612208565b945050505050611a14565b600583015460ff166119d65760006119c08887612353565b9050806119d4576000945050505050611a14565b505b6119e1868685612208565b6119f15760009350505050611a14565b6119fc8787876123de565b611a0c5760009350505050611a14565b600193505050505b9392505050565b60005b6003830154811015611b3d578160ff16836003018281548110611a4357611a43613b45565b60009182526020918290209181049091015460ff601f9092166101000a90041603611b2b57600383018054611a7a90600190613c8f565b81548110611a8a57611a8a613b45565b90600052602060002090602091828204019190069054906101000a900460ff16836003018281548110611abf57611abf613b45565b90600052602060002090602091828204019190066101000a81548160ff021916908360ff16021790555082600301805480611afc57611afc613ca2565b60019003818190600052602060002090602091828204019190066101000a81549060ff02191690559055505050565b80611b3581613b71565b915050611a1e565b505050565b600080611b4d6133ec565b611b556133ec565b60005b8551811015611c82576000868281518110611b7557611b75613b45565b6020026020010151905083816040015161ffff16600f8110611b9957611b99613b45565b6020020151611bf7576000611bba898360200151846040015160018c612459565b90508015611bf557611bcc8187613b8a565b9550600185836040015161ffff16600f8110611bea57611bea613b45565b911515602090920201525b505b82816020015161ffff16600f8110611c1157611c11613b45565b6020020151611c6f576000611c32898360200151846040015160008c612459565b90508015611c6d57611c448187613b8a565b9550600184836020015161ffff16600f8110611c6257611c62613b45565b911515602090920201525b505b5080611c7a81613b71565b915050611b58565b509195945050505050565b60008281526001602090815260408083206001600160a01b038516845260078101909252822060038101549192909160051115611cd7576003820154611cd4906005613cb8565b90505b60005b8160ff168160ff16108015611cf25750600b84015415155b15611dca57600b8401805460009190611d0d90600190613c8f565b81548110611d1d57611d1d613b45565b90600052602060002090602091828204019190069054906101000a900460ff16905084600b01805480611d5257611d52613ca2565b60008281526020808220600019909301818104909301805460ff601f80871661010090810a830219909316909355949095556003890180546001810182559084529282902091830490910180548685169390921690940a918202919092021990911617905581611dc181613c06565b92505050611cda565b60ff811615610dfe5760405160ff821681526001600160a01b0386169087907f61122678b83552d47f9ad2905cf1399b15d78b009910fc68c8782f2696b115569060200160405180910390a3505050505050565b600081815260016020819052604090912060088101548183015491929091611e5191600160b01b90910460ff1690613cd1565b611e5b9190613d00565b60018201805460ff60b01b1916600160b01b60ff93841681029190911791829055900416600003611e9e57600281018054906000611e9883613b71565b91905055505b42600482015560018101546008820180549091600160b01b900460ff16908110611eca57611eca613b45565b600091825260209182902001546001830154604051600160b01b90910460ff1681526001600160a01b039091169184917fd48662f539b10425cf4a565afdaac42d9593d8216a745cefb2429c7ef043e77b910160405180910390a35050565b6000838152600160208181526040808420815160c0810183526001600160a01b03888116808352828601898152838601899052855189815280880187526060850152608084018890524260a08501529088526007840190955292909520855181546001600160a01b03191693169290921782559151919392909190820190611fb19082613d68565b506040820151600282015560608201518051611fd791600384019160209091019061340b565b50608082015160048201805460ff191691151591909117905560a0909101516005909101556008018054600181810183556000928352602080842090920180546001600160a01b0319166001600160a01b03969096169586179055938252600281526040822080549485018155825290209091019190915550565b60008181526001602081905260408220808201805460ff1916909217909155426004820155905b60088201548110156120ca576120b88383600801838154811061209e5761209e613b45565b6000918252602090912001546001600160a01b0316611c8d565b806120c281613b71565b915050612079565b5060405182907f50ad08f58a27f2851d7e3a1b3a6a46b290f2ce677e99642d30ff639721e7779090600090a25050565b6000818152600160205260409081902081516032808252610660820190935290918160200160208202803683375050815161213e92600b850192506020019061340b565b506000805b60098160ff16116121fe5760005b60008260ff16600a811061216757612167613b45565b602081049091015460ff601f9092166101000a9004811690821610156121eb578184600b018460ff16815481106121a0576121a0613b45565b90600052602060002090602091828204019190066101000a81548160ff021916908360ff16021790555082806121d590613c06565b93505080806121e390613c06565b915050612151565b50806121f681613c06565b915050612143565b50611b3d836128d8565b6000600183511161221b57506001611a14565b600180805b85518110156122d5578560008151811061223c5761223c613b45565b60200260200101516040015160010b86828151811061225d5761225d613b45565b60200260200101516040015160010b1461227657600092505b8560008151811061228957612289613b45565b60200260200101516020015160010b8682815181106122aa576122aa613b45565b60200260200101516020015160010b146122c357600091505b806122cd81613b71565b915050612220565b50811580156122e2575080155b156122f257600092505050611a14565b811561232a576123218560008151811061230e5761230e613b45565b6020026020010151604001518686612a7a565b92505050611a14565b6123218560008151811061234057612340613b45565b6020026020010151602001518686612d67565b6000828152600160205260408120815b83518110156123d3576123b18585838151811061238257612382613b45565b6020026020010151602001518684815181106123a0576123a0613b45565b602002602001015160400151613048565b156123c157600192505050611750565b806123cb81613b71565b915050612363565b506000949350505050565b600080600160008681526020019081526020016000209050600061240e8686602001518760400151876001613168565b905060058160ff16111561242757600092505050611a14565b600061243f8787602001518860400151886000613168565b905060058160ff161115611a0c5760009350505050611a14565b6000858152600160205260408120818085156125185750869050805b60008260010b1380156124b3575061249889612492600185613c6c565b896132f2565b806124b357506124b3856124ad600185613c6c565b8961334b565b156124ca57816124c281613e28565b925050612475565b600e8160010b1280156124fc57506124e789612492836001613e4a565b806124fc57506124fc856124ad836001613e4a565b15612513578061250b81613e6d565b9150506124ca565b6125be565b50859050805b60008260010b13801561255c5750612541898961253c600186613c6c565b6132f2565b8061255c575061255c8589612557600186613c6c565b61334b565b15612573578161256b81613e28565b92505061251e565b600e8160010b1280156125a75750612591898961253c846001613e4a565b806125a757506125a78589612557846001613e4a565b156125be57806125b681613e6d565b915050612573565b60006125ca8383613c6c565b6125d5906001613e4a565b90506000808260010b136125ea5760006125ec565b815b905060028160ff161015612608576000955050505050506128cf565b600080855b8560010b8160010b13612883576000808c1561273f5760005b8c518110156126c7578360010b8d828151811061264557612645613b45565b60200260200101516020015160010b14801561268357508e60010b8d828151811061267257612672613b45565b60200260200101516040015160010b145b156126b5578c818151811061269a5761269a613b45565b602002602001015160000151925060019150600195506126c7565b806126bf81613b71565b915050612626565b508061273a5760405160f084811b60208301528f901b602282015260009060240160408051808303601f190181529181528151602092830120600081815260098f01909352912054909150600160281b900460ff161561273857600081815260098c01602052604090205460ff1692505b505b61285f565b60005b8c518110156127e3578f60010b8d828151811061276157612761613b45565b60200260200101516020015160010b14801561279f57508360010b8d828151811061278e5761278e613b45565b60200260200101516040015160010b145b156127d1578c81815181106127b6576127b6613b45565b602002602001015160000151925060019150600195506127e3565b806127db81613b71565b915050612742565b508061285f5760008f8460405160200161280d92919060f092831b8152911b600282015260040190565b60408051808303601f190181529181528151602092830120600081815260098f01909352912054909150600160281b900460ff161561285d57600081815260098c01602052604090205460ff1692505b505b61286c60ff831685613b8a565b93505050808061287b90613e6d565b91505061260d565b508180156128995750612897600582613e84565b155b80156128a55750600081115b156128c3576128b581600a613e98565b9750505050505050506128cf565b60009750505050505050505b95945050505050565b6000818152600160205260408120600b81015490915b600a8160ff161015612a7457600c8301805460408051602080820193909352428183015260f885901b6001600160f81b031916606082015281516041818303018152606190910190915280519101209081905560009061294f908490613e84565b9050600083600886600c0154901c6129679190613e84565b9050808214612a5f57600085600b01838154811061298757612987613b45565b90600052602060002090602091828204019190069054906101000a900460ff16905085600b0182815481106129be576129be613b45565b90600052602060002090602091828204019190069054906101000a900460ff1686600b0184815481106129f3576129f3613b45565b90600052602060002090602091828204019190066101000a81548160ff021916908360ff1602179055508086600b018381548110612a3357612a33613b45565b90600052602060002090602091828204019190066101000a81548160ff021916908360ff160217905550505b50508080612a6c90613c06565b9150506128ee565b50505050565b600080835167ffffffffffffffff811115612a9757612a976134c6565b604051908082528060200260200182016040528015612ac0578160200160208202803683370190505b50905060005b8451811015612b2657848181518110612ae157612ae1613b45565b602002602001015160200151828281518110612aff57612aff613b45565b602002602001019060010b908160010b815250508080612b1e90613b71565b915050612ac6565b5060005b60018251612b389190613c8f565b811015612c6c5760005b6001828451612b519190613c8f565b612b5b9190613c8f565b811015612c595782612b6e826001613b8a565b81518110612b7e57612b7e613b45565b602002602001015160010b838281518110612b9b57612b9b613b45565b602002602001015160010b1315612c47576000838281518110612bc057612bc0613b45565b6020026020010151905083826001612bd89190613b8a565b81518110612be857612be8613b45565b6020026020010151848381518110612c0257612c02613b45565b600192830b602091820292909201015281908590612c21908590613b8a565b81518110612c3157612c31613b45565b602002602001019060010b908160010b81525050505b80612c5181613b71565b915050612b42565b5080612c6481613b71565b915050612b2a565b5060015b8151811015612d5b57600082612c87600184613c8f565b81518110612c9757612c97613b45565b60200260200101516001612cab9190613e4a565b90505b828281518110612cc057612cc0613b45565b602002602001015160010b8160010b1215612d485760405160f082811b602083015288901b602282015260009060240160408051808303601f190181529181528151602092830120600081815260098a01909352912054909150600160281b900460ff16612d35576000945050505050611a14565b5080612d4081613e6d565b915050612cae565b5080612d5381613b71565b915050612c70565b50600195945050505050565b600080835167ffffffffffffffff811115612d8457612d846134c6565b604051908082528060200260200182016040528015612dad578160200160208202803683370190505b50905060005b8451811015612e1357848181518110612dce57612dce613b45565b602002602001015160400151828281518110612dec57612dec613b45565b602002602001019060010b908160010b815250508080612e0b90613b71565b915050612db3565b5060005b60018251612e259190613c8f565b811015612f595760005b6001828451612e3e9190613c8f565b612e489190613c8f565b811015612f465782612e5b826001613b8a565b81518110612e6b57612e6b613b45565b602002602001015160010b838281518110612e8857612e88613b45565b602002602001015160010b1315612f34576000838281518110612ead57612ead613b45565b6020026020010151905083826001612ec59190613b8a565b81518110612ed557612ed5613b45565b6020026020010151848381518110612eef57612eef613b45565b600192830b602091820292909201015281908590612f0e908590613b8a565b81518110612f1e57612f1e613b45565b602002602001019060010b908160010b81525050505b80612f3e81613b71565b915050612e2f565b5080612f5181613b71565b915050612e17565b5060015b8151811015612d5b57600082612f74600184613c8f565b81518110612f8457612f84613b45565b60200260200101516001612f989190613e4a565b90505b828281518110612fad57612fad613b45565b602002602001015160010b8160010b12156130355760405160f088811b602083015282901b602282015260009060240160408051808303601f190181529181528151602092830120600081815260098a01909352912054909150600160281b900460ff16613022576000945050505050611a14565b508061302d81613e6d565b915050612f9b565b508061304081613b71565b915050612f5d565b60008381526001602081815260408084208151608080820184526000198083528286018790528285018890526060808401899052855192830186528883529582018890529381019390935292820193909352835b600481101561315a5760008382600481106130b9576130b9613b45565b60200201516130c89089613e4a565b8383600481106130da576130da613b45565b60200201516130e99089613e4a565b60405160f092831b6020820152911b602282015260240160408051808303601f190181529181528151602092830120600081815260098901909352912054909150600160281b900460ff161561314757600195505050505050611a14565b508061315281613b71565b91505061309c565b506000979650505050505050565b60008581526001602052604081208180841561321b5750869050805b60008260010b1380156131b657506131a189612492600185613c6c565b806131b657506131b6866124ad600185613c6c565b156131cd57816131c581613e28565b925050613184565b600e8160010b1280156131ff57506131ea89612492836001613e4a565b806131ff57506131ff866124ad836001613e4a565b15613216578061320e81613e6d565b9150506131cd565b6132b7565b50859050805b60008260010b138015613255575061323f898961253c600186613c6c565b8061325557506132558689612557600186613c6c565b1561326c578161326481613e28565b925050613221565b600e8160010b1280156132a0575061328a898961253c846001613e4a565b806132a057506132a08689612557846001613e4a565b156132b757806132af81613e6d565b91505061326c565b60006132c38383613c6c565b6132ce906001613e4a565b905060008160010b136132e25760006132e4565b805b9a9950505050505050505050565b6000928352600160209081526040808520815160f095861b818501529390941b6022840152805180840360040181526024909301815282519282019290922084526009909201909152902054600160281b900460ff1690565b6000805b84518110156123d3578360010b85828151811061336e5761336e613b45565b60200260200101516020015160010b1480156133ac57508260010b85828151811061339b5761339b613b45565b60200260200101516040015160010b145b156133bb576001915050611a14565b806133c581613b71565b91505061334f565b604051806101400160405280600a906020820280368337509192915050565b604051806101e00160405280600f906020820280368337509192915050565b82805482825590600052602060002090601f016020900481019282156134a15791602002820160005b8382111561347257835183826101000a81548160ff021916908360ff1602179055509260200192600101602081600001049283019260010302613434565b801561349f5782816101000a81549060ff0219169055600101602081600001049283019260010302613472565b505b506134ad9291506134b1565b5090565b5b808211156134ad57600081556001016134b2565b634e487b7160e01b600052604160045260246000fd5b6040516060810167ffffffffffffffff811182821017156134ff576134ff6134c6565b60405290565b604051601f8201601f1916810167ffffffffffffffff8111828210171561352e5761352e6134c6565b604052919050565b803560ff8116811461354757600080fd5b919050565b8035600181900b811461354757600080fd5b600080604080848603121561357257600080fd5b8335925060208085013567ffffffffffffffff8082111561359257600080fd5b818701915087601f8301126135a657600080fd5b8135818111156135b8576135b86134c6565b6135c6848260051b01613505565b8181528481019250606091820284018501918a8311156135e557600080fd5b938501935b828510156136425780858c0312156136025760008081fd5b61360a6134dc565b61361386613536565b815261362087870161354c565b8782015261362f88870161354c565b81890152845293840193928501926135ea565b508096505050505050509250929050565b80356001600160a01b038116811461354757600080fd5b6000806040838503121561367d57600080fd5b61368683613653565b946020939093013593505050565b6000602082840312156136a657600080fd5b5035919050565b634e487b7160e01b600052602160045260246000fd5b600481106136e157634e487b7160e01b600052602160045260246000fd5b9052565b8b815261016081016136fa602083018d6136c3565b6001600160a01b039a909a16604082015260ff988916606082015296909716608087015260a086019490945260c085019290925260e08401521515610100830152610120820152610140015292915050565b60006020828403121561375e57600080fd5b611a1482613653565b600081518084526020808501945080840160005b838110156137975781518752958201959082019060010161377b565b509495945050505050565b602081526000611a146020830184613767565b6101408101818360005b600a8110156137e157815160ff168352602092830192909101906001016137bf565b50505092915050565b600080604083850312156137fd57600080fd5b8235915061380d60208401613653565b90509250929050565b6000815180845260005b8181101561383c57602081850181015186830182015201613820565b506000602082860101526020601f19601f83011685010191505092915050565b60a08152600061386f60a0830188613816565b6020838101889052838203604085015286518083528782019282019060005b818110156138ad57845160ff168352938301939183019160010161388e565b50509515156060850152505050608001529392505050565b600082601f8301126138d657600080fd5b813567ffffffffffffffff8111156138f0576138f06134c6565b613903601f8201601f1916602001613505565b81815284602083860101111561391857600080fd5b816020850160208301376000918101602001919091529392505050565b6000806040838503121561394857600080fd5b82359150602083013567ffffffffffffffff81111561396657600080fd5b613972858286016138c5565b9150509250929050565b60008060006060848603121561399157600080fd5b833592506139a16020850161354c565b91506139af6040850161354c565b90509250925092565b600080600080608085870312156139ce57600080fd5b6139d785613536565b9350602085013580151581146139ec57600080fd5b925060408501359150606085013567ffffffffffffffff811115613a0f57600080fd5b613a1b878288016138c5565b91505092959194509250565b60006101608201613a38838f6136c3565b6001600160a01b038d811660208581019190915260ff8e811660408701528d166060860152608085018c905260a085018b905289151560c086015261016060e086015288519283905288019161018085019060005b81811015613aad5784518416835260209485019490920191600101613a8d565b5050848103610100860152613ac28189613767565b6101208601979097525050505061014001529998505050505050505050565b60208082526013908201527211d85b5948191bd95cc81b9bdd08195e1a5cdd606a1b604082015260600190565b6020808252601a908201527f47616d65206e6f7420696e206578706563746564207374617465000000000000604082015260600190565b634e487b7160e01b600052603260045260246000fd5b634e487b7160e01b600052601160045260246000fd5b600060018201613b8357613b83613b5b565b5060010190565b8082018082111561175057611750613b5b565b6040808252835182820181905260009190606090818501906020808901865b83811015613bf2578151805160ff16865283810151600190810b8588015290880151810b88870152948601949183019101613bbc565b505095909501959095525092949350505050565b600060ff821660ff8103613c1c57613c1c613b5b565b60010192915050565b600181811c90821680613c3957607f821691505b602082108103610a7f57634e487b7160e01b600052602260045260246000fd5b602081526000611a146020830184613816565b600182810b9082900b03617fff198112617fff8213171561175057611750613b5b565b8181038181111561175057611750613b5b565b634e487b7160e01b600052603160045260246000fd5b60ff828116828216039081111561175057611750613b5b565b60ff818116838216019081111561175057611750613b5b565b634e487b7160e01b600052601260045260246000fd5b600060ff831680613d1357613d13613cea565b8060ff84160691505092915050565b601f821115611b3d57600081815260208120601f850160051c81016020861015613d495750805b601f850160051c820191505b81811015610dfe57828155600101613d55565b815167ffffffffffffffff811115613d8257613d826134c6565b613d9681613d908454613c25565b84613d22565b602080601f831160018114613dcb5760008415613db35750858301515b600019600386901b1c1916600185901b178555610dfe565b600085815260208120601f198616915b82811015613dfa57888601518255948401946001909101908401613ddb565b5085821015613e185787850151600019600388901b60f8161c191681555b5050505050600190811b01905550565b60008160010b617fff198103613e4057613e40613b5b565b6000190192915050565b600181810b9083900b01617fff8113617fff198212171561175057611750613b5b565b60008160010b617fff8103613c1c57613c1c613b5b565b600082613e9357613e93613cea565b500690565b808202811582820484141761175057611750613b5b56fea264697066735822122012d6ac5cfe67ba91f629fc164306264e6a041559751962e9dbaa129a4a8a645d64736f6c63430008130033","opcodes":"PUSH2 0x1C0 PUSH1 0x40 MSTORE PUSH1 0x5 PUSH1 0x80 DUP2 DUP2 MSTORE PUSH1 0xA0 DUP3 SWAP1 MSTORE PUSH1 0xC0 DUP3 SWAP1 MSTORE PUSH1 0xE0 DUP3 SWAP1 MSTORE PUSH2 0x100 DUP3 SWAP1 MSTORE PUSH2 0x120 DUP3 SWAP1 MSTORE PUSH2 0x140 DUP3 SWAP1 MSTORE PUSH2 0x160 DUP3 SWAP1 MSTORE PUSH2 0x180 DUP3 SWAP1 MSTORE PUSH2 0x1A0 SWAP2 SWAP1 SWAP2 MSTORE PUSH3 0x50 SWAP1 PUSH1 0x0 SWAP1 PUSH1 0xA PUSH3 0x6A JUMP JUMPDEST POP PUSH1 0x1 PUSH1 0x3 SSTORE CALLVALUE DUP1 ISZERO PUSH3 0x63 JUMPI PUSH1 0x0 DUP1 REVERT JUMPDEST POP PUSH3 0x11B JUMP JUMPDEST PUSH1 0x1 DUP4 ADD SWAP2 DUP4 SWAP1 DUP3 ISZERO PUSH3 0xF2 JUMPI SWAP2 PUSH1 0x20 MUL DUP3 ADD PUSH1 0x0 JUMPDEST DUP4 DUP3 GT ISZERO PUSH3 0xC1 JUMPI DUP4 MLOAD DUP4 DUP3 PUSH2 0x100 EXP DUP2 SLOAD DUP2 PUSH1 0xFF MUL NOT AND SWAP1 DUP4 PUSH1 0xFF AND MUL OR SWAP1 SSTORE POP SWAP3 PUSH1 0x20 ADD SWAP3 PUSH1 0x1 ADD PUSH1 0x20 DUP2 PUSH1 0x0 ADD DIV SWAP3 DUP4 ADD SWAP3 PUSH1 0x1 SUB MUL PUSH3 0x81 JUMP JUMPDEST DUP1 ISZERO PUSH3 0xF0 JUMPI DUP3 DUP2 PUSH2 0x100 EXP DUP2 SLOAD SWAP1 PUSH1 0xFF MUL NOT AND SWAP1 SSTORE PUSH1 0x1 ADD PUSH1 0x20 DUP2 PUSH1 0x0 ADD DIV SWAP3 DUP4 ADD SWAP3 PUSH1 0x1 SUB MUL PUSH3 0xC1 JUMP JUMPDEST POP JUMPDEST POP PUSH3 0x100 SWAP3 SWAP2 POP PUSH3 0x104 JUMP JUMPDEST POP SWAP1 JUMP JUMPDEST JUMPDEST DUP1 DUP3 GT ISZERO PUSH3 0x100 JUMPI PUSH1 0x0 DUP2 SSTORE PUSH1 0x1 ADD PUSH3 0x105 JUMP JUMPDEST PUSH2 0x3EE5 DUP1 PUSH3 0x12B PUSH1 0x0 CODECOPY PUSH1 0x0 RETURN INVALID PUSH1 0x80 PUSH1 0x40 MSTORE CALLVALUE DUP1 ISZERO PUSH2 0x10 JUMPI PUSH1 0x0 DUP1 REVERT JUMPDEST POP PUSH1 0x4 CALLDATASIZE LT PUSH2 0x116 JUMPI PUSH1 0x0 CALLDATALOAD PUSH1 0xE0 SHR DUP1 PUSH4 0x76D4293C GT PUSH2 0xA2 JUMPI DUP1 PUSH4 0xCE371CBD GT PUSH2 0x71 JUMPI DUP1 PUSH4 0xCE371CBD EQ PUSH2 0x2F3 JUMPI DUP1 PUSH4 0xD4698E5B EQ PUSH2 0x306 JUMPI DUP1 PUSH4 0xE3087FEC EQ PUSH2 0x32B JUMPI DUP1 PUSH4 0xE5ED1D59 EQ PUSH2 0x333 JUMPI DUP1 PUSH4 0xE6BA69D8 EQ PUSH2 0x346 JUMPI PUSH1 0x0 DUP1 REVERT JUMPDEST DUP1 PUSH4 0x76D4293C EQ PUSH2 0x27B JUMPI DUP1 PUSH4 0x8B38795D EQ PUSH2 0x2AD JUMPI DUP1 PUSH4 0xA2F77BCC EQ PUSH2 0x2C0 JUMPI DUP1 PUSH4 0xB135BBB0 EQ PUSH2 0x2EA JUMPI PUSH1 0x0 DUP1 REVERT JUMPDEST DUP1 PUSH4 0x249123D3 GT PUSH2 0xE9 JUMPI DUP1 PUSH4 0x249123D3 EQ PUSH2 0x207 JUMPI DUP1 PUSH4 0x6454E58D EQ PUSH2 0x227 JUMPI DUP1 PUSH4 0x68880A26 EQ PUSH2 0x24B JUMPI DUP1 PUSH4 0x69958AB9 EQ PUSH2 0x25E JUMPI DUP1 PUSH4 0x6A07DC12 EQ PUSH2 0x271 JUMPI PUSH1 0x0 DUP1 REVERT JUMPDEST DUP1 PUSH4 0x84BA9B8 EQ PUSH2 0x11B JUMPI DUP1 PUSH4 0xA5694C2 EQ PUSH2 0x130 JUMPI DUP1 PUSH4 0x117A5B90 EQ PUSH2 0x156 JUMPI DUP1 PUSH4 0x129DAF84 EQ PUSH2 0x1E7 JUMPI JUMPDEST PUSH1 0x0 DUP1 REVERT JUMPDEST PUSH2 0x12E PUSH2 0x129 CALLDATASIZE PUSH1 0x4 PUSH2 0x355E JUMP JUMPDEST PUSH2 0x34E JUMP JUMPDEST STOP JUMPDEST PUSH2 0x143 PUSH2 0x13E CALLDATASIZE PUSH1 0x4 PUSH2 0x366A JUMP JUMPDEST PUSH2 0x91F JUMP JUMPDEST PUSH1 0x40 MLOAD SWAP1 DUP2 MSTORE PUSH1 0x20 ADD JUMPDEST PUSH1 0x40 MLOAD DUP1 SWAP2 SUB SWAP1 RETURN JUMPDEST PUSH2 0x1D0 PUSH2 0x164 CALLDATASIZE PUSH1 0x4 PUSH2 0x3694 JUMP JUMPDEST PUSH1 0x1 PUSH1 0x20 DUP2 SWAP1 MSTORE PUSH1 0x0 SWAP2 DUP3 MSTORE PUSH1 0x40 SWAP1 SWAP2 KECCAK256 DUP1 SLOAD SWAP2 DUP2 ADD SLOAD PUSH1 0x2 DUP3 ADD SLOAD PUSH1 0x3 DUP4 ADD SLOAD PUSH1 0x4 DUP5 ADD SLOAD PUSH1 0x5 DUP6 ADD SLOAD PUSH1 0x6 DUP7 ADD SLOAD PUSH1 0xC SWAP1 SWAP7 ADD SLOAD PUSH1 0xFF DUP1 DUP8 AND SWAP8 PUSH1 0x1 PUSH1 0x1 PUSH1 0xA0 SHL SUB PUSH2 0x100 DUP10 DIV AND SWAP8 PUSH1 0x1 PUSH1 0xA8 SHL DUP2 DIV DUP4 AND SWAP8 PUSH1 0x1 PUSH1 0xB0 SHL SWAP1 SWAP2 DIV DUP4 AND SWAP7 SWAP1 SWAP6 SWAP1 SWAP5 SWAP1 SWAP4 SWAP3 AND SWAP2 DUP12 JUMP JUMPDEST PUSH1 0x40 MLOAD PUSH2 0x14D SWAP12 SWAP11 SWAP10 SWAP9 SWAP8 SWAP7 SWAP6 SWAP5 SWAP4 SWAP3 SWAP2 SWAP1 PUSH2 0x36E5 JUMP JUMPDEST PUSH2 0x1FA PUSH2 0x1F5 CALLDATASIZE PUSH1 0x4 PUSH2 0x374C JUMP JUMPDEST PUSH2 0x950 JUMP JUMPDEST PUSH1 0x40 MLOAD PUSH2 0x14D SWAP2 SWAP1 PUSH2 0x37A2 JUMP JUMPDEST PUSH2 0x21A PUSH2 0x215 CALLDATASIZE PUSH1 0x4 PUSH2 0x3694 JUMP JUMPDEST PUSH2 0x9BC JUMP JUMPDEST PUSH1 0x40 MLOAD PUSH2 0x14D SWAP2 SWAP1 PUSH2 0x37B5 JUMP JUMPDEST PUSH2 0x23A PUSH2 0x235 CALLDATASIZE PUSH1 0x4 PUSH2 0x37EA JUMP JUMPDEST PUSH2 0xA85 JUMP JUMPDEST PUSH1 0x40 MLOAD PUSH2 0x14D SWAP6 SWAP5 SWAP4 SWAP3 SWAP2 SWAP1 PUSH2 0x385C JUMP JUMPDEST PUSH2 0x12E PUSH2 0x259 CALLDATASIZE PUSH1 0x4 PUSH2 0x3935 JUMP JUMPDEST PUSH2 0xC15 JUMP JUMPDEST PUSH2 0x12E PUSH2 0x26C CALLDATASIZE PUSH1 0x4 PUSH2 0x3694 JUMP JUMPDEST PUSH2 0xE06 JUMP JUMPDEST PUSH2 0x143 PUSH3 0x15180 DUP2 JUMP JUMPDEST PUSH2 0x28E PUSH2 0x289 CALLDATASIZE PUSH1 0x4 PUSH2 0x397C JUMP JUMPDEST PUSH2 0xF1D JUMP JUMPDEST PUSH1 0x40 DUP1 MLOAD SWAP4 ISZERO ISZERO DUP5 MSTORE PUSH1 0xFF SWAP1 SWAP3 AND PUSH1 0x20 DUP5 ADD MSTORE SWAP1 DUP3 ADD MSTORE PUSH1 0x60 ADD PUSH2 0x14D JUMP JUMPDEST PUSH2 0x143 PUSH2 0x2BB CALLDATASIZE PUSH1 0x4 PUSH2 0x39B8 JUMP JUMPDEST PUSH2 0xFBE JUMP JUMPDEST PUSH2 0x2D3 PUSH2 0x2CE CALLDATASIZE PUSH1 0x4 PUSH2 0x3694 JUMP JUMPDEST PUSH2 0x11D2 JUMP JUMPDEST PUSH1 0x40 MLOAD PUSH2 0x14D SWAP12 SWAP11 SWAP10 SWAP9 SWAP8 SWAP7 SWAP6 SWAP5 SWAP4 SWAP3 SWAP2 SWAP1 PUSH2 0x3A27 JUMP JUMPDEST PUSH2 0x143 PUSH1 0x3 SLOAD DUP2 JUMP JUMPDEST PUSH2 0x12E PUSH2 0x301 CALLDATASIZE PUSH1 0x4 PUSH2 0x3694 JUMP JUMPDEST PUSH2 0x13C8 JUMP JUMPDEST PUSH2 0x319 PUSH2 0x314 CALLDATASIZE PUSH1 0x4 PUSH2 0x3694 JUMP JUMPDEST PUSH2 0x156A JUMP JUMPDEST PUSH1 0x40 MLOAD PUSH1 0xFF SWAP1 SWAP2 AND DUP2 MSTORE PUSH1 0x20 ADD PUSH2 0x14D JUMP JUMPDEST PUSH2 0x143 PUSH1 0x64 DUP2 JUMP JUMPDEST PUSH2 0x12E PUSH2 0x341 CALLDATASIZE PUSH1 0x4 PUSH2 0x3694 JUMP JUMPDEST PUSH2 0x1594 JUMP JUMPDEST PUSH2 0x319 PUSH1 0x5 DUP2 JUMP JUMPDEST DUP2 PUSH1 0x0 DUP2 GT DUP1 ISZERO PUSH2 0x360 JUMPI POP PUSH1 0x3 SLOAD DUP2 LT JUMPDEST PUSH2 0x385 JUMPI PUSH1 0x40 MLOAD PUSH3 0x461BCD PUSH1 0xE5 SHL DUP2 MSTORE PUSH1 0x4 ADD PUSH2 0x37C SWAP1 PUSH2 0x3AE1 JUMP JUMPDEST PUSH1 0x40 MLOAD DUP1 SWAP2 SUB SWAP1 REVERT JUMPDEST DUP3 PUSH1 0x1 DUP1 PUSH1 0x0 DUP4 DUP2 MSTORE PUSH1 0x1 PUSH1 0x20 DUP2 SWAP1 MSTORE PUSH1 0x40 SWAP1 SWAP2 KECCAK256 ADD SLOAD PUSH1 0xFF AND PUSH1 0x3 DUP2 GT ISZERO PUSH2 0x3B0 JUMPI PUSH2 0x3B0 PUSH2 0x36AD JUMP JUMPDEST EQ PUSH2 0x3CD JUMPI PUSH1 0x40 MLOAD PUSH3 0x461BCD PUSH1 0xE5 SHL DUP2 MSTORE PUSH1 0x4 ADD PUSH2 0x37C SWAP1 PUSH2 0x3B0E JUMP JUMPDEST PUSH1 0x0 DUP6 DUP2 MSTORE PUSH1 0x1 PUSH1 0x20 SWAP1 DUP2 MSTORE PUSH1 0x40 DUP1 DUP4 KECCAK256 CALLER DUP5 MSTORE PUSH1 0x7 ADD SWAP1 SWAP2 MSTORE SWAP1 KECCAK256 PUSH1 0x4 ADD SLOAD DUP6 SWAP1 PUSH1 0xFF AND PUSH2 0x433 JUMPI PUSH1 0x40 MLOAD PUSH3 0x461BCD PUSH1 0xE5 SHL DUP2 MSTORE PUSH1 0x20 PUSH1 0x4 DUP3 ADD MSTORE PUSH1 0x12 PUSH1 0x24 DUP3 ADD MSTORE PUSH18 0x506C61796572206E6F7420696E2067616D65 PUSH1 0x70 SHL PUSH1 0x44 DUP3 ADD MSTORE PUSH1 0x64 ADD PUSH2 0x37C JUMP JUMPDEST PUSH1 0x0 DUP7 DUP2 MSTORE PUSH1 0x1 PUSH1 0x20 DUP2 SWAP1 MSTORE PUSH1 0x40 SWAP1 SWAP2 KECCAK256 SWAP1 DUP2 ADD SLOAD PUSH1 0x8 DUP3 ADD DUP1 SLOAD DUP10 SWAP4 SWAP3 CALLER SWAP3 SWAP2 PUSH1 0x1 PUSH1 0xB0 SHL SWAP1 SWAP2 DIV PUSH1 0xFF AND SWAP1 DUP2 LT PUSH2 0x46E JUMPI PUSH2 0x46E PUSH2 0x3B45 JUMP JUMPDEST PUSH1 0x0 SWAP2 DUP3 MSTORE PUSH1 0x20 SWAP1 SWAP2 KECCAK256 ADD SLOAD PUSH1 0x1 PUSH1 0x1 PUSH1 0xA0 SHL SUB AND EQ PUSH2 0x4C0 JUMPI PUSH1 0x40 MLOAD PUSH3 0x461BCD PUSH1 0xE5 SHL DUP2 MSTORE PUSH1 0x20 PUSH1 0x4 DUP3 ADD MSTORE PUSH1 0xD PUSH1 0x24 DUP3 ADD MSTORE PUSH13 0x2737BA103CB7BAB9103A3AB937 PUSH1 0x99 SHL PUSH1 0x44 DUP3 ADD MSTORE PUSH1 0x64 ADD PUSH2 0x37C JUMP JUMPDEST PUSH1 0x0 DUP8 MLOAD GT PUSH2 0x511 JUMPI PUSH1 0x40 MLOAD PUSH3 0x461BCD PUSH1 0xE5 SHL DUP2 MSTORE PUSH1 0x20 PUSH1 0x4 DUP3 ADD MSTORE PUSH1 0x1C PUSH1 0x24 DUP3 ADD MSTORE PUSH32 0x4D75737420706C616365206174206C65617374206F6E652074696C6500000000 PUSH1 0x44 DUP3 ADD MSTORE PUSH1 0x64 ADD PUSH2 0x37C JUMP JUMPDEST PUSH1 0xA DUP8 MLOAD GT ISZERO PUSH2 0x563 JUMPI PUSH1 0x40 MLOAD PUSH3 0x461BCD PUSH1 0xE5 SHL DUP2 MSTORE PUSH1 0x20 PUSH1 0x4 DUP3 ADD MSTORE PUSH1 0x1A PUSH1 0x24 DUP3 ADD MSTORE PUSH32 0x546F6F206D616E792074696C657320696E206F6E65207475726E000000000000 PUSH1 0x44 DUP3 ADD MSTORE PUSH1 0x64 ADD PUSH2 0x37C JUMP JUMPDEST PUSH1 0x0 DUP9 DUP2 MSTORE PUSH1 0x1 PUSH1 0x20 SWAP1 DUP2 MSTORE PUSH1 0x40 DUP1 DUP4 KECCAK256 CALLER DUP5 MSTORE PUSH1 0x7 DUP2 ADD SWAP1 SWAP3 MSTORE DUP3 KECCAK256 SWAP1 SWAP2 JUMPDEST DUP10 MLOAD DUP2 LT ISZERO PUSH2 0x671 JUMPI PUSH2 0x5B3 DUP3 DUP12 DUP4 DUP2 MLOAD DUP2 LT PUSH2 0x5A2 JUMPI PUSH2 0x5A2 PUSH2 0x3B45 JUMP JUMPDEST PUSH1 0x20 MUL PUSH1 0x20 ADD ADD MLOAD PUSH1 0x0 ADD MLOAD PUSH2 0x16E0 JUMP JUMPDEST PUSH2 0x5F6 JUMPI PUSH1 0x40 MLOAD PUSH3 0x461BCD PUSH1 0xE5 SHL DUP2 MSTORE PUSH1 0x20 PUSH1 0x4 DUP3 ADD MSTORE PUSH1 0x14 PUSH1 0x24 DUP3 ADD MSTORE PUSH20 0x446F6E2774206861766520746869732074696C65 PUSH1 0x60 SHL PUSH1 0x44 DUP3 ADD MSTORE PUSH1 0x64 ADD PUSH2 0x37C JUMP JUMPDEST PUSH2 0x61A DUP12 DUP12 DUP4 DUP2 MLOAD DUP2 LT PUSH2 0x60C JUMPI PUSH2 0x60C PUSH2 0x3B45 JUMP JUMPDEST PUSH1 0x20 MUL PUSH1 0x20 ADD ADD MLOAD DUP13 PUSH2 0x1756 JUMP JUMPDEST PUSH2 0x65F JUMPI PUSH1 0x40 MLOAD PUSH3 0x461BCD PUSH1 0xE5 SHL DUP2 MSTORE PUSH1 0x20 PUSH1 0x4 DUP3 ADD MSTORE PUSH1 0x16 PUSH1 0x24 DUP3 ADD MSTORE PUSH22 0x125B9D985B1A59081D1A5B19481C1B1858D95B595B9D PUSH1 0x52 SHL PUSH1 0x44 DUP3 ADD MSTORE PUSH1 0x64 ADD PUSH2 0x37C JUMP JUMPDEST DUP1 PUSH2 0x669 DUP2 PUSH2 0x3B71 JUMP JUMPDEST SWAP2 POP POP PUSH2 0x583 JUMP JUMPDEST POP PUSH1 0x0 JUMPDEST DUP10 MLOAD DUP2 LT ISZERO PUSH2 0x820 JUMPI PUSH1 0x0 DUP11 DUP3 DUP2 MLOAD DUP2 LT PUSH2 0x692 JUMPI PUSH2 0x692 PUSH2 0x3B45 JUMP JUMPDEST PUSH1 0x20 MUL PUSH1 0x20 ADD ADD MLOAD SWAP1 POP PUSH1 0x0 DUP2 PUSH1 0x20 ADD MLOAD DUP3 PUSH1 0x40 ADD MLOAD PUSH1 0x40 MLOAD PUSH1 0x20 ADD PUSH2 0x6C8 SWAP3 SWAP2 SWAP1 PUSH1 0xF0 SWAP3 DUP4 SHL DUP2 MSTORE SWAP2 SHL PUSH1 0x2 DUP3 ADD MSTORE PUSH1 0x4 ADD SWAP1 JUMP JUMPDEST PUSH1 0x40 MLOAD PUSH1 0x20 DUP2 DUP4 SUB SUB DUP2 MSTORE SWAP1 PUSH1 0x40 MSTORE DUP1 MLOAD SWAP1 PUSH1 0x20 ADD KECCAK256 SWAP1 POP PUSH1 0x40 MLOAD DUP1 PUSH1 0xA0 ADD PUSH1 0x40 MSTORE DUP1 DUP4 PUSH1 0x0 ADD MLOAD PUSH1 0xFF AND DUP2 MSTORE PUSH1 0x20 ADD DUP4 PUSH1 0x20 ADD MLOAD PUSH1 0x1 SIGNEXTEND DUP2 MSTORE PUSH1 0x20 ADD DUP4 PUSH1 0x40 ADD MLOAD PUSH1 0x1 SIGNEXTEND DUP2 MSTORE PUSH1 0x20 ADD PUSH1 0x1 ISZERO ISZERO DUP2 MSTORE PUSH1 0x20 ADD DUP7 PUSH1 0x2 ADD SLOAD DUP2 MSTORE POP DUP6 PUSH1 0x9 ADD PUSH1 0x0 DUP4 DUP2 MSTORE PUSH1 0x20 ADD SWAP1 DUP2 MSTORE PUSH1 0x20 ADD PUSH1 0x0 KECCAK256 PUSH1 0x0 DUP3 ADD MLOAD DUP2 PUSH1 0x0 ADD PUSH1 0x0 PUSH2 0x100 EXP DUP2 SLOAD DUP2 PUSH1 0xFF MUL NOT AND SWAP1 DUP4 PUSH1 0xFF AND MUL OR SWAP1 SSTORE POP PUSH1 0x20 DUP3 ADD MLOAD DUP2 PUSH1 0x0 ADD PUSH1 0x1 PUSH2 0x100 EXP DUP2 SLOAD DUP2 PUSH2 0xFFFF MUL NOT AND SWAP1 DUP4 PUSH1 0x1 SIGNEXTEND PUSH2 0xFFFF AND MUL OR SWAP1 SSTORE POP PUSH1 0x40 DUP3 ADD MLOAD DUP2 PUSH1 0x0 ADD PUSH1 0x3 PUSH2 0x100 EXP DUP2 SLOAD DUP2 PUSH2 0xFFFF MUL NOT AND SWAP1 DUP4 PUSH1 0x1 SIGNEXTEND PUSH2 0xFFFF AND MUL OR SWAP1 SSTORE POP PUSH1 0x60 DUP3 ADD MLOAD DUP2 PUSH1 0x0 ADD PUSH1 0x5 PUSH2 0x100 EXP DUP2 SLOAD DUP2 PUSH1 0xFF MUL NOT AND SWAP1 DUP4 ISZERO ISZERO MUL OR SWAP1 SSTORE POP PUSH1 0x80 DUP3 ADD MLOAD DUP2 PUSH1 0x1 ADD SSTORE SWAP1 POP POP DUP5 PUSH1 0xA ADD DUP2 SWAP1 DUP1 PUSH1 0x1 DUP2 SLOAD ADD DUP1 DUP3 SSTORE DUP1 SWAP2 POP POP PUSH1 0x1 SWAP1 SUB SWAP1 PUSH1 0x0 MSTORE PUSH1 0x20 PUSH1 0x0 KECCAK256 ADD PUSH1 0x0 SWAP1 SWAP2 SWAP1 SWAP2 SWAP1 SWAP2 POP SSTORE PUSH2 0x80B DUP5 DUP4 PUSH1 0x0 ADD MLOAD PUSH2 0x1A1B JUMP JUMPDEST POP POP DUP1 DUP1 PUSH2 0x818 SWAP1 PUSH2 0x3B71 JUMP JUMPDEST SWAP2 POP POP PUSH2 0x675 JUMP JUMPDEST POP PUSH1 0x0 PUSH2 0x82D DUP12 DUP12 PUSH2 0x1B42 JUMP JUMPDEST SWAP1 POP DUP1 DUP3 PUSH1 0x2 ADD PUSH1 0x0 DUP3 DUP3 SLOAD PUSH2 0x843 SWAP2 SWAP1 PUSH2 0x3B8A JUMP JUMPDEST SWAP1 SWAP2 SSTORE POP POP TIMESTAMP PUSH1 0x5 DUP4 ADD SSTORE PUSH1 0x40 MLOAD CALLER SWAP1 DUP13 SWAP1 PUSH32 0x2F138C198AF21768B3E95851FCF98D667C620EA08BA24C8AFCEAD9165293C39D SWAP1 PUSH2 0x884 SWAP1 DUP15 SWAP1 DUP7 SWAP1 PUSH2 0x3B9D JUMP JUMPDEST PUSH1 0x40 MLOAD DUP1 SWAP2 SUB SWAP1 LOG3 PUSH2 0x896 DUP12 CALLER PUSH2 0x1C8D JUMP JUMPDEST PUSH1 0x3 DUP3 ADD SLOAD ISZERO DUP1 PUSH2 0x8AF JUMPI POP DUP3 PUSH1 0x6 ADD SLOAD DUP3 PUSH1 0x2 ADD SLOAD LT ISZERO JUMPDEST ISZERO PUSH2 0x908 JUMPI PUSH1 0x1 DUP4 ADD DUP1 SLOAD PUSH1 0xFF NOT AND PUSH1 0x2 SWAP1 DUP2 OR SWAP1 SWAP2 SSTORE DUP3 ADD SLOAD PUSH1 0x40 MLOAD SWAP1 DUP2 MSTORE CALLER SWAP1 DUP13 SWAP1 PUSH32 0xF6AE188CC6336EF5AD970D3C81CDA5814B4C4902540924C6924DEBE94ECE13EB SWAP1 PUSH1 0x20 ADD PUSH1 0x40 MLOAD DUP1 SWAP2 SUB SWAP1 LOG3 POP POP POP PUSH2 0x915 JUMP JUMPDEST PUSH2 0x911 DUP12 PUSH2 0x1E1E JUMP JUMPDEST POP POP POP JUMPDEST POP POP POP POP POP POP POP POP JUMP JUMPDEST PUSH1 0x2 PUSH1 0x20 MSTORE DUP2 PUSH1 0x0 MSTORE PUSH1 0x40 PUSH1 0x0 KECCAK256 DUP2 DUP2 SLOAD DUP2 LT PUSH2 0x93B JUMPI PUSH1 0x0 DUP1 REVERT JUMPDEST SWAP1 PUSH1 0x0 MSTORE PUSH1 0x20 PUSH1 0x0 KECCAK256 ADD PUSH1 0x0 SWAP2 POP SWAP2 POP POP SLOAD DUP2 JUMP JUMPDEST PUSH1 0x1 PUSH1 0x1 PUSH1 0xA0 SHL SUB DUP2 AND PUSH1 0x0 SWAP1 DUP2 MSTORE PUSH1 0x2 PUSH1 0x20 SWAP1 DUP2 MSTORE PUSH1 0x40 SWAP2 DUP3 SWAP1 KECCAK256 DUP1 SLOAD DUP4 MLOAD DUP2 DUP5 MUL DUP2 ADD DUP5 ADD SWAP1 SWAP5 MSTORE DUP1 DUP5 MSTORE PUSH1 0x60 SWAP4 SWAP3 DUP4 ADD DUP3 DUP3 DUP1 ISZERO PUSH2 0x9B0 JUMPI PUSH1 0x20 MUL DUP3 ADD SWAP2 SWAP1 PUSH1 0x0 MSTORE PUSH1 0x20 PUSH1 0x0 KECCAK256 SWAP1 JUMPDEST DUP2 SLOAD DUP2 MSTORE PUSH1 0x20 ADD SWAP1 PUSH1 0x1 ADD SWAP1 DUP1 DUP4 GT PUSH2 0x99C JUMPI JUMPDEST POP POP POP POP POP SWAP1 POP SWAP2 SWAP1 POP JUMP JUMPDEST PUSH2 0x9C4 PUSH2 0x33CD JUMP JUMPDEST DUP2 PUSH1 0x0 DUP2 GT DUP1 ISZERO PUSH2 0x9D6 JUMPI POP PUSH1 0x3 SLOAD DUP2 LT JUMPDEST PUSH2 0x9F2 JUMPI PUSH1 0x40 MLOAD PUSH3 0x461BCD PUSH1 0xE5 SHL DUP2 MSTORE PUSH1 0x4 ADD PUSH2 0x37C SWAP1 PUSH2 0x3AE1 JUMP JUMPDEST PUSH1 0x0 DUP4 DUP2 MSTORE PUSH1 0x1 PUSH1 0x20 MSTORE PUSH1 0x40 DUP2 KECCAK256 SWAP1 JUMPDEST PUSH1 0xB DUP3 ADD SLOAD DUP2 LT ISZERO PUSH2 0xA7C JUMPI DUP4 DUP3 PUSH1 0xB ADD DUP3 DUP2 SLOAD DUP2 LT PUSH2 0xA24 JUMPI PUSH2 0xA24 PUSH2 0x3B45 JUMP JUMPDEST PUSH1 0x0 SWAP2 DUP3 MSTORE PUSH1 0x20 SWAP2 DUP3 SWAP1 KECCAK256 SWAP2 DUP2 DIV SWAP1 SWAP2 ADD SLOAD PUSH1 0xFF PUSH1 0x1F SWAP1 SWAP3 AND PUSH2 0x100 EXP SWAP1 DIV AND PUSH1 0xA DUP2 LT PUSH2 0xA54 JUMPI PUSH2 0xA54 PUSH2 0x3B45 JUMP JUMPDEST PUSH1 0x20 MUL ADD DUP1 MLOAD SWAP1 PUSH2 0xA64 DUP3 PUSH2 0x3C06 JUMP JUMPDEST PUSH1 0xFF AND SWAP1 MSTORE POP DUP1 PUSH2 0xA74 DUP2 PUSH2 0x3B71 JUMP JUMPDEST SWAP2 POP POP PUSH2 0xA02 JUMP JUMPDEST POP POP JUMPDEST POP SWAP2 SWAP1 POP JUMP JUMPDEST PUSH1 0x60 PUSH1 0x0 PUSH1 0x60 PUSH1 0x0 DUP1 DUP7 PUSH1 0x0 DUP2 GT DUP1 ISZERO PUSH2 0xAA0 JUMPI POP PUSH1 0x3 SLOAD DUP2 LT JUMPDEST PUSH2 0xABC JUMPI PUSH1 0x40 MLOAD PUSH3 0x461BCD PUSH1 0xE5 SHL DUP2 MSTORE PUSH1 0x4 ADD PUSH2 0x37C SWAP1 PUSH2 0x3AE1 JUMP JUMPDEST PUSH1 0x0 DUP9 DUP2 MSTORE PUSH1 0x1 PUSH1 0x20 DUP2 DUP2 MSTORE PUSH1 0x40 DUP1 DUP5 KECCAK256 PUSH1 0x1 PUSH1 0x1 PUSH1 0xA0 SHL SUB DUP13 AND DUP6 MSTORE PUSH1 0x7 ADD SWAP1 SWAP2 MSTORE SWAP1 SWAP2 KECCAK256 PUSH1 0x2 DUP2 ADD SLOAD PUSH1 0x4 DUP3 ADD SLOAD PUSH1 0x5 DUP4 ADD SLOAD SWAP4 DUP4 ADD DUP1 SLOAD SWAP4 SWAP5 SWAP1 SWAP4 PUSH1 0x3 DUP7 ADD SWAP3 PUSH1 0xFF AND SWAP2 SWAP1 DUP6 SWAP1 PUSH2 0xB0F SWAP1 PUSH2 0x3C25 JUMP JUMPDEST DUP1 PUSH1 0x1F ADD PUSH1 0x20 DUP1 SWAP2 DIV MUL PUSH1 0x20 ADD PUSH1 0x40 MLOAD SWAP1 DUP2 ADD PUSH1 0x40 MSTORE DUP1 SWAP3 SWAP2 SWAP1 DUP2 DUP2 MSTORE PUSH1 0x20 ADD DUP3 DUP1 SLOAD PUSH2 0xB3B SWAP1 PUSH2 0x3C25 JUMP JUMPDEST DUP1 ISZERO PUSH2 0xB88 JUMPI DUP1 PUSH1 0x1F LT PUSH2 0xB5D JUMPI PUSH2 0x100 DUP1 DUP4 SLOAD DIV MUL DUP4 MSTORE SWAP2 PUSH1 0x20 ADD SWAP2 PUSH2 0xB88 JUMP JUMPDEST DUP3 ADD SWAP2 SWAP1 PUSH1 0x0 MSTORE PUSH1 0x20 PUSH1 0x0 KECCAK256 SWAP1 JUMPDEST DUP2 SLOAD DUP2 MSTORE SWAP1 PUSH1 0x1 ADD SWAP1 PUSH1 0x20 ADD DUP1 DUP4 GT PUSH2 0xB6B JUMPI DUP3 SWAP1 SUB PUSH1 0x1F AND DUP3 ADD SWAP2 JUMPDEST POP POP POP POP POP SWAP5 POP DUP3 DUP1 SLOAD DUP1 PUSH1 0x20 MUL PUSH1 0x20 ADD PUSH1 0x40 MLOAD SWAP1 DUP2 ADD PUSH1 0x40 MSTORE DUP1 SWAP3 SWAP2 SWAP1 DUP2 DUP2 MSTORE PUSH1 0x20 ADD DUP3 DUP1 SLOAD DUP1 ISZERO PUSH2 0xBF8 JUMPI PUSH1 0x20 MUL DUP3 ADD SWAP2 SWAP1 PUSH1 0x0 MSTORE PUSH1 0x20 PUSH1 0x0 KECCAK256 SWAP1 PUSH1 0x0 SWAP1 JUMPDEST DUP3 SLOAD PUSH2 0x100 DUP4 SWAP1 EXP SWAP1 DIV PUSH1 0xFF AND DUP2 MSTORE PUSH1 0x20 PUSH1 0x1 SWAP3 DUP4 ADD DUP2 DUP2 DIV SWAP5 DUP6 ADD SWAP5 SWAP1 SWAP4 SUB SWAP1 SWAP3 MUL SWAP2 ADD DUP1 DUP5 GT PUSH2 0xBC9 JUMPI SWAP1 POP JUMPDEST POP POP POP POP POP SWAP3 POP SWAP7 POP SWAP7 POP SWAP7 POP SWAP7 POP SWAP7 POP POP POP SWAP3 SWAP6 POP SWAP3 SWAP6 SWAP1 SWAP4 POP JUMP JUMPDEST DUP2 PUSH1 0x0 DUP2 GT DUP1 ISZERO PUSH2 0xC27 JUMPI POP PUSH1 0x3 SLOAD DUP2 LT JUMPDEST PUSH2 0xC43 JUMPI PUSH1 0x40 MLOAD PUSH3 0x461BCD PUSH1 0xE5 SHL DUP2 MSTORE PUSH1 0x4 ADD PUSH2 0x37C SWAP1 PUSH2 0x3AE1 JUMP JUMPDEST DUP3 PUSH1 0x0 DUP1 PUSH1 0x0 DUP4 DUP2 MSTORE PUSH1 0x1 PUSH1 0x20 DUP2 SWAP1 MSTORE PUSH1 0x40 SWAP1 SWAP2 KECCAK256 ADD SLOAD PUSH1 0xFF AND PUSH1 0x3 DUP2 GT ISZERO PUSH2 0xC6E JUMPI PUSH2 0xC6E PUSH2 0x36AD JUMP JUMPDEST EQ PUSH2 0xC8B JUMPI PUSH1 0x40 MLOAD PUSH3 0x461BCD PUSH1 0xE5 SHL DUP2 MSTORE PUSH1 0x4 ADD PUSH2 0x37C SWAP1 PUSH2 0x3B0E JUMP JUMPDEST PUSH1 0x0 DUP6 DUP2 MSTORE PUSH1 0x1 PUSH1 0x20 SWAP1 DUP2 MSTORE PUSH1 0x40 DUP1 DUP4 KECCAK256 CALLER DUP5 MSTORE PUSH1 0x7 DUP2 ADD SWAP1 SWAP3 MSTORE SWAP1 SWAP2 KECCAK256 PUSH1 0x4 ADD SLOAD PUSH1 0xFF AND ISZERO PUSH2 0xCF4 JUMPI PUSH1 0x40 MLOAD PUSH3 0x461BCD PUSH1 0xE5 SHL DUP2 MSTORE PUSH1 0x20 PUSH1 0x4 DUP3 ADD MSTORE PUSH1 0x14 PUSH1 0x24 DUP3 ADD MSTORE PUSH20 0x416C726561647920696E20746869732067616D65 PUSH1 0x60 SHL PUSH1 0x44 DUP3 ADD MSTORE PUSH1 0x64 ADD PUSH2 0x37C JUMP JUMPDEST PUSH1 0x1 DUP2 ADD SLOAD PUSH1 0x8 DUP3 ADD SLOAD PUSH1 0x1 PUSH1 0xA8 SHL SWAP1 SWAP2 DIV PUSH1 0xFF AND GT PUSH2 0xD45 JUMPI PUSH1 0x40 MLOAD PUSH3 0x461BCD PUSH1 0xE5 SHL DUP2 MSTORE PUSH1 0x20 PUSH1 0x4 DUP3 ADD MSTORE PUSH1 0xC PUSH1 0x24 DUP3 ADD MSTORE PUSH12 0x11D85B59481A5CC8199D5B1B PUSH1 0xA2 SHL PUSH1 0x44 DUP3 ADD MSTORE PUSH1 0x64 ADD PUSH2 0x37C JUMP JUMPDEST PUSH1 0x0 DUP6 MLOAD GT PUSH2 0xD8D JUMPI PUSH1 0x40 MLOAD PUSH3 0x461BCD PUSH1 0xE5 SHL DUP2 MSTORE PUSH1 0x20 PUSH1 0x4 DUP3 ADD MSTORE PUSH1 0x14 PUSH1 0x24 DUP3 ADD MSTORE PUSH20 0x141B185E595C881B985B59481C995C5D5A5C9959 PUSH1 0x62 SHL PUSH1 0x44 DUP3 ADD MSTORE PUSH1 0x64 ADD PUSH2 0x37C JUMP JUMPDEST PUSH2 0xD98 DUP7 CALLER DUP8 PUSH2 0x1F29 JUMP JUMPDEST CALLER PUSH1 0x1 PUSH1 0x1 PUSH1 0xA0 SHL SUB AND DUP7 PUSH32 0xA259BAB503F65F6AE62D4F6A412B41B967799A284F69F21BA61362CF04E5EAFA DUP8 PUSH1 0x40 MLOAD PUSH2 0xDD2 SWAP2 SWAP1 PUSH2 0x3C59 JUMP JUMPDEST PUSH1 0x40 MLOAD DUP1 SWAP2 SUB SWAP1 LOG3 PUSH1 0x1 DUP2 ADD SLOAD PUSH1 0x8 DUP3 ADD SLOAD PUSH1 0x1 PUSH1 0xA8 SHL SWAP1 SWAP2 DIV PUSH1 0xFF AND SWAP1 SUB PUSH2 0xDFE JUMPI PUSH2 0xDFE DUP7 PUSH2 0x2052 JUMP JUMPDEST POP POP POP POP POP POP JUMP JUMPDEST DUP1 PUSH1 0x0 DUP2 GT DUP1 ISZERO PUSH2 0xE18 JUMPI POP PUSH1 0x3 SLOAD DUP2 LT JUMPDEST PUSH2 0xE34 JUMPI PUSH1 0x40 MLOAD PUSH3 0x461BCD PUSH1 0xE5 SHL DUP2 MSTORE PUSH1 0x4 ADD PUSH2 0x37C SWAP1 PUSH2 0x3AE1 JUMP JUMPDEST PUSH1 0x0 DUP3 DUP2 MSTORE PUSH1 0x1 PUSH1 0x20 DUP2 SWAP1 MSTORE PUSH1 0x40 DUP3 KECCAK256 SWAP1 DUP2 ADD SLOAD SWAP1 SWAP2 SWAP1 PUSH2 0x100 SWAP1 DIV PUSH1 0x1 PUSH1 0x1 PUSH1 0xA0 SHL SUB AND CALLER EQ DUP1 PUSH2 0xE99 JUMPI POP PUSH1 0x0 PUSH1 0x1 DUP4 ADD SLOAD PUSH1 0xFF AND PUSH1 0x3 DUP2 GT ISZERO PUSH2 0xE7C JUMPI PUSH2 0xE7C PUSH2 0x36AD JUMP JUMPDEST EQ DUP1 ISZERO PUSH2 0xE99 JUMPI POP PUSH1 0x3 DUP3 ADD SLOAD PUSH2 0xE96 SWAP1 PUSH3 0x15180 PUSH2 0x3B8A JUMP JUMPDEST TIMESTAMP GT JUMPDEST SWAP1 POP DUP1 PUSH2 0xEDD JUMPI PUSH1 0x40 MLOAD PUSH3 0x461BCD PUSH1 0xE5 SHL DUP2 MSTORE PUSH1 0x20 PUSH1 0x4 DUP3 ADD MSTORE PUSH1 0x12 PUSH1 0x24 DUP3 ADD MSTORE PUSH18 0x43616E6E6F742063616E63656C2067616D65 PUSH1 0x70 SHL PUSH1 0x44 DUP3 ADD MSTORE PUSH1 0x64 ADD PUSH2 0x37C JUMP JUMPDEST PUSH1 0x1 DUP3 ADD DUP1 SLOAD PUSH1 0xFF NOT AND PUSH1 0x3 OR SWAP1 SSTORE PUSH1 0x40 MLOAD DUP5 SWAP1 PUSH32 0x681705FDBD93DBA3B679FD712577E9A86D57C5551C520F8C74857DEB57F9623F SWAP1 PUSH1 0x0 SWAP1 LOG2 POP POP POP POP JUMP JUMPDEST PUSH1 0x0 DUP1 PUSH1 0x0 DUP6 PUSH1 0x0 DUP2 GT DUP1 ISZERO PUSH2 0xF34 JUMPI POP PUSH1 0x3 SLOAD DUP2 LT JUMPDEST PUSH2 0xF50 JUMPI PUSH1 0x40 MLOAD PUSH3 0x461BCD PUSH1 0xE5 SHL DUP2 MSTORE PUSH1 0x4 ADD PUSH2 0x37C SWAP1 PUSH2 0x3AE1 JUMP JUMPDEST PUSH1 0x40 MLOAD PUSH1 0xF0 DUP8 DUP2 SHL PUSH1 0x20 DUP4 ADD MSTORE DUP7 SWAP1 SHL PUSH1 0x22 DUP3 ADD MSTORE PUSH1 0x0 SWAP1 PUSH1 0x24 ADD PUSH1 0x40 DUP1 MLOAD PUSH1 0x1F NOT DUP2 DUP5 SUB ADD DUP2 MSTORE SWAP2 DUP2 MSTORE DUP2 MLOAD PUSH1 0x20 SWAP3 DUP4 ADD KECCAK256 PUSH1 0x0 SWAP11 DUP12 MSTORE PUSH1 0x1 DUP1 DUP5 MSTORE DUP3 DUP13 KECCAK256 SWAP2 DUP13 MSTORE PUSH1 0x9 SWAP1 SWAP2 ADD SWAP1 SWAP3 MSTORE SWAP1 SWAP9 KECCAK256 DUP1 SLOAD SWAP9 ADD SLOAD PUSH1 0xFF PUSH1 0x1 PUSH1 0x28 SHL DUP11 DIV DUP2 AND SWAP11 SWAP10 AND SWAP9 SWAP1 SWAP8 POP SWAP6 POP POP POP POP POP POP JUMP JUMPDEST PUSH1 0x0 PUSH1 0x2 DUP6 PUSH1 0xFF AND LT ISZERO DUP1 ISZERO PUSH2 0xFD8 JUMPI POP PUSH1 0x4 DUP6 PUSH1 0xFF AND GT ISZERO JUMPDEST PUSH2 0x101B JUMPI PUSH1 0x40 MLOAD PUSH3 0x461BCD PUSH1 0xE5 SHL DUP2 MSTORE PUSH1 0x20 PUSH1 0x4 DUP3 ADD MSTORE PUSH1 0x14 PUSH1 0x24 DUP3 ADD MSTORE PUSH20 0x125B9D985B1A59081C1B185E595C8818DBDD5B9D PUSH1 0x62 SHL PUSH1 0x44 DUP3 ADD MSTORE PUSH1 0x64 ADD PUSH2 0x37C JUMP JUMPDEST PUSH1 0x32 DUP4 LT ISZERO DUP1 ISZERO PUSH2 0x102E JUMPI POP PUSH2 0x1F4 DUP4 GT ISZERO JUMPDEST PUSH2 0x1072 JUMPI PUSH1 0x40 MLOAD PUSH3 0x461BCD PUSH1 0xE5 SHL DUP2 MSTORE PUSH1 0x20 PUSH1 0x4 DUP3 ADD MSTORE PUSH1 0x15 PUSH1 0x24 DUP3 ADD MSTORE PUSH21 0x496E76616C69642077696E6E696E672073636F7265 PUSH1 0x58 SHL PUSH1 0x44 DUP3 ADD MSTORE PUSH1 0x64 ADD PUSH2 0x37C JUMP JUMPDEST PUSH1 0x0 DUP3 MLOAD GT PUSH2 0x10BA JUMPI PUSH1 0x40 MLOAD PUSH3 0x461BCD PUSH1 0xE5 SHL DUP2 MSTORE PUSH1 0x20 PUSH1 0x4 DUP3 ADD MSTORE PUSH1 0x14 PUSH1 0x24 DUP3 ADD MSTORE PUSH20 0x141B185E595C881B985B59481C995C5D5A5C9959 PUSH1 0x62 SHL PUSH1 0x44 DUP3 ADD MSTORE PUSH1 0x64 ADD PUSH2 0x37C JUMP JUMPDEST PUSH1 0x3 DUP1 SLOAD PUSH1 0x0 SWAP2 DUP3 PUSH2 0x10CB DUP4 PUSH2 0x3B71 JUMP JUMPDEST SWAP1 SWAP2 SSTORE POP PUSH1 0x0 DUP2 DUP2 MSTORE PUSH1 0x1 PUSH1 0x20 DUP2 DUP2 MSTORE PUSH1 0x40 SWAP3 DUP4 SWAP1 KECCAK256 DUP5 DUP2 SSTORE DUP1 DUP4 ADD DUP1 SLOAD PUSH1 0x1 PUSH1 0x1 PUSH1 0xB0 SHL SUB NOT AND CALLER PUSH2 0x100 MUL PUSH1 0xFF PUSH1 0xA8 SHL NOT AND OR PUSH1 0x1 PUSH1 0xA8 SHL PUSH1 0xFF DUP15 AND MUL OR PUSH1 0xFF PUSH1 0xB0 SHL NOT AND SWAP1 SSTORE PUSH1 0x2 DUP2 ADD SWAP3 SWAP1 SWAP3 SSTORE TIMESTAMP PUSH1 0x3 DUP4 ADD DUP2 SWAP1 SSTORE PUSH1 0x4 DUP4 ADD DUP2 SWAP1 SSTORE PUSH1 0x5 DUP4 ADD DUP1 SLOAD PUSH1 0xFF NOT AND DUP12 ISZERO ISZERO OR SWAP1 SSTORE PUSH1 0x6 DUP4 ADD DUP10 SWAP1 SSTORE DUP4 MLOAD DUP1 DUP4 ADD SWAP2 SWAP1 SWAP2 MSTORE PREVRANDAO DUP2 DUP6 ADD MSTORE PUSH1 0x60 DUP1 DUP3 ADD DUP7 SWAP1 MSTORE DUP5 MLOAD DUP1 DUP4 SUB SWAP1 SWAP2 ADD DUP2 MSTORE PUSH1 0x80 SWAP1 SWAP2 ADD SWAP1 SWAP4 MSTORE DUP3 MLOAD SWAP3 ADD SWAP2 SWAP1 SWAP2 KECCAK256 PUSH1 0xC DUP3 ADD SSTORE SWAP1 SWAP2 POP PUSH2 0x1183 DUP3 PUSH2 0x20FA JUMP JUMPDEST PUSH2 0x118E DUP3 CALLER DUP7 PUSH2 0x1F29 JUMP JUMPDEST PUSH1 0x40 MLOAD PUSH1 0xFF DUP9 AND DUP2 MSTORE CALLER SWAP1 DUP4 SWAP1 PUSH32 0xDD0ABCDFFC76581D11646898EE4D7F269CA1E0C0B622D072D343100DAD83ECB1 SWAP1 PUSH1 0x20 ADD PUSH1 0x40 MLOAD DUP1 SWAP2 SUB SWAP1 LOG3 POP SWAP6 SWAP5 POP POP POP POP POP JUMP JUMPDEST PUSH1 0x0 DUP1 PUSH1 0x0 DUP1 PUSH1 0x0 DUP1 PUSH1 0x0 PUSH1 0x60 DUP1 PUSH1 0x0 DUP1 DUP12 PUSH1 0x0 DUP2 GT DUP1 ISZERO PUSH2 0x11F5 JUMPI POP PUSH1 0x3 SLOAD DUP2 LT JUMPDEST PUSH2 0x1211 JUMPI PUSH1 0x40 MLOAD PUSH3 0x461BCD PUSH1 0xE5 SHL DUP2 MSTORE PUSH1 0x4 ADD PUSH2 0x37C SWAP1 PUSH2 0x3AE1 JUMP JUMPDEST PUSH1 0x0 DUP14 DUP2 MSTORE PUSH1 0x1 PUSH1 0x20 MSTORE PUSH1 0x40 DUP2 KECCAK256 PUSH1 0x8 DUP2 ADD SLOAD SWAP1 SWAP2 SWAP1 PUSH8 0xFFFFFFFFFFFFFFFF DUP2 GT ISZERO PUSH2 0x123F JUMPI PUSH2 0x123F PUSH2 0x34C6 JUMP JUMPDEST PUSH1 0x40 MLOAD SWAP1 DUP1 DUP3 MSTORE DUP1 PUSH1 0x20 MUL PUSH1 0x20 ADD DUP3 ADD PUSH1 0x40 MSTORE DUP1 ISZERO PUSH2 0x1268 JUMPI DUP2 PUSH1 0x20 ADD PUSH1 0x20 DUP3 MUL DUP1 CALLDATASIZE DUP4 CALLDATACOPY ADD SWAP1 POP JUMPDEST POP SWAP1 POP PUSH1 0x0 JUMPDEST PUSH1 0x8 DUP4 ADD SLOAD DUP2 LT ISZERO PUSH2 0x12EE JUMPI DUP3 PUSH1 0x7 ADD PUSH1 0x0 DUP5 PUSH1 0x8 ADD DUP4 DUP2 SLOAD DUP2 LT PUSH2 0x1295 JUMPI PUSH2 0x1295 PUSH2 0x3B45 JUMP JUMPDEST PUSH1 0x0 SWAP2 DUP3 MSTORE PUSH1 0x20 DUP1 DUP4 KECCAK256 SWAP1 SWAP2 ADD SLOAD PUSH1 0x1 PUSH1 0x1 PUSH1 0xA0 SHL SUB AND DUP4 MSTORE DUP3 ADD SWAP3 SWAP1 SWAP3 MSTORE PUSH1 0x40 ADD SWAP1 KECCAK256 PUSH1 0x2 ADD SLOAD DUP3 MLOAD DUP4 SWAP1 DUP4 SWAP1 DUP2 LT PUSH2 0x12D1 JUMPI PUSH2 0x12D1 PUSH2 0x3B45 JUMP JUMPDEST PUSH1 0x20 SWAP1 DUP2 MUL SWAP2 SWAP1 SWAP2 ADD ADD MSTORE DUP1 PUSH2 0x12E6 DUP2 PUSH2 0x3B71 JUMP JUMPDEST SWAP2 POP POP PUSH2 0x126E JUMP JUMPDEST POP PUSH1 0x1 DUP3 ADD SLOAD PUSH1 0x2 DUP4 ADD SLOAD PUSH1 0x3 DUP5 ADD SLOAD PUSH1 0x5 DUP6 ADD SLOAD PUSH1 0xB DUP7 ADD SLOAD PUSH1 0x6 DUP8 ADD SLOAD PUSH1 0x8 DUP9 ADD DUP1 SLOAD PUSH1 0x40 DUP1 MLOAD PUSH1 0x20 DUP1 DUP5 MUL DUP3 ADD DUP2 ADD SWAP1 SWAP3 MSTORE DUP3 DUP2 MSTORE PUSH1 0xFF DUP1 DUP12 AND SWAP11 PUSH1 0x1 PUSH1 0x1 PUSH1 0xA0 SHL SUB PUSH2 0x100 DUP3 DIV AND SWAP11 PUSH1 0x1 PUSH1 0xA8 SHL DUP3 DIV DUP4 AND SWAP11 PUSH1 0x1 PUSH1 0xB0 SHL SWAP1 SWAP3 DIV DUP4 AND SWAP10 SWAP1 SWAP9 SWAP2 SWAP8 SWAP3 AND SWAP6 SWAP5 DUP14 SWAP5 SWAP2 SWAP4 SWAP2 DUP7 SWAP2 SWAP1 DUP4 ADD DUP3 DUP3 DUP1 ISZERO PUSH2 0x1399 JUMPI PUSH1 0x20 MUL DUP3 ADD SWAP2 SWAP1 PUSH1 0x0 MSTORE PUSH1 0x20 PUSH1 0x0 KECCAK256 SWAP1 JUMPDEST DUP2 SLOAD PUSH1 0x1 PUSH1 0x1 PUSH1 0xA0 SHL SUB AND DUP2 MSTORE PUSH1 0x1 SWAP1 SWAP2 ADD SWAP1 PUSH1 0x20 ADD DUP1 DUP4 GT PUSH2 0x137B JUMPI JUMPDEST POP POP POP POP POP SWAP4 POP SWAP14 POP SWAP14 POP SWAP14 POP SWAP14 POP SWAP14 POP SWAP14 POP SWAP14 POP SWAP14 POP SWAP14 POP SWAP14 POP SWAP14 POP POP POP POP SWAP2 SWAP4 SWAP6 SWAP8 SWAP10 SWAP12 SWAP1 SWAP3 SWAP5 SWAP7 SWAP9 SWAP11 POP JUMP JUMPDEST DUP1 PUSH1 0x0 DUP2 GT DUP1 ISZERO PUSH2 0x13DA JUMPI POP PUSH1 0x3 SLOAD DUP2 LT JUMPDEST PUSH2 0x13F6 JUMPI PUSH1 0x40 MLOAD PUSH3 0x461BCD PUSH1 0xE5 SHL DUP2 MSTORE PUSH1 0x4 ADD PUSH2 0x37C SWAP1 PUSH2 0x3AE1 JUMP JUMPDEST DUP2 PUSH1 0x1 DUP1 PUSH1 0x0 DUP4 DUP2 MSTORE PUSH1 0x1 PUSH1 0x20 DUP2 SWAP1 MSTORE PUSH1 0x40 SWAP1 SWAP2 KECCAK256 ADD SLOAD PUSH1 0xFF AND PUSH1 0x3 DUP2 GT ISZERO PUSH2 0x1421 JUMPI PUSH2 0x1421 PUSH2 0x36AD JUMP JUMPDEST EQ PUSH2 0x143E JUMPI PUSH1 0x40 MLOAD PUSH3 0x461BCD PUSH1 0xE5 SHL DUP2 MSTORE PUSH1 0x4 ADD PUSH2 0x37C SWAP1 PUSH2 0x3B0E JUMP JUMPDEST PUSH1 0x0 DUP5 DUP2 MSTORE PUSH1 0x1 PUSH1 0x20 SWAP1 DUP2 MSTORE PUSH1 0x40 DUP1 DUP4 KECCAK256 CALLER DUP5 MSTORE PUSH1 0x7 ADD SWAP1 SWAP2 MSTORE SWAP1 KECCAK256 PUSH1 0x4 ADD SLOAD DUP5 SWAP1 PUSH1 0xFF AND PUSH2 0x14A4 JUMPI PUSH1 0x40 MLOAD PUSH3 0x461BCD PUSH1 0xE5 SHL DUP2 MSTORE PUSH1 0x20 PUSH1 0x4 DUP3 ADD MSTORE PUSH1 0x12 PUSH1 0x24 DUP3 ADD MSTORE PUSH18 0x506C61796572206E6F7420696E2067616D65 PUSH1 0x70 SHL PUSH1 0x44 DUP3 ADD MSTORE PUSH1 0x64 ADD PUSH2 0x37C JUMP JUMPDEST PUSH1 0x0 DUP6 DUP2 MSTORE PUSH1 0x1 PUSH1 0x20 DUP2 SWAP1 MSTORE PUSH1 0x40 SWAP1 SWAP2 KECCAK256 SWAP1 DUP2 ADD SLOAD PUSH1 0x8 DUP3 ADD DUP1 SLOAD DUP9 SWAP4 SWAP3 CALLER SWAP3 SWAP2 PUSH1 0x1 PUSH1 0xB0 SHL SWAP1 SWAP2 DIV PUSH1 0xFF AND SWAP1 DUP2 LT PUSH2 0x14DF JUMPI PUSH2 0x14DF PUSH2 0x3B45 JUMP JUMPDEST PUSH1 0x0 SWAP2 DUP3 MSTORE PUSH1 0x20 SWAP1 SWAP2 KECCAK256 ADD SLOAD PUSH1 0x1 PUSH1 0x1 PUSH1 0xA0 SHL SUB AND EQ PUSH2 0x1531 JUMPI PUSH1 0x40 MLOAD PUSH3 0x461BCD PUSH1 0xE5 SHL DUP2 MSTORE PUSH1 0x20 PUSH1 0x4 DUP3 ADD MSTORE PUSH1 0xD PUSH1 0x24 DUP3 ADD MSTORE PUSH13 0x2737BA103CB7BAB9103A3AB937 PUSH1 0x99 SHL PUSH1 0x44 DUP3 ADD MSTORE PUSH1 0x64 ADD PUSH2 0x37C JUMP JUMPDEST PUSH1 0x0 DUP8 DUP2 MSTORE PUSH1 0x1 PUSH1 0x20 SWAP1 DUP2 MSTORE PUSH1 0x40 DUP1 DUP4 KECCAK256 CALLER DUP1 DUP6 MSTORE PUSH1 0x7 DUP3 ADD SWAP1 SWAP4 MSTORE SWAP3 KECCAK256 TIMESTAMP PUSH1 0x5 SWAP1 SWAP2 ADD SSTORE PUSH2 0x1561 SWAP1 DUP10 SWAP1 PUSH2 0x1C8D JUMP JUMPDEST PUSH2 0x915 DUP9 PUSH2 0x1E1E JUMP JUMPDEST PUSH1 0x0 DUP2 PUSH1 0xA DUP2 LT PUSH2 0x157A JUMPI PUSH1 0x0 DUP1 REVERT JUMPDEST PUSH1 0x20 SWAP2 DUP3 DUP3 DIV ADD SWAP2 SWAP1 MOD SWAP2 POP SLOAD SWAP1 PUSH2 0x100 EXP SWAP1 DIV PUSH1 0xFF AND DUP2 JUMP JUMPDEST DUP1 PUSH1 0x0 DUP2 GT DUP1 ISZERO PUSH2 0x15A6 JUMPI POP PUSH1 0x3 SLOAD DUP2 LT JUMPDEST PUSH2 0x15C2 JUMPI PUSH1 0x40 MLOAD PUSH3 0x461BCD PUSH1 0xE5 SHL DUP2 MSTORE PUSH1 0x4 ADD PUSH2 0x37C SWAP1 PUSH2 0x3AE1 JUMP JUMPDEST DUP2 PUSH1 0x0 DUP1 PUSH1 0x0 DUP4 DUP2 MSTORE PUSH1 0x1 PUSH1 0x20 DUP2 SWAP1 MSTORE PUSH1 0x40 SWAP1 SWAP2 KECCAK256 ADD SLOAD PUSH1 0xFF AND PUSH1 0x3 DUP2 GT ISZERO PUSH2 0x15ED JUMPI PUSH2 0x15ED PUSH2 0x36AD JUMP JUMPDEST EQ PUSH2 0x160A JUMPI PUSH1 0x40 MLOAD PUSH3 0x461BCD PUSH1 0xE5 SHL DUP2 MSTORE PUSH1 0x4 ADD PUSH2 0x37C SWAP1 PUSH2 0x3B0E JUMP JUMPDEST PUSH1 0x0 DUP5 DUP2 MSTORE PUSH1 0x1 PUSH1 0x20 DUP2 SWAP1 MSTORE PUSH1 0x40 SWAP1 SWAP2 KECCAK256 SWAP1 DUP2 ADD SLOAD PUSH2 0x100 SWAP1 DIV PUSH1 0x1 PUSH1 0x1 PUSH1 0xA0 SHL SUB AND CALLER EQ PUSH2 0x167B JUMPI PUSH1 0x40 MLOAD PUSH3 0x461BCD PUSH1 0xE5 SHL DUP2 MSTORE PUSH1 0x20 PUSH1 0x4 DUP3 ADD MSTORE PUSH1 0x1B PUSH1 0x24 DUP3 ADD MSTORE PUSH32 0x4F6E6C792063726561746F722063616E2073746172742067616D650000000000 PUSH1 0x44 DUP3 ADD MSTORE PUSH1 0x64 ADD PUSH2 0x37C JUMP JUMPDEST PUSH1 0x8 DUP2 ADD SLOAD PUSH1 0x2 GT ISZERO PUSH2 0x16D0 JUMPI PUSH1 0x40 MLOAD PUSH3 0x461BCD PUSH1 0xE5 SHL DUP2 MSTORE PUSH1 0x20 PUSH1 0x4 DUP3 ADD MSTORE PUSH1 0x17 PUSH1 0x24 DUP3 ADD MSTORE PUSH32 0x4E656564206174206C65617374203220706C6179657273000000000000000000 PUSH1 0x44 DUP3 ADD MSTORE PUSH1 0x64 ADD PUSH2 0x37C JUMP JUMPDEST PUSH2 0x16D9 DUP6 PUSH2 0x2052 JUMP JUMPDEST POP POP POP POP POP JUMP JUMPDEST PUSH1 0x0 DUP1 JUMPDEST PUSH1 0x3 DUP5 ADD SLOAD DUP2 LT ISZERO PUSH2 0x174A JUMPI DUP3 PUSH1 0xFF AND DUP5 PUSH1 0x3 ADD DUP3 DUP2 SLOAD DUP2 LT PUSH2 0x1709 JUMPI PUSH2 0x1709 PUSH2 0x3B45 JUMP JUMPDEST PUSH1 0x0 SWAP2 DUP3 MSTORE PUSH1 0x20 SWAP2 DUP3 SWAP1 KECCAK256 SWAP2 DUP2 DIV SWAP1 SWAP2 ADD SLOAD PUSH1 0xFF PUSH1 0x1F SWAP1 SWAP3 AND PUSH2 0x100 EXP SWAP1 DIV AND SUB PUSH2 0x1738 JUMPI PUSH1 0x1 SWAP2 POP POP PUSH2 0x1750 JUMP JUMPDEST DUP1 PUSH2 0x1742 DUP2 PUSH2 0x3B71 JUMP JUMPDEST SWAP2 POP POP PUSH2 0x16E4 JUMP JUMPDEST POP PUSH1 0x0 SWAP1 POP JUMPDEST SWAP3 SWAP2 POP POP JUMP JUMPDEST PUSH1 0x0 DUP4 DUP2 MSTORE PUSH1 0x1 PUSH1 0x20 SWAP1 DUP2 MSTORE PUSH1 0x40 DUP1 DUP4 KECCAK256 DUP6 DUP4 ADD MLOAD DUP7 DUP4 ADD MLOAD SWAP3 MLOAD SWAP2 SWAP4 DUP6 SWAP4 PUSH2 0x1790 SWAP4 SWAP1 SWAP2 ADD PUSH1 0xF0 SWAP3 DUP4 SHL DUP2 MSTORE SWAP2 SHL PUSH1 0x2 DUP3 ADD MSTORE PUSH1 0x4 ADD SWAP1 JUMP JUMPDEST PUSH1 0x40 DUP1 MLOAD DUP1 DUP4 SUB PUSH1 0x1F NOT ADD DUP2 MSTORE SWAP2 DUP2 MSTORE DUP2 MLOAD PUSH1 0x20 SWAP3 DUP4 ADD KECCAK256 PUSH1 0x0 DUP2 DUP2 MSTORE PUSH1 0x9 DUP7 ADD SWAP1 SWAP4 MSTORE SWAP2 KECCAK256 SLOAD SWAP1 SWAP2 POP PUSH1 0x1 PUSH1 0x28 SHL SWAP1 DIV PUSH1 0xFF AND ISZERO PUSH2 0x17D4 JUMPI PUSH1 0x0 SWAP3 POP POP POP PUSH2 0x1A14 JUMP JUMPDEST PUSH1 0x0 DUP1 JUMPDEST DUP6 MLOAD DUP2 LT ISZERO PUSH2 0x1862 JUMPI DUP7 PUSH1 0x20 ADD MLOAD PUSH1 0x1 SIGNEXTEND DUP7 DUP3 DUP2 MLOAD DUP2 LT PUSH2 0x17FB JUMPI PUSH2 0x17FB PUSH2 0x3B45 JUMP JUMPDEST PUSH1 0x20 MUL PUSH1 0x20 ADD ADD MLOAD PUSH1 0x20 ADD MLOAD PUSH1 0x1 SIGNEXTEND EQ DUP1 ISZERO PUSH2 0x183D JUMPI POP DUP7 PUSH1 0x40 ADD MLOAD PUSH1 0x1 SIGNEXTEND DUP7 DUP3 DUP2 MLOAD DUP2 LT PUSH2 0x182C JUMPI PUSH2 0x182C PUSH2 0x3B45 JUMP JUMPDEST PUSH1 0x20 MUL PUSH1 0x20 ADD ADD MLOAD PUSH1 0x40 ADD MLOAD PUSH1 0x1 SIGNEXTEND EQ JUMPDEST ISZERO PUSH2 0x1850 JUMPI DUP2 PUSH2 0x184C DUP2 PUSH2 0x3C06 JUMP JUMPDEST SWAP3 POP POP JUMPDEST DUP1 PUSH2 0x185A DUP2 PUSH2 0x3B71 JUMP JUMPDEST SWAP2 POP POP PUSH2 0x17D8 JUMP JUMPDEST POP PUSH1 0x1 DUP2 PUSH1 0xFF AND GT ISZERO PUSH2 0x187B JUMPI PUSH1 0x0 SWAP4 POP POP POP POP PUSH2 0x1A14 JUMP JUMPDEST PUSH1 0xA DUP4 ADD SLOAD PUSH1 0x0 SUB PUSH2 0x19A8 JUMPI PUSH1 0x0 DUP1 JUMPDEST DUP7 MLOAD DUP2 LT ISZERO PUSH2 0x197F JUMPI PUSH1 0x0 PUSH1 0x7 DUP9 DUP4 DUP2 MLOAD DUP2 LT PUSH2 0x18AA JUMPI PUSH2 0x18AA PUSH2 0x3B45 JUMP JUMPDEST PUSH1 0x20 MUL PUSH1 0x20 ADD ADD MLOAD PUSH1 0x20 ADD MLOAD PUSH2 0x18C0 SWAP2 SWAP1 PUSH2 0x3C6C JUMP JUMPDEST SWAP1 POP PUSH1 0x0 PUSH1 0x7 DUP10 DUP5 DUP2 MLOAD DUP2 LT PUSH2 0x18D8 JUMPI PUSH2 0x18D8 PUSH2 0x3B45 JUMP JUMPDEST PUSH1 0x20 MUL PUSH1 0x20 ADD ADD MLOAD PUSH1 0x40 ADD MLOAD PUSH2 0x18EE SWAP2 SWAP1 PUSH2 0x3C6C JUMP JUMPDEST SWAP1 POP DUP2 PUSH1 0x1 SIGNEXTEND PUSH1 0x0 EQ DUP1 ISZERO PUSH2 0x1906 JUMPI POP DUP1 PUSH1 0x1 SIGNEXTEND PUSH1 0x0 EQ JUMPDEST DUP1 PUSH2 0x1930 JUMPI POP DUP2 PUSH1 0x1 SIGNEXTEND PUSH1 0x0 EQ DUP1 ISZERO PUSH2 0x1930 JUMPI POP DUP1 PUSH1 0x1 SIGNEXTEND PUSH1 0x1 EQ DUP1 PUSH2 0x1930 JUMPI POP DUP1 PUSH1 0x1 SIGNEXTEND PUSH1 0x0 NOT EQ JUMPDEST DUP1 PUSH2 0x195A JUMPI POP DUP1 PUSH1 0x1 SIGNEXTEND PUSH1 0x0 EQ DUP1 ISZERO PUSH2 0x195A JUMPI POP DUP2 PUSH1 0x1 SIGNEXTEND PUSH1 0x1 EQ DUP1 PUSH2 0x195A JUMPI POP DUP2 PUSH1 0x1 SIGNEXTEND PUSH1 0x0 NOT EQ JUMPDEST ISZERO PUSH2 0x196A JUMPI PUSH1 0x1 SWAP4 POP POP POP PUSH2 0x197F JUMP JUMPDEST POP POP DUP1 DUP1 PUSH2 0x1977 SWAP1 PUSH2 0x3B71 JUMP JUMPDEST SWAP2 POP POP PUSH2 0x188B JUMP JUMPDEST POP DUP1 PUSH2 0x1992 JUMPI PUSH1 0x0 SWAP5 POP POP POP POP POP PUSH2 0x1A14 JUMP JUMPDEST PUSH2 0x199D DUP8 DUP8 DUP7 PUSH2 0x2208 JUMP JUMPDEST SWAP5 POP POP POP POP POP PUSH2 0x1A14 JUMP JUMPDEST PUSH1 0x5 DUP4 ADD SLOAD PUSH1 0xFF AND PUSH2 0x19D6 JUMPI PUSH1 0x0 PUSH2 0x19C0 DUP9 DUP8 PUSH2 0x2353 JUMP JUMPDEST SWAP1 POP DUP1 PUSH2 0x19D4 JUMPI PUSH1 0x0 SWAP5 POP POP POP POP POP PUSH2 0x1A14 JUMP JUMPDEST POP JUMPDEST PUSH2 0x19E1 DUP7 DUP7 DUP6 PUSH2 0x2208 JUMP JUMPDEST PUSH2 0x19F1 JUMPI PUSH1 0x0 SWAP4 POP POP POP POP PUSH2 0x1A14 JUMP JUMPDEST PUSH2 0x19FC DUP8 DUP8 DUP8 PUSH2 0x23DE JUMP JUMPDEST PUSH2 0x1A0C JUMPI PUSH1 0x0 SWAP4 POP POP POP POP PUSH2 0x1A14 JUMP JUMPDEST PUSH1 0x1 SWAP4 POP POP POP POP JUMPDEST SWAP4 SWAP3 POP POP POP JUMP JUMPDEST PUSH1 0x0 JUMPDEST PUSH1 0x3 DUP4 ADD SLOAD DUP2 LT ISZERO PUSH2 0x1B3D JUMPI DUP2 PUSH1 0xFF AND DUP4 PUSH1 0x3 ADD DUP3 DUP2 SLOAD DUP2 LT PUSH2 0x1A43 JUMPI PUSH2 0x1A43 PUSH2 0x3B45 JUMP JUMPDEST PUSH1 0x0 SWAP2 DUP3 MSTORE PUSH1 0x20 SWAP2 DUP3 SWAP1 KECCAK256 SWAP2 DUP2 DIV SWAP1 SWAP2 ADD SLOAD PUSH1 0xFF PUSH1 0x1F SWAP1 SWAP3 AND PUSH2 0x100 EXP SWAP1 DIV AND SUB PUSH2 0x1B2B JUMPI PUSH1 0x3 DUP4 ADD DUP1 SLOAD PUSH2 0x1A7A SWAP1 PUSH1 0x1 SWAP1 PUSH2 0x3C8F JUMP JUMPDEST DUP2 SLOAD DUP2 LT PUSH2 0x1A8A JUMPI PUSH2 0x1A8A PUSH2 0x3B45 JUMP JUMPDEST SWAP1 PUSH1 0x0 MSTORE PUSH1 0x20 PUSH1 0x0 KECCAK256 SWAP1 PUSH1 0x20 SWAP2 DUP3 DUP3 DIV ADD SWAP2 SWAP1 MOD SWAP1 SLOAD SWAP1 PUSH2 0x100 EXP SWAP1 DIV PUSH1 0xFF AND DUP4 PUSH1 0x3 ADD DUP3 DUP2 SLOAD DUP2 LT PUSH2 0x1ABF JUMPI PUSH2 0x1ABF PUSH2 0x3B45 JUMP JUMPDEST SWAP1 PUSH1 0x0 MSTORE PUSH1 0x20 PUSH1 0x0 KECCAK256 SWAP1 PUSH1 0x20 SWAP2 DUP3 DUP3 DIV ADD SWAP2 SWAP1 MOD PUSH2 0x100 EXP DUP2 SLOAD DUP2 PUSH1 0xFF MUL NOT AND SWAP1 DUP4 PUSH1 0xFF AND MUL OR SWAP1 SSTORE POP DUP3 PUSH1 0x3 ADD DUP1 SLOAD DUP1 PUSH2 0x1AFC JUMPI PUSH2 0x1AFC PUSH2 0x3CA2 JUMP JUMPDEST PUSH1 0x1 SWAP1 SUB DUP2 DUP2 SWAP1 PUSH1 0x0 MSTORE PUSH1 0x20 PUSH1 0x0 KECCAK256 SWAP1 PUSH1 0x20 SWAP2 DUP3 DUP3 DIV ADD SWAP2 SWAP1 MOD PUSH2 0x100 EXP DUP2 SLOAD SWAP1 PUSH1 0xFF MUL NOT AND SWAP1 SSTORE SWAP1 SSTORE POP POP POP JUMP JUMPDEST DUP1 PUSH2 0x1B35 DUP2 PUSH2 0x3B71 JUMP JUMPDEST SWAP2 POP POP PUSH2 0x1A1E JUMP JUMPDEST POP POP POP JUMP JUMPDEST PUSH1 0x0 DUP1 PUSH2 0x1B4D PUSH2 0x33EC JUMP JUMPDEST PUSH2 0x1B55 PUSH2 0x33EC JUMP JUMPDEST PUSH1 0x0 JUMPDEST DUP6 MLOAD DUP2 LT ISZERO PUSH2 0x1C82 JUMPI PUSH1 0x0 DUP7 DUP3 DUP2 MLOAD DUP2 LT PUSH2 0x1B75 JUMPI PUSH2 0x1B75 PUSH2 0x3B45 JUMP JUMPDEST PUSH1 0x20 MUL PUSH1 0x20 ADD ADD MLOAD SWAP1 POP DUP4 DUP2 PUSH1 0x40 ADD MLOAD PUSH2 0xFFFF AND PUSH1 0xF DUP2 LT PUSH2 0x1B99 JUMPI PUSH2 0x1B99 PUSH2 0x3B45 JUMP JUMPDEST PUSH1 0x20 MUL ADD MLOAD PUSH2 0x1BF7 JUMPI PUSH1 0x0 PUSH2 0x1BBA DUP10 DUP4 PUSH1 0x20 ADD MLOAD DUP5 PUSH1 0x40 ADD MLOAD PUSH1 0x1 DUP13 PUSH2 0x2459 JUMP JUMPDEST SWAP1 POP DUP1 ISZERO PUSH2 0x1BF5 JUMPI PUSH2 0x1BCC DUP2 DUP8 PUSH2 0x3B8A JUMP JUMPDEST SWAP6 POP PUSH1 0x1 DUP6 DUP4 PUSH1 0x40 ADD MLOAD PUSH2 0xFFFF AND PUSH1 0xF DUP2 LT PUSH2 0x1BEA JUMPI PUSH2 0x1BEA PUSH2 0x3B45 JUMP JUMPDEST SWAP2 ISZERO ISZERO PUSH1 0x20 SWAP1 SWAP3 MUL ADD MSTORE JUMPDEST POP JUMPDEST DUP3 DUP2 PUSH1 0x20 ADD MLOAD PUSH2 0xFFFF AND PUSH1 0xF DUP2 LT PUSH2 0x1C11 JUMPI PUSH2 0x1C11 PUSH2 0x3B45 JUMP JUMPDEST PUSH1 0x20 MUL ADD MLOAD PUSH2 0x1C6F JUMPI PUSH1 0x0 PUSH2 0x1C32 DUP10 DUP4 PUSH1 0x20 ADD MLOAD DUP5 PUSH1 0x40 ADD MLOAD PUSH1 0x0 DUP13 PUSH2 0x2459 JUMP JUMPDEST SWAP1 POP DUP1 ISZERO PUSH2 0x1C6D JUMPI PUSH2 0x1C44 DUP2 DUP8 PUSH2 0x3B8A JUMP JUMPDEST SWAP6 POP PUSH1 0x1 DUP5 DUP4 PUSH1 0x20 ADD MLOAD PUSH2 0xFFFF AND PUSH1 0xF DUP2 LT PUSH2 0x1C62 JUMPI PUSH2 0x1C62 PUSH2 0x3B45 JUMP JUMPDEST SWAP2 ISZERO ISZERO PUSH1 0x20 SWAP1 SWAP3 MUL ADD MSTORE JUMPDEST POP JUMPDEST POP DUP1 PUSH2 0x1C7A DUP2 PUSH2 0x3B71 JUMP JUMPDEST SWAP2 POP POP PUSH2 0x1B58 JUMP JUMPDEST POP SWAP2 SWAP6 SWAP5 POP POP POP POP POP JUMP JUMPDEST PUSH1 0x0 DUP3 DUP2 MSTORE PUSH1 0x1 PUSH1 0x20 SWAP1 DUP2 MSTORE PUSH1 0x40 DUP1 DUP4 KECCAK256 PUSH1 0x1 PUSH1 0x1 PUSH1 0xA0 SHL SUB DUP6 AND DUP5 MSTORE PUSH1 0x7 DUP2 ADD SWAP1 SWAP3 MSTORE DUP3 KECCAK256 PUSH1 0x3 DUP2 ADD SLOAD SWAP2 SWAP3 SWAP1 SWAP2 PUSH1 0x5 GT ISZERO PUSH2 0x1CD7 JUMPI PUSH1 0x3 DUP3 ADD SLOAD PUSH2 0x1CD4 SWAP1 PUSH1 0x5 PUSH2 0x3CB8 JUMP JUMPDEST SWAP1 POP JUMPDEST PUSH1 0x0 JUMPDEST DUP2 PUSH1 0xFF AND DUP2 PUSH1 0xFF AND LT DUP1 ISZERO PUSH2 0x1CF2 JUMPI POP PUSH1 0xB DUP5 ADD SLOAD ISZERO ISZERO JUMPDEST ISZERO PUSH2 0x1DCA JUMPI PUSH1 0xB DUP5 ADD DUP1 SLOAD PUSH1 0x0 SWAP2 SWAP1 PUSH2 0x1D0D SWAP1 PUSH1 0x1 SWAP1 PUSH2 0x3C8F JUMP JUMPDEST DUP2 SLOAD DUP2 LT PUSH2 0x1D1D JUMPI PUSH2 0x1D1D PUSH2 0x3B45 JUMP JUMPDEST SWAP1 PUSH1 0x0 MSTORE PUSH1 0x20 PUSH1 0x0 KECCAK256 SWAP1 PUSH1 0x20 SWAP2 DUP3 DUP3 DIV ADD SWAP2 SWAP1 MOD SWAP1 SLOAD SWAP1 PUSH2 0x100 EXP SWAP1 DIV PUSH1 0xFF AND SWAP1 POP DUP5 PUSH1 0xB ADD DUP1 SLOAD DUP1 PUSH2 0x1D52 JUMPI PUSH2 0x1D52 PUSH2 0x3CA2 JUMP JUMPDEST PUSH1 0x0 DUP3 DUP2 MSTORE PUSH1 0x20 DUP1 DUP3 KECCAK256 PUSH1 0x0 NOT SWAP1 SWAP4 ADD DUP2 DUP2 DIV SWAP1 SWAP4 ADD DUP1 SLOAD PUSH1 0xFF PUSH1 0x1F DUP1 DUP8 AND PUSH2 0x100 SWAP1 DUP2 EXP DUP4 MUL NOT SWAP1 SWAP4 AND SWAP1 SWAP4 SSTORE SWAP5 SWAP1 SWAP6 SSTORE PUSH1 0x3 DUP10 ADD DUP1 SLOAD PUSH1 0x1 DUP2 ADD DUP3 SSTORE SWAP1 DUP5 MSTORE SWAP3 DUP3 SWAP1 KECCAK256 SWAP2 DUP4 DIV SWAP1 SWAP2 ADD DUP1 SLOAD DUP7 DUP6 AND SWAP4 SWAP1 SWAP3 AND SWAP1 SWAP5 EXP SWAP2 DUP3 MUL SWAP2 SWAP1 SWAP3 MUL NOT SWAP1 SWAP2 AND OR SWAP1 SSTORE DUP2 PUSH2 0x1DC1 DUP2 PUSH2 0x3C06 JUMP JUMPDEST SWAP3 POP POP POP PUSH2 0x1CDA JUMP JUMPDEST PUSH1 0xFF DUP2 AND ISZERO PUSH2 0xDFE JUMPI PUSH1 0x40 MLOAD PUSH1 0xFF DUP3 AND DUP2 MSTORE PUSH1 0x1 PUSH1 0x1 PUSH1 0xA0 SHL SUB DUP7 AND SWAP1 DUP8 SWAP1 PUSH32 0x61122678B83552D47F9AD2905CF1399B15D78B009910FC68C8782F2696B11556 SWAP1 PUSH1 0x20 ADD PUSH1 0x40 MLOAD DUP1 SWAP2 SUB SWAP1 LOG3 POP POP POP POP POP POP JUMP JUMPDEST PUSH1 0x0 DUP2 DUP2 MSTORE PUSH1 0x1 PUSH1 0x20 DUP2 SWAP1 MSTORE PUSH1 0x40 SWAP1 SWAP2 KECCAK256 PUSH1 0x8 DUP2 ADD SLOAD DUP2 DUP4 ADD SLOAD SWAP2 SWAP3 SWAP1 SWAP2 PUSH2 0x1E51 SWAP2 PUSH1 0x1 PUSH1 0xB0 SHL SWAP1 SWAP2 DIV PUSH1 0xFF AND SWAP1 PUSH2 0x3CD1 JUMP JUMPDEST PUSH2 0x1E5B SWAP2 SWAP1 PUSH2 0x3D00 JUMP JUMPDEST PUSH1 0x1 DUP3 ADD DUP1 SLOAD PUSH1 0xFF PUSH1 0xB0 SHL NOT AND PUSH1 0x1 PUSH1 0xB0 SHL PUSH1 0xFF SWAP4 DUP5 AND DUP2 MUL SWAP2 SWAP1 SWAP2 OR SWAP2 DUP3 SWAP1 SSTORE SWAP1 DIV AND PUSH1 0x0 SUB PUSH2 0x1E9E JUMPI PUSH1 0x2 DUP2 ADD DUP1 SLOAD SWAP1 PUSH1 0x0 PUSH2 0x1E98 DUP4 PUSH2 0x3B71 JUMP JUMPDEST SWAP2 SWAP1 POP SSTORE POP JUMPDEST TIMESTAMP PUSH1 0x4 DUP3 ADD SSTORE PUSH1 0x1 DUP2 ADD SLOAD PUSH1 0x8 DUP3 ADD DUP1 SLOAD SWAP1 SWAP2 PUSH1 0x1 PUSH1 0xB0 SHL SWAP1 DIV PUSH1 0xFF AND SWAP1 DUP2 LT PUSH2 0x1ECA JUMPI PUSH2 0x1ECA PUSH2 0x3B45 JUMP JUMPDEST PUSH1 0x0 SWAP2 DUP3 MSTORE PUSH1 0x20 SWAP2 DUP3 SWAP1 KECCAK256 ADD SLOAD PUSH1 0x1 DUP4 ADD SLOAD PUSH1 0x40 MLOAD PUSH1 0x1 PUSH1 0xB0 SHL SWAP1 SWAP2 DIV PUSH1 0xFF AND DUP2 MSTORE PUSH1 0x1 PUSH1 0x1 PUSH1 0xA0 SHL SUB SWAP1 SWAP2 AND SWAP2 DUP5 SWAP2 PUSH32 0xD48662F539B10425CF4A565AFDAAC42D9593D8216A745CEFB2429C7EF043E77B SWAP2 ADD PUSH1 0x40 MLOAD DUP1 SWAP2 SUB SWAP1 LOG3 POP POP JUMP JUMPDEST PUSH1 0x0 DUP4 DUP2 MSTORE PUSH1 0x1 PUSH1 0x20 DUP2 DUP2 MSTORE PUSH1 0x40 DUP1 DUP5 KECCAK256 DUP2 MLOAD PUSH1 0xC0 DUP2 ADD DUP4 MSTORE PUSH1 0x1 PUSH1 0x1 PUSH1 0xA0 SHL SUB DUP9 DUP2 AND DUP1 DUP4 MSTORE DUP3 DUP7 ADD DUP10 DUP2 MSTORE DUP4 DUP7 ADD DUP10 SWAP1 MSTORE DUP6 MLOAD DUP10 DUP2 MSTORE DUP1 DUP9 ADD DUP8 MSTORE PUSH1 0x60 DUP6 ADD MSTORE PUSH1 0x80 DUP5 ADD DUP9 SWAP1 MSTORE TIMESTAMP PUSH1 0xA0 DUP6 ADD MSTORE SWAP1 DUP9 MSTORE PUSH1 0x7 DUP5 ADD SWAP1 SWAP6 MSTORE SWAP3 SWAP1 SWAP6 KECCAK256 DUP6 MLOAD DUP2 SLOAD PUSH1 0x1 PUSH1 0x1 PUSH1 0xA0 SHL SUB NOT AND SWAP4 AND SWAP3 SWAP1 SWAP3 OR DUP3 SSTORE SWAP2 MLOAD SWAP2 SWAP4 SWAP3 SWAP1 SWAP2 SWAP1 DUP3 ADD SWAP1 PUSH2 0x1FB1 SWAP1 DUP3 PUSH2 0x3D68 JUMP JUMPDEST POP PUSH1 0x40 DUP3 ADD MLOAD PUSH1 0x2 DUP3 ADD SSTORE PUSH1 0x60 DUP3 ADD MLOAD DUP1 MLOAD PUSH2 0x1FD7 SWAP2 PUSH1 0x3 DUP5 ADD SWAP2 PUSH1 0x20 SWAP1 SWAP2 ADD SWAP1 PUSH2 0x340B JUMP JUMPDEST POP PUSH1 0x80 DUP3 ADD MLOAD PUSH1 0x4 DUP3 ADD DUP1 SLOAD PUSH1 0xFF NOT AND SWAP2 ISZERO ISZERO SWAP2 SWAP1 SWAP2 OR SWAP1 SSTORE PUSH1 0xA0 SWAP1 SWAP2 ADD MLOAD PUSH1 0x5 SWAP1 SWAP2 ADD SSTORE PUSH1 0x8 ADD DUP1 SLOAD PUSH1 0x1 DUP2 DUP2 ADD DUP4 SSTORE PUSH1 0x0 SWAP3 DUP4 MSTORE PUSH1 0x20 DUP1 DUP5 KECCAK256 SWAP1 SWAP3 ADD DUP1 SLOAD PUSH1 0x1 PUSH1 0x1 PUSH1 0xA0 SHL SUB NOT AND PUSH1 0x1 PUSH1 0x1 PUSH1 0xA0 SHL SUB SWAP7 SWAP1 SWAP7 AND SWAP6 DUP7 OR SWAP1 SSTORE SWAP4 DUP3 MSTORE PUSH1 0x2 DUP2 MSTORE PUSH1 0x40 DUP3 KECCAK256 DUP1 SLOAD SWAP5 DUP6 ADD DUP2 SSTORE DUP3 MSTORE SWAP1 KECCAK256 SWAP1 SWAP2 ADD SWAP2 SWAP1 SWAP2 SSTORE POP JUMP JUMPDEST PUSH1 0x0 DUP2 DUP2 MSTORE PUSH1 0x1 PUSH1 0x20 DUP2 SWAP1 MSTORE PUSH1 0x40 DUP3 KECCAK256 DUP1 DUP3 ADD DUP1 SLOAD PUSH1 0xFF NOT AND SWAP1 SWAP3 OR SWAP1 SWAP2 SSTORE TIMESTAMP PUSH1 0x4 DUP3 ADD SSTORE SWAP1 JUMPDEST PUSH1 0x8 DUP3 ADD SLOAD DUP2 LT ISZERO PUSH2 0x20CA JUMPI PUSH2 0x20B8 DUP4 DUP4 PUSH1 0x8 ADD DUP4 DUP2 SLOAD DUP2 LT PUSH2 0x209E JUMPI PUSH2 0x209E PUSH2 0x3B45 JUMP JUMPDEST PUSH1 0x0 SWAP2 DUP3 MSTORE PUSH1 0x20 SWAP1 SWAP2 KECCAK256 ADD SLOAD PUSH1 0x1 PUSH1 0x1 PUSH1 0xA0 SHL SUB AND PUSH2 0x1C8D JUMP JUMPDEST DUP1 PUSH2 0x20C2 DUP2 PUSH2 0x3B71 JUMP JUMPDEST SWAP2 POP POP PUSH2 0x2079 JUMP JUMPDEST POP PUSH1 0x40 MLOAD DUP3 SWAP1 PUSH32 0x50AD08F58A27F2851D7E3A1B3A6A46B290F2CE677E99642D30FF639721E77790 SWAP1 PUSH1 0x0 SWAP1 LOG2 POP POP JUMP JUMPDEST PUSH1 0x0 DUP2 DUP2 MSTORE PUSH1 0x1 PUSH1 0x20 MSTORE PUSH1 0x40 SWAP1 DUP2 SWAP1 KECCAK256 DUP2 MLOAD PUSH1 0x32 DUP1 DUP3 MSTORE PUSH2 0x660 DUP3 ADD SWAP1 SWAP4 MSTORE SWAP1 SWAP2 DUP2 PUSH1 0x20 ADD PUSH1 0x20 DUP3 MUL DUP1 CALLDATASIZE DUP4 CALLDATACOPY POP POP DUP2 MLOAD PUSH2 0x213E SWAP3 PUSH1 0xB DUP6 ADD SWAP3 POP PUSH1 0x20 ADD SWAP1 PUSH2 0x340B JUMP JUMPDEST POP PUSH1 0x0 DUP1 JUMPDEST PUSH1 0x9 DUP2 PUSH1 0xFF AND GT PUSH2 0x21FE JUMPI PUSH1 0x0 JUMPDEST PUSH1 0x0 DUP3 PUSH1 0xFF AND PUSH1 0xA DUP2 LT PUSH2 0x2167 JUMPI PUSH2 0x2167 PUSH2 0x3B45 JUMP JUMPDEST PUSH1 0x20 DUP2 DIV SWAP1 SWAP2 ADD SLOAD PUSH1 0xFF PUSH1 0x1F SWAP1 SWAP3 AND PUSH2 0x100 EXP SWAP1 DIV DUP2 AND SWAP1 DUP3 AND LT ISZERO PUSH2 0x21EB JUMPI DUP2 DUP5 PUSH1 0xB ADD DUP5 PUSH1 0xFF AND DUP2 SLOAD DUP2 LT PUSH2 0x21A0 JUMPI PUSH2 0x21A0 PUSH2 0x3B45 JUMP JUMPDEST SWAP1 PUSH1 0x0 MSTORE PUSH1 0x20 PUSH1 0x0 KECCAK256 SWAP1 PUSH1 0x20 SWAP2 DUP3 DUP3 DIV ADD SWAP2 SWAP1 MOD PUSH2 0x100 EXP DUP2 SLOAD DUP2 PUSH1 0xFF MUL NOT AND SWAP1 DUP4 PUSH1 0xFF AND MUL OR SWAP1 SSTORE POP DUP3 DUP1 PUSH2 0x21D5 SWAP1 PUSH2 0x3C06 JUMP JUMPDEST SWAP4 POP POP DUP1 DUP1 PUSH2 0x21E3 SWAP1 PUSH2 0x3C06 JUMP JUMPDEST SWAP2 POP POP PUSH2 0x2151 JUMP JUMPDEST POP DUP1 PUSH2 0x21F6 DUP2 PUSH2 0x3C06 JUMP JUMPDEST SWAP2 POP POP PUSH2 0x2143 JUMP JUMPDEST POP PUSH2 0x1B3D DUP4 PUSH2 0x28D8 JUMP JUMPDEST PUSH1 0x0 PUSH1 0x1 DUP4 MLOAD GT PUSH2 0x221B JUMPI POP PUSH1 0x1 PUSH2 0x1A14 JUMP JUMPDEST PUSH1 0x1 DUP1 DUP1 JUMPDEST DUP6 MLOAD DUP2 LT ISZERO PUSH2 0x22D5 JUMPI DUP6 PUSH1 0x0 DUP2 MLOAD DUP2 LT PUSH2 0x223C JUMPI PUSH2 0x223C PUSH2 0x3B45 JUMP JUMPDEST PUSH1 0x20 MUL PUSH1 0x20 ADD ADD MLOAD PUSH1 0x40 ADD MLOAD PUSH1 0x1 SIGNEXTEND DUP7 DUP3 DUP2 MLOAD DUP2 LT PUSH2 0x225D JUMPI PUSH2 0x225D PUSH2 0x3B45 JUMP JUMPDEST PUSH1 0x20 MUL PUSH1 0x20 ADD ADD MLOAD PUSH1 0x40 ADD MLOAD PUSH1 0x1 SIGNEXTEND EQ PUSH2 0x2276 JUMPI PUSH1 0x0 SWAP3 POP JUMPDEST DUP6 PUSH1 0x0 DUP2 MLOAD DUP2 LT PUSH2 0x2289 JUMPI PUSH2 0x2289 PUSH2 0x3B45 JUMP JUMPDEST PUSH1 0x20 MUL PUSH1 0x20 ADD ADD MLOAD PUSH1 0x20 ADD MLOAD PUSH1 0x1 SIGNEXTEND DUP7 DUP3 DUP2 MLOAD DUP2 LT PUSH2 0x22AA JUMPI PUSH2 0x22AA PUSH2 0x3B45 JUMP JUMPDEST PUSH1 0x20 MUL PUSH1 0x20 ADD ADD MLOAD PUSH1 0x20 ADD MLOAD PUSH1 0x1 SIGNEXTEND EQ PUSH2 0x22C3 JUMPI PUSH1 0x0 SWAP2 POP JUMPDEST DUP1 PUSH2 0x22CD DUP2 PUSH2 0x3B71 JUMP JUMPDEST SWAP2 POP POP PUSH2 0x2220 JUMP JUMPDEST POP DUP2 ISZERO DUP1 ISZERO PUSH2 0x22E2 JUMPI POP DUP1 ISZERO JUMPDEST ISZERO PUSH2 0x22F2 JUMPI PUSH1 0x0 SWAP3 POP POP POP PUSH2 0x1A14 JUMP JUMPDEST DUP2 ISZERO PUSH2 0x232A JUMPI PUSH2 0x2321 DUP6 PUSH1 0x0 DUP2 MLOAD DUP2 LT PUSH2 0x230E JUMPI PUSH2 0x230E PUSH2 0x3B45 JUMP JUMPDEST PUSH1 0x20 MUL PUSH1 0x20 ADD ADD MLOAD PUSH1 0x40 ADD MLOAD DUP7 DUP7 PUSH2 0x2A7A JUMP JUMPDEST SWAP3 POP POP POP PUSH2 0x1A14 JUMP JUMPDEST PUSH2 0x2321 DUP6 PUSH1 0x0 DUP2 MLOAD DUP2 LT PUSH2 0x2340 JUMPI PUSH2 0x2340 PUSH2 0x3B45 JUMP JUMPDEST PUSH1 0x20 MUL PUSH1 0x20 ADD ADD MLOAD PUSH1 0x20 ADD MLOAD DUP7 DUP7 PUSH2 0x2D67 JUMP JUMPDEST PUSH1 0x0 DUP3 DUP2 MSTORE PUSH1 0x1 PUSH1 0x20 MSTORE PUSH1 0x40 DUP2 KECCAK256 DUP2 JUMPDEST DUP4 MLOAD DUP2 LT ISZERO PUSH2 0x23D3 JUMPI PUSH2 0x23B1 DUP6 DUP6 DUP4 DUP2 MLOAD DUP2 LT PUSH2 0x2382 JUMPI PUSH2 0x2382 PUSH2 0x3B45 JUMP JUMPDEST PUSH1 0x20 MUL PUSH1 0x20 ADD ADD MLOAD PUSH1 0x20 ADD MLOAD DUP7 DUP5 DUP2 MLOAD DUP2 LT PUSH2 0x23A0 JUMPI PUSH2 0x23A0 PUSH2 0x3B45 JUMP JUMPDEST PUSH1 0x20 MUL PUSH1 0x20 ADD ADD MLOAD PUSH1 0x40 ADD MLOAD PUSH2 0x3048 JUMP JUMPDEST ISZERO PUSH2 0x23C1 JUMPI PUSH1 0x1 SWAP3 POP POP POP PUSH2 0x1750 JUMP JUMPDEST DUP1 PUSH2 0x23CB DUP2 PUSH2 0x3B71 JUMP JUMPDEST SWAP2 POP POP PUSH2 0x2363 JUMP JUMPDEST POP PUSH1 0x0 SWAP5 SWAP4 POP POP POP POP JUMP JUMPDEST PUSH1 0x0 DUP1 PUSH1 0x1 PUSH1 0x0 DUP7 DUP2 MSTORE PUSH1 0x20 ADD SWAP1 DUP2 MSTORE PUSH1 0x20 ADD PUSH1 0x0 KECCAK256 SWAP1 POP PUSH1 0x0 PUSH2 0x240E DUP7 DUP7 PUSH1 0x20 ADD MLOAD DUP8 PUSH1 0x40 ADD MLOAD DUP8 PUSH1 0x1 PUSH2 0x3168 JUMP JUMPDEST SWAP1 POP PUSH1 0x5 DUP2 PUSH1 0xFF AND GT ISZERO PUSH2 0x2427 JUMPI PUSH1 0x0 SWAP3 POP POP POP PUSH2 0x1A14 JUMP JUMPDEST PUSH1 0x0 PUSH2 0x243F DUP8 DUP8 PUSH1 0x20 ADD MLOAD DUP9 PUSH1 0x40 ADD MLOAD DUP9 PUSH1 0x0 PUSH2 0x3168 JUMP JUMPDEST SWAP1 POP PUSH1 0x5 DUP2 PUSH1 0xFF AND GT ISZERO PUSH2 0x1A0C JUMPI PUSH1 0x0 SWAP4 POP POP POP POP PUSH2 0x1A14 JUMP JUMPDEST PUSH1 0x0 DUP6 DUP2 MSTORE PUSH1 0x1 PUSH1 0x20 MSTORE PUSH1 0x40 DUP2 KECCAK256 DUP2 DUP1 DUP6 ISZERO PUSH2 0x2518 JUMPI POP DUP7 SWAP1 POP DUP1 JUMPDEST PUSH1 0x0 DUP3 PUSH1 0x1 SIGNEXTEND SGT DUP1 ISZERO PUSH2 0x24B3 JUMPI POP PUSH2 0x2498 DUP10 PUSH2 0x2492 PUSH1 0x1 DUP6 PUSH2 0x3C6C JUMP JUMPDEST DUP10 PUSH2 0x32F2 JUMP JUMPDEST DUP1 PUSH2 0x24B3 JUMPI POP PUSH2 0x24B3 DUP6 PUSH2 0x24AD PUSH1 0x1 DUP6 PUSH2 0x3C6C JUMP JUMPDEST DUP10 PUSH2 0x334B JUMP JUMPDEST ISZERO PUSH2 0x24CA JUMPI DUP2 PUSH2 0x24C2 DUP2 PUSH2 0x3E28 JUMP JUMPDEST SWAP3 POP POP PUSH2 0x2475 JUMP JUMPDEST PUSH1 0xE DUP2 PUSH1 0x1 SIGNEXTEND SLT DUP1 ISZERO PUSH2 0x24FC JUMPI POP PUSH2 0x24E7 DUP10 PUSH2 0x2492 DUP4 PUSH1 0x1 PUSH2 0x3E4A JUMP JUMPDEST DUP1 PUSH2 0x24FC JUMPI POP PUSH2 0x24FC DUP6 PUSH2 0x24AD DUP4 PUSH1 0x1 PUSH2 0x3E4A JUMP JUMPDEST ISZERO PUSH2 0x2513 JUMPI DUP1 PUSH2 0x250B DUP2 PUSH2 0x3E6D JUMP JUMPDEST SWAP2 POP POP PUSH2 0x24CA JUMP JUMPDEST PUSH2 0x25BE JUMP JUMPDEST POP DUP6 SWAP1 POP DUP1 JUMPDEST PUSH1 0x0 DUP3 PUSH1 0x1 SIGNEXTEND SGT DUP1 ISZERO PUSH2 0x255C JUMPI POP PUSH2 0x2541 DUP10 DUP10 PUSH2 0x253C PUSH1 0x1 DUP7 PUSH2 0x3C6C JUMP JUMPDEST PUSH2 0x32F2 JUMP JUMPDEST DUP1 PUSH2 0x255C JUMPI POP PUSH2 0x255C DUP6 DUP10 PUSH2 0x2557 PUSH1 0x1 DUP7 PUSH2 0x3C6C JUMP JUMPDEST PUSH2 0x334B JUMP JUMPDEST ISZERO PUSH2 0x2573 JUMPI DUP2 PUSH2 0x256B DUP2 PUSH2 0x3E28 JUMP JUMPDEST SWAP3 POP POP PUSH2 0x251E JUMP JUMPDEST PUSH1 0xE DUP2 PUSH1 0x1 SIGNEXTEND SLT DUP1 ISZERO PUSH2 0x25A7 JUMPI POP PUSH2 0x2591 DUP10 DUP10 PUSH2 0x253C DUP5 PUSH1 0x1 PUSH2 0x3E4A JUMP JUMPDEST DUP1 PUSH2 0x25A7 JUMPI POP PUSH2 0x25A7 DUP6 DUP10 PUSH2 0x2557 DUP5 PUSH1 0x1 PUSH2 0x3E4A JUMP JUMPDEST ISZERO PUSH2 0x25BE JUMPI DUP1 PUSH2 0x25B6 DUP2 PUSH2 0x3E6D JUMP JUMPDEST SWAP2 POP POP PUSH2 0x2573 JUMP JUMPDEST PUSH1 0x0 PUSH2 0x25CA DUP4 DUP4 PUSH2 0x3C6C JUMP JUMPDEST PUSH2 0x25D5 SWAP1 PUSH1 0x1 PUSH2 0x3E4A JUMP JUMPDEST SWAP1 POP PUSH1 0x0 DUP1 DUP3 PUSH1 0x1 SIGNEXTEND SGT PUSH2 0x25EA JUMPI PUSH1 0x0 PUSH2 0x25EC JUMP JUMPDEST DUP2 JUMPDEST SWAP1 POP PUSH1 0x2 DUP2 PUSH1 0xFF AND LT ISZERO PUSH2 0x2608 JUMPI PUSH1 0x0 SWAP6 POP POP POP POP POP POP PUSH2 0x28CF JUMP JUMPDEST PUSH1 0x0 DUP1 DUP6 JUMPDEST DUP6 PUSH1 0x1 SIGNEXTEND DUP2 PUSH1 0x1 SIGNEXTEND SGT PUSH2 0x2883 JUMPI PUSH1 0x0 DUP1 DUP13 ISZERO PUSH2 0x273F JUMPI PUSH1 0x0 JUMPDEST DUP13 MLOAD DUP2 LT ISZERO PUSH2 0x26C7 JUMPI DUP4 PUSH1 0x1 SIGNEXTEND DUP14 DUP3 DUP2 MLOAD DUP2 LT PUSH2 0x2645 JUMPI PUSH2 0x2645 PUSH2 0x3B45 JUMP JUMPDEST PUSH1 0x20 MUL PUSH1 0x20 ADD ADD MLOAD PUSH1 0x20 ADD MLOAD PUSH1 0x1 SIGNEXTEND EQ DUP1 ISZERO PUSH2 0x2683 JUMPI POP DUP15 PUSH1 0x1 SIGNEXTEND DUP14 DUP3 DUP2 MLOAD DUP2 LT PUSH2 0x2672 JUMPI PUSH2 0x2672 PUSH2 0x3B45 JUMP JUMPDEST PUSH1 0x20 MUL PUSH1 0x20 ADD ADD MLOAD PUSH1 0x40 ADD MLOAD PUSH1 0x1 SIGNEXTEND EQ JUMPDEST ISZERO PUSH2 0x26B5 JUMPI DUP13 DUP2 DUP2 MLOAD DUP2 LT PUSH2 0x269A JUMPI PUSH2 0x269A PUSH2 0x3B45 JUMP JUMPDEST PUSH1 0x20 MUL PUSH1 0x20 ADD ADD MLOAD PUSH1 0x0 ADD MLOAD SWAP3 POP PUSH1 0x1 SWAP2 POP PUSH1 0x1 SWAP6 POP PUSH2 0x26C7 JUMP JUMPDEST DUP1 PUSH2 0x26BF DUP2 PUSH2 0x3B71 JUMP JUMPDEST SWAP2 POP POP PUSH2 0x2626 JUMP JUMPDEST POP DUP1 PUSH2 0x273A JUMPI PUSH1 0x40 MLOAD PUSH1 0xF0 DUP5 DUP2 SHL PUSH1 0x20 DUP4 ADD MSTORE DUP16 SWAP1 SHL PUSH1 0x22 DUP3 ADD MSTORE PUSH1 0x0 SWAP1 PUSH1 0x24 ADD PUSH1 0x40 DUP1 MLOAD DUP1 DUP4 SUB PUSH1 0x1F NOT ADD DUP2 MSTORE SWAP2 DUP2 MSTORE DUP2 MLOAD PUSH1 0x20 SWAP3 DUP4 ADD KECCAK256 PUSH1 0x0 DUP2 DUP2 MSTORE PUSH1 0x9 DUP16 ADD SWAP1 SWAP4 MSTORE SWAP2 KECCAK256 SLOAD SWAP1 SWAP2 POP PUSH1 0x1 PUSH1 0x28 SHL SWAP1 DIV PUSH1 0xFF AND ISZERO PUSH2 0x2738 JUMPI PUSH1 0x0 DUP2 DUP2 MSTORE PUSH1 0x9 DUP13 ADD PUSH1 0x20 MSTORE PUSH1 0x40 SWAP1 KECCAK256 SLOAD PUSH1 0xFF AND SWAP3 POP JUMPDEST POP JUMPDEST PUSH2 0x285F JUMP JUMPDEST PUSH1 0x0 JUMPDEST DUP13 MLOAD DUP2 LT ISZERO PUSH2 0x27E3 JUMPI DUP16 PUSH1 0x1 SIGNEXTEND DUP14 DUP3 DUP2 MLOAD DUP2 LT PUSH2 0x2761 JUMPI PUSH2 0x2761 PUSH2 0x3B45 JUMP JUMPDEST PUSH1 0x20 MUL PUSH1 0x20 ADD ADD MLOAD PUSH1 0x20 ADD MLOAD PUSH1 0x1 SIGNEXTEND EQ DUP1 ISZERO PUSH2 0x279F JUMPI POP DUP4 PUSH1 0x1 SIGNEXTEND DUP14 DUP3 DUP2 MLOAD DUP2 LT PUSH2 0x278E JUMPI PUSH2 0x278E PUSH2 0x3B45 JUMP JUMPDEST PUSH1 0x20 MUL PUSH1 0x20 ADD ADD MLOAD PUSH1 0x40 ADD MLOAD PUSH1 0x1 SIGNEXTEND EQ JUMPDEST ISZERO PUSH2 0x27D1 JUMPI DUP13 DUP2 DUP2 MLOAD DUP2 LT PUSH2 0x27B6 JUMPI PUSH2 0x27B6 PUSH2 0x3B45 JUMP JUMPDEST PUSH1 0x20 MUL PUSH1 0x20 ADD ADD MLOAD PUSH1 0x0 ADD MLOAD SWAP3 POP PUSH1 0x1 SWAP2 POP PUSH1 0x1 SWAP6 POP PUSH2 0x27E3 JUMP JUMPDEST DUP1 PUSH2 0x27DB DUP2 PUSH2 0x3B71 JUMP JUMPDEST SWAP2 POP POP PUSH2 0x2742 JUMP JUMPDEST POP DUP1 PUSH2 0x285F JUMPI PUSH1 0x0 DUP16 DUP5 PUSH1 0x40 MLOAD PUSH1 0x20 ADD PUSH2 0x280D SWAP3 SWAP2 SWAP1 PUSH1 0xF0 SWAP3 DUP4 SHL DUP2 MSTORE SWAP2 SHL PUSH1 0x2 DUP3 ADD MSTORE PUSH1 0x4 ADD SWAP1 JUMP JUMPDEST PUSH1 0x40 DUP1 MLOAD DUP1 DUP4 SUB PUSH1 0x1F NOT ADD DUP2 MSTORE SWAP2 DUP2 MSTORE DUP2 MLOAD PUSH1 0x20 SWAP3 DUP4 ADD KECCAK256 PUSH1 0x0 DUP2 DUP2 MSTORE PUSH1 0x9 DUP16 ADD SWAP1 SWAP4 MSTORE SWAP2 KECCAK256 SLOAD SWAP1 SWAP2 POP PUSH1 0x1 PUSH1 0x28 SHL SWAP1 DIV PUSH1 0xFF AND ISZERO PUSH2 0x285D JUMPI PUSH1 0x0 DUP2 DUP2 MSTORE PUSH1 0x9 DUP13 ADD PUSH1 0x20 MSTORE PUSH1 0x40 SWAP1 KECCAK256 SLOAD PUSH1 0xFF AND SWAP3 POP JUMPDEST POP JUMPDEST PUSH2 0x286C PUSH1 0xFF DUP4 AND DUP6 PUSH2 0x3B8A JUMP JUMPDEST SWAP4 POP POP POP DUP1 DUP1 PUSH2 0x287B SWAP1 PUSH2 0x3E6D JUMP JUMPDEST SWAP2 POP POP PUSH2 0x260D JUMP JUMPDEST POP DUP2 DUP1 ISZERO PUSH2 0x2899 JUMPI POP PUSH2 0x2897 PUSH1 0x5 DUP3 PUSH2 0x3E84 JUMP JUMPDEST ISZERO JUMPDEST DUP1 ISZERO PUSH2 0x28A5 JUMPI POP PUSH1 0x0 DUP2 GT JUMPDEST ISZERO PUSH2 0x28C3 JUMPI PUSH2 0x28B5 DUP2 PUSH1 0xA PUSH2 0x3E98 JUMP JUMPDEST SWAP8 POP POP POP POP POP POP POP POP PUSH2 0x28CF JUMP JUMPDEST PUSH1 0x0 SWAP8 POP POP POP POP POP POP POP POP JUMPDEST SWAP6 SWAP5 POP POP POP POP POP JUMP JUMPDEST PUSH1 0x0 DUP2 DUP2 MSTORE PUSH1 0x1 PUSH1 0x20 MSTORE PUSH1 0x40 DUP2 KECCAK256 PUSH1 0xB DUP2 ADD SLOAD SWAP1 SWAP2 JUMPDEST PUSH1 0xA DUP2 PUSH1 0xFF AND LT ISZERO PUSH2 0x2A74 JUMPI PUSH1 0xC DUP4 ADD DUP1 SLOAD PUSH1 0x40 DUP1 MLOAD PUSH1 0x20 DUP1 DUP3 ADD SWAP4 SWAP1 SWAP4 MSTORE TIMESTAMP DUP2 DUP4 ADD MSTORE PUSH1 0xF8 DUP6 SWAP1 SHL PUSH1 0x1 PUSH1 0x1 PUSH1 0xF8 SHL SUB NOT AND PUSH1 0x60 DUP3 ADD MSTORE DUP2 MLOAD PUSH1 0x41 DUP2 DUP4 SUB ADD DUP2 MSTORE PUSH1 0x61 SWAP1 SWAP2 ADD SWAP1 SWAP2 MSTORE DUP1 MLOAD SWAP2 ADD KECCAK256 SWAP1 DUP2 SWAP1 SSTORE PUSH1 0x0 SWAP1 PUSH2 0x294F SWAP1 DUP5 SWAP1 PUSH2 0x3E84 JUMP JUMPDEST SWAP1 POP PUSH1 0x0 DUP4 PUSH1 0x8 DUP7 PUSH1 0xC ADD SLOAD SWAP1 SHR PUSH2 0x2967 SWAP2 SWAP1 PUSH2 0x3E84 JUMP JUMPDEST SWAP1 POP DUP1 DUP3 EQ PUSH2 0x2A5F JUMPI PUSH1 0x0 DUP6 PUSH1 0xB ADD DUP4 DUP2 SLOAD DUP2 LT PUSH2 0x2987 JUMPI PUSH2 0x2987 PUSH2 0x3B45 JUMP JUMPDEST SWAP1 PUSH1 0x0 MSTORE PUSH1 0x20 PUSH1 0x0 KECCAK256 SWAP1 PUSH1 0x20 SWAP2 DUP3 DUP3 DIV ADD SWAP2 SWAP1 MOD SWAP1 SLOAD SWAP1 PUSH2 0x100 EXP SWAP1 DIV PUSH1 0xFF AND SWAP1 POP DUP6 PUSH1 0xB ADD DUP3 DUP2 SLOAD DUP2 LT PUSH2 0x29BE JUMPI PUSH2 0x29BE PUSH2 0x3B45 JUMP JUMPDEST SWAP1 PUSH1 0x0 MSTORE PUSH1 0x20 PUSH1 0x0 KECCAK256 SWAP1 PUSH1 0x20 SWAP2 DUP3 DUP3 DIV ADD SWAP2 SWAP1 MOD SWAP1 SLOAD SWAP1 PUSH2 0x100 EXP SWAP1 DIV PUSH1 0xFF AND DUP7 PUSH1 0xB ADD DUP5 DUP2 SLOAD DUP2 LT PUSH2 0x29F3 JUMPI PUSH2 0x29F3 PUSH2 0x3B45 JUMP JUMPDEST SWAP1 PUSH1 0x0 MSTORE PUSH1 0x20 PUSH1 0x0 KECCAK256 SWAP1 PUSH1 0x20 SWAP2 DUP3 DUP3 DIV ADD SWAP2 SWAP1 MOD PUSH2 0x100 EXP DUP2 SLOAD DUP2 PUSH1 0xFF MUL NOT AND SWAP1 DUP4 PUSH1 0xFF AND MUL OR SWAP1 SSTORE POP DUP1 DUP7 PUSH1 0xB ADD DUP4 DUP2 SLOAD DUP2 LT PUSH2 0x2A33 JUMPI PUSH2 0x2A33 PUSH2 0x3B45 JUMP JUMPDEST SWAP1 PUSH1 0x0 MSTORE PUSH1 0x20 PUSH1 0x0 KECCAK256 SWAP1 PUSH1 0x20 SWAP2 DUP3 DUP3 DIV ADD SWAP2 SWAP1 MOD PUSH2 0x100 EXP DUP2 SLOAD DUP2 PUSH1 0xFF MUL NOT AND SWAP1 DUP4 PUSH1 0xFF AND MUL OR SWAP1 SSTORE POP POP JUMPDEST POP POP DUP1 DUP1 PUSH2 0x2A6C SWAP1 PUSH2 0x3C06 JUMP JUMPDEST SWAP2 POP POP PUSH2 0x28EE JUMP JUMPDEST POP POP POP POP JUMP JUMPDEST PUSH1 0x0 DUP1 DUP4 MLOAD PUSH8 0xFFFFFFFFFFFFFFFF DUP2 GT ISZERO PUSH2 0x2A97 JUMPI PUSH2 0x2A97 PUSH2 0x34C6 JUMP JUMPDEST PUSH1 0x40 MLOAD SWAP1 DUP1 DUP3 MSTORE DUP1 PUSH1 0x20 MUL PUSH1 0x20 ADD DUP3 ADD PUSH1 0x40 MSTORE DUP1 ISZERO PUSH2 0x2AC0 JUMPI DUP2 PUSH1 0x20 ADD PUSH1 0x20 DUP3 MUL DUP1 CALLDATASIZE DUP4 CALLDATACOPY ADD SWAP1 POP JUMPDEST POP SWAP1 POP PUSH1 0x0 JUMPDEST DUP5 MLOAD DUP2 LT ISZERO PUSH2 0x2B26 JUMPI DUP5 DUP2 DUP2 MLOAD DUP2 LT PUSH2 0x2AE1 JUMPI PUSH2 0x2AE1 PUSH2 0x3B45 JUMP JUMPDEST PUSH1 0x20 MUL PUSH1 0x20 ADD ADD MLOAD PUSH1 0x20 ADD MLOAD DUP3 DUP3 DUP2 MLOAD DUP2 LT PUSH2 0x2AFF JUMPI PUSH2 0x2AFF PUSH2 0x3B45 JUMP JUMPDEST PUSH1 0x20 MUL PUSH1 0x20 ADD ADD SWAP1 PUSH1 0x1 SIGNEXTEND SWAP1 DUP2 PUSH1 0x1 SIGNEXTEND DUP2 MSTORE POP POP DUP1 DUP1 PUSH2 0x2B1E SWAP1 PUSH2 0x3B71 JUMP JUMPDEST SWAP2 POP POP PUSH2 0x2AC6 JUMP JUMPDEST POP PUSH1 0x0 JUMPDEST PUSH1 0x1 DUP3 MLOAD PUSH2 0x2B38 SWAP2 SWAP1 PUSH2 0x3C8F JUMP JUMPDEST DUP2 LT ISZERO PUSH2 0x2C6C JUMPI PUSH1 0x0 JUMPDEST PUSH1 0x1 DUP3 DUP5 MLOAD PUSH2 0x2B51 SWAP2 SWAP1 PUSH2 0x3C8F JUMP JUMPDEST PUSH2 0x2B5B SWAP2 SWAP1 PUSH2 0x3C8F JUMP JUMPDEST DUP2 LT ISZERO PUSH2 0x2C59 JUMPI DUP3 PUSH2 0x2B6E DUP3 PUSH1 0x1 PUSH2 0x3B8A JUMP JUMPDEST DUP2 MLOAD DUP2 LT PUSH2 0x2B7E JUMPI PUSH2 0x2B7E PUSH2 0x3B45 JUMP JUMPDEST PUSH1 0x20 MUL PUSH1 0x20 ADD ADD MLOAD PUSH1 0x1 SIGNEXTEND DUP4 DUP3 DUP2 MLOAD DUP2 LT PUSH2 0x2B9B JUMPI PUSH2 0x2B9B PUSH2 0x3B45 JUMP JUMPDEST PUSH1 0x20 MUL PUSH1 0x20 ADD ADD MLOAD PUSH1 0x1 SIGNEXTEND SGT ISZERO PUSH2 0x2C47 JUMPI PUSH1 0x0 DUP4 DUP3 DUP2 MLOAD DUP2 LT PUSH2 0x2BC0 JUMPI PUSH2 0x2BC0 PUSH2 0x3B45 JUMP JUMPDEST PUSH1 0x20 MUL PUSH1 0x20 ADD ADD MLOAD SWAP1 POP DUP4 DUP3 PUSH1 0x1 PUSH2 0x2BD8 SWAP2 SWAP1 PUSH2 0x3B8A JUMP JUMPDEST DUP2 MLOAD DUP2 LT PUSH2 0x2BE8 JUMPI PUSH2 0x2BE8 PUSH2 0x3B45 JUMP JUMPDEST PUSH1 0x20 MUL PUSH1 0x20 ADD ADD MLOAD DUP5 DUP4 DUP2 MLOAD DUP2 LT PUSH2 0x2C02 JUMPI PUSH2 0x2C02 PUSH2 0x3B45 JUMP JUMPDEST PUSH1 0x1 SWAP3 DUP4 SIGNEXTEND PUSH1 0x20 SWAP2 DUP3 MUL SWAP3 SWAP1 SWAP3 ADD ADD MSTORE DUP2 SWAP1 DUP6 SWAP1 PUSH2 0x2C21 SWAP1 DUP6 SWAP1 PUSH2 0x3B8A JUMP JUMPDEST DUP2 MLOAD DUP2 LT PUSH2 0x2C31 JUMPI PUSH2 0x2C31 PUSH2 0x3B45 JUMP JUMPDEST PUSH1 0x20 MUL PUSH1 0x20 ADD ADD SWAP1 PUSH1 0x1 SIGNEXTEND SWAP1 DUP2 PUSH1 0x1 SIGNEXTEND DUP2 MSTORE POP POP POP JUMPDEST DUP1 PUSH2 0x2C51 DUP2 PUSH2 0x3B71 JUMP JUMPDEST SWAP2 POP POP PUSH2 0x2B42 JUMP JUMPDEST POP DUP1 PUSH2 0x2C64 DUP2 PUSH2 0x3B71 JUMP JUMPDEST SWAP2 POP POP PUSH2 0x2B2A JUMP JUMPDEST POP PUSH1 0x1 JUMPDEST DUP2 MLOAD DUP2 LT ISZERO PUSH2 0x2D5B JUMPI PUSH1 0x0 DUP3 PUSH2 0x2C87 PUSH1 0x1 DUP5 PUSH2 0x3C8F JUMP JUMPDEST DUP2 MLOAD DUP2 LT PUSH2 0x2C97 JUMPI PUSH2 0x2C97 PUSH2 0x3B45 JUMP JUMPDEST PUSH1 0x20 MUL PUSH1 0x20 ADD ADD MLOAD PUSH1 0x1 PUSH2 0x2CAB SWAP2 SWAP1 PUSH2 0x3E4A JUMP JUMPDEST SWAP1 POP JUMPDEST DUP3 DUP3 DUP2 MLOAD DUP2 LT PUSH2 0x2CC0 JUMPI PUSH2 0x2CC0 PUSH2 0x3B45 JUMP JUMPDEST PUSH1 0x20 MUL PUSH1 0x20 ADD ADD MLOAD PUSH1 0x1 SIGNEXTEND DUP2 PUSH1 0x1 SIGNEXTEND SLT ISZERO PUSH2 0x2D48 JUMPI PUSH1 0x40 MLOAD PUSH1 0xF0 DUP3 DUP2 SHL PUSH1 0x20 DUP4 ADD MSTORE DUP9 SWAP1 SHL PUSH1 0x22 DUP3 ADD MSTORE PUSH1 0x0 SWAP1 PUSH1 0x24 ADD PUSH1 0x40 DUP1 MLOAD DUP1 DUP4 SUB PUSH1 0x1F NOT ADD DUP2 MSTORE SWAP2 DUP2 MSTORE DUP2 MLOAD PUSH1 0x20 SWAP3 DUP4 ADD KECCAK256 PUSH1 0x0 DUP2 DUP2 MSTORE PUSH1 0x9 DUP11 ADD SWAP1 SWAP4 MSTORE SWAP2 KECCAK256 SLOAD SWAP1 SWAP2 POP PUSH1 0x1 PUSH1 0x28 SHL SWAP1 DIV PUSH1 0xFF AND PUSH2 0x2D35 JUMPI PUSH1 0x0 SWAP5 POP POP POP POP POP PUSH2 0x1A14 JUMP JUMPDEST POP DUP1 PUSH2 0x2D40 DUP2 PUSH2 0x3E6D JUMP JUMPDEST SWAP2 POP POP PUSH2 0x2CAE JUMP JUMPDEST POP DUP1 PUSH2 0x2D53 DUP2 PUSH2 0x3B71 JUMP JUMPDEST SWAP2 POP POP PUSH2 0x2C70 JUMP JUMPDEST POP PUSH1 0x1 SWAP6 SWAP5 POP POP POP POP POP JUMP JUMPDEST PUSH1 0x0 DUP1 DUP4 MLOAD PUSH8 0xFFFFFFFFFFFFFFFF DUP2 GT ISZERO PUSH2 0x2D84 JUMPI PUSH2 0x2D84 PUSH2 0x34C6 JUMP JUMPDEST PUSH1 0x40 MLOAD SWAP1 DUP1 DUP3 MSTORE DUP1 PUSH1 0x20 MUL PUSH1 0x20 ADD DUP3 ADD PUSH1 0x40 MSTORE DUP1 ISZERO PUSH2 0x2DAD JUMPI DUP2 PUSH1 0x20 ADD PUSH1 0x20 DUP3 MUL DUP1 CALLDATASIZE DUP4 CALLDATACOPY ADD SWAP1 POP JUMPDEST POP SWAP1 POP PUSH1 0x0 JUMPDEST DUP5 MLOAD DUP2 LT ISZERO PUSH2 0x2E13 JUMPI DUP5 DUP2 DUP2 MLOAD DUP2 LT PUSH2 0x2DCE JUMPI PUSH2 0x2DCE PUSH2 0x3B45 JUMP JUMPDEST PUSH1 0x20 MUL PUSH1 0x20 ADD ADD MLOAD PUSH1 0x40 ADD MLOAD DUP3 DUP3 DUP2 MLOAD DUP2 LT PUSH2 0x2DEC JUMPI PUSH2 0x2DEC PUSH2 0x3B45 JUMP JUMPDEST PUSH1 0x20 MUL PUSH1 0x20 ADD ADD SWAP1 PUSH1 0x1 SIGNEXTEND SWAP1 DUP2 PUSH1 0x1 SIGNEXTEND DUP2 MSTORE POP POP DUP1 DUP1 PUSH2 0x2E0B SWAP1 PUSH2 0x3B71 JUMP JUMPDEST SWAP2 POP POP PUSH2 0x2DB3 JUMP JUMPDEST POP PUSH1 0x0 JUMPDEST PUSH1 0x1 DUP3 MLOAD PUSH2 0x2E25 SWAP2 SWAP1 PUSH2 0x3C8F JUMP JUMPDEST DUP2 LT ISZERO PUSH2 0x2F59 JUMPI PUSH1 0x0 JUMPDEST PUSH1 0x1 DUP3 DUP5 MLOAD PUSH2 0x2E3E SWAP2 SWAP1 PUSH2 0x3C8F JUMP JUMPDEST PUSH2 0x2E48 SWAP2 SWAP1 PUSH2 0x3C8F JUMP JUMPDEST DUP2 LT ISZERO PUSH2 0x2F46 JUMPI DUP3 PUSH2 0x2E5B DUP3 PUSH1 0x1 PUSH2 0x3B8A JUMP JUMPDEST DUP2 MLOAD DUP2 LT PUSH2 0x2E6B JUMPI PUSH2 0x2E6B PUSH2 0x3B45 JUMP JUMPDEST PUSH1 0x20 MUL PUSH1 0x20 ADD ADD MLOAD PUSH1 0x1 SIGNEXTEND DUP4 DUP3 DUP2 MLOAD DUP2 LT PUSH2 0x2E88 JUMPI PUSH2 0x2E88 PUSH2 0x3B45 JUMP JUMPDEST PUSH1 0x20 MUL PUSH1 0x20 ADD ADD MLOAD PUSH1 0x1 SIGNEXTEND SGT ISZERO PUSH2 0x2F34 JUMPI PUSH1 0x0 DUP4 DUP3 DUP2 MLOAD DUP2 LT PUSH2 0x2EAD JUMPI PUSH2 0x2EAD PUSH2 0x3B45 JUMP JUMPDEST PUSH1 0x20 MUL PUSH1 0x20 ADD ADD MLOAD SWAP1 POP DUP4 DUP3 PUSH1 0x1 PUSH2 0x2EC5 SWAP2 SWAP1 PUSH2 0x3B8A JUMP JUMPDEST DUP2 MLOAD DUP2 LT PUSH2 0x2ED5 JUMPI PUSH2 0x2ED5 PUSH2 0x3B45 JUMP JUMPDEST PUSH1 0x20 MUL PUSH1 0x20 ADD ADD MLOAD DUP5 DUP4 DUP2 MLOAD DUP2 LT PUSH2 0x2EEF JUMPI PUSH2 0x2EEF PUSH2 0x3B45 JUMP JUMPDEST PUSH1 0x1 SWAP3 DUP4 SIGNEXTEND PUSH1 0x20 SWAP2 DUP3 MUL SWAP3 SWAP1 SWAP3 ADD ADD MSTORE DUP2 SWAP1 DUP6 SWAP1 PUSH2 0x2F0E SWAP1 DUP6 SWAP1 PUSH2 0x3B8A JUMP JUMPDEST DUP2 MLOAD DUP2 LT PUSH2 0x2F1E JUMPI PUSH2 0x2F1E PUSH2 0x3B45 JUMP JUMPDEST PUSH1 0x20 MUL PUSH1 0x20 ADD ADD SWAP1 PUSH1 0x1 SIGNEXTEND SWAP1 DUP2 PUSH1 0x1 SIGNEXTEND DUP2 MSTORE POP POP POP JUMPDEST DUP1 PUSH2 0x2F3E DUP2 PUSH2 0x3B71 JUMP JUMPDEST SWAP2 POP POP PUSH2 0x2E2F JUMP JUMPDEST POP DUP1 PUSH2 0x2F51 DUP2 PUSH2 0x3B71 JUMP JUMPDEST SWAP2 POP POP PUSH2 0x2E17 JUMP JUMPDEST POP PUSH1 0x1 JUMPDEST DUP2 MLOAD DUP2 LT ISZERO PUSH2 0x2D5B JUMPI PUSH1 0x0 DUP3 PUSH2 0x2F74 PUSH1 0x1 DUP5 PUSH2 0x3C8F JUMP JUMPDEST DUP2 MLOAD DUP2 LT PUSH2 0x2F84 JUMPI PUSH2 0x2F84 PUSH2 0x3B45 JUMP JUMPDEST PUSH1 0x20 MUL PUSH1 0x20 ADD ADD MLOAD PUSH1 0x1 PUSH2 0x2F98 SWAP2 SWAP1 PUSH2 0x3E4A JUMP JUMPDEST SWAP1 POP JUMPDEST DUP3 DUP3 DUP2 MLOAD DUP2 LT PUSH2 0x2FAD JUMPI PUSH2 0x2FAD PUSH2 0x3B45 JUMP JUMPDEST PUSH1 0x20 MUL PUSH1 0x20 ADD ADD MLOAD PUSH1 0x1 SIGNEXTEND DUP2 PUSH1 0x1 SIGNEXTEND SLT ISZERO PUSH2 0x3035 JUMPI PUSH1 0x40 MLOAD PUSH1 0xF0 DUP9 DUP2 SHL PUSH1 0x20 DUP4 ADD MSTORE DUP3 SWAP1 SHL PUSH1 0x22 DUP3 ADD MSTORE PUSH1 0x0 SWAP1 PUSH1 0x24 ADD PUSH1 0x40 DUP1 MLOAD DUP1 DUP4 SUB PUSH1 0x1F NOT ADD DUP2 MSTORE SWAP2 DUP2 MSTORE DUP2 MLOAD PUSH1 0x20 SWAP3 DUP4 ADD KECCAK256 PUSH1 0x0 DUP2 DUP2 MSTORE PUSH1 0x9 DUP11 ADD SWAP1 SWAP4 MSTORE SWAP2 KECCAK256 SLOAD SWAP1 SWAP2 POP PUSH1 0x1 PUSH1 0x28 SHL SWAP1 DIV PUSH1 0xFF AND PUSH2 0x3022 JUMPI PUSH1 0x0 SWAP5 POP POP POP POP POP PUSH2 0x1A14 JUMP JUMPDEST POP DUP1 PUSH2 0x302D DUP2 PUSH2 0x3E6D JUMP JUMPDEST SWAP2 POP POP PUSH2 0x2F9B JUMP JUMPDEST POP DUP1 PUSH2 0x3040 DUP2 PUSH2 0x3B71 JUMP JUMPDEST SWAP2 POP POP PUSH2 0x2F5D JUMP JUMPDEST PUSH1 0x0 DUP4 DUP2 MSTORE PUSH1 0x1 PUSH1 0x20 DUP2 DUP2 MSTORE PUSH1 0x40 DUP1 DUP5 KECCAK256 DUP2 MLOAD PUSH1 0x80 DUP1 DUP3 ADD DUP5 MSTORE PUSH1 0x0 NOT DUP1 DUP4 MSTORE DUP3 DUP7 ADD DUP8 SWAP1 MSTORE DUP3 DUP6 ADD DUP9 SWAP1 MSTORE PUSH1 0x60 DUP1 DUP5 ADD DUP10 SWAP1 MSTORE DUP6 MLOAD SWAP3 DUP4 ADD DUP7 MSTORE DUP9 DUP4 MSTORE SWAP6 DUP3 ADD DUP9 SWAP1 MSTORE SWAP4 DUP2 ADD SWAP4 SWAP1 SWAP4 MSTORE SWAP3 DUP3 ADD SWAP4 SWAP1 SWAP4 MSTORE DUP4 JUMPDEST PUSH1 0x4 DUP2 LT ISZERO PUSH2 0x315A JUMPI PUSH1 0x0 DUP4 DUP3 PUSH1 0x4 DUP2 LT PUSH2 0x30B9 JUMPI PUSH2 0x30B9 PUSH2 0x3B45 JUMP JUMPDEST PUSH1 0x20 MUL ADD MLOAD PUSH2 0x30C8 SWAP1 DUP10 PUSH2 0x3E4A JUMP JUMPDEST DUP4 DUP4 PUSH1 0x4 DUP2 LT PUSH2 0x30DA JUMPI PUSH2 0x30DA PUSH2 0x3B45 JUMP JUMPDEST PUSH1 0x20 MUL ADD MLOAD PUSH2 0x30E9 SWAP1 DUP10 PUSH2 0x3E4A JUMP JUMPDEST PUSH1 0x40 MLOAD PUSH1 0xF0 SWAP3 DUP4 SHL PUSH1 0x20 DUP3 ADD MSTORE SWAP2 SHL PUSH1 0x22 DUP3 ADD MSTORE PUSH1 0x24 ADD PUSH1 0x40 DUP1 MLOAD DUP1 DUP4 SUB PUSH1 0x1F NOT ADD DUP2 MSTORE SWAP2 DUP2 MSTORE DUP2 MLOAD PUSH1 0x20 SWAP3 DUP4 ADD KECCAK256 PUSH1 0x0 DUP2 DUP2 MSTORE PUSH1 0x9 DUP10 ADD SWAP1 SWAP4 MSTORE SWAP2 KECCAK256 SLOAD SWAP1 SWAP2 POP PUSH1 0x1 PUSH1 0x28 SHL SWAP1 DIV PUSH1 0xFF AND ISZERO PUSH2 0x3147 JUMPI PUSH1 0x1 SWAP6 POP POP POP POP POP POP PUSH2 0x1A14 JUMP JUMPDEST POP DUP1 PUSH2 0x3152 DUP2 PUSH2 0x3B71 JUMP JUMPDEST SWAP2 POP POP PUSH2 0x309C JUMP JUMPDEST POP PUSH1 0x0 SWAP8 SWAP7 POP POP POP POP POP POP POP JUMP JUMPDEST PUSH1 0x0 DUP6 DUP2 MSTORE PUSH1 0x1 PUSH1 0x20 MSTORE PUSH1 0x40 DUP2 KECCAK256 DUP2 DUP1 DUP5 ISZERO PUSH2 0x321B JUMPI POP DUP7 SWAP1 POP DUP1 JUMPDEST PUSH1 0x0 DUP3 PUSH1 0x1 SIGNEXTEND SGT DUP1 ISZERO PUSH2 0x31B6 JUMPI POP PUSH2 0x31A1 DUP10 PUSH2 0x2492 PUSH1 0x1 DUP6 PUSH2 0x3C6C JUMP JUMPDEST DUP1 PUSH2 0x31B6 JUMPI POP PUSH2 0x31B6 DUP7 PUSH2 0x24AD PUSH1 0x1 DUP6 PUSH2 0x3C6C JUMP JUMPDEST ISZERO PUSH2 0x31CD JUMPI DUP2 PUSH2 0x31C5 DUP2 PUSH2 0x3E28 JUMP JUMPDEST SWAP3 POP POP PUSH2 0x3184 JUMP JUMPDEST PUSH1 0xE DUP2 PUSH1 0x1 SIGNEXTEND SLT DUP1 ISZERO PUSH2 0x31FF JUMPI POP PUSH2 0x31EA DUP10 PUSH2 0x2492 DUP4 PUSH1 0x1 PUSH2 0x3E4A JUMP JUMPDEST DUP1 PUSH2 0x31FF JUMPI POP PUSH2 0x31FF DUP7 PUSH2 0x24AD DUP4 PUSH1 0x1 PUSH2 0x3E4A JUMP JUMPDEST ISZERO PUSH2 0x3216 JUMPI DUP1 PUSH2 0x320E DUP2 PUSH2 0x3E6D JUMP JUMPDEST SWAP2 POP POP PUSH2 0x31CD JUMP JUMPDEST PUSH2 0x32B7 JUMP JUMPDEST POP DUP6 SWAP1 POP DUP1 JUMPDEST PUSH1 0x0 DUP3 PUSH1 0x1 SIGNEXTEND SGT DUP1 ISZERO PUSH2 0x3255 JUMPI POP PUSH2 0x323F DUP10 DUP10 PUSH2 0x253C PUSH1 0x1 DUP7 PUSH2 0x3C6C JUMP JUMPDEST DUP1 PUSH2 0x3255 JUMPI POP PUSH2 0x3255 DUP7 DUP10 PUSH2 0x2557 PUSH1 0x1 DUP7 PUSH2 0x3C6C JUMP JUMPDEST ISZERO PUSH2 0x326C JUMPI DUP2 PUSH2 0x3264 DUP2 PUSH2 0x3E28 JUMP JUMPDEST SWAP3 POP POP PUSH2 0x3221 JUMP JUMPDEST PUSH1 0xE DUP2 PUSH1 0x1 SIGNEXTEND SLT DUP1 ISZERO PUSH2 0x32A0 JUMPI POP PUSH2 0x328A DUP10 DUP10 PUSH2 0x253C DUP5 PUSH1 0x1 PUSH2 0x3E4A JUMP JUMPDEST DUP1 PUSH2 0x32A0 JUMPI POP PUSH2 0x32A0 DUP7 DUP10 PUSH2 0x2557 DUP5 PUSH1 0x1 PUSH2 0x3E4A JUMP JUMPDEST ISZERO PUSH2 0x32B7 JUMPI DUP1 PUSH2 0x32AF DUP2 PUSH2 0x3E6D JUMP JUMPDEST SWAP2 POP POP PUSH2 0x326C JUMP JUMPDEST PUSH1 0x0 PUSH2 0x32C3 DUP4 DUP4 PUSH2 0x3C6C JUMP JUMPDEST PUSH2 0x32CE SWAP1 PUSH1 0x1 PUSH2 0x3E4A JUMP JUMPDEST SWAP1 POP PUSH1 0x0 DUP2 PUSH1 0x1 SIGNEXTEND SGT PUSH2 0x32E2 JUMPI PUSH1 0x0 PUSH2 0x32E4 JUMP JUMPDEST DUP1 JUMPDEST SWAP11 SWAP10 POP POP POP POP POP POP POP POP POP POP JUMP JUMPDEST PUSH1 0x0 SWAP3 DUP4 MSTORE PUSH1 0x1 PUSH1 0x20 SWAP1 DUP2 MSTORE PUSH1 0x40 DUP1 DUP6 KECCAK256 DUP2 MLOAD PUSH1 0xF0 SWAP6 DUP7 SHL DUP2 DUP6 ADD MSTORE SWAP4 SWAP1 SWAP5 SHL PUSH1 0x22 DUP5 ADD MSTORE DUP1 MLOAD DUP1 DUP5 SUB PUSH1 0x4 ADD DUP2 MSTORE PUSH1 0x24 SWAP1 SWAP4 ADD DUP2 MSTORE DUP3 MLOAD SWAP3 DUP3 ADD SWAP3 SWAP1 SWAP3 KECCAK256 DUP5 MSTORE PUSH1 0x9 SWAP1 SWAP3 ADD SWAP1 SWAP2 MSTORE SWAP1 KECCAK256 SLOAD PUSH1 0x1 PUSH1 0x28 SHL SWAP1 DIV PUSH1 0xFF AND SWAP1 JUMP JUMPDEST PUSH1 0x0 DUP1 JUMPDEST DUP5 MLOAD DUP2 LT ISZERO PUSH2 0x23D3 JUMPI DUP4 PUSH1 0x1 SIGNEXTEND DUP6 DUP3 DUP2 MLOAD DUP2 LT PUSH2 0x336E JUMPI PUSH2 0x336E PUSH2 0x3B45 JUMP JUMPDEST PUSH1 0x20 MUL PUSH1 0x20 ADD ADD MLOAD PUSH1 0x20 ADD MLOAD PUSH1 0x1 SIGNEXTEND EQ DUP1 ISZERO PUSH2 0x33AC JUMPI POP DUP3 PUSH1 0x1 SIGNEXTEND DUP6 DUP3 DUP2 MLOAD DUP2 LT PUSH2 0x339B JUMPI PUSH2 0x339B PUSH2 0x3B45 JUMP JUMPDEST PUSH1 0x20 MUL PUSH1 0x20 ADD ADD MLOAD PUSH1 0x40 ADD MLOAD PUSH1 0x1 SIGNEXTEND EQ JUMPDEST ISZERO PUSH2 0x33BB JUMPI PUSH1 0x1 SWAP2 POP POP PUSH2 0x1A14 JUMP JUMPDEST DUP1 PUSH2 0x33C5 DUP2 PUSH2 0x3B71 JUMP JUMPDEST SWAP2 POP POP PUSH2 0x334F JUMP JUMPDEST PUSH1 0x40 MLOAD DUP1 PUSH2 0x140 ADD PUSH1 0x40 MSTORE DUP1 PUSH1 0xA SWAP1 PUSH1 0x20 DUP3 MUL DUP1 CALLDATASIZE DUP4 CALLDATACOPY POP SWAP2 SWAP3 SWAP2 POP POP JUMP JUMPDEST PUSH1 0x40 MLOAD DUP1 PUSH2 0x1E0 ADD PUSH1 0x40 MSTORE DUP1 PUSH1 0xF SWAP1 PUSH1 0x20 DUP3 MUL DUP1 CALLDATASIZE DUP4 CALLDATACOPY POP SWAP2 SWAP3 SWAP2 POP POP JUMP JUMPDEST DUP3 DUP1 SLOAD DUP3 DUP3 SSTORE SWAP1 PUSH1 0x0 MSTORE PUSH1 0x20 PUSH1 0x0 KECCAK256 SWAP1 PUSH1 0x1F ADD PUSH1 0x20 SWAP1 DIV DUP2 ADD SWAP3 DUP3 ISZERO PUSH2 0x34A1 JUMPI SWAP2 PUSH1 0x20 MUL DUP3 ADD PUSH1 0x0 JUMPDEST DUP4 DUP3 GT ISZERO PUSH2 0x3472 JUMPI DUP4 MLOAD DUP4 DUP3 PUSH2 0x100 EXP DUP2 SLOAD DUP2 PUSH1 0xFF MUL NOT AND SWAP1 DUP4 PUSH1 0xFF AND MUL OR SWAP1 SSTORE POP SWAP3 PUSH1 0x20 ADD SWAP3 PUSH1 0x1 ADD PUSH1 0x20 DUP2 PUSH1 0x0 ADD DIV SWAP3 DUP4 ADD SWAP3 PUSH1 0x1 SUB MUL PUSH2 0x3434 JUMP JUMPDEST DUP1 ISZERO PUSH2 0x349F JUMPI DUP3 DUP2 PUSH2 0x100 EXP DUP2 SLOAD SWAP1 PUSH1 0xFF MUL NOT AND SWAP1 SSTORE PUSH1 0x1 ADD PUSH1 0x20 DUP2 PUSH1 0x0 ADD DIV SWAP3 DUP4 ADD SWAP3 PUSH1 0x1 SUB MUL PUSH2 0x3472 JUMP JUMPDEST POP JUMPDEST POP PUSH2 0x34AD SWAP3 SWAP2 POP PUSH2 0x34B1 JUMP JUMPDEST POP SWAP1 JUMP JUMPDEST JUMPDEST DUP1 DUP3 GT ISZERO PUSH2 0x34AD JUMPI PUSH1 0x0 DUP2 SSTORE PUSH1 0x1 ADD PUSH2 0x34B2 JUMP JUMPDEST PUSH4 0x4E487B71 PUSH1 0xE0 SHL PUSH1 0x0 MSTORE PUSH1 0x41 PUSH1 0x4 MSTORE PUSH1 0x24 PUSH1 0x0 REVERT JUMPDEST PUSH1 0x40 MLOAD PUSH1 0x60 DUP2 ADD PUSH8 0xFFFFFFFFFFFFFFFF DUP2 GT DUP3 DUP3 LT OR ISZERO PUSH2 0x34FF JUMPI PUSH2 0x34FF PUSH2 0x34C6 JUMP JUMPDEST PUSH1 0x40 MSTORE SWAP1 JUMP JUMPDEST PUSH1 0x40 MLOAD PUSH1 0x1F DUP3 ADD PUSH1 0x1F NOT AND DUP2 ADD PUSH8 0xFFFFFFFFFFFFFFFF DUP2 GT DUP3 DUP3 LT OR ISZERO PUSH2 0x352E JUMPI PUSH2 0x352E PUSH2 0x34C6 JUMP JUMPDEST PUSH1 0x40 MSTORE SWAP2 SWAP1 POP JUMP JUMPDEST DUP1 CALLDATALOAD PUSH1 0xFF DUP2 AND DUP2 EQ PUSH2 0x3547 JUMPI PUSH1 0x0 DUP1 REVERT JUMPDEST SWAP2 SWAP1 POP JUMP JUMPDEST DUP1 CALLDATALOAD PUSH1 0x1 DUP2 SWAP1 SIGNEXTEND DUP2 EQ PUSH2 0x3547 JUMPI PUSH1 0x0 DUP1 REVERT JUMPDEST PUSH1 0x0 DUP1 PUSH1 0x40 DUP1 DUP5 DUP7 SUB SLT ISZERO PUSH2 0x3572 JUMPI PUSH1 0x0 DUP1 REVERT JUMPDEST DUP4 CALLDATALOAD SWAP3 POP PUSH1 0x20 DUP1 DUP6 ADD CALLDATALOAD PUSH8 0xFFFFFFFFFFFFFFFF DUP1 DUP3 GT ISZERO PUSH2 0x3592 JUMPI PUSH1 0x0 DUP1 REVERT JUMPDEST DUP2 DUP8 ADD SWAP2 POP DUP8 PUSH1 0x1F DUP4 ADD SLT PUSH2 0x35A6 JUMPI PUSH1 0x0 DUP1 REVERT JUMPDEST DUP2 CALLDATALOAD DUP2 DUP2 GT ISZERO PUSH2 0x35B8 JUMPI PUSH2 0x35B8 PUSH2 0x34C6 JUMP JUMPDEST PUSH2 0x35C6 DUP5 DUP3 PUSH1 0x5 SHL ADD PUSH2 0x3505 JUMP JUMPDEST DUP2 DUP2 MSTORE DUP5 DUP2 ADD SWAP3 POP PUSH1 0x60 SWAP2 DUP3 MUL DUP5 ADD DUP6 ADD SWAP2 DUP11 DUP4 GT ISZERO PUSH2 0x35E5 JUMPI PUSH1 0x0 DUP1 REVERT JUMPDEST SWAP4 DUP6 ADD SWAP4 JUMPDEST DUP3 DUP6 LT ISZERO PUSH2 0x3642 JUMPI DUP1 DUP6 DUP13 SUB SLT ISZERO PUSH2 0x3602 JUMPI PUSH1 0x0 DUP1 DUP2 REVERT JUMPDEST PUSH2 0x360A PUSH2 0x34DC JUMP JUMPDEST PUSH2 0x3613 DUP7 PUSH2 0x3536 JUMP JUMPDEST DUP2 MSTORE PUSH2 0x3620 DUP8 DUP8 ADD PUSH2 0x354C JUMP JUMPDEST DUP8 DUP3 ADD MSTORE PUSH2 0x362F DUP9 DUP8 ADD PUSH2 0x354C JUMP JUMPDEST DUP2 DUP10 ADD MSTORE DUP5 MSTORE SWAP4 DUP5 ADD SWAP4 SWAP3 DUP6 ADD SWAP3 PUSH2 0x35EA JUMP JUMPDEST POP DUP1 SWAP7 POP POP POP POP POP POP POP SWAP3 POP SWAP3 SWAP1 POP JUMP JUMPDEST DUP1 CALLDATALOAD PUSH1 0x1 PUSH1 0x1 PUSH1 0xA0 SHL SUB DUP2 AND DUP2 EQ PUSH2 0x3547 JUMPI PUSH1 0x0 DUP1 REVERT JUMPDEST PUSH1 0x0 DUP1 PUSH1 0x40 DUP4 DUP6 SUB SLT ISZERO PUSH2 0x367D JUMPI PUSH1 0x0 DUP1 REVERT JUMPDEST PUSH2 0x3686 DUP4 PUSH2 0x3653 JUMP JUMPDEST SWAP5 PUSH1 0x20 SWAP4 SWAP1 SWAP4 ADD CALLDATALOAD SWAP4 POP POP POP JUMP JUMPDEST PUSH1 0x0 PUSH1 0x20 DUP3 DUP5 SUB SLT ISZERO PUSH2 0x36A6 JUMPI PUSH1 0x0 DUP1 REVERT JUMPDEST POP CALLDATALOAD SWAP2 SWAP1 POP JUMP JUMPDEST PUSH4 0x4E487B71 PUSH1 0xE0 SHL PUSH1 0x0 MSTORE PUSH1 0x21 PUSH1 0x4 MSTORE PUSH1 0x24 PUSH1 0x0 REVERT JUMPDEST PUSH1 0x4 DUP2 LT PUSH2 0x36E1 JUMPI PUSH4 0x4E487B71 PUSH1 0xE0 SHL PUSH1 0x0 MSTORE PUSH1 0x21 PUSH1 0x4 MSTORE PUSH1 0x24 PUSH1 0x0 REVERT JUMPDEST SWAP1 MSTORE JUMP JUMPDEST DUP12 DUP2 MSTORE PUSH2 0x160 DUP2 ADD PUSH2 0x36FA PUSH1 0x20 DUP4 ADD DUP14 PUSH2 0x36C3 JUMP JUMPDEST PUSH1 0x1 PUSH1 0x1 PUSH1 0xA0 SHL SUB SWAP11 SWAP1 SWAP11 AND PUSH1 0x40 DUP3 ADD MSTORE PUSH1 0xFF SWAP9 DUP10 AND PUSH1 0x60 DUP3 ADD MSTORE SWAP7 SWAP1 SWAP8 AND PUSH1 0x80 DUP8 ADD MSTORE PUSH1 0xA0 DUP7 ADD SWAP5 SWAP1 SWAP5 MSTORE PUSH1 0xC0 DUP6 ADD SWAP3 SWAP1 SWAP3 MSTORE PUSH1 0xE0 DUP5 ADD MSTORE ISZERO ISZERO PUSH2 0x100 DUP4 ADD MSTORE PUSH2 0x120 DUP3 ADD MSTORE PUSH2 0x140 ADD MSTORE SWAP3 SWAP2 POP POP JUMP JUMPDEST PUSH1 0x0 PUSH1 0x20 DUP3 DUP5 SUB SLT ISZERO PUSH2 0x375E JUMPI PUSH1 0x0 DUP1 REVERT JUMPDEST PUSH2 0x1A14 DUP3 PUSH2 0x3653 JUMP JUMPDEST PUSH1 0x0 DUP2 MLOAD DUP1 DUP5 MSTORE PUSH1 0x20 DUP1 DUP6 ADD SWAP5 POP DUP1 DUP5 ADD PUSH1 0x0 JUMPDEST DUP4 DUP2 LT ISZERO PUSH2 0x3797 JUMPI DUP2 MLOAD DUP8 MSTORE SWAP6 DUP3 ADD SWAP6 SWAP1 DUP3 ADD SWAP1 PUSH1 0x1 ADD PUSH2 0x377B JUMP JUMPDEST POP SWAP5 SWAP6 SWAP5 POP POP POP POP POP JUMP JUMPDEST PUSH1 0x20 DUP2 MSTORE PUSH1 0x0 PUSH2 0x1A14 PUSH1 0x20 DUP4 ADD DUP5 PUSH2 0x3767 JUMP JUMPDEST PUSH2 0x140 DUP2 ADD DUP2 DUP4 PUSH1 0x0 JUMPDEST PUSH1 0xA DUP2 LT ISZERO PUSH2 0x37E1 JUMPI DUP2 MLOAD PUSH1 0xFF AND DUP4 MSTORE PUSH1 0x20 SWAP3 DUP4 ADD SWAP3 SWAP1 SWAP2 ADD SWAP1 PUSH1 0x1 ADD PUSH2 0x37BF JUMP JUMPDEST POP POP POP SWAP3 SWAP2 POP POP JUMP JUMPDEST PUSH1 0x0 DUP1 PUSH1 0x40 DUP4 DUP6 SUB SLT ISZERO PUSH2 0x37FD JUMPI PUSH1 0x0 DUP1 REVERT JUMPDEST DUP3 CALLDATALOAD SWAP2 POP PUSH2 0x380D PUSH1 0x20 DUP5 ADD PUSH2 0x3653 JUMP JUMPDEST SWAP1 POP SWAP3 POP SWAP3 SWAP1 POP JUMP JUMPDEST PUSH1 0x0 DUP2 MLOAD DUP1 DUP5 MSTORE PUSH1 0x0 JUMPDEST DUP2 DUP2 LT ISZERO PUSH2 0x383C JUMPI PUSH1 0x20 DUP2 DUP6 ADD DUP2 ADD MLOAD DUP7 DUP4 ADD DUP3 ADD MSTORE ADD PUSH2 0x3820 JUMP JUMPDEST POP PUSH1 0x0 PUSH1 0x20 DUP3 DUP7 ADD ADD MSTORE PUSH1 0x20 PUSH1 0x1F NOT PUSH1 0x1F DUP4 ADD AND DUP6 ADD ADD SWAP2 POP POP SWAP3 SWAP2 POP POP JUMP JUMPDEST PUSH1 0xA0 DUP2 MSTORE PUSH1 0x0 PUSH2 0x386F PUSH1 0xA0 DUP4 ADD DUP9 PUSH2 0x3816 JUMP JUMPDEST PUSH1 0x20 DUP4 DUP2 ADD DUP9 SWAP1 MSTORE DUP4 DUP3 SUB PUSH1 0x40 DUP6 ADD MSTORE DUP7 MLOAD DUP1 DUP4 MSTORE DUP8 DUP3 ADD SWAP3 DUP3 ADD SWAP1 PUSH1 0x0 JUMPDEST DUP2 DUP2 LT ISZERO PUSH2 0x38AD JUMPI DUP5 MLOAD PUSH1 0xFF AND DUP4 MSTORE SWAP4 DUP4 ADD SWAP4 SWAP2 DUP4 ADD SWAP2 PUSH1 0x1 ADD PUSH2 0x388E JUMP JUMPDEST POP POP SWAP6 ISZERO ISZERO PUSH1 0x60 DUP6 ADD MSTORE POP POP POP PUSH1 0x80 ADD MSTORE SWAP4 SWAP3 POP POP POP JUMP JUMPDEST PUSH1 0x0 DUP3 PUSH1 0x1F DUP4 ADD SLT PUSH2 0x38D6 JUMPI PUSH1 0x0 DUP1 REVERT JUMPDEST DUP2 CALLDATALOAD PUSH8 0xFFFFFFFFFFFFFFFF DUP2 GT ISZERO PUSH2 0x38F0 JUMPI PUSH2 0x38F0 PUSH2 0x34C6 JUMP JUMPDEST PUSH2 0x3903 PUSH1 0x1F DUP3 ADD PUSH1 0x1F NOT AND PUSH1 0x20 ADD PUSH2 0x3505 JUMP JUMPDEST DUP2 DUP2 MSTORE DUP5 PUSH1 0x20 DUP4 DUP7 ADD ADD GT ISZERO PUSH2 0x3918 JUMPI PUSH1 0x0 DUP1 REVERT JUMPDEST DUP2 PUSH1 0x20 DUP6 ADD PUSH1 0x20 DUP4 ADD CALLDATACOPY PUSH1 0x0 SWAP2 DUP2 ADD PUSH1 0x20 ADD SWAP2 SWAP1 SWAP2 MSTORE SWAP4 SWAP3 POP POP POP JUMP JUMPDEST PUSH1 0x0 DUP1 PUSH1 0x40 DUP4 DUP6 SUB SLT ISZERO PUSH2 0x3948 JUMPI PUSH1 0x0 DUP1 REVERT JUMPDEST DUP3 CALLDATALOAD SWAP2 POP PUSH1 0x20 DUP4 ADD CALLDATALOAD PUSH8 0xFFFFFFFFFFFFFFFF DUP2 GT ISZERO PUSH2 0x3966 JUMPI PUSH1 0x0 DUP1 REVERT JUMPDEST PUSH2 0x3972 DUP6 DUP3 DUP7 ADD PUSH2 0x38C5 JUMP JUMPDEST SWAP2 POP POP SWAP3 POP SWAP3 SWAP1 POP JUMP JUMPDEST PUSH1 0x0 DUP1 PUSH1 0x0 PUSH1 0x60 DUP5 DUP7 SUB SLT ISZERO PUSH2 0x3991 JUMPI PUSH1 0x0 DUP1 REVERT JUMPDEST DUP4 CALLDATALOAD SWAP3 POP PUSH2 0x39A1 PUSH1 0x20 DUP6 ADD PUSH2 0x354C JUMP JUMPDEST SWAP2 POP PUSH2 0x39AF PUSH1 0x40 DUP6 ADD PUSH2 0x354C JUMP JUMPDEST SWAP1 POP SWAP3 POP SWAP3 POP SWAP3 JUMP JUMPDEST PUSH1 0x0 DUP1 PUSH1 0x0 DUP1 PUSH1 0x80 DUP6 DUP8 SUB SLT ISZERO PUSH2 0x39CE JUMPI PUSH1 0x0 DUP1 REVERT JUMPDEST PUSH2 0x39D7 DUP6 PUSH2 0x3536 JUMP JUMPDEST SWAP4 POP PUSH1 0x20 DUP6 ADD CALLDATALOAD DUP1 ISZERO ISZERO DUP2 EQ PUSH2 0x39EC JUMPI PUSH1 0x0 DUP1 REVERT JUMPDEST SWAP3 POP PUSH1 0x40 DUP6 ADD CALLDATALOAD SWAP2 POP PUSH1 0x60 DUP6 ADD CALLDATALOAD PUSH8 0xFFFFFFFFFFFFFFFF DUP2 GT ISZERO PUSH2 0x3A0F JUMPI PUSH1 0x0 DUP1 REVERT JUMPDEST PUSH2 0x3A1B DUP8 DUP3 DUP9 ADD PUSH2 0x38C5 JUMP JUMPDEST SWAP2 POP POP SWAP3 SWAP6 SWAP2 SWAP5 POP SWAP3 POP JUMP JUMPDEST PUSH1 0x0 PUSH2 0x160 DUP3 ADD PUSH2 0x3A38 DUP4 DUP16 PUSH2 0x36C3 JUMP JUMPDEST PUSH1 0x1 PUSH1 0x1 PUSH1 0xA0 SHL SUB DUP14 DUP2 AND PUSH1 0x20 DUP6 DUP2 ADD SWAP2 SWAP1 SWAP2 MSTORE PUSH1 0xFF DUP15 DUP2 AND PUSH1 0x40 DUP8 ADD MSTORE DUP14 AND PUSH1 0x60 DUP7 ADD MSTORE PUSH1 0x80 DUP6 ADD DUP13 SWAP1 MSTORE PUSH1 0xA0 DUP6 ADD DUP12 SWAP1 MSTORE DUP10 ISZERO ISZERO PUSH1 0xC0 DUP7 ADD MSTORE PUSH2 0x160 PUSH1 0xE0 DUP7 ADD MSTORE DUP9 MLOAD SWAP3 DUP4 SWAP1 MSTORE DUP9 ADD SWAP2 PUSH2 0x180 DUP6 ADD SWAP1 PUSH1 0x0 JUMPDEST DUP2 DUP2 LT ISZERO PUSH2 0x3AAD JUMPI DUP5 MLOAD DUP5 AND DUP4 MSTORE PUSH1 0x20 SWAP5 DUP6 ADD SWAP5 SWAP1 SWAP3 ADD SWAP2 PUSH1 0x1 ADD PUSH2 0x3A8D JUMP JUMPDEST POP POP DUP5 DUP2 SUB PUSH2 0x100 DUP7 ADD MSTORE PUSH2 0x3AC2 DUP2 DUP10 PUSH2 0x3767 JUMP JUMPDEST PUSH2 0x120 DUP7 ADD SWAP8 SWAP1 SWAP8 MSTORE POP POP POP POP PUSH2 0x140 ADD MSTORE SWAP10 SWAP9 POP POP POP POP POP POP POP POP POP JUMP JUMPDEST PUSH1 0x20 DUP1 DUP3 MSTORE PUSH1 0x13 SWAP1 DUP3 ADD MSTORE PUSH19 0x11D85B5948191BD95CC81B9BDD08195E1A5CDD PUSH1 0x6A SHL PUSH1 0x40 DUP3 ADD MSTORE PUSH1 0x60 ADD SWAP1 JUMP JUMPDEST PUSH1 0x20 DUP1 DUP3 MSTORE PUSH1 0x1A SWAP1 DUP3 ADD MSTORE PUSH32 0x47616D65206E6F7420696E206578706563746564207374617465000000000000 PUSH1 0x40 DUP3 ADD MSTORE PUSH1 0x60 ADD SWAP1 JUMP JUMPDEST PUSH4 0x4E487B71 PUSH1 0xE0 SHL PUSH1 0x0 MSTORE PUSH1 0x32 PUSH1 0x4 MSTORE PUSH1 0x24 PUSH1 0x0 REVERT JUMPDEST PUSH4 0x4E487B71 PUSH1 0xE0 SHL PUSH1 0x0 MSTORE PUSH1 0x11 PUSH1 0x4 MSTORE PUSH1 0x24 PUSH1 0x0 REVERT JUMPDEST PUSH1 0x0 PUSH1 0x1 DUP3 ADD PUSH2 0x3B83 JUMPI PUSH2 0x3B83 PUSH2 0x3B5B JUMP JUMPDEST POP PUSH1 0x1 ADD SWAP1 JUMP JUMPDEST DUP1 DUP3 ADD DUP1 DUP3 GT ISZERO PUSH2 0x1750 JUMPI PUSH2 0x1750 PUSH2 0x3B5B JUMP JUMPDEST PUSH1 0x40 DUP1 DUP3 MSTORE DUP4 MLOAD DUP3 DUP3 ADD DUP2 SWAP1 MSTORE PUSH1 0x0 SWAP2 SWAP1 PUSH1 0x60 SWAP1 DUP2 DUP6 ADD SWAP1 PUSH1 0x20 DUP1 DUP10 ADD DUP7 JUMPDEST DUP4 DUP2 LT ISZERO PUSH2 0x3BF2 JUMPI DUP2 MLOAD DUP1 MLOAD PUSH1 0xFF AND DUP7 MSTORE DUP4 DUP2 ADD MLOAD PUSH1 0x1 SWAP1 DUP2 SIGNEXTEND DUP6 DUP9 ADD MSTORE SWAP1 DUP9 ADD MLOAD DUP2 SIGNEXTEND DUP9 DUP8 ADD MSTORE SWAP5 DUP7 ADD SWAP5 SWAP2 DUP4 ADD SWAP2 ADD PUSH2 0x3BBC JUMP JUMPDEST POP POP SWAP6 SWAP1 SWAP6 ADD SWAP6 SWAP1 SWAP6 MSTORE POP SWAP3 SWAP5 SWAP4 POP POP POP POP JUMP JUMPDEST PUSH1 0x0 PUSH1 0xFF DUP3 AND PUSH1 0xFF DUP2 SUB PUSH2 0x3C1C JUMPI PUSH2 0x3C1C PUSH2 0x3B5B JUMP JUMPDEST PUSH1 0x1 ADD SWAP3 SWAP2 POP POP JUMP JUMPDEST PUSH1 0x1 DUP2 DUP2 SHR SWAP1 DUP3 AND DUP1 PUSH2 0x3C39 JUMPI PUSH1 0x7F DUP3 AND SWAP2 POP JUMPDEST PUSH1 0x20 DUP3 LT DUP2 SUB PUSH2 0xA7F JUMPI PUSH4 0x4E487B71 PUSH1 0xE0 SHL PUSH1 0x0 MSTORE PUSH1 0x22 PUSH1 0x4 MSTORE PUSH1 0x24 PUSH1 0x0 REVERT JUMPDEST PUSH1 0x20 DUP2 MSTORE PUSH1 0x0 PUSH2 0x1A14 PUSH1 0x20 DUP4 ADD DUP5 PUSH2 0x3816 JUMP JUMPDEST PUSH1 0x1 DUP3 DUP2 SIGNEXTEND SWAP1 DUP3 SWAP1 SIGNEXTEND SUB PUSH2 0x7FFF NOT DUP2 SLT PUSH2 0x7FFF DUP3 SGT OR ISZERO PUSH2 0x1750 JUMPI PUSH2 0x1750 PUSH2 0x3B5B JUMP JUMPDEST DUP2 DUP2 SUB DUP2 DUP2 GT ISZERO PUSH2 0x1750 JUMPI PUSH2 0x1750 PUSH2 0x3B5B JUMP JUMPDEST PUSH4 0x4E487B71 PUSH1 0xE0 SHL PUSH1 0x0 MSTORE PUSH1 0x31 PUSH1 0x4 MSTORE PUSH1 0x24 PUSH1 0x0 REVERT JUMPDEST PUSH1 0xFF DUP3 DUP2 AND DUP3 DUP3 AND SUB SWAP1 DUP2 GT ISZERO PUSH2 0x1750 JUMPI PUSH2 0x1750 PUSH2 0x3B5B JUMP JUMPDEST PUSH1 0xFF DUP2 DUP2 AND DUP4 DUP3 AND ADD SWAP1 DUP2 GT ISZERO PUSH2 0x1750 JUMPI PUSH2 0x1750 PUSH2 0x3B5B JUMP JUMPDEST PUSH4 0x4E487B71 PUSH1 0xE0 SHL PUSH1 0x0 MSTORE PUSH1 0x12 PUSH1 0x4 MSTORE PUSH1 0x24 PUSH1 0x0 REVERT JUMPDEST PUSH1 0x0 PUSH1 0xFF DUP4 AND DUP1 PUSH2 0x3D13 JUMPI PUSH2 0x3D13 PUSH2 0x3CEA JUMP JUMPDEST DUP1 PUSH1 0xFF DUP5 AND MOD SWAP2 POP POP SWAP3 SWAP2 POP POP JUMP JUMPDEST PUSH1 0x1F DUP3 GT ISZERO PUSH2 0x1B3D JUMPI PUSH1 0x0 DUP2 DUP2 MSTORE PUSH1 0x20 DUP2 KECCAK256 PUSH1 0x1F DUP6 ADD PUSH1 0x5 SHR DUP2 ADD PUSH1 0x20 DUP7 LT ISZERO PUSH2 0x3D49 JUMPI POP DUP1 JUMPDEST PUSH1 0x1F DUP6 ADD PUSH1 0x5 SHR DUP3 ADD SWAP2 POP JUMPDEST DUP2 DUP2 LT ISZERO PUSH2 0xDFE JUMPI DUP3 DUP2 SSTORE PUSH1 0x1 ADD PUSH2 0x3D55 JUMP JUMPDEST DUP2 MLOAD PUSH8 0xFFFFFFFFFFFFFFFF DUP2 GT ISZERO PUSH2 0x3D82 JUMPI PUSH2 0x3D82 PUSH2 0x34C6 JUMP JUMPDEST PUSH2 0x3D96 DUP2 PUSH2 0x3D90 DUP5 SLOAD PUSH2 0x3C25 JUMP JUMPDEST DUP5 PUSH2 0x3D22 JUMP JUMPDEST PUSH1 0x20 DUP1 PUSH1 0x1F DUP4 GT PUSH1 0x1 DUP2 EQ PUSH2 0x3DCB JUMPI PUSH1 0x0 DUP5 ISZERO PUSH2 0x3DB3 JUMPI POP DUP6 DUP4 ADD MLOAD JUMPDEST PUSH1 0x0 NOT PUSH1 0x3 DUP7 SWAP1 SHL SHR NOT AND PUSH1 0x1 DUP6 SWAP1 SHL OR DUP6 SSTORE PUSH2 0xDFE JUMP JUMPDEST PUSH1 0x0 DUP6 DUP2 MSTORE PUSH1 0x20 DUP2 KECCAK256 PUSH1 0x1F NOT DUP7 AND SWAP2 JUMPDEST DUP3 DUP2 LT ISZERO PUSH2 0x3DFA JUMPI DUP9 DUP7 ADD MLOAD DUP3 SSTORE SWAP5 DUP5 ADD SWAP5 PUSH1 0x1 SWAP1 SWAP2 ADD SWAP1 DUP5 ADD PUSH2 0x3DDB JUMP JUMPDEST POP DUP6 DUP3 LT ISZERO PUSH2 0x3E18 JUMPI DUP8 DUP6 ADD MLOAD PUSH1 0x0 NOT PUSH1 0x3 DUP9 SWAP1 SHL PUSH1 0xF8 AND SHR NOT AND DUP2 SSTORE JUMPDEST POP POP POP POP POP PUSH1 0x1 SWAP1 DUP2 SHL ADD SWAP1 SSTORE POP JUMP JUMPDEST PUSH1 0x0 DUP2 PUSH1 0x1 SIGNEXTEND PUSH2 0x7FFF NOT DUP2 SUB PUSH2 0x3E40 JUMPI PUSH2 0x3E40 PUSH2 0x3B5B JUMP JUMPDEST PUSH1 0x0 NOT ADD SWAP3 SWAP2 POP POP JUMP JUMPDEST PUSH1 0x1 DUP2 DUP2 SIGNEXTEND SWAP1 DUP4 SWAP1 SIGNEXTEND ADD PUSH2 0x7FFF DUP2 SGT PUSH2 0x7FFF NOT DUP3 SLT OR ISZERO PUSH2 0x1750 JUMPI PUSH2 0x1750 PUSH2 0x3B5B JUMP JUMPDEST PUSH1 0x0 DUP2 PUSH1 0x1 SIGNEXTEND PUSH2 0x7FFF DUP2 SUB PUSH2 0x3C1C JUMPI PUSH2 0x3C1C PUSH2 0x3B5B JUMP JUMPDEST PUSH1 0x0 DUP3 PUSH2 0x3E93 JUMPI PUSH2 0x3E93 PUSH2 0x3CEA JUMP JUMPDEST POP MOD SWAP1 JUMP JUMPDEST DUP1 DUP3 MUL DUP2 ISZERO DUP3 DUP3 DIV DUP5 EQ OR PUSH2 0x1750 JUMPI PUSH2 0x1750 PUSH2 0x3B5B JUMP INVALID LOG2 PUSH5 0x6970667358 0x22 SLT KECCAK256 SLT 0xD6 0xAC 0x5C INVALID PUSH8 0xBA91F629FC164306 0x26 0x4E PUSH11 0x41559751962E9DBAA129A 0x4A DUP11 PUSH5 0x5D64736F6C PUSH4 0x43000813 STOP CALLER "},"methodIdentifiers":{"HAND_SIZE()":"e6ba69d8","MOVE_TIMEOUT()":"6a07dc12","TILE_DISTRIBUTION(uint256)":"d4698e5b","WINNING_SCORE()":"e3087fec","cancelGame(uint256)":"69958ab9","createGame(uint8,bool,uint256,string)":"8b38795d","games(uint256)":"117a5b90","getGame(uint256)":"a2f77bcc","getPlayer(uint256,address)":"6454e58d","getPlayerGames(address)":"129daf84","getTileAt(uint256,int16,int16)":"76d4293c","getTilePoolStatus(uint256)":"249123d3","joinGame(uint256,string)":"68880a26","nextGameId()":"b135bbb0","playTurn(uint256,(uint8,int16,int16)[])":"084ba9b8","playerGames(address,uint256)":"0a5694c2","skipTurn(uint256)":"ce371cbd","startGame(uint256)":"e5ed1d59"}}}}}