{
  "_format": "hh-sol-artifact-1",
  "contractName": "FivesGame",
  "sourceName": "contracts/FivesGame.sol",
  "abi": [
    {
      "anonymous": false,
      "inputs": [
        {
          "indexed": true,
          "internalType": "uint256",
          "name": "gameId",
          "type": "uint256"
        }
      ],
      "name": "GameCancelled",
      "type": "event"
    },
    {
      "anonymous": false,
      "inputs": [
        {
          "indexed": true,
          "internalType": "uint256",
          "name": "gameId",
          "type": "uint256"
        },
        {
          "indexed": true,
          "internalType": "address",
          "name": "winner",
          "type": "address"
        },
        {
          "indexed": false,
          "internalType": "uint256",
          "name": "score",
          "type": "uint256"
        }
      ],
      "name": "GameCompleted",
      "type": "event"
    },
    {
      "anonymous": false,
      "inputs": [
        {
          "indexed": true,
          "internalType": "uint256",
          "name": "gameId",
          "type": "uint256"
        },
        {
          "indexed": true,
          "internalType": "address",
          "name": "creator",
          "type": "address"
        },
        {
          "indexed": false,
          "internalType": "uint8",
          "name": "maxPlayers",
          "type": "uint8"
        }
      ],
      "name": "GameCreated",
      "type": "event"
    },
    {
      "anonymous": false,
      "inputs": [
        {
          "indexed": true,
          "internalType": "uint256",
          "name": "gameId",
          "type": "uint256"
        }
      ],
      "name": "GameStarted",
      "type": "event"
    },
    {
      "anonymous": false,
      "inputs": [
        {
          "indexed": true,
          "internalType": "uint256",
          "name": "gameId",
          "type": "uint256"
        },
        {
          "indexed": true,
          "internalType": "address",
          "name": "player",
          "type": "address"
        },
        {
          "indexed": false,
          "internalType": "string",
          "name": "name",
          "type": "string"
        }
      ],
      "name": "PlayerJoined",
      "type": "event"
    },
    {
      "anonymous": false,
      "inputs": [
        {
          "indexed": true,
          "internalType": "uint256",
          "name": "gameId",
          "type": "uint256"
        },
        {
          "indexed": true,
          "internalType": "address",
          "name": "player",
          "type": "address"
        },
        {
          "indexed": false,
          "internalType": "uint8",
          "name": "tilesDrawn",
          "type": "uint8"
        }
      ],
      "name": "TilesDrawn",
      "type": "event"
    },
    {
      "anonymous": false,
      "inputs": [
        {
          "indexed": true,
          "internalType": "uint256",
          "name": "gameId",
          "type": "uint256"
        },
        {
          "indexed": true,
          "internalType": "address",
          "name": "currentPlayer",
          "type": "address"
        },
        {
          "indexed": false,
          "internalType": "uint8",
          "name": "playerIndex",
          "type": "uint8"
        }
      ],
      "name": "TurnChanged",
      "type": "event"
    },
    {
      "anonymous": false,
      "inputs": [
        {
          "indexed": true,
          "internalType": "uint256",
          "name": "gameId",
          "type": "uint256"
        },
        {
          "indexed": true,
          "internalType": "address",
          "name": "player",
          "type": "address"
        },
        {
          "components": [
            {
              "internalType": "uint8",
              "name": "number",
              "type": "uint8"
            },
            {
              "internalType": "int16",
              "name": "x",
              "type": "int16"
            },
            {
              "internalType": "int16",
              "name": "y",
              "type": "int16"
            }
          ],
          "indexed": false,
          "internalType": "struct FivesGame.TilePlacement[]",
          "name": "placements",
          "type": "tuple[]"
        },
        {
          "indexed": false,
          "internalType": "uint256",
          "name": "score",
          "type": "uint256"
        }
      ],
      "name": "TurnPlaced",
      "type": "event"
    },
    {
      "inputs": [],
      "name": "HAND_SIZE",
      "outputs": [
        {
          "internalType": "uint8",
          "name": "",
          "type": "uint8"
        }
      ],
      "stateMutability": "view",
      "type": "function"
    },
    {
      "inputs": [],
      "name": "MOVE_TIMEOUT",
      "outputs": [
        {
          "internalType": "uint256",
          "name": "",
          "type": "uint256"
        }
      ],
      "stateMutability": "view",
      "type": "function"
    },
    {
      "inputs": [
        {
          "internalType": "uint256",
          "name": "",
          "type": "uint256"
        }
      ],
      "name": "TILE_DISTRIBUTION",
      "outputs": [
        {
          "internalType": "uint8",
          "name": "",
          "type": "uint8"
        }
      ],
      "stateMutability": "view",
      "type": "function"
    },
    {
      "inputs": [],
      "name": "WINNING_SCORE",
      "outputs": [
        {
          "internalType": "uint256",
          "name": "",
          "type": "uint256"
        }
      ],
      "stateMutability": "view",
      "type": "function"
    },
    {
      "inputs": [
        {
          "internalType": "uint256",
          "name": "gameId",
          "type": "uint256"
        }
      ],
      "name": "cancelGame",
      "outputs": [],
      "stateMutability": "nonpayable",
      "type": "function"
    },
    {
      "inputs": [
        {
          "internalType": "uint8",
          "name": "maxPlayers",
          "type": "uint8"
        },
        {
          "internalType": "bool",
          "name": "allowIslands",
          "type": "bool"
        },
        {
          "internalType": "uint256",
          "name": "winningScore",
          "type": "uint256"
        },
        {
          "internalType": "string",
          "name": "playerName",
          "type": "string"
        }
      ],
      "name": "createGame",
      "outputs": [
        {
          "internalType": "uint256",
          "name": "",
          "type": "uint256"
        }
      ],
      "stateMutability": "nonpayable",
      "type": "function"
    },
    {
      "inputs": [
        {
          "internalType": "uint256",
          "name": "",
          "type": "uint256"
        }
      ],
      "name": "games",
      "outputs": [
        {
          "internalType": "uint256",
          "name": "gameId",
          "type": "uint256"
        },
        {
          "internalType": "enum FivesGame.GameState",
          "name": "state",
          "type": "uint8"
        },
        {
          "internalType": "address",
          "name": "creator",
          "type": "address"
        },
        {
          "internalType": "uint8",
          "name": "maxPlayers",
          "type": "uint8"
        },
        {
          "internalType": "uint8",
          "name": "currentPlayerIndex",
          "type": "uint8"
        },
        {
          "internalType": "uint256",
          "name": "turnNumber",
          "type": "uint256"
        },
        {
          "internalType": "uint256",
          "name": "createdAt",
          "type": "uint256"
        },
        {
          "internalType": "uint256",
          "name": "lastMoveAt",
          "type": "uint256"
        },
        {
          "internalType": "bool",
          "name": "allowIslands",
          "type": "bool"
        },
        {
          "internalType": "uint256",
          "name": "winningScore",
          "type": "uint256"
        },
        {
          "internalType": "uint256",
          "name": "poolSeed",
          "type": "uint256"
        }
      ],
      "stateMutability": "view",
      "type": "function"
    },
    {
      "inputs": [
        {
          "internalType": "uint256",
          "name": "gameId",
          "type": "uint256"
        }
      ],
      "name": "getGame",
      "outputs": [
        {
          "internalType": "enum FivesGame.GameState",
          "name": "state",
          "type": "uint8"
        },
        {
          "internalType": "address",
          "name": "creator",
          "type": "address"
        },
        {
          "internalType": "uint8",
          "name": "maxPlayers",
          "type": "uint8"
        },
        {
          "internalType": "uint8",
          "name": "currentPlayerIndex",
          "type": "uint8"
        },
        {
          "internalType": "uint256",
          "name": "turnNumber",
          "type": "uint256"
        },
        {
          "internalType": "uint256",
          "name": "createdAt",
          "type": "uint256"
        },
        {
          "internalType": "bool",
          "name": "allowIslands",
          "type": "bool"
        },
        {
          "internalType": "address[]",
          "name": "playerAddresses",
          "type": "address[]"
        },
        {
          "internalType": "uint256[]",
          "name": "playerScores",
          "type": "uint256[]"
        },
        {
          "internalType": "uint256",
          "name": "tilesRemaining",
          "type": "uint256"
        },
        {
          "internalType": "uint256",
          "name": "winningScore",
          "type": "uint256"
        }
      ],
      "stateMutability": "view",
      "type": "function"
    },
    {
      "inputs": [
        {
          "internalType": "uint256",
          "name": "gameId",
          "type": "uint256"
        },
        {
          "internalType": "address",
          "name": "playerAddr",
          "type": "address"
        }
      ],
      "name": "getPlayer",
      "outputs": [
        {
          "internalType": "string",
          "name": "name",
          "type": "string"
        },
        {
          "internalType": "uint256",
          "name": "score",
          "type": "uint256"
        },
        {
          "internalType": "uint8[]",
          "name": "hand",
          "type": "uint8[]"
        },
        {
          "internalType": "bool",
          "name": "hasJoined",
          "type": "bool"
        },
        {
          "internalType": "uint256",
          "name": "lastMoveTime",
          "type": "uint256"
        }
      ],
      "stateMutability": "view",
      "type": "function"
    },
    {
      "inputs": [
        {
          "internalType": "address",
          "name": "player",
          "type": "address"
        }
      ],
      "name": "getPlayerGames",
      "outputs": [
        {
          "internalType": "uint256[]",
          "name": "",
          "type": "uint256[]"
        }
      ],
      "stateMutability": "view",
      "type": "function"
    },
    {
      "inputs": [
        {
          "internalType": "uint256",
          "name": "gameId",
          "type": "uint256"
        },
        {
          "internalType": "int16",
          "name": "x",
          "type": "int16"
        },
        {
          "internalType": "int16",
          "name": "y",
          "type": "int16"
        }
      ],
      "name": "getTileAt",
      "outputs": [
        {
          "internalType": "bool",
          "name": "exists",
          "type": "bool"
        },
        {
          "internalType": "uint8",
          "name": "number",
          "type": "uint8"
        },
        {
          "internalType": "uint256",
          "name": "turnPlaced",
          "type": "uint256"
        }
      ],
      "stateMutability": "view",
      "type": "function"
    },
    {
      "inputs": [
        {
          "internalType": "uint256",
          "name": "gameId",
          "type": "uint256"
        }
      ],
      "name": "getTilePoolStatus",
      "outputs": [
        {
          "internalType": "uint8[10]",
          "name": "remainingCounts",
          "type": "uint8[10]"
        }
      ],
      "stateMutability": "view",
      "type": "function"
    },
    {
      "inputs": [
        {
          "internalType": "uint256",
          "name": "gameId",
          "type": "uint256"
        },
        {
          "internalType": "string",
          "name": "playerName",
          "type": "string"
        }
      ],
      "name": "joinGame",
      "outputs": [],
      "stateMutability": "nonpayable",
      "type": "function"
    },
    {
      "inputs": [],
      "name": "nextGameId",
      "outputs": [
        {
          "internalType": "uint256",
          "name": "",
          "type": "uint256"
        }
      ],
      "stateMutability": "view",
      "type": "function"
    },
    {
      "inputs": [
        {
          "internalType": "uint256",
          "name": "gameId",
          "type": "uint256"
        },
        {
          "components": [
            {
              "internalType": "uint8",
              "name": "number",
              "type": "uint8"
            },
            {
              "internalType": "int16",
              "name": "x",
              "type": "int16"
            },
            {
              "internalType": "int16",
              "name": "y",
              "type": "int16"
            }
          ],
          "internalType": "struct FivesGame.TilePlacement[]",
          "name": "placements",
          "type": "tuple[]"
        }
      ],
      "name": "playTurn",
      "outputs": [],
      "stateMutability": "nonpayable",
      "type": "function"
    },
    {
      "inputs": [
        {
          "internalType": "address",
          "name": "",
          "type": "address"
        },
        {
          "internalType": "uint256",
          "name": "",
          "type": "uint256"
        }
      ],
      "name": "playerGames",
      "outputs": [
        {
          "internalType": "uint256",
          "name": "",
          "type": "uint256"
        }
      ],
      "stateMutability": "view",
      "type": "function"
    },
    {
      "inputs": [
        {
          "internalType": "uint256",
          "name": "gameId",
          "type": "uint256"
        }
      ],
      "name": "skipTurn",
      "outputs": [],
      "stateMutability": "nonpayable",
      "type": "function"
    },
    {
      "inputs": [
        {
          "internalType": "uint256",
          "name": "gameId",
          "type": "uint256"
        }
      ],
      "name": "startGame",
      "outputs": [],
      "stateMutability": "nonpayable",
      "type": "function"
    }
  ],
  "bytecode": "0x6101c06040526005608081815260a082905260c082905260e08290526101008290526101208290526101408290526101608290526101808290526101a0919091526200005090600090600a6200006a565b5060016003553480156200006357600080fd5b506200011b565b600183019183908215620000f25791602002820160005b83821115620000c157835183826101000a81548160ff021916908360ff160217905550926020019260010160208160000104928301926001030262000081565b8015620000f05782816101000a81549060ff0219169055600101602081600001049283019260010302620000c1565b505b506200010092915062000104565b5090565b5b8082111562000100576000815560010162000105565b613ee5806200012b6000396000f3fe608060405234801561001057600080fd5b50600436106101165760003560e01c806376d4293c116100a2578063ce371cbd11610071578063ce371cbd146102f3578063d4698e5b14610306578063e3087fec1461032b578063e5ed1d5914610333578063e6ba69d81461034657600080fd5b806376d4293c1461027b5780638b38795d146102ad578063a2f77bcc146102c0578063b135bbb0146102ea57600080fd5b8063249123d3116100e9578063249123d3146102075780636454e58d1461022757806368880a261461024b57806369958ab91461025e5780636a07dc121461027157600080fd5b8063084ba9b81461011b5780630a5694c214610130578063117a5b9014610156578063129daf84146101e7575b600080fd5b61012e61012936600461355e565b61034e565b005b61014361013e36600461366a565b61091f565b6040519081526020015b60405180910390f35b6101d0610164366004613694565b600160208190526000918252604090912080549181015460028201546003830154600484015460058501546006860154600c9096015460ff808716976001600160a01b0361010089041697600160a81b8104831697600160b01b9091048316969095909490939216918b565b60405161014d9b9a999897969594939291906136e5565b6101fa6101f536600461374c565b610950565b60405161014d91906137a2565b61021a610215366004613694565b6109bc565b60405161014d91906137b5565b61023a6102353660046137ea565b610a85565b60405161014d95949392919061385c565b61012e610259366004613935565b610c15565b61012e61026c366004613694565b610e06565b6101436201518081565b61028e61028936600461397c565b610f1d565b60408051931515845260ff90921660208401529082015260600161014d565b6101436102bb3660046139b8565b610fbe565b6102d36102ce366004613694565b6111d2565b60405161014d9b9a99989796959493929190613a27565b61014360035481565b61012e610301366004613694565b6113c8565b610319610314366004613694565b61156a565b60405160ff909116815260200161014d565b610143606481565b61012e610341366004613694565b611594565b610319600581565b81600081118015610360575060035481105b6103855760405162461bcd60e51b815260040161037c90613ae1565b60405180910390fd5b826001806000838152600160208190526040909120015460ff1660038111156103b0576103b06136ad565b146103cd5760405162461bcd60e51b815260040161037c90613b0e565b6000858152600160209081526040808320338452600701909152902060040154859060ff166104335760405162461bcd60e51b8152602060048201526012602482015271506c61796572206e6f7420696e2067616d6560701b604482015260640161037c565b600086815260016020819052604090912090810154600882018054899392339291600160b01b90910460ff1690811061046e5761046e613b45565b6000918252602090912001546001600160a01b0316146104c05760405162461bcd60e51b815260206004820152600d60248201526c2737ba103cb7bab9103a3ab93760991b604482015260640161037c565b60008751116105115760405162461bcd60e51b815260206004820152601c60248201527f4d75737420706c616365206174206c65617374206f6e652074696c6500000000604482015260640161037c565b600a875111156105635760405162461bcd60e51b815260206004820152601a60248201527f546f6f206d616e792074696c657320696e206f6e65207475726e000000000000604482015260640161037c565b600088815260016020908152604080832033845260078101909252822090915b8951811015610671576105b3828b83815181106105a2576105a2613b45565b6020026020010151600001516116e0565b6105f65760405162461bcd60e51b8152602060048201526014602482015273446f6e2774206861766520746869732074696c6560601b604482015260640161037c565b61061a8b8b838151811061060c5761060c613b45565b60200260200101518c611756565b61065f5760405162461bcd60e51b8152602060048201526016602482015275125b9d985b1a59081d1a5b19481c1b1858d95b595b9d60521b604482015260640161037c565b8061066981613b71565b915050610583565b5060005b89518110156108205760008a828151811061069257610692613b45565b602002602001015190506000816020015182604001516040516020016106c892919060f092831b8152911b600282015260040190565b6040516020818303038152906040528051906020012090506040518060a00160405280836000015160ff168152602001836020015160010b8152602001836040015160010b8152602001600115158152602001866002015481525085600901600083815260200190815260200160002060008201518160000160006101000a81548160ff021916908360ff16021790555060208201518160000160016101000a81548161ffff021916908360010b61ffff16021790555060408201518160000160036101000a81548161ffff021916908360010b61ffff16021790555060608201518160000160056101000a81548160ff0219169083151502179055506080820151816001015590505084600a0181908060018154018082558091505060019003906000526020600020016000909190919091505561080b848360000151611a1b565b5050808061081890613b71565b915050610675565b50600061082d8b8b611b42565b9050808260020160008282546108439190613b8a565b909155505042600583015560405133908c907f2f138c198af21768b3e95851fcf98d667c620ea08ba24c8afcead9165293c39d90610884908e908690613b9d565b60405180910390a36108968b33611c8d565b600382015415806108af57508260060154826002015410155b156109085760018301805460ff1916600290811790915582015460405190815233908c907ff6ae188cc6336ef5ad970d3c81cda5814b4c4902540924c6924debe94ece13eb9060200160405180910390a3505050610915565b6109118b611e1e565b5050505b5050505050505050565b6002602052816000526040600020818154811061093b57600080fd5b90600052602060002001600091509150505481565b6001600160a01b0381166000908152600260209081526040918290208054835181840281018401909452808452606093928301828280156109b057602002820191906000526020600020905b81548152602001906001019080831161099c575b50505050509050919050565b6109c46133cd565b816000811180156109d6575060035481105b6109f25760405162461bcd60e51b815260040161037c90613ae1565b6000838152600160205260408120905b600b820154811015610a7c578382600b018281548110610a2457610a24613b45565b60009182526020918290209181049091015460ff601f9092166101000a900416600a8110610a5457610a54613b45565b60200201805190610a6482613c06565b60ff1690525080610a7481613b71565b915050610a02565b50505b50919050565b60606000606060008086600081118015610aa0575060035481105b610abc5760405162461bcd60e51b815260040161037c90613ae1565b60008881526001602081815260408084206001600160a01b038c168552600701909152909120600281015460048201546005830154938301805493949093600386019260ff1691908590610b0f90613c25565b80601f0160208091040260200160405190810160405280929190818152602001828054610b3b90613c25565b8015610b885780601f10610b5d57610100808354040283529160200191610b88565b820191906000526020600020905b815481529060010190602001808311610b6b57829003601f168201915b5050505050945082805480602002602001604051908101604052809291908181526020018280548015610bf857602002820191906000526020600020906000905b825461010083900a900460ff16815260206001928301818104948501949093039092029101808411610bc95790505b505050505092509650965096509650965050509295509295909350565b81600081118015610c27575060035481105b610c435760405162461bcd60e51b815260040161037c90613ae1565b826000806000838152600160208190526040909120015460ff166003811115610c6e57610c6e6136ad565b14610c8b5760405162461bcd60e51b815260040161037c90613b0e565b6000858152600160209081526040808320338452600781019092529091206004015460ff1615610cf45760405162461bcd60e51b8152602060048201526014602482015273416c726561647920696e20746869732067616d6560601b604482015260640161037c565b60018101546008820154600160a81b90910460ff1611610d455760405162461bcd60e51b815260206004820152600c60248201526b11d85b59481a5cc8199d5b1b60a21b604482015260640161037c565b6000855111610d8d5760405162461bcd60e51b8152602060048201526014602482015273141b185e595c881b985b59481c995c5d5a5c995960621b604482015260640161037c565b610d98863387611f29565b336001600160a01b0316867fa259bab503f65f6ae62d4f6a412b41b967799a284f69f21ba61362cf04e5eafa87604051610dd29190613c59565b60405180910390a360018101546008820154600160a81b90910460ff169003610dfe57610dfe86612052565b505050505050565b80600081118015610e18575060035481105b610e345760405162461bcd60e51b815260040161037c90613ae1565b600082815260016020819052604082209081015490919061010090046001600160a01b0316331480610e9957506000600183015460ff166003811115610e7c57610e7c6136ad565b148015610e9957506003820154610e969062015180613b8a565b42115b905080610edd5760405162461bcd60e51b815260206004820152601260248201527143616e6e6f742063616e63656c2067616d6560701b604482015260640161037c565b60018201805460ff1916600317905560405184907f681705fdbd93dba3b679fd712577e9a86d57c5551c520f8c74857deb57f9623f90600090a250505050565b600080600085600081118015610f34575060035481105b610f505760405162461bcd60e51b815260040161037c90613ae1565b60405160f087811b602083015286901b602282015260009060240160408051601f19818403018152918152815160209283012060009a8b526001808452828c20918c526009909101909252909820805498015460ff600160281b8a0481169a99169890975095505050505050565b600060028560ff1610158015610fd8575060048560ff1611155b61101b5760405162461bcd60e51b8152602060048201526014602482015273125b9d985b1a59081c1b185e595c8818dbdd5b9d60621b604482015260640161037c565b6032831015801561102e57506101f48311155b6110725760405162461bcd60e51b8152602060048201526015602482015274496e76616c69642077696e6e696e672073636f726560581b604482015260640161037c565b60008251116110ba5760405162461bcd60e51b8152602060048201526014602482015273141b185e595c881b985b59481c995c5d5a5c995960621b604482015260640161037c565b60038054600091826110cb83613b71565b9091555060008181526001602081815260409283902084815580830180546001600160b01b031916336101000260ff60a81b191617600160a81b60ff8e16021760ff60b01b19169055600281019290925542600383018190556004830181905560058301805460ff19168b151517905560068301899055835180830191909152448185015260608082018690528451808303909101815260809091019093528251920191909120600c820155909150611183826120fa565b61118e823386611f29565b60405160ff88168152339083907fdd0abcdffc76581d11646898ee4d7f269ca1e0c0b622d072d343100dad83ecb19060200160405180910390a35095945050505050565b60008060008060008060006060806000808b6000811180156111f5575060035481105b6112115760405162461bcd60e51b815260040161037c90613ae1565b60008d8152600160205260408120600881015490919067ffffffffffffffff81111561123f5761123f6134c6565b604051908082528060200260200182016040528015611268578160200160208202803683370190505b50905060005b60088301548110156112ee5782600701600084600801838154811061129557611295613b45565b60009182526020808320909101546001600160a01b0316835282019290925260400190206002015482518390839081106112d1576112d1613b45565b6020908102919091010152806112e681613b71565b91505061126e565b506001820154600283015460038401546005850154600b86015460068701546008880180546040805160208084028201810190925282815260ff808b169a6001600160a01b036101008204169a600160a81b820483169a600160b01b90920483169990989197921695948d9491939186919083018282801561139957602002820191906000526020600020905b81546001600160a01b0316815260019091019060200180831161137b575b505050505093509d509d509d509d509d509d509d509d509d509d509d5050505091939597999b90929496989a50565b806000811180156113da575060035481105b6113f65760405162461bcd60e51b815260040161037c90613ae1565b816001806000838152600160208190526040909120015460ff166003811115611421576114216136ad565b1461143e5760405162461bcd60e51b815260040161037c90613b0e565b6000848152600160209081526040808320338452600701909152902060040154849060ff166114a45760405162461bcd60e51b8152602060048201526012602482015271506c61796572206e6f7420696e2067616d6560701b604482015260640161037c565b600085815260016020819052604090912090810154600882018054889392339291600160b01b90910460ff169081106114df576114df613b45565b6000918252602090912001546001600160a01b0316146115315760405162461bcd60e51b815260206004820152600d60248201526c2737ba103cb7bab9103a3ab93760991b604482015260640161037c565b60008781526001602090815260408083203380855260078201909352922042600590910155611561908990611c8d565b61091588611e1e565b600081600a811061157a57600080fd5b60209182820401919006915054906101000a900460ff1681565b806000811180156115a6575060035481105b6115c25760405162461bcd60e51b815260040161037c90613ae1565b816000806000838152600160208190526040909120015460ff1660038111156115ed576115ed6136ad565b1461160a5760405162461bcd60e51b815260040161037c90613b0e565b60008481526001602081905260409091209081015461010090046001600160a01b0316331461167b5760405162461bcd60e51b815260206004820152601b60248201527f4f6e6c792063726561746f722063616e2073746172742067616d650000000000604482015260640161037c565b6008810154600211156116d05760405162461bcd60e51b815260206004820152601760248201527f4e656564206174206c65617374203220706c6179657273000000000000000000604482015260640161037c565b6116d985612052565b5050505050565b6000805b600384015481101561174a578260ff1684600301828154811061170957611709613b45565b60009182526020918290209181049091015460ff601f9092166101000a90041603611738576001915050611750565b8061174281613b71565b9150506116e4565b50600090505b92915050565b600083815260016020908152604080832085830151868301519251919385936117909390910160f092831b8152911b600282015260040190565b60408051808303601f190181529181528151602092830120600081815260098601909352912054909150600160281b900460ff16156117d457600092505050611a14565b6000805b855181101561186257866020015160010b8682815181106117fb576117fb613b45565b60200260200101516020015160010b14801561183d5750866040015160010b86828151811061182c5761182c613b45565b60200260200101516040015160010b145b15611850578161184c81613c06565b9250505b8061185a81613b71565b9150506117d8565b5060018160ff16111561187b5760009350505050611a14565b600a8301546000036119a8576000805b865181101561197f57600060078883815181106118aa576118aa613b45565b6020026020010151602001516118c09190613c6c565b9050600060078984815181106118d8576118d8613b45565b6020026020010151604001516118ee9190613c6c565b90508160010b600014801561190657508060010b6000145b8061193057508160010b600014801561193057508060010b6001148061193057508060010b600019145b8061195a57508060010b600014801561195a57508160010b6001148061195a57508160010b600019145b1561196a5760019350505061197f565b5050808061197790613b71565b91505061188b565b5080611992576000945050505050611a14565b61199d878786612208565b945050505050611a14565b600583015460ff166119d65760006119c08887612353565b9050806119d4576000945050505050611a14565b505b6119e1868685612208565b6119f15760009350505050611a14565b6119fc8787876123de565b611a0c5760009350505050611a14565b600193505050505b9392505050565b60005b6003830154811015611b3d578160ff16836003018281548110611a4357611a43613b45565b60009182526020918290209181049091015460ff601f9092166101000a90041603611b2b57600383018054611a7a90600190613c8f565b81548110611a8a57611a8a613b45565b90600052602060002090602091828204019190069054906101000a900460ff16836003018281548110611abf57611abf613b45565b90600052602060002090602091828204019190066101000a81548160ff021916908360ff16021790555082600301805480611afc57611afc613ca2565b60019003818190600052602060002090602091828204019190066101000a81549060ff02191690559055505050565b80611b3581613b71565b915050611a1e565b505050565b600080611b4d6133ec565b611b556133ec565b60005b8551811015611c82576000868281518110611b7557611b75613b45565b6020026020010151905083816040015161ffff16600f8110611b9957611b99613b45565b6020020151611bf7576000611bba898360200151846040015160018c612459565b90508015611bf557611bcc8187613b8a565b9550600185836040015161ffff16600f8110611bea57611bea613b45565b911515602090920201525b505b82816020015161ffff16600f8110611c1157611c11613b45565b6020020151611c6f576000611c32898360200151846040015160008c612459565b90508015611c6d57611c448187613b8a565b9550600184836020015161ffff16600f8110611c6257611c62613b45565b911515602090920201525b505b5080611c7a81613b71565b915050611b58565b509195945050505050565b60008281526001602090815260408083206001600160a01b038516845260078101909252822060038101549192909160051115611cd7576003820154611cd4906005613cb8565b90505b60005b8160ff168160ff16108015611cf25750600b84015415155b15611dca57600b8401805460009190611d0d90600190613c8f565b81548110611d1d57611d1d613b45565b90600052602060002090602091828204019190069054906101000a900460ff16905084600b01805480611d5257611d52613ca2565b60008281526020808220600019909301818104909301805460ff601f80871661010090810a830219909316909355949095556003890180546001810182559084529282902091830490910180548685169390921690940a918202919092021990911617905581611dc181613c06565b92505050611cda565b60ff811615610dfe5760405160ff821681526001600160a01b0386169087907f61122678b83552d47f9ad2905cf1399b15d78b009910fc68c8782f2696b115569060200160405180910390a3505050505050565b600081815260016020819052604090912060088101548183015491929091611e5191600160b01b90910460ff1690613cd1565b611e5b9190613d00565b60018201805460ff60b01b1916600160b01b60ff93841681029190911791829055900416600003611e9e57600281018054906000611e9883613b71565b91905055505b42600482015560018101546008820180549091600160b01b900460ff16908110611eca57611eca613b45565b600091825260209182902001546001830154604051600160b01b90910460ff1681526001600160a01b039091169184917fd48662f539b10425cf4a565afdaac42d9593d8216a745cefb2429c7ef043e77b910160405180910390a35050565b6000838152600160208181526040808420815160c0810183526001600160a01b03888116808352828601898152838601899052855189815280880187526060850152608084018890524260a08501529088526007840190955292909520855181546001600160a01b03191693169290921782559151919392909190820190611fb19082613d68565b506040820151600282015560608201518051611fd791600384019160209091019061340b565b50608082015160048201805460ff191691151591909117905560a0909101516005909101556008018054600181810183556000928352602080842090920180546001600160a01b0319166001600160a01b03969096169586179055938252600281526040822080549485018155825290209091019190915550565b60008181526001602081905260408220808201805460ff1916909217909155426004820155905b60088201548110156120ca576120b88383600801838154811061209e5761209e613b45565b6000918252602090912001546001600160a01b0316611c8d565b806120c281613b71565b915050612079565b5060405182907f50ad08f58a27f2851d7e3a1b3a6a46b290f2ce677e99642d30ff639721e7779090600090a25050565b6000818152600160205260409081902081516032808252610660820190935290918160200160208202803683375050815161213e92600b850192506020019061340b565b506000805b60098160ff16116121fe5760005b60008260ff16600a811061216757612167613b45565b602081049091015460ff601f9092166101000a9004811690821610156121eb578184600b018460ff16815481106121a0576121a0613b45565b90600052602060002090602091828204019190066101000a81548160ff021916908360ff16021790555082806121d590613c06565b93505080806121e390613c06565b915050612151565b50806121f681613c06565b915050612143565b50611b3d836128d8565b6000600183511161221b57506001611a14565b600180805b85518110156122d5578560008151811061223c5761223c613b45565b60200260200101516040015160010b86828151811061225d5761225d613b45565b60200260200101516040015160010b1461227657600092505b8560008151811061228957612289613b45565b60200260200101516020015160010b8682815181106122aa576122aa613b45565b60200260200101516020015160010b146122c357600091505b806122cd81613b71565b915050612220565b50811580156122e2575080155b156122f257600092505050611a14565b811561232a576123218560008151811061230e5761230e613b45565b6020026020010151604001518686612a7a565b92505050611a14565b6123218560008151811061234057612340613b45565b6020026020010151602001518686612d67565b6000828152600160205260408120815b83518110156123d3576123b18585838151811061238257612382613b45565b6020026020010151602001518684815181106123a0576123a0613b45565b602002602001015160400151613048565b156123c157600192505050611750565b806123cb81613b71565b915050612363565b506000949350505050565b600080600160008681526020019081526020016000209050600061240e8686602001518760400151876001613168565b905060058160ff16111561242757600092505050611a14565b600061243f8787602001518860400151886000613168565b905060058160ff161115611a0c5760009350505050611a14565b6000858152600160205260408120818085156125185750869050805b60008260010b1380156124b3575061249889612492600185613c6c565b896132f2565b806124b357506124b3856124ad600185613c6c565b8961334b565b156124ca57816124c281613e28565b925050612475565b600e8160010b1280156124fc57506124e789612492836001613e4a565b806124fc57506124fc856124ad836001613e4a565b15612513578061250b81613e6d565b9150506124ca565b6125be565b50859050805b60008260010b13801561255c5750612541898961253c600186613c6c565b6132f2565b8061255c575061255c8589612557600186613c6c565b61334b565b15612573578161256b81613e28565b92505061251e565b600e8160010b1280156125a75750612591898961253c846001613e4a565b806125a757506125a78589612557846001613e4a565b156125be57806125b681613e6d565b915050612573565b60006125ca8383613c6c565b6125d5906001613e4a565b90506000808260010b136125ea5760006125ec565b815b905060028160ff161015612608576000955050505050506128cf565b600080855b8560010b8160010b13612883576000808c1561273f5760005b8c518110156126c7578360010b8d828151811061264557612645613b45565b60200260200101516020015160010b14801561268357508e60010b8d828151811061267257612672613b45565b60200260200101516040015160010b145b156126b5578c818151811061269a5761269a613b45565b602002602001015160000151925060019150600195506126c7565b806126bf81613b71565b915050612626565b508061273a5760405160f084811b60208301528f901b602282015260009060240160408051808303601f190181529181528151602092830120600081815260098f01909352912054909150600160281b900460ff161561273857600081815260098c01602052604090205460ff1692505b505b61285f565b60005b8c518110156127e3578f60010b8d828151811061276157612761613b45565b60200260200101516020015160010b14801561279f57508360010b8d828151811061278e5761278e613b45565b60200260200101516040015160010b145b156127d1578c81815181106127b6576127b6613b45565b602002602001015160000151925060019150600195506127e3565b806127db81613b71565b915050612742565b508061285f5760008f8460405160200161280d92919060f092831b8152911b600282015260040190565b60408051808303601f190181529181528151602092830120600081815260098f01909352912054909150600160281b900460ff161561285d57600081815260098c01602052604090205460ff1692505b505b61286c60ff831685613b8a565b93505050808061287b90613e6d565b91505061260d565b508180156128995750612897600582613e84565b155b80156128a55750600081115b156128c3576128b581600a613e98565b9750505050505050506128cf565b60009750505050505050505b95945050505050565b6000818152600160205260408120600b81015490915b600a8160ff161015612a7457600c8301805460408051602080820193909352428183015260f885901b6001600160f81b031916606082015281516041818303018152606190910190915280519101209081905560009061294f908490613e84565b9050600083600886600c0154901c6129679190613e84565b9050808214612a5f57600085600b01838154811061298757612987613b45565b90600052602060002090602091828204019190069054906101000a900460ff16905085600b0182815481106129be576129be613b45565b90600052602060002090602091828204019190069054906101000a900460ff1686600b0184815481106129f3576129f3613b45565b90600052602060002090602091828204019190066101000a81548160ff021916908360ff1602179055508086600b018381548110612a3357612a33613b45565b90600052602060002090602091828204019190066101000a81548160ff021916908360ff160217905550505b50508080612a6c90613c06565b9150506128ee565b50505050565b600080835167ffffffffffffffff811115612a9757612a976134c6565b604051908082528060200260200182016040528015612ac0578160200160208202803683370190505b50905060005b8451811015612b2657848181518110612ae157612ae1613b45565b602002602001015160200151828281518110612aff57612aff613b45565b602002602001019060010b908160010b815250508080612b1e90613b71565b915050612ac6565b5060005b60018251612b389190613c8f565b811015612c6c5760005b6001828451612b519190613c8f565b612b5b9190613c8f565b811015612c595782612b6e826001613b8a565b81518110612b7e57612b7e613b45565b602002602001015160010b838281518110612b9b57612b9b613b45565b602002602001015160010b1315612c47576000838281518110612bc057612bc0613b45565b6020026020010151905083826001612bd89190613b8a565b81518110612be857612be8613b45565b6020026020010151848381518110612c0257612c02613b45565b600192830b602091820292909201015281908590612c21908590613b8a565b81518110612c3157612c31613b45565b602002602001019060010b908160010b81525050505b80612c5181613b71565b915050612b42565b5080612c6481613b71565b915050612b2a565b5060015b8151811015612d5b57600082612c87600184613c8f565b81518110612c9757612c97613b45565b60200260200101516001612cab9190613e4a565b90505b828281518110612cc057612cc0613b45565b602002602001015160010b8160010b1215612d485760405160f082811b602083015288901b602282015260009060240160408051808303601f190181529181528151602092830120600081815260098a01909352912054909150600160281b900460ff16612d35576000945050505050611a14565b5080612d4081613e6d565b915050612cae565b5080612d5381613b71565b915050612c70565b50600195945050505050565b600080835167ffffffffffffffff811115612d8457612d846134c6565b604051908082528060200260200182016040528015612dad578160200160208202803683370190505b50905060005b8451811015612e1357848181518110612dce57612dce613b45565b602002602001015160400151828281518110612dec57612dec613b45565b602002602001019060010b908160010b815250508080612e0b90613b71565b915050612db3565b5060005b60018251612e259190613c8f565b811015612f595760005b6001828451612e3e9190613c8f565b612e489190613c8f565b811015612f465782612e5b826001613b8a565b81518110612e6b57612e6b613b45565b602002602001015160010b838281518110612e8857612e88613b45565b602002602001015160010b1315612f34576000838281518110612ead57612ead613b45565b6020026020010151905083826001612ec59190613b8a565b81518110612ed557612ed5613b45565b6020026020010151848381518110612eef57612eef613b45565b600192830b602091820292909201015281908590612f0e908590613b8a565b81518110612f1e57612f1e613b45565b602002602001019060010b908160010b81525050505b80612f3e81613b71565b915050612e2f565b5080612f5181613b71565b915050612e17565b5060015b8151811015612d5b57600082612f74600184613c8f565b81518110612f8457612f84613b45565b60200260200101516001612f989190613e4a565b90505b828281518110612fad57612fad613b45565b602002602001015160010b8160010b12156130355760405160f088811b602083015282901b602282015260009060240160408051808303601f190181529181528151602092830120600081815260098a01909352912054909150600160281b900460ff16613022576000945050505050611a14565b508061302d81613e6d565b915050612f9b565b508061304081613b71565b915050612f5d565b60008381526001602081815260408084208151608080820184526000198083528286018790528285018890526060808401899052855192830186528883529582018890529381019390935292820193909352835b600481101561315a5760008382600481106130b9576130b9613b45565b60200201516130c89089613e4a565b8383600481106130da576130da613b45565b60200201516130e99089613e4a565b60405160f092831b6020820152911b602282015260240160408051808303601f190181529181528151602092830120600081815260098901909352912054909150600160281b900460ff161561314757600195505050505050611a14565b508061315281613b71565b91505061309c565b506000979650505050505050565b60008581526001602052604081208180841561321b5750869050805b60008260010b1380156131b657506131a189612492600185613c6c565b806131b657506131b6866124ad600185613c6c565b156131cd57816131c581613e28565b925050613184565b600e8160010b1280156131ff57506131ea89612492836001613e4a565b806131ff57506131ff866124ad836001613e4a565b15613216578061320e81613e6d565b9150506131cd565b6132b7565b50859050805b60008260010b138015613255575061323f898961253c600186613c6c565b8061325557506132558689612557600186613c6c565b1561326c578161326481613e28565b925050613221565b600e8160010b1280156132a0575061328a898961253c846001613e4a565b806132a057506132a08689612557846001613e4a565b156132b757806132af81613e6d565b91505061326c565b60006132c38383613c6c565b6132ce906001613e4a565b905060008160010b136132e25760006132e4565b805b9a9950505050505050505050565b6000928352600160209081526040808520815160f095861b818501529390941b6022840152805180840360040181526024909301815282519282019290922084526009909201909152902054600160281b900460ff1690565b6000805b84518110156123d3578360010b85828151811061336e5761336e613b45565b60200260200101516020015160010b1480156133ac57508260010b85828151811061339b5761339b613b45565b60200260200101516040015160010b145b156133bb576001915050611a14565b806133c581613b71565b91505061334f565b604051806101400160405280600a906020820280368337509192915050565b604051806101e00160405280600f906020820280368337509192915050565b82805482825590600052602060002090601f016020900481019282156134a15791602002820160005b8382111561347257835183826101000a81548160ff021916908360ff1602179055509260200192600101602081600001049283019260010302613434565b801561349f5782816101000a81549060ff0219169055600101602081600001049283019260010302613472565b505b506134ad9291506134b1565b5090565b5b808211156134ad57600081556001016134b2565b634e487b7160e01b600052604160045260246000fd5b6040516060810167ffffffffffffffff811182821017156134ff576134ff6134c6565b60405290565b604051601f8201601f1916810167ffffffffffffffff8111828210171561352e5761352e6134c6565b604052919050565b803560ff8116811461354757600080fd5b919050565b8035600181900b811461354757600080fd5b600080604080848603121561357257600080fd5b8335925060208085013567ffffffffffffffff8082111561359257600080fd5b818701915087601f8301126135a657600080fd5b8135818111156135b8576135b86134c6565b6135c6848260051b01613505565b8181528481019250606091820284018501918a8311156135e557600080fd5b938501935b828510156136425780858c0312156136025760008081fd5b61360a6134dc565b61361386613536565b815261362087870161354c565b8782015261362f88870161354c565b81890152845293840193928501926135ea565b508096505050505050509250929050565b80356001600160a01b038116811461354757600080fd5b6000806040838503121561367d57600080fd5b61368683613653565b946020939093013593505050565b6000602082840312156136a657600080fd5b5035919050565b634e487b7160e01b600052602160045260246000fd5b600481106136e157634e487b7160e01b600052602160045260246000fd5b9052565b8b815261016081016136fa602083018d6136c3565b6001600160a01b039a909a16604082015260ff988916606082015296909716608087015260a086019490945260c085019290925260e08401521515610100830152610120820152610140015292915050565b60006020828403121561375e57600080fd5b611a1482613653565b600081518084526020808501945080840160005b838110156137975781518752958201959082019060010161377b565b509495945050505050565b602081526000611a146020830184613767565b6101408101818360005b600a8110156137e157815160ff168352602092830192909101906001016137bf565b50505092915050565b600080604083850312156137fd57600080fd5b8235915061380d60208401613653565b90509250929050565b6000815180845260005b8181101561383c57602081850181015186830182015201613820565b506000602082860101526020601f19601f83011685010191505092915050565b60a08152600061386f60a0830188613816565b6020838101889052838203604085015286518083528782019282019060005b818110156138ad57845160ff168352938301939183019160010161388e565b50509515156060850152505050608001529392505050565b600082601f8301126138d657600080fd5b813567ffffffffffffffff8111156138f0576138f06134c6565b613903601f8201601f1916602001613505565b81815284602083860101111561391857600080fd5b816020850160208301376000918101602001919091529392505050565b6000806040838503121561394857600080fd5b82359150602083013567ffffffffffffffff81111561396657600080fd5b613972858286016138c5565b9150509250929050565b60008060006060848603121561399157600080fd5b833592506139a16020850161354c565b91506139af6040850161354c565b90509250925092565b600080600080608085870312156139ce57600080fd5b6139d785613536565b9350602085013580151581146139ec57600080fd5b925060408501359150606085013567ffffffffffffffff811115613a0f57600080fd5b613a1b878288016138c5565b91505092959194509250565b60006101608201613a38838f6136c3565b6001600160a01b038d811660208581019190915260ff8e811660408701528d166060860152608085018c905260a085018b905289151560c086015261016060e086015288519283905288019161018085019060005b81811015613aad5784518416835260209485019490920191600101613a8d565b5050848103610100860152613ac28189613767565b6101208601979097525050505061014001529998505050505050505050565b60208082526013908201527211d85b5948191bd95cc81b9bdd08195e1a5cdd606a1b604082015260600190565b6020808252601a908201527f47616d65206e6f7420696e206578706563746564207374617465000000000000604082015260600190565b634e487b7160e01b600052603260045260246000fd5b634e487b7160e01b600052601160045260246000fd5b600060018201613b8357613b83613b5b565b5060010190565b8082018082111561175057611750613b5b565b6040808252835182820181905260009190606090818501906020808901865b83811015613bf2578151805160ff16865283810151600190810b8588015290880151810b88870152948601949183019101613bbc565b505095909501959095525092949350505050565b600060ff821660ff8103613c1c57613c1c613b5b565b60010192915050565b600181811c90821680613c3957607f821691505b602082108103610a7f57634e487b7160e01b600052602260045260246000fd5b602081526000611a146020830184613816565b600182810b9082900b03617fff198112617fff8213171561175057611750613b5b565b8181038181111561175057611750613b5b565b634e487b7160e01b600052603160045260246000fd5b60ff828116828216039081111561175057611750613b5b565b60ff818116838216019081111561175057611750613b5b565b634e487b7160e01b600052601260045260246000fd5b600060ff831680613d1357613d13613cea565b8060ff84160691505092915050565b601f821115611b3d57600081815260208120601f850160051c81016020861015613d495750805b601f850160051c820191505b81811015610dfe57828155600101613d55565b815167ffffffffffffffff811115613d8257613d826134c6565b613d9681613d908454613c25565b84613d22565b602080601f831160018114613dcb5760008415613db35750858301515b600019600386901b1c1916600185901b178555610dfe565b600085815260208120601f198616915b82811015613dfa57888601518255948401946001909101908401613ddb565b5085821015613e185787850151600019600388901b60f8161c191681555b5050505050600190811b01905550565b60008160010b617fff198103613e4057613e40613b5b565b6000190192915050565b600181810b9083900b01617fff8113617fff198212171561175057611750613b5b565b60008160010b617fff8103613c1c57613c1c613b5b565b600082613e9357613e93613cea565b500690565b808202811582820484141761175057611750613b5b56fea264697066735822122012d6ac5cfe67ba91f629fc164306264e6a041559751962e9dbaa129a4a8a645d64736f6c63430008130033",
  "linkReferences": {},
  "deployedLinkReferences": {}
}