{
  "_format": "hh-sol-artifact-1",
  "contractName": "FivesGame",
  "sourceName": "contracts/FivesGame.sol",
  "abi": [
    {
      "inputs": [],
      "stateMutability": "nonpayable",
      "type": "constructor"
    },
    {
      "anonymous": false,
      "inputs": [
        {
          "indexed": true,
          "internalType": "uint256",
          "name": "gameId",
          "type": "uint256"
        },
        {
          "indexed": true,
          "internalType": "address",
          "name": "player",
          "type": "address"
        },
        {
          "indexed": true,
          "internalType": "address",
          "name": "controller",
          "type": "address"
        }
      ],
      "name": "ControllerAddressSet",
      "type": "event"
    },
    {
      "anonymous": false,
      "inputs": [
        {
          "indexed": true,
          "internalType": "uint256",
          "name": "gameId",
          "type": "uint256"
        }
      ],
      "name": "GameCancelled",
      "type": "event"
    },
    {
      "anonymous": false,
      "inputs": [
        {
          "indexed": true,
          "internalType": "uint256",
          "name": "gameId",
          "type": "uint256"
        },
        {
          "indexed": true,
          "internalType": "address",
          "name": "winner",
          "type": "address"
        },
        {
          "indexed": false,
          "internalType": "uint256",
          "name": "score",
          "type": "uint256"
        }
      ],
      "name": "GameCompleted",
      "type": "event"
    },
    {
      "anonymous": false,
      "inputs": [
        {
          "indexed": true,
          "internalType": "uint256",
          "name": "gameId",
          "type": "uint256"
        },
        {
          "indexed": true,
          "internalType": "address",
          "name": "creator",
          "type": "address"
        },
        {
          "indexed": false,
          "internalType": "uint8",
          "name": "maxPlayers",
          "type": "uint8"
        }
      ],
      "name": "GameCreated",
      "type": "event"
    },
    {
      "anonymous": false,
      "inputs": [
        {
          "indexed": true,
          "internalType": "uint256",
          "name": "gameId",
          "type": "uint256"
        }
      ],
      "name": "GameStarted",
      "type": "event"
    },
    {
      "anonymous": false,
      "inputs": [
        {
          "indexed": true,
          "internalType": "address",
          "name": "paymaster",
          "type": "address"
        }
      ],
      "name": "PaymasterAuthorized",
      "type": "event"
    },
    {
      "anonymous": false,
      "inputs": [
        {
          "indexed": true,
          "internalType": "address",
          "name": "paymaster",
          "type": "address"
        }
      ],
      "name": "PaymasterRevoked",
      "type": "event"
    },
    {
      "anonymous": false,
      "inputs": [
        {
          "indexed": true,
          "internalType": "uint256",
          "name": "gameId",
          "type": "uint256"
        },
        {
          "indexed": true,
          "internalType": "address",
          "name": "player",
          "type": "address"
        },
        {
          "indexed": false,
          "internalType": "string",
          "name": "name",
          "type": "string"
        }
      ],
      "name": "PlayerJoined",
      "type": "event"
    },
    {
      "anonymous": false,
      "inputs": [
        {
          "indexed": true,
          "internalType": "uint256",
          "name": "gameId",
          "type": "uint256"
        },
        {
          "indexed": true,
          "internalType": "address",
          "name": "player",
          "type": "address"
        },
        {
          "indexed": false,
          "internalType": "uint8",
          "name": "tilesBurned",
          "type": "uint8"
        }
      ],
      "name": "TilesBurned",
      "type": "event"
    },
    {
      "anonymous": false,
      "inputs": [
        {
          "indexed": true,
          "internalType": "uint256",
          "name": "gameId",
          "type": "uint256"
        },
        {
          "indexed": true,
          "internalType": "address",
          "name": "player",
          "type": "address"
        },
        {
          "indexed": false,
          "internalType": "uint8",
          "name": "tilesDrawn",
          "type": "uint8"
        }
      ],
      "name": "TilesDrawn",
      "type": "event"
    },
    {
      "anonymous": false,
      "inputs": [
        {
          "indexed": true,
          "internalType": "uint256",
          "name": "gameId",
          "type": "uint256"
        },
        {
          "indexed": true,
          "internalType": "address",
          "name": "currentPlayer",
          "type": "address"
        },
        {
          "indexed": false,
          "internalType": "uint8",
          "name": "playerIndex",
          "type": "uint8"
        }
      ],
      "name": "TurnChanged",
      "type": "event"
    },
    {
      "anonymous": false,
      "inputs": [
        {
          "indexed": true,
          "internalType": "uint256",
          "name": "gameId",
          "type": "uint256"
        },
        {
          "indexed": true,
          "internalType": "address",
          "name": "player",
          "type": "address"
        },
        {
          "components": [
            {
              "internalType": "uint8",
              "name": "number",
              "type": "uint8"
            },
            {
              "internalType": "int16",
              "name": "x",
              "type": "int16"
            },
            {
              "internalType": "int16",
              "name": "y",
              "type": "int16"
            }
          ],
          "indexed": false,
          "internalType": "struct FivesGame.TilePlacement[]",
          "name": "placements",
          "type": "tuple[]"
        },
        {
          "indexed": false,
          "internalType": "uint256",
          "name": "score",
          "type": "uint256"
        }
      ],
      "name": "TurnPlaced",
      "type": "event"
    },
    {
      "inputs": [],
      "name": "HAND_SIZE",
      "outputs": [
        {
          "internalType": "uint8",
          "name": "",
          "type": "uint8"
        }
      ],
      "stateMutability": "view",
      "type": "function"
    },
    {
      "inputs": [],
      "name": "MOVE_TIMEOUT",
      "outputs": [
        {
          "internalType": "uint256",
          "name": "",
          "type": "uint256"
        }
      ],
      "stateMutability": "view",
      "type": "function"
    },
    {
      "inputs": [
        {
          "internalType": "uint256",
          "name": "",
          "type": "uint256"
        }
      ],
      "name": "TILE_DISTRIBUTION",
      "outputs": [
        {
          "internalType": "uint8",
          "name": "",
          "type": "uint8"
        }
      ],
      "stateMutability": "view",
      "type": "function"
    },
    {
      "inputs": [],
      "name": "WINNING_SCORE",
      "outputs": [
        {
          "internalType": "uint256",
          "name": "",
          "type": "uint256"
        }
      ],
      "stateMutability": "view",
      "type": "function"
    },
    {
      "inputs": [
        {
          "internalType": "address",
          "name": "paymaster",
          "type": "address"
        }
      ],
      "name": "authorizePaymaster",
      "outputs": [],
      "stateMutability": "nonpayable",
      "type": "function"
    },
    {
      "inputs": [
        {
          "internalType": "address",
          "name": "",
          "type": "address"
        }
      ],
      "name": "authorizedPaymasters",
      "outputs": [
        {
          "internalType": "bool",
          "name": "",
          "type": "bool"
        }
      ],
      "stateMutability": "view",
      "type": "function"
    },
    {
      "inputs": [
        {
          "internalType": "uint256",
          "name": "gameId",
          "type": "uint256"
        }
      ],
      "name": "cancelGame",
      "outputs": [],
      "stateMutability": "nonpayable",
      "type": "function"
    },
    {
      "inputs": [
        {
          "internalType": "uint8",
          "name": "maxPlayers",
          "type": "uint8"
        },
        {
          "internalType": "bool",
          "name": "allowIslands",
          "type": "bool"
        },
        {
          "internalType": "uint256",
          "name": "winningScore",
          "type": "uint256"
        },
        {
          "internalType": "string",
          "name": "playerName",
          "type": "string"
        },
        {
          "internalType": "address",
          "name": "playerAddress",
          "type": "address"
        }
      ],
      "name": "createGame",
      "outputs": [
        {
          "internalType": "uint256",
          "name": "",
          "type": "uint256"
        }
      ],
      "stateMutability": "nonpayable",
      "type": "function"
    },
    {
      "inputs": [
        {
          "internalType": "uint256",
          "name": "",
          "type": "uint256"
        }
      ],
      "name": "games",
      "outputs": [
        {
          "internalType": "uint256",
          "name": "gameId",
          "type": "uint256"
        },
        {
          "internalType": "enum FivesGame.GameState",
          "name": "state",
          "type": "uint8"
        },
        {
          "internalType": "address",
          "name": "creator",
          "type": "address"
        },
        {
          "internalType": "uint8",
          "name": "maxPlayers",
          "type": "uint8"
        },
        {
          "internalType": "uint8",
          "name": "currentPlayerIndex",
          "type": "uint8"
        },
        {
          "internalType": "uint256",
          "name": "turnNumber",
          "type": "uint256"
        },
        {
          "internalType": "uint256",
          "name": "createdAt",
          "type": "uint256"
        },
        {
          "internalType": "uint256",
          "name": "lastMoveAt",
          "type": "uint256"
        },
        {
          "internalType": "bool",
          "name": "allowIslands",
          "type": "bool"
        },
        {
          "internalType": "uint256",
          "name": "winningScore",
          "type": "uint256"
        }
      ],
      "stateMutability": "view",
      "type": "function"
    },
    {
      "inputs": [
        {
          "internalType": "uint256",
          "name": "gameId",
          "type": "uint256"
        },
        {
          "internalType": "address",
          "name": "playerAddr",
          "type": "address"
        }
      ],
      "name": "getControllerAddress",
      "outputs": [
        {
          "internalType": "address",
          "name": "",
          "type": "address"
        }
      ],
      "stateMutability": "view",
      "type": "function"
    },
    {
      "inputs": [
        {
          "internalType": "uint256",
          "name": "gameId",
          "type": "uint256"
        }
      ],
      "name": "getGame",
      "outputs": [
        {
          "internalType": "enum FivesGame.GameState",
          "name": "state",
          "type": "uint8"
        },
        {
          "internalType": "address",
          "name": "creator",
          "type": "address"
        },
        {
          "internalType": "uint8",
          "name": "maxPlayers",
          "type": "uint8"
        },
        {
          "internalType": "uint8",
          "name": "currentPlayerIndex",
          "type": "uint8"
        },
        {
          "internalType": "uint256",
          "name": "turnNumber",
          "type": "uint256"
        },
        {
          "internalType": "uint256",
          "name": "createdAt",
          "type": "uint256"
        },
        {
          "internalType": "bool",
          "name": "allowIslands",
          "type": "bool"
        },
        {
          "internalType": "address[]",
          "name": "playerAddresses",
          "type": "address[]"
        },
        {
          "internalType": "uint256[]",
          "name": "playerScores",
          "type": "uint256[]"
        },
        {
          "internalType": "uint256",
          "name": "tilesRemaining",
          "type": "uint256"
        },
        {
          "internalType": "uint256",
          "name": "winningScore",
          "type": "uint256"
        }
      ],
      "stateMutability": "view",
      "type": "function"
    },
    {
      "inputs": [
        {
          "internalType": "uint256",
          "name": "gameId",
          "type": "uint256"
        }
      ],
      "name": "getPlacedTiles",
      "outputs": [
        {
          "internalType": "int16[]",
          "name": "xPositions",
          "type": "int16[]"
        },
        {
          "internalType": "int16[]",
          "name": "yPositions",
          "type": "int16[]"
        },
        {
          "internalType": "uint8[]",
          "name": "numbers",
          "type": "uint8[]"
        },
        {
          "internalType": "uint256[]",
          "name": "turnNumbers",
          "type": "uint256[]"
        }
      ],
      "stateMutability": "view",
      "type": "function"
    },
    {
      "inputs": [
        {
          "internalType": "uint256",
          "name": "gameId",
          "type": "uint256"
        },
        {
          "internalType": "address",
          "name": "playerAddr",
          "type": "address"
        }
      ],
      "name": "getPlayer",
      "outputs": [
        {
          "internalType": "string",
          "name": "name",
          "type": "string"
        },
        {
          "internalType": "uint256",
          "name": "score",
          "type": "uint256"
        },
        {
          "internalType": "uint8[]",
          "name": "hand",
          "type": "uint8[]"
        },
        {
          "internalType": "bool",
          "name": "hasJoined",
          "type": "bool"
        },
        {
          "internalType": "uint256",
          "name": "lastMoveTime",
          "type": "uint256"
        }
      ],
      "stateMutability": "view",
      "type": "function"
    },
    {
      "inputs": [
        {
          "internalType": "address",
          "name": "player",
          "type": "address"
        }
      ],
      "name": "getPlayerGames",
      "outputs": [
        {
          "internalType": "uint256[]",
          "name": "",
          "type": "uint256[]"
        }
      ],
      "stateMutability": "view",
      "type": "function"
    },
    {
      "inputs": [
        {
          "internalType": "uint256",
          "name": "gameId",
          "type": "uint256"
        },
        {
          "internalType": "address",
          "name": "playerAddr",
          "type": "address"
        }
      ],
      "name": "getPlayerTilePool",
      "outputs": [
        {
          "internalType": "uint8[10]",
          "name": "remainingCounts",
          "type": "uint8[10]"
        }
      ],
      "stateMutability": "view",
      "type": "function"
    },
    {
      "inputs": [
        {
          "internalType": "uint256",
          "name": "gameId",
          "type": "uint256"
        },
        {
          "internalType": "address",
          "name": "playerAddr",
          "type": "address"
        }
      ],
      "name": "getPlayerWithController",
      "outputs": [
        {
          "internalType": "string",
          "name": "name",
          "type": "string"
        },
        {
          "internalType": "uint256",
          "name": "score",
          "type": "uint256"
        },
        {
          "internalType": "uint8[]",
          "name": "hand",
          "type": "uint8[]"
        },
        {
          "internalType": "bool",
          "name": "hasJoined",
          "type": "bool"
        },
        {
          "internalType": "uint256",
          "name": "lastMoveTime",
          "type": "uint256"
        },
        {
          "internalType": "address",
          "name": "controllerAddress",
          "type": "address"
        }
      ],
      "stateMutability": "view",
      "type": "function"
    },
    {
      "inputs": [
        {
          "internalType": "uint256",
          "name": "gameId",
          "type": "uint256"
        },
        {
          "internalType": "int16",
          "name": "x",
          "type": "int16"
        },
        {
          "internalType": "int16",
          "name": "y",
          "type": "int16"
        }
      ],
      "name": "getTileAt",
      "outputs": [
        {
          "internalType": "bool",
          "name": "exists",
          "type": "bool"
        },
        {
          "internalType": "uint8",
          "name": "number",
          "type": "uint8"
        },
        {
          "internalType": "uint256",
          "name": "turnPlaced",
          "type": "uint256"
        }
      ],
      "stateMutability": "view",
      "type": "function"
    },
    {
      "inputs": [
        {
          "internalType": "uint256",
          "name": "gameId",
          "type": "uint256"
        }
      ],
      "name": "getTilePoolStatus",
      "outputs": [
        {
          "internalType": "uint8[10]",
          "name": "remainingCounts",
          "type": "uint8[10]"
        }
      ],
      "stateMutability": "view",
      "type": "function"
    },
    {
      "inputs": [
        {
          "internalType": "address",
          "name": "paymaster",
          "type": "address"
        }
      ],
      "name": "isAuthorizedPaymaster",
      "outputs": [
        {
          "internalType": "bool",
          "name": "",
          "type": "bool"
        }
      ],
      "stateMutability": "view",
      "type": "function"
    },
    {
      "inputs": [
        {
          "internalType": "uint256",
          "name": "gameId",
          "type": "uint256"
        },
        {
          "internalType": "string",
          "name": "playerName",
          "type": "string"
        },
        {
          "internalType": "address",
          "name": "playerAddress",
          "type": "address"
        }
      ],
      "name": "joinGame",
      "outputs": [],
      "stateMutability": "nonpayable",
      "type": "function"
    },
    {
      "inputs": [],
      "name": "nextGameId",
      "outputs": [
        {
          "internalType": "uint256",
          "name": "",
          "type": "uint256"
        }
      ],
      "stateMutability": "view",
      "type": "function"
    },
    {
      "inputs": [],
      "name": "owner",
      "outputs": [
        {
          "internalType": "address",
          "name": "",
          "type": "address"
        }
      ],
      "stateMutability": "view",
      "type": "function"
    },
    {
      "inputs": [
        {
          "internalType": "uint256",
          "name": "gameId",
          "type": "uint256"
        },
        {
          "components": [
            {
              "internalType": "uint8",
              "name": "number",
              "type": "uint8"
            },
            {
              "internalType": "int16",
              "name": "x",
              "type": "int16"
            },
            {
              "internalType": "int16",
              "name": "y",
              "type": "int16"
            }
          ],
          "internalType": "struct FivesGame.TilePlacement[]",
          "name": "placements",
          "type": "tuple[]"
        }
      ],
      "name": "playTurn",
      "outputs": [],
      "stateMutability": "nonpayable",
      "type": "function"
    },
    {
      "inputs": [
        {
          "internalType": "address",
          "name": "",
          "type": "address"
        },
        {
          "internalType": "uint256",
          "name": "",
          "type": "uint256"
        }
      ],
      "name": "playerGames",
      "outputs": [
        {
          "internalType": "uint256",
          "name": "",
          "type": "uint256"
        }
      ],
      "stateMutability": "view",
      "type": "function"
    },
    {
      "inputs": [
        {
          "internalType": "address",
          "name": "paymaster",
          "type": "address"
        }
      ],
      "name": "revokePaymaster",
      "outputs": [],
      "stateMutability": "nonpayable",
      "type": "function"
    },
    {
      "inputs": [
        {
          "internalType": "uint256",
          "name": "gameId",
          "type": "uint256"
        }
      ],
      "name": "skipTurn",
      "outputs": [],
      "stateMutability": "nonpayable",
      "type": "function"
    },
    {
      "inputs": [
        {
          "internalType": "uint256",
          "name": "gameId",
          "type": "uint256"
        }
      ],
      "name": "startGame",
      "outputs": [],
      "stateMutability": "nonpayable",
      "type": "function"
    }
  ],
  "bytecode": "0x6101c06040526005608081815260a082905260c082905260e08290526101008290526101208290526101408290526101608290526101808290526101a0919091526200005090600090600a62000150565b5060016003553480156200006357600080fd5b50600580546001600160a01b0319163317905560046020527f942419b7a1b15747cddf8cbd3c585313c651f23449b81c30341c5c61a23d2fba805460ff199081166001908117909255730576a174d229e3cfa37253523e645a78a0c91b5760009081527fc376be833e850ac707d8ac61ed5b19090a1e682a3d5a2245deb88154522004b880549092169092179055604051735ff137d4b0fdcd49dca30c7cf57e578a026d27899160008051602062004b3383398151915291a2604051730576a174d229e3cfa37253523e645a78a0c91b579060008051602062004b3383398151915290600090a262000201565b600183019183908215620001d85791602002820160005b83821115620001a757835183826101000a81548160ff021916908360ff160217905550926020019260010160208160000104928301926001030262000167565b8015620001d65782816101000a81549060ff0219169055600101602081600001049283019260010302620001a7565b505b50620001e6929150620001ea565b5090565b5b80821115620001e65760008155600101620001eb565b61492280620002116000396000f3fe608060405234801561001057600080fd5b50600436106101a95760003560e01c80636a07dc12116100f9578063ce371cbd11610097578063e3087fec11610071578063e3087fec146104b4578063e5ed1d59146104bd578063e6ba69d8146104d0578063ed570e7d146104d857600080fd5b8063ce371cbd14610469578063d4698e5b1461047c578063dc2d38a5146104a157600080fd5b8063847b6bcd116100d3578063847b6bcd146103e75780638da5cb5b14610423578063a2f77bcc14610436578063b135bbb01461046057600080fd5b80636a07dc121461038657806376d4293c146103905780637c595664146103c257600080fd5b8063395affe6116101665780634aced11e116101405780634aced11e14610329578063641967141461033c5780636454e58d1461034f57806369958ab91461037357600080fd5b8063395affe6146102c85780634370048a146102db57806349a70be61461030657600080fd5b8063084ba9b8146101ae5780630a5694c2146101c3578063117a5b90146101e9578063129daf841461027557806316e07d9014610295578063249123d3146102a8575b600080fd5b6101c16101bc366004613e42565b6104fb565b005b6101d66101d1366004613f4e565b610ad2565b6040519081526020015b60405180910390f35b61025f6101f7366004613f78565b6001602081905260009182526040909120805491810154600282015460038301546004840154600585015460069095015460ff8086169661010087046001600160a01b031696600160a81b8104831696600160b01b909104831695909490939092909116908a565b6040516101e09a99989796959493929190613fc9565b61028861028336600461402a565b610b03565b6040516101e09190614080565b6101d66102a3366004614103565b610b6f565b6102bb6102b6366004613f78565b610e22565b6040516101e09190614183565b6101c16102d636600461402a565b610f3f565b6102ee6102e93660046141af565b610fe2565b6040516001600160a01b0390911681526020016101e0565b610319610314366004613f78565b611043565b6040516101e09493929190614241565b6102bb6103373660046141af565b6112ba565b6101c161034a36600461402a565b61139a565b61036261035d3660046141af565b61144c565b6040516101e09594939291906142df565b6101c1610381366004613f78565b6115e1565b6101d66201518081565b6103a361039e36600461431f565b61172b565b60408051931515845260ff9092166020840152908201526060016101e0565b6103d56103d03660046141af565b6117cc565b6040516101e09695949392919061435b565b6104136103f536600461402a565b6001600160a01b031660009081526004602052604090205460ff1690565b60405190151581526020016101e0565b6005546102ee906001600160a01b031681565b610449610444366004613f78565b61196b565b6040516101e09b9a999897969594939291906143ae565b6101d660035481565b6101c1610477366004613f78565b611bd1565b61048f61048a366004613f78565b611df2565b60405160ff90911681526020016101e0565b6101c16104af366004614468565b611e1c565b6101d66103e881565b6101c16104cb366004613f78565b6120f9565b61048f600581565b6104136104e636600461402a565b60046020526000908152604090205460ff1681565b8160008111801561050d575060035481105b6105325760405162461bcd60e51b8152600401610529906144b6565b60405180910390fd5b826001806000838152600160208190526040909120015460ff16600381111561055d5761055d613f91565b1461057a5760405162461bcd60e51b8152600401610529906144e3565b84610585813361228f565b6105a15760405162461bcd60e51b81526004016105299061451a565b856105ac813361236d565b6105f85760405162461bcd60e51b815260206004820152601f60248201527f4e6f7420796f7572207475726e206f72206e6f7420617574686f72697a6564006044820152606401610529565b60008651116106495760405162461bcd60e51b815260206004820152601c60248201527f4d75737420706c616365206174206c65617374206f6e652074696c65000000006044820152606401610529565b600a8651111561069b5760405162461bcd60e51b815260206004820152601a60248201527f546f6f206d616e792074696c657320696e206f6e65207475726e0000000000006044820152606401610529565b6000878152600160205260408120906106b48933612411565b90506001600160a01b0381166107075760405162461bcd60e51b8152602060048201526018602482015277141b185e595c881859191c995cdcc81b9bdd08199bdd5b9960421b6044820152606401610529565b6001600160a01b03811660009081526007830160205260408120905b895181101561081157610753828b83815181106107425761074261455e565b6020026020010151600001516124df565b6107965760405162461bcd60e51b8152602060048201526014602482015273446f6e2774206861766520746869732074696c6560601b6044820152606401610529565b6107ba8b8b83815181106107ac576107ac61455e565b60200260200101518c612553565b6107ff5760405162461bcd60e51b8152602060048201526016602482015275125b9d985b1a59081d1a5b19481c1b1858d95b595b9d60521b6044820152606401610529565b806108098161458a565b915050610723565b5060005b89518110156109c05760008a82815181106108325761083261455e565b6020026020010151905060008160200151826040015160405160200161086892919060f092831b8152911b600282015260040190565b6040516020818303038152906040528051906020012090506040518060a00160405280836000015160ff168152602001836020015160010b8152602001836040015160010b8152602001600115158152602001876002015481525086600901600083815260200190815260200160002060008201518160000160006101000a81548160ff021916908360ff16021790555060208201518160000160016101000a81548161ffff021916908360010b61ffff16021790555060408201518160000160036101000a81548161ffff021916908360010b61ffff16021790555060608201518160000160056101000a81548160ff0219169083151502179055506080820151816001015590505085600a018190806001815401808255809150506001900390600052602060002001600090919091909150556109ab848360000151612818565b505080806109b89061458a565b915050610815565b5060006109cd8b8b61293f565b9050808260020160008282546109e391906145a3565b90915550504260078301556040516001600160a01b038416908c907f2f138c198af21768b3e95851fcf98d667c620ea08ba24c8afcead9165293c39d90610a2d908e9086906145b6565b60405180910390a3610a3f8b846129e6565b60038201541580610a5857508360060154826002015410155b15610abb5760018401805460ff191660029081179091558201546040519081526001600160a01b038416908c907ff6ae188cc6336ef5ad970d3c81cda5814b4c4902540924c6924debe94ece13eb9060200160405180910390a350505050610ac9565b610ac48b612b77565b505050505b50505050505050565b60026020528160005260406000208181548110610aee57600080fd5b90600052602060002001600091509150505481565b6001600160a01b038116600090815260026020908152604091829020805483518184028101840190945280845260609392830182828015610b6357602002820191906000526020600020905b815481526020019060010190808311610b4f575b50505050509050919050565b600081336001600160a01b0382161480610b9857503360009081526004602052604090205460ff165b610bb45760405162461bcd60e51b81526004016105299061461f565b60018760ff1610158015610bcc575060048760ff1611155b610c0f5760405162461bcd60e51b8152602060048201526014602482015273125b9d985b1a59081c1b185e595c8818dbdd5b9d60621b6044820152606401610529565b60328510158015610c22575061c3508511155b610c665760405162461bcd60e51b8152602060048201526015602482015274496e76616c69642077696e6e696e672073636f726560581b6044820152606401610529565b6000845111610cae5760405162461bcd60e51b8152602060048201526014602482015273141b185e595c881b985b59481c995c5d5a5c995960621b6044820152606401610529565b6001600160a01b038316610cfe5760405162461bcd60e51b8152602060048201526017602482015276141b185e595c881859191c995cdcc81c995c5d5a5c9959604a1b6044820152606401610529565b6003805460009182610d0f8361458a565b90915550600081815260016020819052604090912082815580820180546001600160b01b0319166101006001600160a01b038a160260ff60a81b191617600160a81b60ff8e16021760ff60b01b1916905560028101919091554260038201819055600482015560058101805460ff19168a151517905560068101889055909150610d9b82868833612c82565b60405160ff8a1681526001600160a01b0386169083907fdd0abcdffc76581d11646898ee4d7f269ca1e0c0b622d072d343100dad83ecb19060200160405180910390a360405133906001600160a01b0387169084907f7b3a760c30253f821753db1585a75597a544cefacc48578d858af5abf49e447190600090a450979650505050505050565b610e2a613ca8565b81600081118015610e3c575060035481105b610e585760405162461bcd60e51b8152600401610529906144b6565b60008381526001602081905260408220908101546008820180549293929091600160b01b900460ff16908110610e9057610e9061455e565b60009182526020808320909101546001600160a01b03168083526007850190915260408220909250905b6004820154811015610f345785826004018281548110610edc57610edc61455e565b60009182526020918290209181049091015460ff601f9092166101000a900416600a8110610f0c57610f0c61455e565b60200201805190610f1c8261467c565b60ff1690525080610f2c8161458a565b915050610eba565b505050505b50919050565b6005546001600160a01b03163314610f995760405162461bcd60e51b815260206004820181905260248201527f4f6e6c79206f776e65722063616e207265766f6b65207061796d6173746572736044820152606401610529565b6001600160a01b038116600081815260046020526040808220805460ff19169055517f32a64ce2799072eadcdbdcd513af610b7c1d09f6d6f757c5b8379f7e34b9d3059190a250565b600082600081118015610ff6575060035481105b6110125760405162461bcd60e51b8152600401610529906144b6565b505060009182526001602090815260408084206001600160a01b039384168552600701909152909120600801541690565b6060806060808460008111801561105b575060035481105b6110775760405162461bcd60e51b8152600401610529906144b6565b6000868152600160205260409020600a8101548067ffffffffffffffff8111156110a3576110a3613daa565b6040519080825280602002602001820160405280156110cc578160200160208202803683370190505b5096508067ffffffffffffffff8111156110e8576110e8613daa565b604051908082528060200260200182016040528015611111578160200160208202803683370190505b5095508067ffffffffffffffff81111561112d5761112d613daa565b604051908082528060200260200182016040528015611156578160200160208202803683370190505b5094508067ffffffffffffffff81111561117257611172613daa565b60405190808252806020026020018201604052801561119b578160200160208202803683370190505b50935060005b818110156112af57600083600a0182815481106111c0576111c061455e565b600091825260208083209091015480835260098701909152604090912080548b51929350909161010090910460010b908b90859081106112025761120261455e565b600192830b602091820292909201015281548a51630100000090910490910b908a90859081106112345761123461455e565b60019290920b602092830291909101909101528054885160ff909116908990859081106112635761126361455e565b602002602001019060ff16908160ff1681525050806001015487848151811061128e5761128e61455e565b602002602001018181525050505080806112a79061458a565b9150506111a1565b505050509193509193565b6112c2613ca8565b826000811180156112d4575060035481105b6112f05760405162461bcd60e51b8152600401610529906144b6565b60008481526001602090815260408083206001600160a01b03871684526007019091528120905b600482015481101561139157838260040182815481106113395761133961455e565b60009182526020918290209181049091015460ff601f9092166101000a900416600a81106113695761136961455e565b602002018051906113798261467c565b60ff16905250806113898161458a565b915050611317565b50505092915050565b6005546001600160a01b031633146114005760405162461bcd60e51b815260206004820152602360248201527f4f6e6c79206f776e65722063616e20617574686f72697a65207061796d61737460448201526265727360e81b6064820152608401610529565b6001600160a01b038116600081815260046020526040808220805460ff19166001179055517f5987a74a23bb850534474148567553b8832158294e44a814aafe820ec123f5769190a250565b60606000606060008086600081118015611467575060035481105b6114835760405162461bcd60e51b8152600401610529906144b6565b60008881526001602081815260408084206001600160a01b038c168552600790810190925290922060028101546006820154938201549282018054929490939192600386019260ff909216919085906114db9061469b565b80601f01602080910402602001604051908101604052809291908181526020018280546115079061469b565b80156115545780601f1061152957610100808354040283529160200191611554565b820191906000526020600020905b81548152906001019060200180831161153757829003601f168201915b50505050509450828054806020026020016040519081016040528092919081815260200182805480156115c457602002820191906000526020600020906000905b825461010083900a900460ff168152602060019283018181049485019490930390920291018084116115955790505b505050505092509650965096509650965050509295509295909350565b806000811180156115f3575060035481105b61160f5760405162461bcd60e51b8152600401610529906144b6565b600082815260016020819052604082209081015490919061010090046001600160a01b03163314806116695750600182015461010090046001600160a01b0390811660009081526007840160205260409020600801541633145b806116a757506000600183015460ff16600381111561168a5761168a613f91565b1480156116a7575060038201546116a490620151806145a3565b42115b9050806116eb5760405162461bcd60e51b815260206004820152601260248201527143616e6e6f742063616e63656c2067616d6560701b6044820152606401610529565b60018201805460ff1916600317905560405184907f681705fdbd93dba3b679fd712577e9a86d57c5551c520f8c74857deb57f9623f90600090a250505050565b600080600085600081118015611742575060035481105b61175e5760405162461bcd60e51b8152600401610529906144b6565b60405160f087811b602083015286901b602282015260009060240160408051601f19818403018152918152815160209283012060009a8b526001808452828c20918c526009909101909252909820805498015460ff600160281b8a0481169a99169890975095505050505050565b6060600060606000806000876000811180156117e9575060035481105b6118055760405162461bcd60e51b8152600401610529906144b6565b60008981526001602081815260408084206001600160a01b03808e16865260079182019093529320600281015460068201549482015460088301549483018054939690959294600388019460ff90921693169086906118639061469b565b80601f016020809104026020016040519081016040528092919081815260200182805461188f9061469b565b80156118dc5780601f106118b1576101008083540402835291602001916118dc565b820191906000526020600020905b8154815290600101906020018083116118bf57829003601f168201915b505050505095508380548060200260200160405190810160405280929190818152602001828054801561194c57602002820191906000526020600020906000905b825461010083900a900460ff1681526020600192830181810494850194909303909202910180841161191d5790505b5050505050935097509750975097509750975050509295509295509295565b60008060008060008060006060806000808b60008111801561198e575060035481105b6119aa5760405162461bcd60e51b8152600401610529906144b6565b60008d8152600160205260408120600881015490919067ffffffffffffffff8111156119d8576119d8613daa565b604051908082528060200260200182016040528015611a01578160200160208202803683370190505b50905060005b6008830154811015611a8757826007016000846008018381548110611a2e57611a2e61455e565b60009182526020808320909101546001600160a01b031683528201929092526040019020600201548251839083908110611a6a57611a6a61455e565b602090810291909101015280611a7f8161458a565b915050611a07565b506000805b6008840154811015611af957836007016000856008018381548110611ab357611ab361455e565b60009182526020808320909101546001600160a01b03168352820192909252604001902060040154611ae590836145a3565b915080611af18161458a565b915050611a8c565b50600183015460028401546003850154600586015460068701546008880180546040805160208084028201810190925282815260ff808a16996001600160a01b0361010082041699600160a81b8204831699600160b01b9092048316989097919692169491938d938d939091869190830182828015611ba157602002820191906000526020600020905b81546001600160a01b03168152600190910190602001808311611b83575b505050505093509e509e509e509e509e509e509e509e509e509e509e505050505091939597999b90929496989a50565b80600081118015611be3575060035481105b611bff5760405162461bcd60e51b8152600401610529906144b6565b816001806000838152600160208190526040909120015460ff166003811115611c2a57611c2a613f91565b14611c475760405162461bcd60e51b8152600401610529906144e3565b83611c52813361228f565b611c6e5760405162461bcd60e51b81526004016105299061451a565b84611c79813361236d565b611cc55760405162461bcd60e51b815260206004820152601f60248201527f4e6f7420796f7572207475726e206f72206e6f7420617574686f72697a6564006044820152606401610529565b600086815260016020526040812090611cde8833612411565b90506001600160a01b038116611d315760405162461bcd60e51b8152602060048201526018602482015277141b185e595c881859191c995cdcc81b9bdd08199bdd5b9960421b6044820152606401610529565b6001600160a01b038116600090815260078084016020526040822042918101919091556003810180549192611d669190613cc7565b6040805160008152602081019182905251611d85916003850191613cef565b50611d908a846129e6565b60ff811615611ddd5760405160ff821681526001600160a01b038416908b907fd602720a71aa8a8d66bbda00437e1120c699f42a52f75755af71ceab366feed69060200160405180910390a35b611de68a612b77565b50505050505050505050565b600081600a8110611e0257600080fd5b60209182820401919006915054906101000a900460ff1681565b80336001600160a01b0382161480611e4357503360009081526004602052604090205460ff165b611e5f5760405162461bcd60e51b81526004016105299061461f565b83600081118015611e71575060035481105b611e8d5760405162461bcd60e51b8152600401610529906144b6565b846000806000838152600160208190526040909120015460ff166003811115611eb857611eb8613f91565b14611ed55760405162461bcd60e51b8152600401610529906144e3565b60008781526001602090815260408083206001600160a01b0389168452600781019092529091206006015460ff1615611f5c5760405162461bcd60e51b815260206004820152602360248201527f506c61796572206164647265737320616c726561647920696e20746869732067604482015262616d6560e81b6064820152608401610529565b60018101546008820154600160a81b90910460ff1611611fad5760405162461bcd60e51b815260206004820152600c60248201526b11d85b59481a5cc8199d5b1b60a21b6044820152606401610529565b6000875111611ff55760405162461bcd60e51b8152602060048201526014602482015273141b185e595c881b985b59481c995c5d5a5c995960621b6044820152606401610529565b6001600160a01b0386166120455760405162461bcd60e51b8152602060048201526017602482015276141b185e595c881859191c995cdcc81c995c5d5a5c9959604a1b6044820152606401610529565b61205188878933612c82565b856001600160a01b0316887fa259bab503f65f6ae62d4f6a412b41b967799a284f69f21ba61362cf04e5eafa8960405161208b91906146cf565b60405180910390a360405133906001600160a01b038816908a907f7b3a760c30253f821753db1585a75597a544cefacc48578d858af5abf49e447190600090a460018101546008820154600160a81b90910460ff1690036120ef576120ef88612e13565b5050505050505050565b8060008111801561210b575060035481105b6121275760405162461bcd60e51b8152600401610529906144b6565b816000806000838152600160208190526040909120015460ff16600381111561215257612152613f91565b1461216f5760405162461bcd60e51b8152600401610529906144e3565b600084815260016020819052604082209081015490919061010090046001600160a01b03163314806121c95750600182015461010090046001600160a01b0390811660009081526007840160205260409020600801541633145b9050806122305760405162461bcd60e51b815260206004820152602f60248201527f4f6e6c792063726561746f72206f7220746865697220636f6e74726f6c6c657260448201526e2063616e2073746172742067616d6560881b6064820152608401610529565b60088201546001111561227e5760405162461bcd60e51b81526020600482015260166024820152752732b2b21030ba103632b0b9ba101890383630bcb2b960511b6044820152606401610529565b61228786612e13565b505050505050565b60008281526001602090815260408083206001600160a01b03851684526007810190925282206006015460ff16156122cb576001915050612367565b60005b60088201548110156123605760008260080182815481106122f1576122f161455e565b60009182526020808320909101546001600160a01b039081168084526007870190925260409092206008810154919350919081169087161480156123395750600681015460ff165b1561234b576001945050505050612367565b505080806123589061458a565b9150506122ce565b5060009150505b92915050565b60008281526001602081905260408220908101546008820180548492600160b01b900460ff169081106123a2576123a261455e565b60009182526020808320909101546001600160a01b0390811680845260078601909252604090922090925090851682036123e25760019350505050612367565b60088101546001600160a01b038087169116036124055760019350505050612367565b50600095945050505050565b60008281526001602090815260408083206001600160a01b03851684526007810190925282206006015460ff161561244c5782915050612367565b60005b60088201548110156123605760008260080182815481106124725761247261455e565b60009182526020808320909101546001600160a01b039081168084526007870190925260409092206008810154919350919081169087161480156124ba5750600681015460ff165b156124ca57509250612367915050565b505080806124d79061458a565b91505061244f565b6000805b6003840154811015612549578260ff168460030182815481106125085761250861455e565b60009182526020918290209181049091015460ff601f9092166101000a90041603612537576001915050612367565b806125418161458a565b9150506124e3565b5060009392505050565b6000838152600160209081526040808320858301518683015192519193859361258d9390910160f092831b8152911b600282015260040190565b60408051808303601f190181529181528151602092830120600081815260098601909352912054909150600160281b900460ff16156125d157600092505050612811565b6000805b855181101561265f57866020015160010b8682815181106125f8576125f861455e565b60200260200101516020015160010b14801561263a5750866040015160010b8682815181106126295761262961455e565b60200260200101516040015160010b145b1561264d57816126498161467c565b9250505b806126578161458a565b9150506125d5565b5060018160ff1611156126785760009350505050612811565b600a8301546000036127a5576000805b865181101561277c57600060078883815181106126a7576126a761455e565b6020026020010151602001516126bd91906146e2565b9050600060078984815181106126d5576126d561455e565b6020026020010151604001516126eb91906146e2565b90508160010b600014801561270357508060010b6000145b8061272d57508160010b600014801561272d57508060010b6001148061272d57508060010b600019145b8061275757508060010b600014801561275757508160010b6001148061275757508160010b600019145b156127675760019350505061277c565b505080806127749061458a565b915050612688565b508061278f576000945050505050612811565b61279a878786612ebb565b945050505050612811565b600583015460ff166127d35760006127bd8887612fb1565b9050806127d1576000945050505050612811565b505b6127de868685612ebb565b6127ee5760009350505050612811565b6127f9878787613031565b6128095760009350505050612811565b600193505050505b9392505050565b60005b600383015481101561293a578160ff168360030182815481106128405761284061455e565b60009182526020918290209181049091015460ff601f9092166101000a900416036129285760038301805461287790600190614705565b815481106128875761288761455e565b90600052602060002090602091828204019190069054906101000a900460ff168360030182815481106128bc576128bc61455e565b90600052602060002090602091828204019190066101000a81548160ff021916908360ff160217905550826003018054806128f9576128f9614718565b60019003818190600052602060002090602091828204019190066101000a81549060ff02191690559055505050565b806129328161458a565b91505061281b565b505050565b600080805b83518110156129de5760008482815181106129615761296161455e565b6020026020010151905061297a86826001600089613073565b1561299b5761298e868260016000896131ea565b61299890846145a3565b92505b6129aa868260006001896133e9565b156129cb576129be868260006001896131ea565b6129c890846145a3565b92505b50806129d68161458a565b915050612944565b509392505050565b60008281526001602090815260408083206001600160a01b038516845260078101909252822060038101549192909160051115612a30576003820154612a2d90600561472e565b90505b60005b8160ff168160ff16108015612a4b5750600483015415155b15612b235760048301805460009190612a6690600190614705565b81548110612a7657612a7661455e565b90600052602060002090602091828204019190069054906101000a900460ff16905083600401805480612aab57612aab614718565b60008281526020808220600019909301818104909301805460ff601f80871661010090810a830219909316909355949095556003890180546001810182559084529282902091830490910180548685169390921690940a918202919092021990911617905581612b1a8161467c565b92505050612a33565b60ff8116156122875760405160ff821681526001600160a01b0386169087907f61122678b83552d47f9ad2905cf1399b15d78b009910fc68c8782f2696b115569060200160405180910390a3505050505050565b600081815260016020819052604090912060088101548183015491929091612baa91600160b01b90910460ff1690614747565b612bb49190614776565b60018201805460ff60b01b1916600160b01b60ff93841681029190911791829055900416600003612bf757600281018054906000612bf18361458a565b91905055505b42600482015560018101546008820180549091600160b01b900460ff16908110612c2357612c2361455e565b600091825260209182902001546001830154604051600160b01b90910460ff1681526001600160a01b039091169184917fd48662f539b10425cf4a565afdaac42d9593d8216a745cefb2429c7ef043e77b910160405180910390a35050565b60008481526001602081815260408084208151610120810183526001600160a01b038981168083528286018a815283860189905285518981528088018752606085015285518981528088018752608085015260a0840189905260c084018890524260e08501528983166101008501529088526007840190955292909520855181546001600160a01b03191693169290921782559151919392909190820190612d2a90826147de565b506040820151600282015560608201518051612d50916003840191602090910190613cef565b5060808201518051612d6c916004840191602090910190613cef565b5060a0820151600582015560c082015160068201805460ff191691151591909117905560e0820151600782015561010090910151600891820180546001600160a01b03199081166001600160a01b039384161790915591830180546001818101835560009283526020808420909201805490951693891693841790945591815260028252604081208054938401815581522001859055612e0c84866134e8565b5050505050565b60008181526001602081905260408220808201805460ff1916909217909155426004820155905b6008820154811015612e8b57612e7983836008018381548110612e5f57612e5f61455e565b6000918252602090912001546001600160a01b03166129e6565b80612e838161458a565b915050612e3a565b5060405182907f50ad08f58a27f2851d7e3a1b3a6a46b290f2ce677e99642d30ff639721e7779090600090a25050565b60006001835111612ece57506001612811565b600180805b8551811015612f885785600081518110612eef57612eef61455e565b60200260200101516040015160010b868281518110612f1057612f1061455e565b60200260200101516040015160010b14612f2957600092505b85600081518110612f3c57612f3c61455e565b60200260200101516020015160010b868281518110612f5d57612f5d61455e565b60200260200101516020015160010b14612f7657600091505b80612f808161458a565b915050612ed3565b5081158015612f95575080155b15612fa557600092505050612811565b50600195945050505050565b6000828152600160205260408120815b83518110156123605761300f85858381518110612fe057612fe061455e565b602002602001015160200151868481518110612ffe57612ffe61455e565b602002602001015160400151613674565b1561301f57600192505050612367565b806130298161458a565b915050612fc1565b600061304284848460016000613794565b61304e57506000612811565b61305d84848460006001613794565b61306957506000612811565b5060019392505050565b600085815260016020908152604082209086015182906130949087906146e2565b905060008588604001516130a891906146e2565b905060008260010b12806130c05750600f8260010b12155b806130ce575060008160010b125b806130dd5750600f8160010b12155b156130ee57600193505050506131e1565b60005b8551811015613172578260010b8682815181106131105761311061455e565b60200260200101516020015160010b14801561314e57508160010b86828151811061313d5761313d61455e565b60200260200101516040015160010b145b156131605760009450505050506131e1565b8061316a8161458a565b9150506130f1565b5060405160f083811b602083015282901b602282015260009060240160408051808303601f1901815291815281516020928301206000818152600988019093529120805491925090600160281b900460ff16156131d7576000955050505050506131e1565b6001955050505050505b95945050505050565b60008581526001602090815260408083208151600f8082526102008201909352909284929082016101e080368337505050602088015160408901519192506000915b60006132388a846146e2565b905060006132468a846146e2565b905060008260010b128061325e5750600f8260010b12155b8061326c575060008160010b125b8061327b5750600f8160010b12155b156132875750506132ae565b6132938d83838c6139a7565b60ff1660ff036132a45750506132ae565b909250905061322c565b81815b60008260010b121580156132c85750600f8260010b125b80156132d8575060008160010b12155b80156132e75750600f8160010b125b156133615760006132fa8e84848d6139a7565b90508060ff1660ff0361330d5750613361565b80878760ff16815181106133235761332361455e565b60ff909216602092830291909101909101528561333f8161467c565b965061334d90508c8461489e565b92506133598b8361489e565b9150506132b1565b60028560ff16101561337d5760009750505050505050506131e1565b6000805b8660ff168110156133c85787818151811061339e5761339e61455e565b602002602001015160ff16826133b491906145a3565b9150806133c08161458a565b915050613381565b5060006133d682600a6148c1565b9f9e505050505050505050505050505050565b6000858152600160209081526040822090860151829061340a9087906146e2565b9050600085886040015161341e91906146e2565b905060008260010b12806134365750600f8260010b12155b80613444575060008160010b125b806134535750600f8160010b12155b1561346457600193505050506131e1565b60005b8551811015613172578260010b8682815181106134865761348661455e565b60200260200101516020015160010b1480156134c457508160010b8682815181106134b3576134b361455e565b60200260200101516040015160010b145b156134d65760009450505050506131e1565b806134e08161458a565b915050613467565b60008181526001602090815260408083206001600160a01b0386168452600781018352928190208151603280825261066082019093529092909190820161064080368337505081516135439260048501925060200190613cef565b506000805b60098160ff16116136035760005b60008260ff16600a811061356c5761356c61455e565b602081049091015460ff601f9092166101000a9004811690821610156135f05781846004018460ff16815481106135a5576135a561455e565b90600052602060002090602091828204019190066101000a81548160ff021916908360ff16021790555082806135da9061467c565b93505080806135e89061467c565b915050613556565b50806135fb8161467c565b915050613548565b5042448587613613600143614705565b6040805160208101969096528501939093526060808501929092526bffffffffffffffffffffffff19911b16608083015240609482015260b40160408051601f1981840301815291905280516020909101206005830155612e0c8585613ac7565b60008381526001602081815260408084208151608080820184526000198083528286018790528285018890526060808401899052855192830186528883529582018890529381019390935292820193909352835b60048110156137865760008382600481106136e5576136e561455e565b60200201516136f4908961489e565b8383600481106137065761370661455e565b6020020151613715908961489e565b60405160f092831b6020820152911b602282015260240160408051808303601f190181529181528151602092830120600081815260098901909352912054909150600160281b900460ff161561377357600195505050505050612811565b508061377e8161458a565b9150506136c8565b506000979650505050505050565b60008581526001602090815260408083208151600f8082526102008201909352909284929082016101e080368337505050602088015160408901519192506000915b60006137e289846146e2565b905060006137f089846146e2565b905060008260010b12806138085750600f8260010b12155b80613816575060008160010b125b806138255750600f8160010b12155b15613831575050613858565b61383d8d83838e6139a7565b60ff1660ff0361384e575050613858565b90925090506137d6565b81815b60008260010b121580156138725750600f8260010b125b8015613882575060008160010b12155b80156138915750600f8160010b125b1561390b5760006138a48e84848f6139a7565b90508060ff1660ff036138b7575061390b565b80878760ff16815181106138cd576138cd61455e565b60ff90921660209283029190910190910152856138e98161467c565b96506138f790508b8461489e565b92506139038a8361489e565b91505061385b565b60018560ff16116139265760019750505050505050506131e1565b6000805b8660ff16811015613971578781815181106139475761394761455e565b602002602001015160ff168261395d91906145a3565b9150806139698161458a565b91505061392a565b5061397d6005826148d8565b15613993576000985050505050505050506131e1565b5060019d9c50505050505050505050505050565b6000848152600160205260408120815b8351811015613a52578560010b8482815181106139d6576139d661455e565b60200260200101516020015160010b148015613a1457508460010b848281518110613a0357613a0361455e565b60200260200101516040015160010b145b15613a4057838181518110613a2b57613a2b61455e565b60200260200101516000015192505050613abf565b80613a4a8161458a565b9150506139b7565b5060405160f086811b602083015285901b602282015260009060240160408051808303601f1901815291815281516020928301206000818152600986019093529120805491925090600160281b900460ff1615613ab7575460ff169250613abf915050565b60ff93505050505b949350505050565b60008181526001602090815260408083206001600160a01b038616845260078101909252822060048101549192909190613b028260036148c1565b905060005b81811015610ac957600584015460408051602081019290925242908201524460608083019190915243608083015260a0820183905288901b6bffffffffffffffffffffffff191660c082015260d40160408051601f19818403018152919052805160209091012060058501819055600090613b839085906148d8565b905060008460108760050154901c613b9b91906148d8565b9050808214613c93576000866004018381548110613bbb57613bbb61455e565b90600052602060002090602091828204019190069054906101000a900460ff169050866004018281548110613bf257613bf261455e565b90600052602060002090602091828204019190069054906101000a900460ff16876004018481548110613c2757613c2761455e565b90600052602060002090602091828204019190066101000a81548160ff021916908360ff16021790555080876004018381548110613c6757613c6761455e565b90600052602060002090602091828204019190066101000a81548160ff021916908360ff160217905550505b50508080613ca09061458a565b915050613b07565b604051806101400160405280600a906020820280368337509192915050565b50805460008255601f016020900490600052602060002090810190613cec9190613d95565b50565b82805482825590600052602060002090601f01602090048101928215613d855791602002820160005b83821115613d5657835183826101000a81548160ff021916908360ff1602179055509260200192600101602081600001049283019260010302613d18565b8015613d835782816101000a81549060ff0219169055600101602081600001049283019260010302613d56565b505b50613d91929150613d95565b5090565b5b80821115613d915760008155600101613d96565b634e487b7160e01b600052604160045260246000fd5b6040516060810167ffffffffffffffff81118282101715613de357613de3613daa565b60405290565b604051601f8201601f1916810167ffffffffffffffff81118282101715613e1257613e12613daa565b604052919050565b803560ff81168114613e2b57600080fd5b919050565b8035600181900b8114613e2b57600080fd5b6000806040808486031215613e5657600080fd5b8335925060208085013567ffffffffffffffff80821115613e7657600080fd5b818701915087601f830112613e8a57600080fd5b813581811115613e9c57613e9c613daa565b613eaa848260051b01613de9565b8181528481019250606091820284018501918a831115613ec957600080fd5b938501935b82851015613f265780858c031215613ee65760008081fd5b613eee613dc0565b613ef786613e1a565b8152613f04878701613e30565b87820152613f13888701613e30565b8189015284529384019392850192613ece565b508096505050505050509250929050565b80356001600160a01b0381168114613e2b57600080fd5b60008060408385031215613f6157600080fd5b613f6a83613f37565b946020939093013593505050565b600060208284031215613f8a57600080fd5b5035919050565b634e487b7160e01b600052602160045260246000fd5b60048110613fc557634e487b7160e01b600052602160045260246000fd5b9052565b8a81526101408101613fde602083018c613fa7565b6001600160a01b0399909916604082015260ff978816606082015295909616608086015260a085019390935260c084019190915260e08301521515610100820152610120015292915050565b60006020828403121561403c57600080fd5b61281182613f37565b600081518084526020808501945080840160005b8381101561407557815187529582019590820190600101614059565b509495945050505050565b6020815260006128116020830184614045565b600082601f8301126140a457600080fd5b813567ffffffffffffffff8111156140be576140be613daa565b6140d1601f8201601f1916602001613de9565b8181528460208386010111156140e657600080fd5b816020850160208301376000918101602001919091529392505050565b600080600080600060a0868803121561411b57600080fd5b61412486613e1a565b94506020860135801515811461413957600080fd5b935060408601359250606086013567ffffffffffffffff81111561415c57600080fd5b61416888828901614093565b92505061417760808701613f37565b90509295509295909350565b6101408101818360005b600a81101561139157815160ff1683526020928301929091019060010161418d565b600080604083850312156141c257600080fd5b823591506141d260208401613f37565b90509250929050565b600081518084526020808501945080840160005b83811015614075578151600190810b88529683019691830191016141ef565b600081518084526020808501945080840160005b8381101561407557815160ff1687529582019590820190600101614222565b60808152600061425460808301876141db565b828103602084015261426681876141db565b9050828103604084015261427a818661420e565b9050828103606084015261428e8185614045565b979650505050505050565b6000815180845260005b818110156142bf576020818501810151868301820152016142a3565b506000602082860101526020601f19601f83011685010191505092915050565b60a0815260006142f260a0830188614299565b866020840152828103604084015261430a818761420e565b94151560608401525050608001529392505050565b60008060006060848603121561433457600080fd5b8335925061434460208501613e30565b915061435260408501613e30565b90509250925092565b60c08152600061436e60c0830189614299565b8760208401528281036040840152614386818861420e565b9515156060840152505060808101929092526001600160a01b031660a0909101529392505050565b600061016082016143bf838f613fa7565b6001600160a01b038d811660208581019190915260ff8e811660408701528d166060860152608085018c905260a085018b905289151560c086015261016060e086015288519283905288019161018085019060005b818110156144345784518416835260209485019490920191600101614414565b50508481036101008601526144498189614045565b6101208601979097525050505061014001529998505050505050505050565b60008060006060848603121561447d57600080fd5b83359250602084013567ffffffffffffffff81111561449b57600080fd5b6144a786828701614093565b92505061435260408501613f37565b60208082526013908201527211d85b5948191bd95cc81b9bdd08195e1a5cdd606a1b604082015260600190565b6020808252601a908201527f47616d65206e6f7420696e206578706563746564207374617465000000000000604082015260600190565b60208082526024908201527f506c61796572206e6f7420696e2067616d65206f72206e6f7420617574686f726040820152631a5e995960e21b606082015260800190565b634e487b7160e01b600052603260045260246000fd5b634e487b7160e01b600052601160045260246000fd5b60006001820161459c5761459c614574565b5060010190565b8082018082111561236757612367614574565b6040808252835182820181905260009190606090818501906020808901865b8381101561460b578151805160ff16865283810151600190810b8588015290880151810b888701529486019491830191016145d5565b505095909501959095525092949350505050565b6020808252603b908201527f556e617574686f72697a65643a2073656e646572206d75737420626520706c6160408201527f796572206f7220617574686f72697a6564207061796d61737465720000000000606082015260800190565b600060ff821660ff810361469257614692614574565b60010192915050565b600181811c908216806146af57607f821691505b602082108103610f3957634e487b7160e01b600052602260045260246000fd5b6020815260006128116020830184614299565b600182810b9082900b03617fff198112617fff8213171561236757612367614574565b8181038181111561236757612367614574565b634e487b7160e01b600052603160045260246000fd5b60ff828116828216039081111561236757612367614574565b60ff818116838216019081111561236757612367614574565b634e487b7160e01b600052601260045260246000fd5b600060ff83168061478957614789614760565b8060ff84160691505092915050565b601f82111561293a57600081815260208120601f850160051c810160208610156147bf5750805b601f850160051c820191505b81811015612287578281556001016147cb565b815167ffffffffffffffff8111156147f8576147f8613daa565b61480c81614806845461469b565b84614798565b602080601f83116001811461484157600084156148295750858301515b600019600386901b1c1916600185901b178555612287565b600085815260208120601f198616915b8281101561487057888601518255948401946001909101908401614851565b508582101561488e5787850151600019600388901b60f8161c191681555b5050505050600190811b01905550565b600181810b9083900b01617fff8113617fff198212171561236757612367614574565b808202811582820484141761236757612367614574565b6000826148e7576148e7614760565b50069056fea264697066735822122097658bb00ac22f6145316046e53c8753523714856f6e10c84b41cec3076a0a3664736f6c634300081300335987a74a23bb850534474148567553b8832158294e44a814aafe820ec123f576",
  "linkReferences": {},
  "deployedLinkReferences": {}
}