{
  "_format": "hh-sol-artifact-1",
  "contractName": "FivesGame",
  "sourceName": "contracts/FivesGame.sol",
  "abi": [
    {
      "anonymous": false,
      "inputs": [
        {
          "indexed": true,
          "internalType": "uint256",
          "name": "gameId",
          "type": "uint256"
        }
      ],
      "name": "GameCancelled",
      "type": "event"
    },
    {
      "anonymous": false,
      "inputs": [
        {
          "indexed": true,
          "internalType": "uint256",
          "name": "gameId",
          "type": "uint256"
        },
        {
          "indexed": true,
          "internalType": "address",
          "name": "winner",
          "type": "address"
        },
        {
          "indexed": false,
          "internalType": "uint256",
          "name": "score",
          "type": "uint256"
        }
      ],
      "name": "GameCompleted",
      "type": "event"
    },
    {
      "anonymous": false,
      "inputs": [
        {
          "indexed": true,
          "internalType": "uint256",
          "name": "gameId",
          "type": "uint256"
        },
        {
          "indexed": true,
          "internalType": "address",
          "name": "creator",
          "type": "address"
        },
        {
          "indexed": false,
          "internalType": "uint8",
          "name": "maxPlayers",
          "type": "uint8"
        }
      ],
      "name": "GameCreated",
      "type": "event"
    },
    {
      "anonymous": false,
      "inputs": [
        {
          "indexed": true,
          "internalType": "uint256",
          "name": "gameId",
          "type": "uint256"
        }
      ],
      "name": "GameStarted",
      "type": "event"
    },
    {
      "anonymous": false,
      "inputs": [
        {
          "indexed": true,
          "internalType": "uint256",
          "name": "gameId",
          "type": "uint256"
        },
        {
          "indexed": true,
          "internalType": "address",
          "name": "player",
          "type": "address"
        },
        {
          "indexed": false,
          "internalType": "string",
          "name": "name",
          "type": "string"
        }
      ],
      "name": "PlayerJoined",
      "type": "event"
    },
    {
      "anonymous": false,
      "inputs": [
        {
          "indexed": true,
          "internalType": "uint256",
          "name": "gameId",
          "type": "uint256"
        },
        {
          "indexed": true,
          "internalType": "address",
          "name": "player",
          "type": "address"
        },
        {
          "indexed": false,
          "internalType": "uint8",
          "name": "tilesDrawn",
          "type": "uint8"
        }
      ],
      "name": "TilesDrawn",
      "type": "event"
    },
    {
      "anonymous": false,
      "inputs": [
        {
          "indexed": true,
          "internalType": "uint256",
          "name": "gameId",
          "type": "uint256"
        },
        {
          "indexed": true,
          "internalType": "address",
          "name": "currentPlayer",
          "type": "address"
        },
        {
          "indexed": false,
          "internalType": "uint8",
          "name": "playerIndex",
          "type": "uint8"
        }
      ],
      "name": "TurnChanged",
      "type": "event"
    },
    {
      "anonymous": false,
      "inputs": [
        {
          "indexed": true,
          "internalType": "uint256",
          "name": "gameId",
          "type": "uint256"
        },
        {
          "indexed": true,
          "internalType": "address",
          "name": "player",
          "type": "address"
        },
        {
          "components": [
            {
              "internalType": "uint8",
              "name": "number",
              "type": "uint8"
            },
            {
              "internalType": "int16",
              "name": "x",
              "type": "int16"
            },
            {
              "internalType": "int16",
              "name": "y",
              "type": "int16"
            }
          ],
          "indexed": false,
          "internalType": "struct FivesGame.TilePlacement[]",
          "name": "placements",
          "type": "tuple[]"
        },
        {
          "indexed": false,
          "internalType": "uint256",
          "name": "score",
          "type": "uint256"
        }
      ],
      "name": "TurnPlaced",
      "type": "event"
    },
    {
      "inputs": [],
      "name": "HAND_SIZE",
      "outputs": [
        {
          "internalType": "uint8",
          "name": "",
          "type": "uint8"
        }
      ],
      "stateMutability": "view",
      "type": "function"
    },
    {
      "inputs": [],
      "name": "MOVE_TIMEOUT",
      "outputs": [
        {
          "internalType": "uint256",
          "name": "",
          "type": "uint256"
        }
      ],
      "stateMutability": "view",
      "type": "function"
    },
    {
      "inputs": [
        {
          "internalType": "uint256",
          "name": "",
          "type": "uint256"
        }
      ],
      "name": "TILE_DISTRIBUTION",
      "outputs": [
        {
          "internalType": "uint8",
          "name": "",
          "type": "uint8"
        }
      ],
      "stateMutability": "view",
      "type": "function"
    },
    {
      "inputs": [],
      "name": "WINNING_SCORE",
      "outputs": [
        {
          "internalType": "uint256",
          "name": "",
          "type": "uint256"
        }
      ],
      "stateMutability": "view",
      "type": "function"
    },
    {
      "inputs": [
        {
          "internalType": "uint256",
          "name": "gameId",
          "type": "uint256"
        }
      ],
      "name": "cancelGame",
      "outputs": [],
      "stateMutability": "nonpayable",
      "type": "function"
    },
    {
      "inputs": [
        {
          "internalType": "uint8",
          "name": "maxPlayers",
          "type": "uint8"
        },
        {
          "internalType": "bool",
          "name": "allowIslands",
          "type": "bool"
        },
        {
          "internalType": "uint256",
          "name": "winningScore",
          "type": "uint256"
        },
        {
          "internalType": "string",
          "name": "playerName",
          "type": "string"
        }
      ],
      "name": "createGame",
      "outputs": [
        {
          "internalType": "uint256",
          "name": "",
          "type": "uint256"
        }
      ],
      "stateMutability": "nonpayable",
      "type": "function"
    },
    {
      "inputs": [
        {
          "internalType": "uint256",
          "name": "",
          "type": "uint256"
        }
      ],
      "name": "games",
      "outputs": [
        {
          "internalType": "uint256",
          "name": "gameId",
          "type": "uint256"
        },
        {
          "internalType": "enum FivesGame.GameState",
          "name": "state",
          "type": "uint8"
        },
        {
          "internalType": "address",
          "name": "creator",
          "type": "address"
        },
        {
          "internalType": "uint8",
          "name": "maxPlayers",
          "type": "uint8"
        },
        {
          "internalType": "uint8",
          "name": "currentPlayerIndex",
          "type": "uint8"
        },
        {
          "internalType": "uint256",
          "name": "turnNumber",
          "type": "uint256"
        },
        {
          "internalType": "uint256",
          "name": "createdAt",
          "type": "uint256"
        },
        {
          "internalType": "uint256",
          "name": "lastMoveAt",
          "type": "uint256"
        },
        {
          "internalType": "bool",
          "name": "allowIslands",
          "type": "bool"
        },
        {
          "internalType": "uint256",
          "name": "winningScore",
          "type": "uint256"
        },
        {
          "internalType": "uint256",
          "name": "poolSeed",
          "type": "uint256"
        }
      ],
      "stateMutability": "view",
      "type": "function"
    },
    {
      "inputs": [
        {
          "internalType": "uint256",
          "name": "gameId",
          "type": "uint256"
        }
      ],
      "name": "getGame",
      "outputs": [
        {
          "internalType": "enum FivesGame.GameState",
          "name": "state",
          "type": "uint8"
        },
        {
          "internalType": "address",
          "name": "creator",
          "type": "address"
        },
        {
          "internalType": "uint8",
          "name": "maxPlayers",
          "type": "uint8"
        },
        {
          "internalType": "uint8",
          "name": "currentPlayerIndex",
          "type": "uint8"
        },
        {
          "internalType": "uint256",
          "name": "turnNumber",
          "type": "uint256"
        },
        {
          "internalType": "uint256",
          "name": "createdAt",
          "type": "uint256"
        },
        {
          "internalType": "bool",
          "name": "allowIslands",
          "type": "bool"
        },
        {
          "internalType": "address[]",
          "name": "playerAddresses",
          "type": "address[]"
        },
        {
          "internalType": "uint256[]",
          "name": "playerScores",
          "type": "uint256[]"
        },
        {
          "internalType": "uint256",
          "name": "tilesRemaining",
          "type": "uint256"
        }
      ],
      "stateMutability": "view",
      "type": "function"
    },
    {
      "inputs": [
        {
          "internalType": "uint256",
          "name": "gameId",
          "type": "uint256"
        },
        {
          "internalType": "address",
          "name": "playerAddr",
          "type": "address"
        }
      ],
      "name": "getPlayer",
      "outputs": [
        {
          "internalType": "string",
          "name": "name",
          "type": "string"
        },
        {
          "internalType": "uint256",
          "name": "score",
          "type": "uint256"
        },
        {
          "internalType": "uint8[]",
          "name": "hand",
          "type": "uint8[]"
        },
        {
          "internalType": "bool",
          "name": "hasJoined",
          "type": "bool"
        },
        {
          "internalType": "uint256",
          "name": "lastMoveTime",
          "type": "uint256"
        }
      ],
      "stateMutability": "view",
      "type": "function"
    },
    {
      "inputs": [
        {
          "internalType": "address",
          "name": "player",
          "type": "address"
        }
      ],
      "name": "getPlayerGames",
      "outputs": [
        {
          "internalType": "uint256[]",
          "name": "",
          "type": "uint256[]"
        }
      ],
      "stateMutability": "view",
      "type": "function"
    },
    {
      "inputs": [
        {
          "internalType": "uint256",
          "name": "gameId",
          "type": "uint256"
        },
        {
          "internalType": "int16",
          "name": "x",
          "type": "int16"
        },
        {
          "internalType": "int16",
          "name": "y",
          "type": "int16"
        }
      ],
      "name": "getTileAt",
      "outputs": [
        {
          "internalType": "bool",
          "name": "exists",
          "type": "bool"
        },
        {
          "internalType": "uint8",
          "name": "number",
          "type": "uint8"
        },
        {
          "internalType": "uint256",
          "name": "turnPlaced",
          "type": "uint256"
        }
      ],
      "stateMutability": "view",
      "type": "function"
    },
    {
      "inputs": [
        {
          "internalType": "uint256",
          "name": "gameId",
          "type": "uint256"
        }
      ],
      "name": "getTilePoolStatus",
      "outputs": [
        {
          "internalType": "uint8[10]",
          "name": "remainingCounts",
          "type": "uint8[10]"
        }
      ],
      "stateMutability": "view",
      "type": "function"
    },
    {
      "inputs": [
        {
          "internalType": "uint256",
          "name": "gameId",
          "type": "uint256"
        },
        {
          "internalType": "string",
          "name": "playerName",
          "type": "string"
        }
      ],
      "name": "joinGame",
      "outputs": [],
      "stateMutability": "nonpayable",
      "type": "function"
    },
    {
      "inputs": [],
      "name": "nextGameId",
      "outputs": [
        {
          "internalType": "uint256",
          "name": "",
          "type": "uint256"
        }
      ],
      "stateMutability": "view",
      "type": "function"
    },
    {
      "inputs": [
        {
          "internalType": "uint256",
          "name": "gameId",
          "type": "uint256"
        },
        {
          "components": [
            {
              "internalType": "uint8",
              "name": "number",
              "type": "uint8"
            },
            {
              "internalType": "int16",
              "name": "x",
              "type": "int16"
            },
            {
              "internalType": "int16",
              "name": "y",
              "type": "int16"
            }
          ],
          "internalType": "struct FivesGame.TilePlacement[]",
          "name": "placements",
          "type": "tuple[]"
        }
      ],
      "name": "playTurn",
      "outputs": [],
      "stateMutability": "nonpayable",
      "type": "function"
    },
    {
      "inputs": [
        {
          "internalType": "address",
          "name": "",
          "type": "address"
        },
        {
          "internalType": "uint256",
          "name": "",
          "type": "uint256"
        }
      ],
      "name": "playerGames",
      "outputs": [
        {
          "internalType": "uint256",
          "name": "",
          "type": "uint256"
        }
      ],
      "stateMutability": "view",
      "type": "function"
    },
    {
      "inputs": [
        {
          "internalType": "uint256",
          "name": "gameId",
          "type": "uint256"
        }
      ],
      "name": "skipTurn",
      "outputs": [],
      "stateMutability": "nonpayable",
      "type": "function"
    },
    {
      "inputs": [
        {
          "internalType": "uint256",
          "name": "gameId",
          "type": "uint256"
        }
      ],
      "name": "startGame",
      "outputs": [],
      "stateMutability": "nonpayable",
      "type": "function"
    }
  ],
  "bytecode": "0x6101c06040526005608081815260a082905260c082905260e08290526101008290526101208290526101408290526101608290526101808290526101a0919091526200005090600090600a6200006a565b5060016003553480156200006357600080fd5b506200011b565b600183019183908215620000f25791602002820160005b83821115620000c157835183826101000a81548160ff021916908360ff160217905550926020019260010160208160000104928301926001030262000081565b8015620000f05782816101000a81549060ff0219169055600101602081600001049283019260010302620000c1565b505b506200010092915062000104565b5090565b5b8082111562000100576000815560010162000105565b612f67806200012b6000396000f3fe608060405234801561001057600080fd5b50600436106101165760003560e01c806376d4293c116100a2578063ce371cbd11610071578063ce371cbd146102f2578063d4698e5b14610305578063e3087fec1461032a578063e5ed1d5914610332578063e6ba69d81461034557600080fd5b806376d4293c1461027b5780638b38795d146102ad578063a2f77bcc146102c0578063b135bbb0146102e957600080fd5b8063249123d3116100e9578063249123d3146102075780636454e58d1461022757806368880a261461024b57806369958ab91461025e5780636a07dc121461027157600080fd5b8063084ba9b81461011b5780630a5694c214610130578063117a5b9014610156578063129daf84146101e7575b600080fd5b61012e610129366004612659565b61034d565b005b61014361013e366004612765565b610930565b6040519081526020015b60405180910390f35b6101d061016436600461278f565b600160208190526000918252604090912080549181015460028201546003830154600484015460058501546006860154600c9096015460ff808716976001600160a01b0361010089041697600160a81b8104831697600160b01b9091048316969095909490939216918b565b60405161014d9b9a999897969594939291906127e0565b6101fa6101f5366004612847565b610961565b60405161014d919061289d565b61021a61021536600461278f565b6109cd565b60405161014d91906128b0565b61023a6102353660046128e5565b610a96565b60405161014d959493929190612957565b61012e610259366004612a30565b610c26565b61012e61026c36600461278f565b610e17565b6101436201518081565b61028e610289366004612a77565b610f2e565b60408051931515845260ff90921660208401529082015260600161014d565b6101436102bb366004612ab3565b610fcf565b6102d36102ce36600461278f565b6111e3565b60405161014d9a99989796959493929190612b22565b61014360035481565b61012e61030036600461278f565b6113ce565b61031861031336600461278f565b611570565b60405160ff909116815260200161014d565b610143606481565b61012e61034036600461278f565b61159a565b610318600581565b8160008111801561035f575060035481105b6103845760405162461bcd60e51b815260040161037b90612bd6565b60405180910390fd5b826001806000838152600160208190526040909120015460ff1660038111156103af576103af6127a8565b146103cc5760405162461bcd60e51b815260040161037b90612c03565b6000858152600160209081526040808320338452600701909152902060040154859060ff166104325760405162461bcd60e51b8152602060048201526012602482015271506c61796572206e6f7420696e2067616d6560701b604482015260640161037b565b600086815260016020819052604090912090810154600882018054899392339291600160b01b90910460ff1690811061046d5761046d612c3a565b6000918252602090912001546001600160a01b0316146104bf5760405162461bcd60e51b815260206004820152600d60248201526c2737ba103cb7bab9103a3ab93760991b604482015260640161037b565b60008751116105105760405162461bcd60e51b815260206004820152601c60248201527f4d75737420706c616365206174206c65617374206f6e652074696c6500000000604482015260640161037b565b600a875111156105625760405162461bcd60e51b815260206004820152601a60248201527f546f6f206d616e792074696c657320696e206f6e65207475726e000000000000604482015260640161037b565b600088815260016020908152604080832033845260078101909252822090915b8951811015610670576105b2828b83815181106105a1576105a1612c3a565b6020026020010151600001516116e6565b6105f55760405162461bcd60e51b8152602060048201526014602482015273446f6e2774206861766520746869732074696c6560601b604482015260640161037b565b6106198b8b838151811061060b5761060b612c3a565b60200260200101518c61175c565b61065e5760405162461bcd60e51b8152602060048201526016602482015275125b9d985b1a59081d1a5b19481c1b1858d95b595b9d60521b604482015260640161037b565b8061066881612c66565b915050610582565b506000805b8a5181101561083f5760008b828151811061069257610692612c3a565b602002602001015190506000816020015182604001516040516020016106c892919060f092831b8152911b600282015260040190565b6040516020818303038152906040528051906020012090506040518060a00160405280836000015160ff168152602001836020015160010b8152602001836040015160010b8152602001600115158152602001876002015481525086600901600083815260200190815260200160002060008201518160000160006101000a81548160ff021916908360ff16021790555060208201518160000160016101000a81548161ffff021916908360010b61ffff16021790555060408201518160000160036101000a81548161ffff021916908360010b61ffff16021790555060608201518160000160056101000a81548160ff0219169083151502179055506080820151816001015590505085600a0181908060018154018082558091505060019003906000526020600020016000909190919091505561080b858360000151611900565b61081e8e83602001518460400151611a27565b6108289085612c7f565b93505050808061083790612c66565b915050610675565b50808260020160008282546108549190612c7f565b909155505042600583015560405133908c907f2f138c198af21768b3e95851fcf98d667c620ea08ba24c8afcead9165293c39d90610895908e908690612c92565b60405180910390a36108a78b33611b48565b600382015415806108c057508260060154826002015410155b156109195760018301805460ff1916600290811790915582015460405190815233908c907ff6ae188cc6336ef5ad970d3c81cda5814b4c4902540924c6924debe94ece13eb9060200160405180910390a3505050610926565b6109228b611cd9565b5050505b5050505050505050565b6002602052816000526040600020818154811061094c57600080fd5b90600052602060002001600091509150505481565b6001600160a01b0381166000908152600260209081526040918290208054835181840281018401909452808452606093928301828280156109c157602002820191906000526020600020905b8154815260200190600101908083116109ad575b50505050509050919050565b6109d56124e7565b816000811180156109e7575060035481105b610a035760405162461bcd60e51b815260040161037b90612bd6565b6000838152600160205260408120905b600b820154811015610a8d578382600b018281548110610a3557610a35612c3a565b60009182526020918290209181049091015460ff601f9092166101000a900416600a8110610a6557610a65612c3a565b60200201805190610a7582612cfb565b60ff1690525080610a8581612c66565b915050610a13565b50505b50919050565b60606000606060008086600081118015610ab1575060035481105b610acd5760405162461bcd60e51b815260040161037b90612bd6565b60008881526001602081815260408084206001600160a01b038c168552600701909152909120600281015460048201546005830154938301805493949093600386019260ff1691908590610b2090612d1a565b80601f0160208091040260200160405190810160405280929190818152602001828054610b4c90612d1a565b8015610b995780601f10610b6e57610100808354040283529160200191610b99565b820191906000526020600020905b815481529060010190602001808311610b7c57829003601f168201915b5050505050945082805480602002602001604051908101604052809291908181526020018280548015610c0957602002820191906000526020600020906000905b825461010083900a900460ff16815260206001928301818104948501949093039092029101808411610bda5790505b505050505092509650965096509650965050509295509295909350565b81600081118015610c38575060035481105b610c545760405162461bcd60e51b815260040161037b90612bd6565b826000806000838152600160208190526040909120015460ff166003811115610c7f57610c7f6127a8565b14610c9c5760405162461bcd60e51b815260040161037b90612c03565b6000858152600160209081526040808320338452600781019092529091206004015460ff1615610d055760405162461bcd60e51b8152602060048201526014602482015273416c726561647920696e20746869732067616d6560601b604482015260640161037b565b60018101546008820154600160a81b90910460ff1611610d565760405162461bcd60e51b815260206004820152600c60248201526b11d85b59481a5cc8199d5b1b60a21b604482015260640161037b565b6000855111610d9e5760405162461bcd60e51b8152602060048201526014602482015273141b185e595c881b985b59481c995c5d5a5c995960621b604482015260640161037b565b610da9863387611de4565b336001600160a01b0316867fa259bab503f65f6ae62d4f6a412b41b967799a284f69f21ba61362cf04e5eafa87604051610de39190612d4e565b60405180910390a360018101546008820154600160a81b90910460ff169003610e0f57610e0f86611f0d565b505050505050565b80600081118015610e29575060035481105b610e455760405162461bcd60e51b815260040161037b90612bd6565b600082815260016020819052604082209081015490919061010090046001600160a01b0316331480610eaa57506000600183015460ff166003811115610e8d57610e8d6127a8565b148015610eaa57506003820154610ea79062015180612c7f565b42115b905080610eee5760405162461bcd60e51b815260206004820152601260248201527143616e6e6f742063616e63656c2067616d6560701b604482015260640161037b565b60018201805460ff1916600317905560405184907f681705fdbd93dba3b679fd712577e9a86d57c5551c520f8c74857deb57f9623f90600090a250505050565b600080600085600081118015610f45575060035481105b610f615760405162461bcd60e51b815260040161037b90612bd6565b60405160f087811b602083015286901b602282015260009060240160408051601f19818403018152918152815160209283012060009a8b526001808452828c20918c526009909101909252909820805498015460ff600160281b8a0481169a99169890975095505050505050565b600060028560ff1610158015610fe9575060048560ff1611155b61102c5760405162461bcd60e51b8152602060048201526014602482015273125b9d985b1a59081c1b185e595c8818dbdd5b9d60621b604482015260640161037b565b6032831015801561103f57506101f48311155b6110835760405162461bcd60e51b8152602060048201526015602482015274496e76616c69642077696e6e696e672073636f726560581b604482015260640161037b565b60008251116110cb5760405162461bcd60e51b8152602060048201526014602482015273141b185e595c881b985b59481c995c5d5a5c995960621b604482015260640161037b565b60038054600091826110dc83612c66565b9091555060008181526001602081815260409283902084815580830180546001600160b01b031916336101000260ff60a81b191617600160a81b60ff8e16021760ff60b01b19169055600281019290925542600383018190556004830181905560058301805460ff19168b151517905560068301899055835180830191909152448185015260608082018690528451808303909101815260809091019093528251920191909120600c82015590915061119482611fb5565b61119f823386611de4565b60405160ff88168152339083907fdd0abcdffc76581d11646898ee4d7f269ca1e0c0b622d072d343100dad83ecb19060200160405180910390a35095945050505050565b600080600080600080600060608060008a600081118015611205575060035481105b6112215760405162461bcd60e51b815260040161037b90612bd6565b60008c8152600160205260408120600881015490919067ffffffffffffffff81111561124f5761124f6125c1565b604051908082528060200260200182016040528015611278578160200160208202803683370190505b50905060005b60088301548110156112fe578260070160008460080183815481106112a5576112a5612c3a565b60009182526020808320909101546001600160a01b0316835282019290925260400190206002015482518390839081106112e1576112e1612c3a565b6020908102919091010152806112f681612c66565b91505061127e565b506001820154600283015460038401546005850154600b8601546008870180546040805160208084028201810190925282815260ff808a16996001600160a01b0361010082041699600160a81b8204831699600160b01b9092048316989097919692169491938c93919285918301828280156113a357602002820191906000526020600020905b81546001600160a01b03168152600190910190602001808311611385575b505050505092509c509c509c509c509c509c509c509c509c509c505050509193959799509193959799565b806000811180156113e0575060035481105b6113fc5760405162461bcd60e51b815260040161037b90612bd6565b816001806000838152600160208190526040909120015460ff166003811115611427576114276127a8565b146114445760405162461bcd60e51b815260040161037b90612c03565b6000848152600160209081526040808320338452600701909152902060040154849060ff166114aa5760405162461bcd60e51b8152602060048201526012602482015271506c61796572206e6f7420696e2067616d6560701b604482015260640161037b565b600085815260016020819052604090912090810154600882018054889392339291600160b01b90910460ff169081106114e5576114e5612c3a565b6000918252602090912001546001600160a01b0316146115375760405162461bcd60e51b815260206004820152600d60248201526c2737ba103cb7bab9103a3ab93760991b604482015260640161037b565b60008781526001602090815260408083203380855260078201909352922042600590910155611567908990611b48565b61092688611cd9565b600081600a811061158057600080fd5b60209182820401919006915054906101000a900460ff1681565b806000811180156115ac575060035481105b6115c85760405162461bcd60e51b815260040161037b90612bd6565b816000806000838152600160208190526040909120015460ff1660038111156115f3576115f36127a8565b146116105760405162461bcd60e51b815260040161037b90612c03565b60008481526001602081905260409091209081015461010090046001600160a01b031633146116815760405162461bcd60e51b815260206004820152601b60248201527f4f6e6c792063726561746f722063616e2073746172742067616d650000000000604482015260640161037b565b6008810154600211156116d65760405162461bcd60e51b815260206004820152601760248201527f4e656564206174206c65617374203220706c6179657273000000000000000000604482015260640161037b565b6116df85611f0d565b5050505050565b6000805b6003840154811015611750578260ff1684600301828154811061170f5761170f612c3a565b60009182526020918290209181049091015460ff601f9092166101000a9004160361173e576001915050611756565b8061174881612c66565b9150506116ea565b50600090505b92915050565b600083815260016020908152604080832085830151868301519251919385936117969390910160f092831b8152911b600282015260040190565b60408051808303601f190181529181528151602092830120600081815260098601909352912054909150600160281b900460ff16156117da576000925050506118f9565b60005b84518110156118c557856020015160010b85828151811061180057611800612c3a565b60200260200101516020015160010b1480156118425750856040015160010b85828151811061183157611831612c3a565b60200260200101516040015160010b145b6118b357856020015160010b85828151811061186057611860612c3a565b60200260200101516020015160010b1480156118a25750856040015160010b85828151811061189157611891612c3a565b60200260200101516040015160010b145b156118b357600093505050506118f9565b806118bd81612c66565b9150506117dd565b50600a8201541580156118d9575083516001145b156118e9576001925050506118f9565b6118f48686866120c3565b925050505b9392505050565b60005b6003830154811015611a22578160ff1683600301828154811061192857611928612c3a565b60009182526020918290209181049091015460ff601f9092166101000a90041603611a105760038301805461195f90600190612d61565b8154811061196f5761196f612c3a565b90600052602060002090602091828204019190069054906101000a900460ff168360030182815481106119a4576119a4612c3a565b90600052602060002090602091828204019190066101000a81548160ff021916908360ff160217905550826003018054806119e1576119e1612d74565b60019003818190600052602060002090602091828204019190066101000a81549060ff02191690559055505050565b80611a1a81612c66565b915050611903565b505050565b600083815260016020818152604080842081516080808201845260001980835282860187905282850188905260608084018990528551928301865288835295820188905293810193909352928201849052929190845b6004811015611b3b576000838260048110611a9a57611a9a612c3a565b6020020151611aa9908a612d8a565b838360048110611abb57611abb612c3a565b6020020151611aca908a612d8a565b60405160f092831b6020820152911b602282015260240160408051808303601f190181529181528151602092830120600081815260098a01909352912054909150600160281b900460ff1615611b2857611b25600286612c7f565b94505b5080611b3381612c66565b915050611a7d565b5091979650505050505050565b60008281526001602090815260408083206001600160a01b038516845260078101909252822060038101549192909160051115611b92576003820154611b8f906005612dad565b90505b60005b8160ff168160ff16108015611bad5750600b84015415155b15611c8557600b8401805460009190611bc890600190612d61565b81548110611bd857611bd8612c3a565b90600052602060002090602091828204019190069054906101000a900460ff16905084600b01805480611c0d57611c0d612d74565b60008281526020808220600019909301818104909301805460ff601f80871661010090810a830219909316909355949095556003890180546001810182559084529282902091830490910180548685169390921690940a918202919092021990911617905581611c7c81612cfb565b92505050611b95565b60ff811615610e0f5760405160ff821681526001600160a01b0386169087907f61122678b83552d47f9ad2905cf1399b15d78b009910fc68c8782f2696b115569060200160405180910390a3505050505050565b600081815260016020819052604090912060088101548183015491929091611d0c91600160b01b90910460ff1690612dc6565b611d169190612df5565b60018201805460ff60b01b1916600160b01b60ff93841681029190911791829055900416600003611d5957600281018054906000611d5383612c66565b91905055505b42600482015560018101546008820180549091600160b01b900460ff16908110611d8557611d85612c3a565b600091825260209182902001546001830154604051600160b01b90910460ff1681526001600160a01b039091169184917fd48662f539b10425cf4a565afdaac42d9593d8216a745cefb2429c7ef043e77b910160405180910390a35050565b6000838152600160208181526040808420815160c0810183526001600160a01b03888116808352828601898152838601899052855189815280880187526060850152608084018890524260a08501529088526007840190955292909520855181546001600160a01b03191693169290921782559151919392909190820190611e6c9082612e5d565b506040820151600282015560608201518051611e92916003840191602090910190612506565b50608082015160048201805460ff191691151591909117905560a0909101516005909101556008018054600181810183556000928352602080842090920180546001600160a01b0319166001600160a01b03969096169586179055938252600281526040822080549485018155825290209091019190915550565b60008181526001602081905260408220808201805460ff1916909217909155426004820155905b6008820154811015611f8557611f7383836008018381548110611f5957611f59612c3a565b6000918252602090912001546001600160a01b0316611b48565b80611f7d81612c66565b915050611f34565b5060405182907f50ad08f58a27f2851d7e3a1b3a6a46b290f2ce677e99642d30ff639721e7779090600090a25050565b60008181526001602052604090819020815160328082526106608201909352909181602001602082028036833750508151611ff992600b8501925060200190612506565b506000805b60098160ff16116120b95760005b60008260ff16600a811061202257612022612c3a565b602081049091015460ff601f9092166101000a9004811690821610156120a6578184600b018460ff168154811061205b5761205b612c3a565b90600052602060002090602091828204019190066101000a81548160ff021916908360ff160217905550828061209090612cfb565b935050808061209e90612cfb565b91505061200c565b50806120b181612cfb565b915050611ffe565b50611a2283612345565b6000838152600160208181526040808420815160808082018452600019808352828601879052828501889052606080840189905285519283018652888352958201889052938101939093529282019390935283805b600481101561232857600084826004811061213557612135612c3a565b602002015189602001516121499190612d8a565b9050600084836004811061215f5761215f612c3a565b60200201518a604001516121739190612d8a565b60405160f084811b602083015282901b602282015290915060009060240160408051808303601f190181529181528151602092830120600081815260098c01909352908220549092508190600160281b900460ff16156121ea575050600081815260098901602052604090205460ff16600161228c565b60005b8c5181101561228a578560010b8d828151811061220c5761220c612c3a565b60200260200101516020015160010b14801561224a57508460010b8d828151811061223957612239612c3a565b60200260200101516040015160010b145b15612278578c818151811061226157612261612c3a565b60200260200101516000015192506001915061228a565b8061228281612c66565b9150506121ed565b505b8015612310578c51600197506000906122a6908490612dc6565b905060008360ff168f6000015160ff16116122cc578e516122c79085612dad565b6122d9565b8e516122d9908590612dad565b90508160ff166005141580156122f357508060ff16600514155b1561230d5760009c505050505050505050505050506118f9565b50505b5050505050808061232090612c66565b915050612118565b5080806123395750600584015460ff165b98975050505050505050565b6000818152600160205260408120600b81015490915b600a8160ff1610156124e157600c8301805460408051602080820193909352428183015260f885901b6001600160f81b03191660608201528151604181830301815260619091019091528051910120908190556000906123bc908490612f1d565b9050600083600886600c0154901c6123d49190612f1d565b90508082146124cc57600085600b0183815481106123f4576123f4612c3a565b90600052602060002090602091828204019190069054906101000a900460ff16905085600b01828154811061242b5761242b612c3a565b90600052602060002090602091828204019190069054906101000a900460ff1686600b01848154811061246057612460612c3a565b90600052602060002090602091828204019190066101000a81548160ff021916908360ff1602179055508086600b0183815481106124a0576124a0612c3a565b90600052602060002090602091828204019190066101000a81548160ff021916908360ff160217905550505b505080806124d990612cfb565b91505061235b565b50505050565b604051806101400160405280600a906020820280368337509192915050565b82805482825590600052602060002090601f0160209004810192821561259c5791602002820160005b8382111561256d57835183826101000a81548160ff021916908360ff160217905550926020019260010160208160000104928301926001030261252f565b801561259a5782816101000a81549060ff021916905560010160208160000104928301926001030261256d565b505b506125a89291506125ac565b5090565b5b808211156125a857600081556001016125ad565b634e487b7160e01b600052604160045260246000fd5b6040516060810167ffffffffffffffff811182821017156125fa576125fa6125c1565b60405290565b604051601f8201601f1916810167ffffffffffffffff81118282101715612629576126296125c1565b604052919050565b803560ff8116811461264257600080fd5b919050565b8035600181900b811461264257600080fd5b600080604080848603121561266d57600080fd5b8335925060208085013567ffffffffffffffff8082111561268d57600080fd5b818701915087601f8301126126a157600080fd5b8135818111156126b3576126b36125c1565b6126c1848260051b01612600565b8181528481019250606091820284018501918a8311156126e057600080fd5b938501935b8285101561273d5780858c0312156126fd5760008081fd5b6127056125d7565b61270e86612631565b815261271b878701612647565b8782015261272a888701612647565b81890152845293840193928501926126e5565b508096505050505050509250929050565b80356001600160a01b038116811461264257600080fd5b6000806040838503121561277857600080fd5b6127818361274e565b946020939093013593505050565b6000602082840312156127a157600080fd5b5035919050565b634e487b7160e01b600052602160045260246000fd5b600481106127dc57634e487b7160e01b600052602160045260246000fd5b9052565b8b815261016081016127f5602083018d6127be565b6001600160a01b039a909a16604082015260ff988916606082015296909716608087015260a086019490945260c085019290925260e08401521515610100830152610120820152610140015292915050565b60006020828403121561285957600080fd5b6118f98261274e565b600081518084526020808501945080840160005b8381101561289257815187529582019590820190600101612876565b509495945050505050565b6020815260006118f96020830184612862565b6101408101818360005b600a8110156128dc57815160ff168352602092830192909101906001016128ba565b50505092915050565b600080604083850312156128f857600080fd5b823591506129086020840161274e565b90509250929050565b6000815180845260005b818110156129375760208185018101518683018201520161291b565b506000602082860101526020601f19601f83011685010191505092915050565b60a08152600061296a60a0830188612911565b6020838101889052838203604085015286518083528782019282019060005b818110156129a857845160ff1683529383019391830191600101612989565b50509515156060850152505050608001529392505050565b600082601f8301126129d157600080fd5b813567ffffffffffffffff8111156129eb576129eb6125c1565b6129fe601f8201601f1916602001612600565b818152846020838601011115612a1357600080fd5b816020850160208301376000918101602001919091529392505050565b60008060408385031215612a4357600080fd5b82359150602083013567ffffffffffffffff811115612a6157600080fd5b612a6d858286016129c0565b9150509250929050565b600080600060608486031215612a8c57600080fd5b83359250612a9c60208501612647565b9150612aaa60408501612647565b90509250925092565b60008060008060808587031215612ac957600080fd5b612ad285612631565b935060208501358015158114612ae757600080fd5b925060408501359150606085013567ffffffffffffffff811115612b0a57600080fd5b612b16878288016129c0565b91505092959194509250565b6000610140808301612b34848f6127be565b602060018060a01b03808f168287015260ff8e16604087015260ff8d1660608701528b60808701528a60a087015289151560c08701528360e0870152829350885180845261016087019450828a01935060005b81811015612ba5578451831686529483019493830193600101612b87565b5050505050828103610100840152612bbd8186612862565b915050826101208301529b9a5050505050505050505050565b60208082526013908201527211d85b5948191bd95cc81b9bdd08195e1a5cdd606a1b604082015260600190565b6020808252601a908201527f47616d65206e6f7420696e206578706563746564207374617465000000000000604082015260600190565b634e487b7160e01b600052603260045260246000fd5b634e487b7160e01b600052601160045260246000fd5b600060018201612c7857612c78612c50565b5060010190565b8082018082111561175657611756612c50565b6040808252835182820181905260009190606090818501906020808901865b83811015612ce7578151805160ff16865283810151600190810b8588015290880151810b88870152948601949183019101612cb1565b505095909501959095525092949350505050565b600060ff821660ff8103612d1157612d11612c50565b60010192915050565b600181811c90821680612d2e57607f821691505b602082108103610a9057634e487b7160e01b600052602260045260246000fd5b6020815260006118f96020830184612911565b8181038181111561175657611756612c50565b634e487b7160e01b600052603160045260246000fd5b600181810b9083900b01617fff8113617fff198212171561175657611756612c50565b60ff828116828216039081111561175657611756612c50565b60ff818116838216019081111561175657611756612c50565b634e487b7160e01b600052601260045260246000fd5b600060ff831680612e0857612e08612ddf565b8060ff84160691505092915050565b601f821115611a2257600081815260208120601f850160051c81016020861015612e3e5750805b601f850160051c820191505b81811015610e0f57828155600101612e4a565b815167ffffffffffffffff811115612e7757612e776125c1565b612e8b81612e858454612d1a565b84612e17565b602080601f831160018114612ec05760008415612ea85750858301515b600019600386901b1c1916600185901b178555610e0f565b600085815260208120601f198616915b82811015612eef57888601518255948401946001909101908401612ed0565b5085821015612f0d5787850151600019600388901b60f8161c191681555b5050505050600190811b01905550565b600082612f2c57612f2c612ddf565b50069056fea26469706673582212200a62c9209acdbaf18fb6e3d48ef9449d01a171d7fa1d6cdf23708e49d5b7f22764736f6c63430008130033",
  "linkReferences": {},
  "deployedLinkReferences": {}
}